{
	"data": {
		"bytecode": {
			"linkReferences": {},
			"object": "6080604052600160005534801561001557600080fd5b5061021e806100256000396000f3fe608060405234801561001057600080fd5b506004361061004c5760003560e01c80630dbe671f14610051578063647c82f81461006f57806393afa42e1461008d578063fdab45a5146100ab575b600080fd5b6100596100c9565b604051610066919061013e565b60405180910390f35b6100776100cf565b604051610084919061013e565b60405180910390f35b6100956100e9565b6040516100a2919061013e565b60405180910390f35b6100b36100ff565b6040516100c0919061013e565b60405180910390f35b60005481565b600080600b90506002816100e39190610159565b91505090565b600060026000546100fa9190610159565b905090565b6000600260008190555060008054606f6101199190610159565b9050600054816101299190610159565b91505090565b610138816101af565b82525050565b6000602082019050610153600083018461012f565b92915050565b6000610164826101af565b915061016f836101af565b9250827fffffffffffffffffffffffffffffffffffffffffffffffffffffffffffffffff038211156101a4576101a36101b9565b5b828201905092915050565b6000819050919050565b7f4e487b7100000000000000000000000000000000000000000000000000000000600052601160045260246000fdfea26469706673582212209ae47a1a0b693c371f8045d926eb626f5d0f2fe3485c32ce0d23fdcacbe763b664736f6c63430008070033",
			"opcodes": "PUSH1 0x80 PUSH1 0x40 MSTORE PUSH1 0x1 PUSH1 0x0 SSTORE CALLVALUE DUP1 ISZERO PUSH2 0x15 JUMPI PUSH1 0x0 DUP1 REVERT JUMPDEST POP PUSH2 0x21E DUP1 PUSH2 0x25 PUSH1 0x0 CODECOPY PUSH1 0x0 RETURN INVALID PUSH1 0x80 PUSH1 0x40 MSTORE CALLVALUE DUP1 ISZERO PUSH2 0x10 JUMPI PUSH1 0x0 DUP1 REVERT JUMPDEST POP PUSH1 0x4 CALLDATASIZE LT PUSH2 0x4C JUMPI PUSH1 0x0 CALLDATALOAD PUSH1 0xE0 SHR DUP1 PUSH4 0xDBE671F EQ PUSH2 0x51 JUMPI DUP1 PUSH4 0x647C82F8 EQ PUSH2 0x6F JUMPI DUP1 PUSH4 0x93AFA42E EQ PUSH2 0x8D JUMPI DUP1 PUSH4 0xFDAB45A5 EQ PUSH2 0xAB JUMPI JUMPDEST PUSH1 0x0 DUP1 REVERT JUMPDEST PUSH2 0x59 PUSH2 0xC9 JUMP JUMPDEST PUSH1 0x40 MLOAD PUSH2 0x66 SWAP2 SWAP1 PUSH2 0x13E JUMP JUMPDEST PUSH1 0x40 MLOAD DUP1 SWAP2 SUB SWAP1 RETURN JUMPDEST PUSH2 0x77 PUSH2 0xCF JUMP JUMPDEST PUSH1 0x40 MLOAD PUSH2 0x84 SWAP2 SWAP1 PUSH2 0x13E JUMP JUMPDEST PUSH1 0x40 MLOAD DUP1 SWAP2 SUB SWAP1 RETURN JUMPDEST PUSH2 0x95 PUSH2 0xE9 JUMP JUMPDEST PUSH1 0x40 MLOAD PUSH2 0xA2 SWAP2 SWAP1 PUSH2 0x13E JUMP JUMPDEST PUSH1 0x40 MLOAD DUP1 SWAP2 SUB SWAP1 RETURN JUMPDEST PUSH2 0xB3 PUSH2 0xFF JUMP JUMPDEST PUSH1 0x40 MLOAD PUSH2 0xC0 SWAP2 SWAP1 PUSH2 0x13E JUMP JUMPDEST PUSH1 0x40 MLOAD DUP1 SWAP2 SUB SWAP1 RETURN JUMPDEST PUSH1 0x0 SLOAD DUP2 JUMP JUMPDEST PUSH1 0x0 DUP1 PUSH1 0xB SWAP1 POP PUSH1 0x2 DUP2 PUSH2 0xE3 SWAP2 SWAP1 PUSH2 0x159 JUMP JUMPDEST SWAP2 POP POP SWAP1 JUMP JUMPDEST PUSH1 0x0 PUSH1 0x2 PUSH1 0x0 SLOAD PUSH2 0xFA SWAP2 SWAP1 PUSH2 0x159 JUMP JUMPDEST SWAP1 POP SWAP1 JUMP JUMPDEST PUSH1 0x0 PUSH1 0x2 PUSH1 0x0 DUP2 SWAP1 SSTORE POP PUSH1 0x0 DUP1 SLOAD PUSH1 0x6F PUSH2 0x119 SWAP2 SWAP1 PUSH2 0x159 JUMP JUMPDEST SWAP1 POP PUSH1 0x0 SLOAD DUP2 PUSH2 0x129 SWAP2 SWAP1 PUSH2 0x159 JUMP JUMPDEST SWAP2 POP POP SWAP1 JUMP JUMPDEST PUSH2 0x138 DUP2 PUSH2 0x1AF JUMP JUMPDEST DUP3 MSTORE POP POP JUMP JUMPDEST PUSH1 0x0 PUSH1 0x20 DUP3 ADD SWAP1 POP PUSH2 0x153 PUSH1 0x0 DUP4 ADD DUP5 PUSH2 0x12F JUMP JUMPDEST SWAP3 SWAP2 POP POP JUMP JUMPDEST PUSH1 0x0 PUSH2 0x164 DUP3 PUSH2 0x1AF JUMP JUMPDEST SWAP2 POP PUSH2 0x16F DUP4 PUSH2 0x1AF JUMP JUMPDEST SWAP3 POP DUP3 PUSH32 0xFFFFFFFFFFFFFFFFFFFFFFFFFFFFFFFFFFFFFFFFFFFFFFFFFFFFFFFFFFFFFFFF SUB DUP3 GT ISZERO PUSH2 0x1A4 JUMPI PUSH2 0x1A3 PUSH2 0x1B9 JUMP JUMPDEST JUMPDEST DUP3 DUP3 ADD SWAP1 POP SWAP3 SWAP2 POP POP JUMP JUMPDEST PUSH1 0x0 DUP2 SWAP1 POP SWAP2 SWAP1 POP JUMP JUMPDEST PUSH32 0x4E487B7100000000000000000000000000000000000000000000000000000000 PUSH1 0x0 MSTORE PUSH1 0x11 PUSH1 0x4 MSTORE PUSH1 0x24 PUSH1 0x0 REVERT INVALID LOG2 PUSH5 0x6970667358 0x22 SLT KECCAK256 SWAP11 0xE4 PUSH27 0x1A0B693C371F8045D926EB626F5D0F2FE3485C32CE0D23FDCACBE7 PUSH4 0xB664736F PUSH13 0x63430008070033000000000000 "
		},
		"gasEstimates": {
			"creation": {
				"codeDepositCost": "108400",
				"executionCost": "22259",
				"totalCost": "130659"
			},
			"external": {
				"a()": "2407",
				"readA1()": "infinite",
				"readA2()": "infinite",
				"readA3()": "infinite"
			}
		},
		"methodIdentifiers": {
			"a()": "0dbe671f",
			"readA1()": "93afa42e",
			"readA2()": "647c82f8",
			"readA3()": "fdab45a5"
		}
	},
	"abi": [
		{
			"inputs": [],
			"name": "a",
			"outputs": [
				{
					"internalType": "uint256",
					"name": "",
					"type": "uint256"
				}
			],
			"stateMutability": "view",
			"type": "function"
		},
		{
			"inputs": [],
			"name": "readA1",
			"outputs": [
				{
					"internalType": "uint256",
					"name": "",
					"type": "uint256"
				}
			],
			"stateMutability": "view",
			"type": "function"
		},
		{
			"inputs": [],
			"name": "readA2",
			"outputs": [
				{
					"internalType": "uint256",
					"name": "",
					"type": "uint256"
				}
			],
			"stateMutability": "pure",
			"type": "function"
		},
		{
			"inputs": [],
			"name": "readA3",
			"outputs": [
				{
					"internalType": "uint256",
					"name": "",
					"type": "uint256"
				}
			],
			"stateMutability": "nonpayable",
			"type": "function"
		}
	]
}