{
	"lecture/lec2.sol": {
		"Lec2": {
			"abi": [
				{
					"inputs": [],
					"name": "b",
					"outputs": [
						{
							"internalType": "bool",
							"name": "",
							"type": "bool"
						}
					],
					"stateMutability": "view",
					"type": "function"
				},
				{
					"inputs": [],
					"name": "b2",
					"outputs": [
						{
							"internalType": "bool",
							"name": "",
							"type": "bool"
						}
					],
					"stateMutability": "view",
					"type": "function"
				},
				{
					"inputs": [],
					"name": "b3",
					"outputs": [
						{
							"internalType": "bool",
							"name": "",
							"type": "bool"
						}
					],
					"stateMutability": "view",
					"type": "function"
				},
				{
					"inputs": [],
					"name": "b4",
					"outputs": [
						{
							"internalType": "bool",
							"name": "",
							"type": "bool"
						}
					],
					"stateMutability": "view",
					"type": "function"
				},
				{
					"inputs": [],
					"name": "bt",
					"outputs": [
						{
							"internalType": "bytes4",
							"name": "",
							"type": "bytes4"
						}
					],
					"stateMutability": "view",
					"type": "function"
				},
				{
					"inputs": [],
					"name": "bt2",
					"outputs": [
						{
							"internalType": "bytes",
							"name": "",
							"type": "bytes"
						}
					],
					"stateMutability": "view",
					"type": "function"
				}
			],
			"devdoc": {
				"kind": "dev",
				"methods": {},
				"version": 1
			},
			"evm": {
				"assembly": "    /* \"lecture/lec2.sol\":71:290  contract Lec2 {... */\n  mstore(0x40, 0x80)\n    /* \"lecture/lec2.sol\":108:113  false */\n  0x00\n    /* \"lecture/lec2.sol\":92:113  bool public b = false */\n  dup1\n  exp(0x0100, 0x00)\n  dup2\n  sload\n  dup2\n  0xff\n  mul\n  not\n  and\n  swap1\n  dup4\n  iszero\n  iszero\n  mul\n  or\n  swap1\n  sstore\n  pop\n    /* \"lecture/lec2.sol\":138:143  false */\n  0x00\n    /* \"lecture/lec2.sol\":137:143  !false */\n  iszero\n    /* \"lecture/lec2.sol\":120:143  bool public b2 = !false */\n  0x00\n  exp(0x0100, 0x01)\n  dup2\n  sload\n  dup2\n  0xff\n  mul\n  not\n  and\n  swap1\n  dup4\n  iszero\n  iszero\n  mul\n  or\n  swap1\n  sstore\n  pop\n    /* \"lecture/lec2.sol\":167:172  false */\n  0x00\n    /* \"lecture/lec2.sol\":167:180  false || true */\n  dup1\n  tag_1\n  jumpi\n  pop\n    /* \"lecture/lec2.sol\":176:180  true */\n  0x01\n    /* \"lecture/lec2.sol\":167:180  false || true */\ntag_1:\n    /* \"lecture/lec2.sol\":150:180  bool public b3 = false || true */\n  0x00\n  exp(0x0100, 0x02)\n  dup2\n  sload\n  dup2\n  0xff\n  mul\n  not\n  and\n  swap1\n  dup4\n  iszero\n  iszero\n  mul\n  or\n  swap1\n  sstore\n  pop\n    /* \"lecture/lec2.sol\":204:209  false */\n  0x00\n    /* \"lecture/lec2.sol\":204:217  false && true */\n  dup1\n  iszero\n  tag_2\n  jumpi\n  pop\n    /* \"lecture/lec2.sol\":213:217  true */\n  0x01\n    /* \"lecture/lec2.sol\":204:217  false && true */\ntag_2:\n    /* \"lecture/lec2.sol\":187:217  bool public b4 = false && true */\n  0x00\n  exp(0x0100, 0x03)\n  dup2\n  sload\n  dup2\n  0xff\n  mul\n  not\n  and\n  swap1\n  dup4\n  iszero\n  iszero\n  mul\n  or\n  swap1\n  sstore\n  pop\n    /* \"lecture/lec2.sol\":243:253  0x12345678 */\n  0x12345678\n    /* \"lecture/lec2.sol\":224:253  bytes4 public bt = 0x12345678 */\n  0xe0\n  shl\n  0x00\n  exp(0x0100, 0x04)\n  dup2\n  sload\n  dup2\n  0xffffffff\n  mul\n  not\n  and\n  swap1\n  dup4\n  0xe0\n  shr\n  mul\n  or\n  swap1\n  sstore\n  pop\n    /* \"lecture/lec2.sol\":260:287  bytes public bt2 = \"STRING\" */\n  mload(0x40)\n  dup1\n  0x40\n  add\n  0x40\n  mstore\n  dup1\n  0x06\n  dup2\n  mstore\n  0x20\n  add\n  0x535452494e470000000000000000000000000000000000000000000000000000\n  dup2\n  mstore\n  pop\n  0x01\n  swap1\n  dup1\n  mload\n  swap1\n  0x20\n  add\n  swap1\n  tag_3\n  swap3\n  swap2\n  swap1\n  tag_4\n  jump\t// in\ntag_3:\n  pop\n    /* \"lecture/lec2.sol\":71:290  contract Lec2 {... */\n  callvalue\n  dup1\n  iszero\n  tag_5\n  jumpi\n  0x00\n  dup1\n  revert\ntag_5:\n  pop\n  jump(tag_6)\ntag_4:\n  dup3\n  dup1\n  sload\n  tag_7\n  swap1\n  tag_8\n  jump\t// in\ntag_7:\n  swap1\n  0x00\n  mstore\n  keccak256(0x00, 0x20)\n  swap1\n  0x1f\n  add\n  0x20\n  swap1\n  div\n  dup2\n  add\n  swap3\n  dup3\n  tag_10\n  jumpi\n  0x00\n  dup6\n  sstore\n  jump(tag_9)\ntag_10:\n  dup3\n  0x1f\n  lt\n  tag_11\n  jumpi\n  dup1\n  mload\n  not(0xff)\n  and\n  dup4\n  dup1\n  add\n  or\n  dup6\n  sstore\n  jump(tag_9)\ntag_11:\n  dup3\n  dup1\n  add\n  0x01\n  add\n  dup6\n  sstore\n  dup3\n  iszero\n  tag_9\n  jumpi\n  swap2\n  dup3\n  add\ntag_12:\n  dup3\n  dup2\n  gt\n  iszero\n  tag_13\n  jumpi\n  dup3\n  mload\n  dup3\n  sstore\n  swap2\n  0x20\n  add\n  swap2\n  swap1\n  0x01\n  add\n  swap1\n  jump(tag_12)\ntag_13:\ntag_9:\n  pop\n  swap1\n  pop\n  tag_14\n  swap2\n  swap1\n  tag_15\n  jump\t// in\ntag_14:\n  pop\n  swap1\n  jump\t// out\ntag_15:\ntag_16:\n  dup1\n  dup3\n  gt\n  iszero\n  tag_17\n  jumpi\n  0x00\n  dup2\n  0x00\n  swap1\n  sstore\n  pop\n  0x01\n  add\n  jump(tag_16)\ntag_17:\n  pop\n  swap1\n  jump\t// out\n    /* \"#utility.yul\":7:327   */\ntag_8:\n    /* \"#utility.yul\":51:57   */\n  0x00\n    /* \"#utility.yul\":88:89   */\n  0x02\n    /* \"#utility.yul\":82:86   */\n  dup3\n    /* \"#utility.yul\":78:90   */\n  div\n    /* \"#utility.yul\":68:90   */\n  swap1\n  pop\n    /* \"#utility.yul\":135:136   */\n  0x01\n    /* \"#utility.yul\":129:133   */\n  dup3\n    /* \"#utility.yul\":125:137   */\n  and\n    /* \"#utility.yul\":156:174   */\n  dup1\n    /* \"#utility.yul\":146:227   */\n  tag_20\n  jumpi\n    /* \"#utility.yul\":212:216   */\n  0x7f\n    /* \"#utility.yul\":204:210   */\n  dup3\n    /* \"#utility.yul\":200:217   */\n  and\n    /* \"#utility.yul\":190:217   */\n  swap2\n  pop\n    /* \"#utility.yul\":146:227   */\ntag_20:\n    /* \"#utility.yul\":274:276   */\n  0x20\n    /* \"#utility.yul\":266:272   */\n  dup3\n    /* \"#utility.yul\":263:277   */\n  lt\n    /* \"#utility.yul\":243:261   */\n  dup2\n    /* \"#utility.yul\":240:278   */\n  eq\n    /* \"#utility.yul\":237:321   */\n  iszero\n  tag_21\n  jumpi\n    /* \"#utility.yul\":293:311   */\n  tag_22\n  tag_23\n  jump\t// in\ntag_22:\n    /* \"#utility.yul\":237:321   */\ntag_21:\n    /* \"#utility.yul\":58:327   */\n  pop\n    /* \"#utility.yul\":7:327   */\n  swap2\n  swap1\n  pop\n  jump\t// out\n    /* \"#utility.yul\":333:513   */\ntag_23:\n    /* \"#utility.yul\":381:458   */\n  0x4e487b7100000000000000000000000000000000000000000000000000000000\n    /* \"#utility.yul\":378:379   */\n  0x00\n    /* \"#utility.yul\":371:459   */\n  mstore\n    /* \"#utility.yul\":478:482   */\n  0x22\n    /* \"#utility.yul\":475:476   */\n  0x04\n    /* \"#utility.yul\":468:483   */\n  mstore\n    /* \"#utility.yul\":502:506   */\n  0x24\n    /* \"#utility.yul\":499:500   */\n  0x00\n    /* \"#utility.yul\":492:507   */\n  revert\n    /* \"lecture/lec2.sol\":71:290  contract Lec2 {... */\ntag_6:\n  dataSize(sub_0)\n  dup1\n  dataOffset(sub_0)\n  0x00\n  codecopy\n  0x00\n  return\nstop\n\nsub_0: assembly {\n        /* \"lecture/lec2.sol\":71:290  contract Lec2 {... */\n      mstore(0x40, 0x80)\n      callvalue\n      dup1\n      iszero\n      tag_1\n      jumpi\n      0x00\n      dup1\n      revert\n    tag_1:\n      pop\n      jumpi(tag_2, lt(calldatasize, 0x04))\n      shr(0xe0, calldataload(0x00))\n      dup1\n      0x0add6ef2\n      eq\n      tag_3\n      jumpi\n      dup1\n      0x2c622fae\n      eq\n      tag_4\n      jumpi\n      dup1\n      0x3db3fb0a\n      eq\n      tag_5\n      jumpi\n      dup1\n      0x4df7e3d0\n      eq\n      tag_6\n      jumpi\n      dup1\n      0xac9c1959\n      eq\n      tag_7\n      jumpi\n      dup1\n      0xe9b61909\n      eq\n      tag_8\n      jumpi\n    tag_2:\n      0x00\n      dup1\n      revert\n        /* \"lecture/lec2.sol\":120:143  bool public b2 = !false */\n    tag_3:\n      tag_9\n      tag_10\n      jump\t// in\n    tag_9:\n      mload(0x40)\n      tag_11\n      swap2\n      swap1\n      tag_12\n      jump\t// in\n    tag_11:\n      mload(0x40)\n      dup1\n      swap2\n      sub\n      swap1\n      return\n        /* \"lecture/lec2.sol\":260:287  bytes public bt2 = \"STRING\" */\n    tag_4:\n      tag_13\n      tag_14\n      jump\t// in\n    tag_13:\n      mload(0x40)\n      tag_15\n      swap2\n      swap1\n      tag_16\n      jump\t// in\n    tag_15:\n      mload(0x40)\n      dup1\n      swap2\n      sub\n      swap1\n      return\n        /* \"lecture/lec2.sol\":187:217  bool public b4 = false && true */\n    tag_5:\n      tag_17\n      tag_18\n      jump\t// in\n    tag_17:\n      mload(0x40)\n      tag_19\n      swap2\n      swap1\n      tag_12\n      jump\t// in\n    tag_19:\n      mload(0x40)\n      dup1\n      swap2\n      sub\n      swap1\n      return\n        /* \"lecture/lec2.sol\":92:113  bool public b = false */\n    tag_6:\n      tag_20\n      tag_21\n      jump\t// in\n    tag_20:\n      mload(0x40)\n      tag_22\n      swap2\n      swap1\n      tag_12\n      jump\t// in\n    tag_22:\n      mload(0x40)\n      dup1\n      swap2\n      sub\n      swap1\n      return\n        /* \"lecture/lec2.sol\":224:253  bytes4 public bt = 0x12345678 */\n    tag_7:\n      tag_23\n      tag_24\n      jump\t// in\n    tag_23:\n      mload(0x40)\n      tag_25\n      swap2\n      swap1\n      tag_26\n      jump\t// in\n    tag_25:\n      mload(0x40)\n      dup1\n      swap2\n      sub\n      swap1\n      return\n        /* \"lecture/lec2.sol\":150:180  bool public b3 = false || true */\n    tag_8:\n      tag_27\n      tag_28\n      jump\t// in\n    tag_27:\n      mload(0x40)\n      tag_29\n      swap2\n      swap1\n      tag_12\n      jump\t// in\n    tag_29:\n      mload(0x40)\n      dup1\n      swap2\n      sub\n      swap1\n      return\n        /* \"lecture/lec2.sol\":120:143  bool public b2 = !false */\n    tag_10:\n      0x00\n      0x01\n      swap1\n      sload\n      swap1\n      0x0100\n      exp\n      swap1\n      div\n      0xff\n      and\n      dup2\n      jump\t// out\n        /* \"lecture/lec2.sol\":260:287  bytes public bt2 = \"STRING\" */\n    tag_14:\n      0x01\n      dup1\n      sload\n      tag_30\n      swap1\n      tag_31\n      jump\t// in\n    tag_30:\n      dup1\n      0x1f\n      add\n      0x20\n      dup1\n      swap2\n      div\n      mul\n      0x20\n      add\n      mload(0x40)\n      swap1\n      dup2\n      add\n      0x40\n      mstore\n      dup1\n      swap3\n      swap2\n      swap1\n      dup2\n      dup2\n      mstore\n      0x20\n      add\n      dup3\n      dup1\n      sload\n      tag_32\n      swap1\n      tag_31\n      jump\t// in\n    tag_32:\n      dup1\n      iszero\n      tag_33\n      jumpi\n      dup1\n      0x1f\n      lt\n      tag_34\n      jumpi\n      0x0100\n      dup1\n      dup4\n      sload\n      div\n      mul\n      dup4\n      mstore\n      swap2\n      0x20\n      add\n      swap2\n      jump(tag_33)\n    tag_34:\n      dup3\n      add\n      swap2\n      swap1\n      0x00\n      mstore\n      keccak256(0x00, 0x20)\n      swap1\n    tag_35:\n      dup2\n      sload\n      dup2\n      mstore\n      swap1\n      0x01\n      add\n      swap1\n      0x20\n      add\n      dup1\n      dup4\n      gt\n      tag_35\n      jumpi\n      dup3\n      swap1\n      sub\n      0x1f\n      and\n      dup3\n      add\n      swap2\n    tag_33:\n      pop\n      pop\n      pop\n      pop\n      pop\n      dup2\n      jump\t// out\n        /* \"lecture/lec2.sol\":187:217  bool public b4 = false && true */\n    tag_18:\n      0x00\n      0x03\n      swap1\n      sload\n      swap1\n      0x0100\n      exp\n      swap1\n      div\n      0xff\n      and\n      dup2\n      jump\t// out\n        /* \"lecture/lec2.sol\":92:113  bool public b = false */\n    tag_21:\n      0x00\n      dup1\n      sload\n      swap1\n      0x0100\n      exp\n      swap1\n      div\n      0xff\n      and\n      dup2\n      jump\t// out\n        /* \"lecture/lec2.sol\":224:253  bytes4 public bt = 0x12345678 */\n    tag_24:\n      0x00\n      0x04\n      swap1\n      sload\n      swap1\n      0x0100\n      exp\n      swap1\n      div\n      0xe0\n      shl\n      dup2\n      jump\t// out\n        /* \"lecture/lec2.sol\":150:180  bool public b3 = false || true */\n    tag_28:\n      0x00\n      0x02\n      swap1\n      sload\n      swap1\n      0x0100\n      exp\n      swap1\n      div\n      0xff\n      and\n      dup2\n      jump\t// out\n        /* \"#utility.yul\":7:116   */\n    tag_37:\n        /* \"#utility.yul\":88:109   */\n      tag_39\n        /* \"#utility.yul\":103:108   */\n      dup2\n        /* \"#utility.yul\":88:109   */\n      tag_40\n      jump\t// in\n    tag_39:\n        /* \"#utility.yul\":83:86   */\n      dup3\n        /* \"#utility.yul\":76:110   */\n      mstore\n        /* \"#utility.yul\":7:116   */\n      pop\n      pop\n      jump\t// out\n        /* \"#utility.yul\":122:237   */\n    tag_41:\n        /* \"#utility.yul\":207:230   */\n      tag_43\n        /* \"#utility.yul\":224:229   */\n      dup2\n        /* \"#utility.yul\":207:230   */\n      tag_44\n      jump\t// in\n    tag_43:\n        /* \"#utility.yul\":202:205   */\n      dup3\n        /* \"#utility.yul\":195:231   */\n      mstore\n        /* \"#utility.yul\":122:237   */\n      pop\n      pop\n      jump\t// out\n        /* \"#utility.yul\":243:603   */\n    tag_45:\n        /* \"#utility.yul\":329:332   */\n      0x00\n        /* \"#utility.yul\":357:395   */\n      tag_47\n        /* \"#utility.yul\":389:394   */\n      dup3\n        /* \"#utility.yul\":357:395   */\n      tag_48\n      jump\t// in\n    tag_47:\n        /* \"#utility.yul\":411:481   */\n      tag_49\n        /* \"#utility.yul\":474:480   */\n      dup2\n        /* \"#utility.yul\":469:472   */\n      dup6\n        /* \"#utility.yul\":411:481   */\n      tag_50\n      jump\t// in\n    tag_49:\n        /* \"#utility.yul\":404:481   */\n      swap4\n      pop\n        /* \"#utility.yul\":490:542   */\n      tag_51\n        /* \"#utility.yul\":535:541   */\n      dup2\n        /* \"#utility.yul\":530:533   */\n      dup6\n        /* \"#utility.yul\":523:527   */\n      0x20\n        /* \"#utility.yul\":516:521   */\n      dup7\n        /* \"#utility.yul\":512:528   */\n      add\n        /* \"#utility.yul\":490:542   */\n      tag_52\n      jump\t// in\n    tag_51:\n        /* \"#utility.yul\":567:596   */\n      tag_53\n        /* \"#utility.yul\":589:595   */\n      dup2\n        /* \"#utility.yul\":567:596   */\n      tag_54\n      jump\t// in\n    tag_53:\n        /* \"#utility.yul\":562:565   */\n      dup5\n        /* \"#utility.yul\":558:597   */\n      add\n        /* \"#utility.yul\":551:597   */\n      swap2\n      pop\n        /* \"#utility.yul\":333:603   */\n      pop\n        /* \"#utility.yul\":243:603   */\n      swap3\n      swap2\n      pop\n      pop\n      jump\t// out\n        /* \"#utility.yul\":609:819   */\n    tag_12:\n        /* \"#utility.yul\":696:700   */\n      0x00\n        /* \"#utility.yul\":734:736   */\n      0x20\n        /* \"#utility.yul\":723:732   */\n      dup3\n        /* \"#utility.yul\":719:737   */\n      add\n        /* \"#utility.yul\":711:737   */\n      swap1\n      pop\n        /* \"#utility.yul\":747:812   */\n      tag_56\n        /* \"#utility.yul\":809:810   */\n      0x00\n        /* \"#utility.yul\":798:807   */\n      dup4\n        /* \"#utility.yul\":794:811   */\n      add\n        /* \"#utility.yul\":785:791   */\n      dup5\n        /* \"#utility.yul\":747:812   */\n      tag_37\n      jump\t// in\n    tag_56:\n        /* \"#utility.yul\":609:819   */\n      swap3\n      swap2\n      pop\n      pop\n      jump\t// out\n        /* \"#utility.yul\":825:1043   */\n    tag_26:\n        /* \"#utility.yul\":916:920   */\n      0x00\n        /* \"#utility.yul\":954:956   */\n      0x20\n        /* \"#utility.yul\":943:952   */\n      dup3\n        /* \"#utility.yul\":939:957   */\n      add\n        /* \"#utility.yul\":931:957   */\n      swap1\n      pop\n        /* \"#utility.yul\":967:1036   */\n      tag_58\n        /* \"#utility.yul\":1033:1034   */\n      0x00\n        /* \"#utility.yul\":1022:1031   */\n      dup4\n        /* \"#utility.yul\":1018:1035   */\n      add\n        /* \"#utility.yul\":1009:1015   */\n      dup5\n        /* \"#utility.yul\":967:1036   */\n      tag_41\n      jump\t// in\n    tag_58:\n        /* \"#utility.yul\":825:1043   */\n      swap3\n      swap2\n      pop\n      pop\n      jump\t// out\n        /* \"#utility.yul\":1049:1358   */\n    tag_16:\n        /* \"#utility.yul\":1160:1164   */\n      0x00\n        /* \"#utility.yul\":1198:1200   */\n      0x20\n        /* \"#utility.yul\":1187:1196   */\n      dup3\n        /* \"#utility.yul\":1183:1201   */\n      add\n        /* \"#utility.yul\":1175:1201   */\n      swap1\n      pop\n        /* \"#utility.yul\":1247:1256   */\n      dup2\n        /* \"#utility.yul\":1241:1245   */\n      dup2\n        /* \"#utility.yul\":1237:1257   */\n      sub\n        /* \"#utility.yul\":1233:1234   */\n      0x00\n        /* \"#utility.yul\":1222:1231   */\n      dup4\n        /* \"#utility.yul\":1218:1235   */\n      add\n        /* \"#utility.yul\":1211:1258   */\n      mstore\n        /* \"#utility.yul\":1275:1351   */\n      tag_60\n        /* \"#utility.yul\":1346:1350   */\n      dup2\n        /* \"#utility.yul\":1337:1343   */\n      dup5\n        /* \"#utility.yul\":1275:1351   */\n      tag_45\n      jump\t// in\n    tag_60:\n        /* \"#utility.yul\":1267:1351   */\n      swap1\n      pop\n        /* \"#utility.yul\":1049:1358   */\n      swap3\n      swap2\n      pop\n      pop\n      jump\t// out\n        /* \"#utility.yul\":1364:1462   */\n    tag_48:\n        /* \"#utility.yul\":1415:1421   */\n      0x00\n        /* \"#utility.yul\":1449:1454   */\n      dup2\n        /* \"#utility.yul\":1443:1455   */\n      mload\n        /* \"#utility.yul\":1433:1455   */\n      swap1\n      pop\n        /* \"#utility.yul\":1364:1462   */\n      swap2\n      swap1\n      pop\n      jump\t// out\n        /* \"#utility.yul\":1468:1636   */\n    tag_50:\n        /* \"#utility.yul\":1551:1562   */\n      0x00\n        /* \"#utility.yul\":1585:1591   */\n      dup3\n        /* \"#utility.yul\":1580:1583   */\n      dup3\n        /* \"#utility.yul\":1573:1592   */\n      mstore\n        /* \"#utility.yul\":1625:1629   */\n      0x20\n        /* \"#utility.yul\":1620:1623   */\n      dup3\n        /* \"#utility.yul\":1616:1630   */\n      add\n        /* \"#utility.yul\":1601:1630   */\n      swap1\n      pop\n        /* \"#utility.yul\":1468:1636   */\n      swap3\n      swap2\n      pop\n      pop\n      jump\t// out\n        /* \"#utility.yul\":1642:1732   */\n    tag_40:\n        /* \"#utility.yul\":1676:1683   */\n      0x00\n        /* \"#utility.yul\":1719:1724   */\n      dup2\n        /* \"#utility.yul\":1712:1725   */\n      iszero\n        /* \"#utility.yul\":1705:1726   */\n      iszero\n        /* \"#utility.yul\":1694:1726   */\n      swap1\n      pop\n        /* \"#utility.yul\":1642:1732   */\n      swap2\n      swap1\n      pop\n      jump\t// out\n        /* \"#utility.yul\":1738:1887   */\n    tag_44:\n        /* \"#utility.yul\":1774:1781   */\n      0x00\n        /* \"#utility.yul\":1814:1880   */\n      0xffffffff00000000000000000000000000000000000000000000000000000000\n        /* \"#utility.yul\":1807:1812   */\n      dup3\n        /* \"#utility.yul\":1803:1881   */\n      and\n        /* \"#utility.yul\":1792:1881   */\n      swap1\n      pop\n        /* \"#utility.yul\":1738:1887   */\n      swap2\n      swap1\n      pop\n      jump\t// out\n        /* \"#utility.yul\":1893:2200   */\n    tag_52:\n        /* \"#utility.yul\":1961:1962   */\n      0x00\n        /* \"#utility.yul\":1971:2084   */\n    tag_66:\n        /* \"#utility.yul\":1985:1991   */\n      dup4\n        /* \"#utility.yul\":1982:1983   */\n      dup2\n        /* \"#utility.yul\":1979:1992   */\n      lt\n        /* \"#utility.yul\":1971:2084   */\n      iszero\n      tag_68\n      jumpi\n        /* \"#utility.yul\":2070:2071   */\n      dup1\n        /* \"#utility.yul\":2065:2068   */\n      dup3\n        /* \"#utility.yul\":2061:2072   */\n      add\n        /* \"#utility.yul\":2055:2073   */\n      mload\n        /* \"#utility.yul\":2051:2052   */\n      dup2\n        /* \"#utility.yul\":2046:2049   */\n      dup5\n        /* \"#utility.yul\":2042:2053   */\n      add\n        /* \"#utility.yul\":2035:2074   */\n      mstore\n        /* \"#utility.yul\":2007:2009   */\n      0x20\n        /* \"#utility.yul\":2004:2005   */\n      dup2\n        /* \"#utility.yul\":2000:2010   */\n      add\n        /* \"#utility.yul\":1995:2010   */\n      swap1\n      pop\n        /* \"#utility.yul\":1971:2084   */\n      jump(tag_66)\n    tag_68:\n        /* \"#utility.yul\":2102:2108   */\n      dup4\n        /* \"#utility.yul\":2099:2100   */\n      dup2\n        /* \"#utility.yul\":2096:2109   */\n      gt\n        /* \"#utility.yul\":2093:2194   */\n      iszero\n      tag_69\n      jumpi\n        /* \"#utility.yul\":2182:2183   */\n      0x00\n        /* \"#utility.yul\":2173:2179   */\n      dup5\n        /* \"#utility.yul\":2168:2171   */\n      dup5\n        /* \"#utility.yul\":2164:2180   */\n      add\n        /* \"#utility.yul\":2157:2184   */\n      mstore\n        /* \"#utility.yul\":2093:2194   */\n    tag_69:\n        /* \"#utility.yul\":1942:2200   */\n      pop\n        /* \"#utility.yul\":1893:2200   */\n      pop\n      pop\n      pop\n      jump\t// out\n        /* \"#utility.yul\":2206:2526   */\n    tag_31:\n        /* \"#utility.yul\":2250:2256   */\n      0x00\n        /* \"#utility.yul\":2287:2288   */\n      0x02\n        /* \"#utility.yul\":2281:2285   */\n      dup3\n        /* \"#utility.yul\":2277:2289   */\n      div\n        /* \"#utility.yul\":2267:2289   */\n      swap1\n      pop\n        /* \"#utility.yul\":2334:2335   */\n      0x01\n        /* \"#utility.yul\":2328:2332   */\n      dup3\n        /* \"#utility.yul\":2324:2336   */\n      and\n        /* \"#utility.yul\":2355:2373   */\n      dup1\n        /* \"#utility.yul\":2345:2426   */\n      tag_71\n      jumpi\n        /* \"#utility.yul\":2411:2415   */\n      0x7f\n        /* \"#utility.yul\":2403:2409   */\n      dup3\n        /* \"#utility.yul\":2399:2416   */\n      and\n        /* \"#utility.yul\":2389:2416   */\n      swap2\n      pop\n        /* \"#utility.yul\":2345:2426   */\n    tag_71:\n        /* \"#utility.yul\":2473:2475   */\n      0x20\n        /* \"#utility.yul\":2465:2471   */\n      dup3\n        /* \"#utility.yul\":2462:2476   */\n      lt\n        /* \"#utility.yul\":2442:2460   */\n      dup2\n        /* \"#utility.yul\":2439:2477   */\n      eq\n        /* \"#utility.yul\":2436:2520   */\n      iszero\n      tag_72\n      jumpi\n        /* \"#utility.yul\":2492:2510   */\n      tag_73\n      tag_74\n      jump\t// in\n    tag_73:\n        /* \"#utility.yul\":2436:2520   */\n    tag_72:\n        /* \"#utility.yul\":2257:2526   */\n      pop\n        /* \"#utility.yul\":2206:2526   */\n      swap2\n      swap1\n      pop\n      jump\t// out\n        /* \"#utility.yul\":2532:2712   */\n    tag_74:\n        /* \"#utility.yul\":2580:2657   */\n      0x4e487b7100000000000000000000000000000000000000000000000000000000\n        /* \"#utility.yul\":2577:2578   */\n      0x00\n        /* \"#utility.yul\":2570:2658   */\n      mstore\n        /* \"#utility.yul\":2677:2681   */\n      0x22\n        /* \"#utility.yul\":2674:2675   */\n      0x04\n        /* \"#utility.yul\":2667:2682   */\n      mstore\n        /* \"#utility.yul\":2701:2705   */\n      0x24\n        /* \"#utility.yul\":2698:2699   */\n      0x00\n        /* \"#utility.yul\":2691:2706   */\n      revert\n        /* \"#utility.yul\":2718:2820   */\n    tag_54:\n        /* \"#utility.yul\":2759:2765   */\n      0x00\n        /* \"#utility.yul\":2810:2812   */\n      0x1f\n        /* \"#utility.yul\":2806:2813   */\n      not\n        /* \"#utility.yul\":2801:2803   */\n      0x1f\n        /* \"#utility.yul\":2794:2799   */\n      dup4\n        /* \"#utility.yul\":2790:2804   */\n      add\n        /* \"#utility.yul\":2786:2814   */\n      and\n        /* \"#utility.yul\":2776:2814   */\n      swap1\n      pop\n        /* \"#utility.yul\":2718:2820   */\n      swap2\n      swap1\n      pop\n      jump\t// out\n\n    auxdata: 0xa264697066735822122048920fbf9aa3d8dc415282c51e6fc679b2f09a6492f06389e0fc1e65af638d0064736f6c63430008070033\n}\n",
				"bytecode": {
					"linkReferences": {},
					"object": "608060405260008060006101000a81548160ff021916908315150217905550600015600060016101000a81548160ff021916908315150217905550600080610045575060015b600060026101000a81548160ff0219169083151502179055506000801561006a575060015b600060036101000a81548160ff021916908315150217905550631234567860e01b600060046101000a81548163ffffffff021916908360e01c02179055506040518060400160405280600681526020017f535452494e470000000000000000000000000000000000000000000000000000815250600190805190602001906100f3929190610106565b5034801561010057600080fd5b5061020a565b828054610112906101a9565b90600052602060002090601f016020900481019282610134576000855561017b565b82601f1061014d57805160ff191683800117855561017b565b8280016001018555821561017b579182015b8281111561017a57825182559160200191906001019061015f565b5b509050610188919061018c565b5090565b5b808211156101a557600081600090555060010161018d565b5090565b600060028204905060018216806101c157607f821691505b602082108114156101d5576101d46101db565b5b50919050565b7f4e487b7100000000000000000000000000000000000000000000000000000000600052602260045260246000fd5b6103e4806102196000396000f3fe608060405234801561001057600080fd5b50600436106100625760003560e01c80630add6ef2146100675780632c622fae146100855780633db3fb0a146100a35780634df7e3d0146100c1578063ac9c1959146100df578063e9b61909146100fd575b600080fd5b61006f61011b565b60405161007c919061025d565b60405180910390f35b61008d61012e565b60405161009a9190610293565b60405180910390f35b6100ab6101bc565b6040516100b8919061025d565b60405180910390f35b6100c96101cf565b6040516100d6919061025d565b60405180910390f35b6100e76101e0565b6040516100f49190610278565b60405180910390f35b6101056101f3565b604051610112919061025d565b60405180910390f35b600060019054906101000a900460ff1681565b6001805461013b9061033c565b80601f01602080910402602001604051908101604052809291908181526020018280546101679061033c565b80156101b45780601f10610189576101008083540402835291602001916101b4565b820191906000526020600020905b81548152906001019060200180831161019757829003601f168201915b505050505081565b600060039054906101000a900460ff1681565b60008054906101000a900460ff1681565b600060049054906101000a900460e01b81565b600060029054906101000a900460ff1681565b61020f816102d1565b82525050565b61021e816102dd565b82525050565b600061022f826102b5565b61023981856102c0565b9350610249818560208601610309565b6102528161039d565b840191505092915050565b60006020820190506102726000830184610206565b92915050565b600060208201905061028d6000830184610215565b92915050565b600060208201905081810360008301526102ad8184610224565b905092915050565b600081519050919050565b600082825260208201905092915050565b60008115159050919050565b60007fffffffff0000000000000000000000000000000000000000000000000000000082169050919050565b60005b8381101561032757808201518184015260208101905061030c565b83811115610336576000848401525b50505050565b6000600282049050600182168061035457607f821691505b602082108114156103685761036761036e565b5b50919050565b7f4e487b7100000000000000000000000000000000000000000000000000000000600052602260045260246000fd5b6000601f19601f830116905091905056fea264697066735822122048920fbf9aa3d8dc415282c51e6fc679b2f09a6492f06389e0fc1e65af638d0064736f6c63430008070033",
					"opcodes": "PUSH1 0x80 PUSH1 0x40 MSTORE PUSH1 0x0 DUP1 PUSH1 0x0 PUSH2 0x100 EXP DUP2 SLOAD DUP2 PUSH1 0xFF MUL NOT AND SWAP1 DUP4 ISZERO ISZERO MUL OR SWAP1 SSTORE POP PUSH1 0x0 ISZERO PUSH1 0x0 PUSH1 0x1 PUSH2 0x100 EXP DUP2 SLOAD DUP2 PUSH1 0xFF MUL NOT AND SWAP1 DUP4 ISZERO ISZERO MUL OR SWAP1 SSTORE POP PUSH1 0x0 DUP1 PUSH2 0x45 JUMPI POP PUSH1 0x1 JUMPDEST PUSH1 0x0 PUSH1 0x2 PUSH2 0x100 EXP DUP2 SLOAD DUP2 PUSH1 0xFF MUL NOT AND SWAP1 DUP4 ISZERO ISZERO MUL OR SWAP1 SSTORE POP PUSH1 0x0 DUP1 ISZERO PUSH2 0x6A JUMPI POP PUSH1 0x1 JUMPDEST PUSH1 0x0 PUSH1 0x3 PUSH2 0x100 EXP DUP2 SLOAD DUP2 PUSH1 0xFF MUL NOT AND SWAP1 DUP4 ISZERO ISZERO MUL OR SWAP1 SSTORE POP PUSH4 0x12345678 PUSH1 0xE0 SHL PUSH1 0x0 PUSH1 0x4 PUSH2 0x100 EXP DUP2 SLOAD DUP2 PUSH4 0xFFFFFFFF MUL NOT AND SWAP1 DUP4 PUSH1 0xE0 SHR MUL OR SWAP1 SSTORE POP PUSH1 0x40 MLOAD DUP1 PUSH1 0x40 ADD PUSH1 0x40 MSTORE DUP1 PUSH1 0x6 DUP2 MSTORE PUSH1 0x20 ADD PUSH32 0x535452494E470000000000000000000000000000000000000000000000000000 DUP2 MSTORE POP PUSH1 0x1 SWAP1 DUP1 MLOAD SWAP1 PUSH1 0x20 ADD SWAP1 PUSH2 0xF3 SWAP3 SWAP2 SWAP1 PUSH2 0x106 JUMP JUMPDEST POP CALLVALUE DUP1 ISZERO PUSH2 0x100 JUMPI PUSH1 0x0 DUP1 REVERT JUMPDEST POP PUSH2 0x20A JUMP JUMPDEST DUP3 DUP1 SLOAD PUSH2 0x112 SWAP1 PUSH2 0x1A9 JUMP JUMPDEST SWAP1 PUSH1 0x0 MSTORE PUSH1 0x20 PUSH1 0x0 KECCAK256 SWAP1 PUSH1 0x1F ADD PUSH1 0x20 SWAP1 DIV DUP2 ADD SWAP3 DUP3 PUSH2 0x134 JUMPI PUSH1 0x0 DUP6 SSTORE PUSH2 0x17B JUMP JUMPDEST DUP3 PUSH1 0x1F LT PUSH2 0x14D JUMPI DUP1 MLOAD PUSH1 0xFF NOT AND DUP4 DUP1 ADD OR DUP6 SSTORE PUSH2 0x17B JUMP JUMPDEST DUP3 DUP1 ADD PUSH1 0x1 ADD DUP6 SSTORE DUP3 ISZERO PUSH2 0x17B JUMPI SWAP2 DUP3 ADD JUMPDEST DUP3 DUP2 GT ISZERO PUSH2 0x17A JUMPI DUP3 MLOAD DUP3 SSTORE SWAP2 PUSH1 0x20 ADD SWAP2 SWAP1 PUSH1 0x1 ADD SWAP1 PUSH2 0x15F JUMP JUMPDEST JUMPDEST POP SWAP1 POP PUSH2 0x188 SWAP2 SWAP1 PUSH2 0x18C JUMP JUMPDEST POP SWAP1 JUMP JUMPDEST JUMPDEST DUP1 DUP3 GT ISZERO PUSH2 0x1A5 JUMPI PUSH1 0x0 DUP2 PUSH1 0x0 SWAP1 SSTORE POP PUSH1 0x1 ADD PUSH2 0x18D JUMP JUMPDEST POP SWAP1 JUMP JUMPDEST PUSH1 0x0 PUSH1 0x2 DUP3 DIV SWAP1 POP PUSH1 0x1 DUP3 AND DUP1 PUSH2 0x1C1 JUMPI PUSH1 0x7F DUP3 AND SWAP2 POP JUMPDEST PUSH1 0x20 DUP3 LT DUP2 EQ ISZERO PUSH2 0x1D5 JUMPI PUSH2 0x1D4 PUSH2 0x1DB JUMP JUMPDEST JUMPDEST POP SWAP2 SWAP1 POP JUMP JUMPDEST PUSH32 0x4E487B7100000000000000000000000000000000000000000000000000000000 PUSH1 0x0 MSTORE PUSH1 0x22 PUSH1 0x4 MSTORE PUSH1 0x24 PUSH1 0x0 REVERT JUMPDEST PUSH2 0x3E4 DUP1 PUSH2 0x219 PUSH1 0x0 CODECOPY PUSH1 0x0 RETURN INVALID PUSH1 0x80 PUSH1 0x40 MSTORE CALLVALUE DUP1 ISZERO PUSH2 0x10 JUMPI PUSH1 0x0 DUP1 REVERT JUMPDEST POP PUSH1 0x4 CALLDATASIZE LT PUSH2 0x62 JUMPI PUSH1 0x0 CALLDATALOAD PUSH1 0xE0 SHR DUP1 PUSH4 0xADD6EF2 EQ PUSH2 0x67 JUMPI DUP1 PUSH4 0x2C622FAE EQ PUSH2 0x85 JUMPI DUP1 PUSH4 0x3DB3FB0A EQ PUSH2 0xA3 JUMPI DUP1 PUSH4 0x4DF7E3D0 EQ PUSH2 0xC1 JUMPI DUP1 PUSH4 0xAC9C1959 EQ PUSH2 0xDF JUMPI DUP1 PUSH4 0xE9B61909 EQ PUSH2 0xFD JUMPI JUMPDEST PUSH1 0x0 DUP1 REVERT JUMPDEST PUSH2 0x6F PUSH2 0x11B JUMP JUMPDEST PUSH1 0x40 MLOAD PUSH2 0x7C SWAP2 SWAP1 PUSH2 0x25D JUMP JUMPDEST PUSH1 0x40 MLOAD DUP1 SWAP2 SUB SWAP1 RETURN JUMPDEST PUSH2 0x8D PUSH2 0x12E JUMP JUMPDEST PUSH1 0x40 MLOAD PUSH2 0x9A SWAP2 SWAP1 PUSH2 0x293 JUMP JUMPDEST PUSH1 0x40 MLOAD DUP1 SWAP2 SUB SWAP1 RETURN JUMPDEST PUSH2 0xAB PUSH2 0x1BC JUMP JUMPDEST PUSH1 0x40 MLOAD PUSH2 0xB8 SWAP2 SWAP1 PUSH2 0x25D JUMP JUMPDEST PUSH1 0x40 MLOAD DUP1 SWAP2 SUB SWAP1 RETURN JUMPDEST PUSH2 0xC9 PUSH2 0x1CF JUMP JUMPDEST PUSH1 0x40 MLOAD PUSH2 0xD6 SWAP2 SWAP1 PUSH2 0x25D JUMP JUMPDEST PUSH1 0x40 MLOAD DUP1 SWAP2 SUB SWAP1 RETURN JUMPDEST PUSH2 0xE7 PUSH2 0x1E0 JUMP JUMPDEST PUSH1 0x40 MLOAD PUSH2 0xF4 SWAP2 SWAP1 PUSH2 0x278 JUMP JUMPDEST PUSH1 0x40 MLOAD DUP1 SWAP2 SUB SWAP1 RETURN JUMPDEST PUSH2 0x105 PUSH2 0x1F3 JUMP JUMPDEST PUSH1 0x40 MLOAD PUSH2 0x112 SWAP2 SWAP1 PUSH2 0x25D JUMP JUMPDEST PUSH1 0x40 MLOAD DUP1 SWAP2 SUB SWAP1 RETURN JUMPDEST PUSH1 0x0 PUSH1 0x1 SWAP1 SLOAD SWAP1 PUSH2 0x100 EXP SWAP1 DIV PUSH1 0xFF AND DUP2 JUMP JUMPDEST PUSH1 0x1 DUP1 SLOAD PUSH2 0x13B SWAP1 PUSH2 0x33C JUMP JUMPDEST DUP1 PUSH1 0x1F ADD PUSH1 0x20 DUP1 SWAP2 DIV MUL PUSH1 0x20 ADD PUSH1 0x40 MLOAD SWAP1 DUP2 ADD PUSH1 0x40 MSTORE DUP1 SWAP3 SWAP2 SWAP1 DUP2 DUP2 MSTORE PUSH1 0x20 ADD DUP3 DUP1 SLOAD PUSH2 0x167 SWAP1 PUSH2 0x33C JUMP JUMPDEST DUP1 ISZERO PUSH2 0x1B4 JUMPI DUP1 PUSH1 0x1F LT PUSH2 0x189 JUMPI PUSH2 0x100 DUP1 DUP4 SLOAD DIV MUL DUP4 MSTORE SWAP2 PUSH1 0x20 ADD SWAP2 PUSH2 0x1B4 JUMP JUMPDEST DUP3 ADD SWAP2 SWAP1 PUSH1 0x0 MSTORE PUSH1 0x20 PUSH1 0x0 KECCAK256 SWAP1 JUMPDEST DUP2 SLOAD DUP2 MSTORE SWAP1 PUSH1 0x1 ADD SWAP1 PUSH1 0x20 ADD DUP1 DUP4 GT PUSH2 0x197 JUMPI DUP3 SWAP1 SUB PUSH1 0x1F AND DUP3 ADD SWAP2 JUMPDEST POP POP POP POP POP DUP2 JUMP JUMPDEST PUSH1 0x0 PUSH1 0x3 SWAP1 SLOAD SWAP1 PUSH2 0x100 EXP SWAP1 DIV PUSH1 0xFF AND DUP2 JUMP JUMPDEST PUSH1 0x0 DUP1 SLOAD SWAP1 PUSH2 0x100 EXP SWAP1 DIV PUSH1 0xFF AND DUP2 JUMP JUMPDEST PUSH1 0x0 PUSH1 0x4 SWAP1 SLOAD SWAP1 PUSH2 0x100 EXP SWAP1 DIV PUSH1 0xE0 SHL DUP2 JUMP JUMPDEST PUSH1 0x0 PUSH1 0x2 SWAP1 SLOAD SWAP1 PUSH2 0x100 EXP SWAP1 DIV PUSH1 0xFF AND DUP2 JUMP JUMPDEST PUSH2 0x20F DUP2 PUSH2 0x2D1 JUMP JUMPDEST DUP3 MSTORE POP POP JUMP JUMPDEST PUSH2 0x21E DUP2 PUSH2 0x2DD JUMP JUMPDEST DUP3 MSTORE POP POP JUMP JUMPDEST PUSH1 0x0 PUSH2 0x22F DUP3 PUSH2 0x2B5 JUMP JUMPDEST PUSH2 0x239 DUP2 DUP6 PUSH2 0x2C0 JUMP JUMPDEST SWAP4 POP PUSH2 0x249 DUP2 DUP6 PUSH1 0x20 DUP7 ADD PUSH2 0x309 JUMP JUMPDEST PUSH2 0x252 DUP2 PUSH2 0x39D JUMP JUMPDEST DUP5 ADD SWAP2 POP POP SWAP3 SWAP2 POP POP JUMP JUMPDEST PUSH1 0x0 PUSH1 0x20 DUP3 ADD SWAP1 POP PUSH2 0x272 PUSH1 0x0 DUP4 ADD DUP5 PUSH2 0x206 JUMP JUMPDEST SWAP3 SWAP2 POP POP JUMP JUMPDEST PUSH1 0x0 PUSH1 0x20 DUP3 ADD SWAP1 POP PUSH2 0x28D PUSH1 0x0 DUP4 ADD DUP5 PUSH2 0x215 JUMP JUMPDEST SWAP3 SWAP2 POP POP JUMP JUMPDEST PUSH1 0x0 PUSH1 0x20 DUP3 ADD SWAP1 POP DUP2 DUP2 SUB PUSH1 0x0 DUP4 ADD MSTORE PUSH2 0x2AD DUP2 DUP5 PUSH2 0x224 JUMP JUMPDEST SWAP1 POP SWAP3 SWAP2 POP POP JUMP JUMPDEST PUSH1 0x0 DUP2 MLOAD SWAP1 POP SWAP2 SWAP1 POP JUMP JUMPDEST PUSH1 0x0 DUP3 DUP3 MSTORE PUSH1 0x20 DUP3 ADD SWAP1 POP SWAP3 SWAP2 POP POP JUMP JUMPDEST PUSH1 0x0 DUP2 ISZERO ISZERO SWAP1 POP SWAP2 SWAP1 POP JUMP JUMPDEST PUSH1 0x0 PUSH32 0xFFFFFFFF00000000000000000000000000000000000000000000000000000000 DUP3 AND SWAP1 POP SWAP2 SWAP1 POP JUMP JUMPDEST PUSH1 0x0 JUMPDEST DUP4 DUP2 LT ISZERO PUSH2 0x327 JUMPI DUP1 DUP3 ADD MLOAD DUP2 DUP5 ADD MSTORE PUSH1 0x20 DUP2 ADD SWAP1 POP PUSH2 0x30C JUMP JUMPDEST DUP4 DUP2 GT ISZERO PUSH2 0x336 JUMPI PUSH1 0x0 DUP5 DUP5 ADD MSTORE JUMPDEST POP POP POP POP JUMP JUMPDEST PUSH1 0x0 PUSH1 0x2 DUP3 DIV SWAP1 POP PUSH1 0x1 DUP3 AND DUP1 PUSH2 0x354 JUMPI PUSH1 0x7F DUP3 AND SWAP2 POP JUMPDEST PUSH1 0x20 DUP3 LT DUP2 EQ ISZERO PUSH2 0x368 JUMPI PUSH2 0x367 PUSH2 0x36E JUMP JUMPDEST JUMPDEST POP SWAP2 SWAP1 POP JUMP JUMPDEST PUSH32 0x4E487B7100000000000000000000000000000000000000000000000000000000 PUSH1 0x0 MSTORE PUSH1 0x22 PUSH1 0x4 MSTORE PUSH1 0x24 PUSH1 0x0 REVERT JUMPDEST PUSH1 0x0 PUSH1 0x1F NOT PUSH1 0x1F DUP4 ADD AND SWAP1 POP SWAP2 SWAP1 POP JUMP INVALID LOG2 PUSH5 0x6970667358 0x22 SLT KECCAK256 BASEFEE SWAP3 0xF 0xBF SWAP11 LOG3 0xD8 0xDC COINBASE MSTORE DUP3 0xC5 0x1E PUSH16 0xC679B2F09A6492F06389E0FC1E65AF63 DUP14 STOP PUSH5 0x736F6C6343 STOP ADDMOD SMOD STOP CALLER "
				},
				"gasEstimates": {
					"creation": {
						"codeDepositCost": "199200",
						"executionCost": "infinite",
						"totalCost": "infinite"
					},
					"external": {
						"b()": "2512",
						"b2()": "2499",
						"b3()": "2609",
						"b4()": "2543",
						"bt()": "2587",
						"bt2()": "infinite"
					}
				},
				"methodIdentifiers": {
					"b()": "4df7e3d0",
					"b2()": "0add6ef2",
					"b3()": "e9b61909",
					"b4()": "3db3fb0a",
					"bt()": "ac9c1959",
					"bt2()": "2c622fae"
				}
			},
			"storageLayout": {
				"storage": [
					{
						"astId": 4,
						"contract": "lecture/lec2.sol:Lec2",
						"label": "b",
						"offset": 0,
						"slot": "0",
						"type": "t_bool"
					},
					{
						"astId": 8,
						"contract": "lecture/lec2.sol:Lec2",
						"label": "b2",
						"offset": 1,
						"slot": "0",
						"type": "t_bool"
					},
					{
						"astId": 13,
						"contract": "lecture/lec2.sol:Lec2",
						"label": "b3",
						"offset": 2,
						"slot": "0",
						"type": "t_bool"
					},
					{
						"astId": 18,
						"contract": "lecture/lec2.sol:Lec2",
						"label": "b4",
						"offset": 3,
						"slot": "0",
						"type": "t_bool"
					},
					{
						"astId": 21,
						"contract": "lecture/lec2.sol:Lec2",
						"label": "bt",
						"offset": 4,
						"slot": "0",
						"type": "t_bytes4"
					},
					{
						"astId": 24,
						"contract": "lecture/lec2.sol:Lec2",
						"label": "bt2",
						"offset": 0,
						"slot": "1",
						"type": "t_bytes_storage"
					}
				],
				"types": {
					"t_bool": {
						"encoding": "inplace",
						"label": "bool",
						"numberOfBytes": "1"
					},
					"t_bytes4": {
						"encoding": "inplace",
						"label": "bytes4",
						"numberOfBytes": "4"
					},
					"t_bytes_storage": {
						"encoding": "bytes",
						"label": "bytes",
						"numberOfBytes": "32"
					}
				}
			},
			"userdoc": {
				"kind": "user",
				"methods": {},
				"version": 1
			}
		}
	}
}