{
	"lecture/lec3.sol": {
		"Lec3": {
			"abi": [
				{
					"inputs": [],
					"name": "value1",
					"outputs": [
						{
							"internalType": "uint256",
							"name": "",
							"type": "uint256"
						}
					],
					"stateMutability": "view",
					"type": "function"
				},
				{
					"inputs": [],
					"name": "value2",
					"outputs": [
						{
							"internalType": "uint256",
							"name": "",
							"type": "uint256"
						}
					],
					"stateMutability": "view",
					"type": "function"
				},
				{
					"inputs": [],
					"name": "value3",
					"outputs": [
						{
							"internalType": "uint256",
							"name": "",
							"type": "uint256"
						}
					],
					"stateMutability": "view",
					"type": "function"
				}
			],
			"devdoc": {
				"kind": "dev",
				"methods": {},
				"version": 1
			},
			"evm": {
				"assembly": "    /* \"lecture/lec3.sol\":71:247  contract Lec3 {... */\n  mstore(0x40, 0x80)\n    /* \"lecture/lec3.sol\":164:171  1 ether */\n  0x0de0b6b3a7640000\n    /* \"lecture/lec3.sol\":140:171  uint256 public value1 = 1 ether */\n  0x00\n  sstore\n    /* \"lecture/lec3.sol\":202:207  2 wei */\n  0x02\n    /* \"lecture/lec3.sol\":178:207  uint256 public value2 = 2 wei */\n  0x01\n  sstore\n    /* \"lecture/lec3.sol\":238:244  1 gwei */\n  0x3b9aca00\n    /* \"lecture/lec3.sol\":214:244  uint256 public value3 = 1 gwei */\n  0x02\n  sstore\n    /* \"lecture/lec3.sol\":71:247  contract Lec3 {... */\n  callvalue\n  dup1\n  iszero\n  tag_1\n  jumpi\n  0x00\n  dup1\n  revert\ntag_1:\n  pop\n  dataSize(sub_0)\n  dup1\n  dataOffset(sub_0)\n  0x00\n  codecopy\n  0x00\n  return\nstop\n\nsub_0: assembly {\n        /* \"lecture/lec3.sol\":71:247  contract Lec3 {... */\n      mstore(0x40, 0x80)\n      callvalue\n      dup1\n      iszero\n      tag_1\n      jumpi\n      0x00\n      dup1\n      revert\n    tag_1:\n      pop\n      jumpi(tag_2, lt(calldatasize, 0x04))\n      shr(0xe0, calldataload(0x00))\n      dup1\n      0x3033413b\n      eq\n      tag_3\n      jumpi\n      dup1\n      0x5d33a27f\n      eq\n      tag_4\n      jumpi\n      dup1\n      0xaef52a2c\n      eq\n      tag_5\n      jumpi\n    tag_2:\n      0x00\n      dup1\n      revert\n        /* \"lecture/lec3.sol\":140:171  uint256 public value1 = 1 ether */\n    tag_3:\n      tag_6\n      tag_7\n      jump\t// in\n    tag_6:\n      mload(0x40)\n      tag_8\n      swap2\n      swap1\n      tag_9\n      jump\t// in\n    tag_8:\n      mload(0x40)\n      dup1\n      swap2\n      sub\n      swap1\n      return\n        /* \"lecture/lec3.sol\":178:207  uint256 public value2 = 2 wei */\n    tag_4:\n      tag_10\n      tag_11\n      jump\t// in\n    tag_10:\n      mload(0x40)\n      tag_12\n      swap2\n      swap1\n      tag_9\n      jump\t// in\n    tag_12:\n      mload(0x40)\n      dup1\n      swap2\n      sub\n      swap1\n      return\n        /* \"lecture/lec3.sol\":214:244  uint256 public value3 = 1 gwei */\n    tag_5:\n      tag_13\n      tag_14\n      jump\t// in\n    tag_13:\n      mload(0x40)\n      tag_15\n      swap2\n      swap1\n      tag_9\n      jump\t// in\n    tag_15:\n      mload(0x40)\n      dup1\n      swap2\n      sub\n      swap1\n      return\n        /* \"lecture/lec3.sol\":140:171  uint256 public value1 = 1 ether */\n    tag_7:\n      sload(0x00)\n      dup2\n      jump\t// out\n        /* \"lecture/lec3.sol\":178:207  uint256 public value2 = 2 wei */\n    tag_11:\n      sload(0x01)\n      dup2\n      jump\t// out\n        /* \"lecture/lec3.sol\":214:244  uint256 public value3 = 1 gwei */\n    tag_14:\n      sload(0x02)\n      dup2\n      jump\t// out\n        /* \"#utility.yul\":7:125   */\n    tag_17:\n        /* \"#utility.yul\":94:118   */\n      tag_19\n        /* \"#utility.yul\":112:117   */\n      dup2\n        /* \"#utility.yul\":94:118   */\n      tag_20\n      jump\t// in\n    tag_19:\n        /* \"#utility.yul\":89:92   */\n      dup3\n        /* \"#utility.yul\":82:119   */\n      mstore\n        /* \"#utility.yul\":7:125   */\n      pop\n      pop\n      jump\t// out\n        /* \"#utility.yul\":131:353   */\n    tag_9:\n        /* \"#utility.yul\":224:228   */\n      0x00\n        /* \"#utility.yul\":262:264   */\n      0x20\n        /* \"#utility.yul\":251:260   */\n      dup3\n        /* \"#utility.yul\":247:265   */\n      add\n        /* \"#utility.yul\":239:265   */\n      swap1\n      pop\n        /* \"#utility.yul\":275:346   */\n      tag_22\n        /* \"#utility.yul\":343:344   */\n      0x00\n        /* \"#utility.yul\":332:341   */\n      dup4\n        /* \"#utility.yul\":328:345   */\n      add\n        /* \"#utility.yul\":319:325   */\n      dup5\n        /* \"#utility.yul\":275:346   */\n      tag_17\n      jump\t// in\n    tag_22:\n        /* \"#utility.yul\":131:353   */\n      swap3\n      swap2\n      pop\n      pop\n      jump\t// out\n        /* \"#utility.yul\":359:436   */\n    tag_20:\n        /* \"#utility.yul\":396:403   */\n      0x00\n        /* \"#utility.yul\":425:430   */\n      dup2\n        /* \"#utility.yul\":414:430   */\n      swap1\n      pop\n        /* \"#utility.yul\":359:436   */\n      swap2\n      swap1\n      pop\n      jump\t// out\n\n    auxdata: 0xa2646970667358221220093c3b83238834ead8c3bbe45cc1f64e07452f97614fe2dd73ada419d5af595f64736f6c63430008070033\n}\n",
				"bytecode": {
					"linkReferences": {},
					"object": "6080604052670de0b6b3a76400006000556002600155633b9aca0060025534801561002957600080fd5b50610107806100396000396000f3fe6080604052348015600f57600080fd5b5060043610603c5760003560e01c80633033413b1460415780635d33a27f14605b578063aef52a2c146075575b600080fd5b6047608f565b6040516052919060ae565b60405180910390f35b60616095565b604051606c919060ae565b60405180910390f35b607b609b565b6040516086919060ae565b60405180910390f35b60005481565b60015481565b60025481565b60a88160c7565b82525050565b600060208201905060c1600083018460a1565b92915050565b600081905091905056fea2646970667358221220093c3b83238834ead8c3bbe45cc1f64e07452f97614fe2dd73ada419d5af595f64736f6c63430008070033",
					"opcodes": "PUSH1 0x80 PUSH1 0x40 MSTORE PUSH8 0xDE0B6B3A7640000 PUSH1 0x0 SSTORE PUSH1 0x2 PUSH1 0x1 SSTORE PUSH4 0x3B9ACA00 PUSH1 0x2 SSTORE CALLVALUE DUP1 ISZERO PUSH2 0x29 JUMPI PUSH1 0x0 DUP1 REVERT JUMPDEST POP PUSH2 0x107 DUP1 PUSH2 0x39 PUSH1 0x0 CODECOPY PUSH1 0x0 RETURN INVALID PUSH1 0x80 PUSH1 0x40 MSTORE CALLVALUE DUP1 ISZERO PUSH1 0xF JUMPI PUSH1 0x0 DUP1 REVERT JUMPDEST POP PUSH1 0x4 CALLDATASIZE LT PUSH1 0x3C JUMPI PUSH1 0x0 CALLDATALOAD PUSH1 0xE0 SHR DUP1 PUSH4 0x3033413B EQ PUSH1 0x41 JUMPI DUP1 PUSH4 0x5D33A27F EQ PUSH1 0x5B JUMPI DUP1 PUSH4 0xAEF52A2C EQ PUSH1 0x75 JUMPI JUMPDEST PUSH1 0x0 DUP1 REVERT JUMPDEST PUSH1 0x47 PUSH1 0x8F JUMP JUMPDEST PUSH1 0x40 MLOAD PUSH1 0x52 SWAP2 SWAP1 PUSH1 0xAE JUMP JUMPDEST PUSH1 0x40 MLOAD DUP1 SWAP2 SUB SWAP1 RETURN JUMPDEST PUSH1 0x61 PUSH1 0x95 JUMP JUMPDEST PUSH1 0x40 MLOAD PUSH1 0x6C SWAP2 SWAP1 PUSH1 0xAE JUMP JUMPDEST PUSH1 0x40 MLOAD DUP1 SWAP2 SUB SWAP1 RETURN JUMPDEST PUSH1 0x7B PUSH1 0x9B JUMP JUMPDEST PUSH1 0x40 MLOAD PUSH1 0x86 SWAP2 SWAP1 PUSH1 0xAE JUMP JUMPDEST PUSH1 0x40 MLOAD DUP1 SWAP2 SUB SWAP1 RETURN JUMPDEST PUSH1 0x0 SLOAD DUP2 JUMP JUMPDEST PUSH1 0x1 SLOAD DUP2 JUMP JUMPDEST PUSH1 0x2 SLOAD DUP2 JUMP JUMPDEST PUSH1 0xA8 DUP2 PUSH1 0xC7 JUMP JUMPDEST DUP3 MSTORE POP POP JUMP JUMPDEST PUSH1 0x0 PUSH1 0x20 DUP3 ADD SWAP1 POP PUSH1 0xC1 PUSH1 0x0 DUP4 ADD DUP5 PUSH1 0xA1 JUMP JUMPDEST SWAP3 SWAP2 POP POP JUMP JUMPDEST PUSH1 0x0 DUP2 SWAP1 POP SWAP2 SWAP1 POP JUMP INVALID LOG2 PUSH5 0x6970667358 0x22 SLT KECCAK256 MULMOD EXTCODECOPY EXTCODESIZE DUP4 0x23 DUP9 CALLVALUE 0xEA 0xD8 0xC3 0xBB 0xE4 0x5C 0xC1 0xF6 0x4E SMOD GASLIMIT 0x2F SWAP8 PUSH2 0x4FE2 0xDD PUSH20 0xADA419D5AF595F64736F6C634300080700330000 "
				},
				"gasEstimates": {
					"creation": {
						"codeDepositCost": "52600",
						"executionCost": "66423",
						"totalCost": "119023"
					},
					"external": {
						"value1()": "2407",
						"value2()": "2429",
						"value3()": "2451"
					}
				},
				"methodIdentifiers": {
					"value1()": "3033413b",
					"value2()": "5d33a27f",
					"value3()": "aef52a2c"
				}
			},
			"storageLayout": {
				"storage": [
					{
						"astId": 4,
						"contract": "lecture/lec3.sol:Lec3",
						"label": "value1",
						"offset": 0,
						"slot": "0",
						"type": "t_uint256"
					},
					{
						"astId": 7,
						"contract": "lecture/lec3.sol:Lec3",
						"label": "value2",
						"offset": 0,
						"slot": "1",
						"type": "t_uint256"
					},
					{
						"astId": 10,
						"contract": "lecture/lec3.sol:Lec3",
						"label": "value3",
						"offset": 0,
						"slot": "2",
						"type": "t_uint256"
					}
				],
				"types": {
					"t_uint256": {
						"encoding": "inplace",
						"label": "uint256",
						"numberOfBytes": "32"
					}
				}
			},
			"userdoc": {
				"kind": "user",
				"methods": {},
				"version": 1
			}
		}
	}
}