{
	"lecture/lec7.sol": {
		"Lec7": {
			"abi": [
				{
					"inputs": [
						{
							"internalType": "string",
							"name": "_str",
							"type": "string"
						}
					],
					"name": "getString",
					"outputs": [
						{
							"internalType": "string",
							"name": "",
							"type": "string"
						}
					],
					"stateMutability": "pure",
					"type": "function"
				},
				{
					"inputs": [
						{
							"internalType": "uint256",
							"name": "_ui",
							"type": "uint256"
						}
					],
					"name": "getUint",
					"outputs": [
						{
							"internalType": "uint256",
							"name": "",
							"type": "uint256"
						}
					],
					"stateMutability": "pure",
					"type": "function"
				}
			],
			"devdoc": {
				"kind": "dev",
				"methods": {},
				"version": 1
			},
			"evm": {
				"assembly": "    /* \"lecture/lec7.sol\":71:789  contract Lec7 {... */\n  mstore(0x40, 0x80)\n  callvalue\n  dup1\n  iszero\n  tag_1\n  jumpi\n  0x00\n  dup1\n  revert\ntag_1:\n  pop\n  dataSize(sub_0)\n  dup1\n  dataOffset(sub_0)\n  0x00\n  codecopy\n  0x00\n  return\nstop\n\nsub_0: assembly {\n        /* \"lecture/lec7.sol\":71:789  contract Lec7 {... */\n      mstore(0x40, 0x80)\n      callvalue\n      dup1\n      iszero\n      tag_1\n      jumpi\n      0x00\n      dup1\n      revert\n    tag_1:\n      pop\n      jumpi(tag_2, lt(calldatasize, 0x04))\n      shr(0xe0, calldataload(0x00))\n      dup1\n      0x9c981fcb\n      eq\n      tag_3\n      jumpi\n      dup1\n      0xa9c70eaa\n      eq\n      tag_4\n      jumpi\n    tag_2:\n      0x00\n      dup1\n      revert\n        /* \"lecture/lec7.sol\":583:691  function getString(string memory _str) public pure returns(string memory) {... */\n    tag_3:\n      tag_5\n      0x04\n      dup1\n      calldatasize\n      sub\n      dup2\n      add\n      swap1\n      tag_6\n      swap2\n      swap1\n      tag_7\n      jump\t// in\n    tag_6:\n      tag_8\n      jump\t// in\n    tag_5:\n      mload(0x40)\n      tag_9\n      swap2\n      swap1\n      tag_10\n      jump\t// in\n    tag_9:\n      mload(0x40)\n      dup1\n      swap2\n      sub\n      swap1\n      return\n        /* \"lecture/lec7.sol\":697:783  function getUint(uint256 _ui) public pure returns(uint256) {... */\n    tag_4:\n      tag_11\n      0x04\n      dup1\n      calldatasize\n      sub\n      dup2\n      add\n      swap1\n      tag_12\n      swap2\n      swap1\n      tag_13\n      jump\t// in\n    tag_12:\n      tag_14\n      jump\t// in\n    tag_11:\n      mload(0x40)\n      tag_15\n      swap2\n      swap1\n      tag_16\n      jump\t// in\n    tag_15:\n      mload(0x40)\n      dup1\n      swap2\n      sub\n      swap1\n      return\n        /* \"lecture/lec7.sol\":583:691  function getString(string memory _str) public pure returns(string memory) {... */\n    tag_8:\n        /* \"lecture/lec7.sol\":642:655  string memory */\n      0x60\n        /* \"lecture/lec7.sol\":674:678  _str */\n      dup2\n        /* \"lecture/lec7.sol\":667:678  return _str */\n      swap1\n      pop\n        /* \"lecture/lec7.sol\":583:691  function getString(string memory _str) public pure returns(string memory) {... */\n      swap2\n      swap1\n      pop\n      jump\t// out\n        /* \"lecture/lec7.sol\":697:783  function getUint(uint256 _ui) public pure returns(uint256) {... */\n    tag_14:\n        /* \"lecture/lec7.sol\":747:754  uint256 */\n      0x00\n        /* \"lecture/lec7.sol\":773:776  _ui */\n      dup2\n        /* \"lecture/lec7.sol\":766:776  return _ui */\n      swap1\n      pop\n        /* \"lecture/lec7.sol\":697:783  function getUint(uint256 _ui) public pure returns(uint256) {... */\n      swap2\n      swap1\n      pop\n      jump\t// out\n        /* \"#utility.yul\":7:419   */\n    tag_20:\n        /* \"#utility.yul\":85:90   */\n      0x00\n        /* \"#utility.yul\":110:176   */\n      tag_22\n        /* \"#utility.yul\":126:175   */\n      tag_23\n        /* \"#utility.yul\":168:174   */\n      dup5\n        /* \"#utility.yul\":126:175   */\n      tag_24\n      jump\t// in\n    tag_23:\n        /* \"#utility.yul\":110:176   */\n      tag_25\n      jump\t// in\n    tag_22:\n        /* \"#utility.yul\":101:176   */\n      swap1\n      pop\n        /* \"#utility.yul\":199:205   */\n      dup3\n        /* \"#utility.yul\":192:197   */\n      dup2\n        /* \"#utility.yul\":185:206   */\n      mstore\n        /* \"#utility.yul\":237:241   */\n      0x20\n        /* \"#utility.yul\":230:235   */\n      dup2\n        /* \"#utility.yul\":226:242   */\n      add\n        /* \"#utility.yul\":275:278   */\n      dup5\n        /* \"#utility.yul\":266:272   */\n      dup5\n        /* \"#utility.yul\":261:264   */\n      dup5\n        /* \"#utility.yul\":257:273   */\n      add\n        /* \"#utility.yul\":254:279   */\n      gt\n        /* \"#utility.yul\":251:363   */\n      iszero\n      tag_26\n      jumpi\n        /* \"#utility.yul\":282:361   */\n      tag_27\n      tag_28\n      jump\t// in\n    tag_27:\n        /* \"#utility.yul\":251:363   */\n    tag_26:\n        /* \"#utility.yul\":372:413   */\n      tag_29\n        /* \"#utility.yul\":406:412   */\n      dup5\n        /* \"#utility.yul\":401:404   */\n      dup3\n        /* \"#utility.yul\":396:399   */\n      dup6\n        /* \"#utility.yul\":372:413   */\n      tag_30\n      jump\t// in\n    tag_29:\n        /* \"#utility.yul\":91:419   */\n      pop\n        /* \"#utility.yul\":7:419   */\n      swap4\n      swap3\n      pop\n      pop\n      pop\n      jump\t// out\n        /* \"#utility.yul\":439:779   */\n    tag_31:\n        /* \"#utility.yul\":495:500   */\n      0x00\n        /* \"#utility.yul\":544:547   */\n      dup3\n        /* \"#utility.yul\":537:541   */\n      0x1f\n        /* \"#utility.yul\":529:535   */\n      dup4\n        /* \"#utility.yul\":525:542   */\n      add\n        /* \"#utility.yul\":521:548   */\n      slt\n        /* \"#utility.yul\":511:633   */\n      tag_33\n      jumpi\n        /* \"#utility.yul\":552:631   */\n      tag_34\n      tag_35\n      jump\t// in\n    tag_34:\n        /* \"#utility.yul\":511:633   */\n    tag_33:\n        /* \"#utility.yul\":669:675   */\n      dup2\n        /* \"#utility.yul\":656:676   */\n      calldataload\n        /* \"#utility.yul\":694:773   */\n      tag_36\n        /* \"#utility.yul\":769:772   */\n      dup5\n        /* \"#utility.yul\":761:767   */\n      dup3\n        /* \"#utility.yul\":754:758   */\n      0x20\n        /* \"#utility.yul\":746:752   */\n      dup7\n        /* \"#utility.yul\":742:759   */\n      add\n        /* \"#utility.yul\":694:773   */\n      tag_20\n      jump\t// in\n    tag_36:\n        /* \"#utility.yul\":685:773   */\n      swap2\n      pop\n        /* \"#utility.yul\":501:779   */\n      pop\n        /* \"#utility.yul\":439:779   */\n      swap3\n      swap2\n      pop\n      pop\n      jump\t// out\n        /* \"#utility.yul\":785:924   */\n    tag_37:\n        /* \"#utility.yul\":831:836   */\n      0x00\n        /* \"#utility.yul\":869:875   */\n      dup2\n        /* \"#utility.yul\":856:876   */\n      calldataload\n        /* \"#utility.yul\":847:876   */\n      swap1\n      pop\n        /* \"#utility.yul\":885:918   */\n      tag_39\n        /* \"#utility.yul\":912:917   */\n      dup2\n        /* \"#utility.yul\":885:918   */\n      tag_40\n      jump\t// in\n    tag_39:\n        /* \"#utility.yul\":785:924   */\n      swap3\n      swap2\n      pop\n      pop\n      jump\t// out\n        /* \"#utility.yul\":930:1439   */\n    tag_7:\n        /* \"#utility.yul\":999:1005   */\n      0x00\n        /* \"#utility.yul\":1048:1050   */\n      0x20\n        /* \"#utility.yul\":1036:1045   */\n      dup3\n        /* \"#utility.yul\":1027:1034   */\n      dup5\n        /* \"#utility.yul\":1023:1046   */\n      sub\n        /* \"#utility.yul\":1019:1051   */\n      slt\n        /* \"#utility.yul\":1016:1135   */\n      iszero\n      tag_42\n      jumpi\n        /* \"#utility.yul\":1054:1133   */\n      tag_43\n      tag_44\n      jump\t// in\n    tag_43:\n        /* \"#utility.yul\":1016:1135   */\n    tag_42:\n        /* \"#utility.yul\":1202:1203   */\n      0x00\n        /* \"#utility.yul\":1191:1200   */\n      dup3\n        /* \"#utility.yul\":1187:1204   */\n      add\n        /* \"#utility.yul\":1174:1205   */\n      calldataload\n        /* \"#utility.yul\":1232:1250   */\n      0xffffffffffffffff\n        /* \"#utility.yul\":1224:1230   */\n      dup2\n        /* \"#utility.yul\":1221:1251   */\n      gt\n        /* \"#utility.yul\":1218:1335   */\n      iszero\n      tag_45\n      jumpi\n        /* \"#utility.yul\":1254:1333   */\n      tag_46\n      tag_47\n      jump\t// in\n    tag_46:\n        /* \"#utility.yul\":1218:1335   */\n    tag_45:\n        /* \"#utility.yul\":1359:1422   */\n      tag_48\n        /* \"#utility.yul\":1414:1421   */\n      dup5\n        /* \"#utility.yul\":1405:1411   */\n      dup3\n        /* \"#utility.yul\":1394:1403   */\n      dup6\n        /* \"#utility.yul\":1390:1412   */\n      add\n        /* \"#utility.yul\":1359:1422   */\n      tag_31\n      jump\t// in\n    tag_48:\n        /* \"#utility.yul\":1349:1422   */\n      swap2\n      pop\n        /* \"#utility.yul\":1145:1432   */\n      pop\n        /* \"#utility.yul\":930:1439   */\n      swap3\n      swap2\n      pop\n      pop\n      jump\t// out\n        /* \"#utility.yul\":1445:1774   */\n    tag_13:\n        /* \"#utility.yul\":1504:1510   */\n      0x00\n        /* \"#utility.yul\":1553:1555   */\n      0x20\n        /* \"#utility.yul\":1541:1550   */\n      dup3\n        /* \"#utility.yul\":1532:1539   */\n      dup5\n        /* \"#utility.yul\":1528:1551   */\n      sub\n        /* \"#utility.yul\":1524:1556   */\n      slt\n        /* \"#utility.yul\":1521:1640   */\n      iszero\n      tag_50\n      jumpi\n        /* \"#utility.yul\":1559:1638   */\n      tag_51\n      tag_44\n      jump\t// in\n    tag_51:\n        /* \"#utility.yul\":1521:1640   */\n    tag_50:\n        /* \"#utility.yul\":1679:1680   */\n      0x00\n        /* \"#utility.yul\":1704:1757   */\n      tag_52\n        /* \"#utility.yul\":1749:1756   */\n      dup5\n        /* \"#utility.yul\":1740:1746   */\n      dup3\n        /* \"#utility.yul\":1729:1738   */\n      dup6\n        /* \"#utility.yul\":1725:1747   */\n      add\n        /* \"#utility.yul\":1704:1757   */\n      tag_37\n      jump\t// in\n    tag_52:\n        /* \"#utility.yul\":1694:1757   */\n      swap2\n      pop\n        /* \"#utility.yul\":1650:1767   */\n      pop\n        /* \"#utility.yul\":1445:1774   */\n      swap3\n      swap2\n      pop\n      pop\n      jump\t// out\n        /* \"#utility.yul\":1780:2144   */\n    tag_53:\n        /* \"#utility.yul\":1868:1871   */\n      0x00\n        /* \"#utility.yul\":1896:1935   */\n      tag_55\n        /* \"#utility.yul\":1929:1934   */\n      dup3\n        /* \"#utility.yul\":1896:1935   */\n      tag_56\n      jump\t// in\n    tag_55:\n        /* \"#utility.yul\":1951:2022   */\n      tag_57\n        /* \"#utility.yul\":2015:2021   */\n      dup2\n        /* \"#utility.yul\":2010:2013   */\n      dup6\n        /* \"#utility.yul\":1951:2022   */\n      tag_58\n      jump\t// in\n    tag_57:\n        /* \"#utility.yul\":1944:2022   */\n      swap4\n      pop\n        /* \"#utility.yul\":2031:2083   */\n      tag_59\n        /* \"#utility.yul\":2076:2082   */\n      dup2\n        /* \"#utility.yul\":2071:2074   */\n      dup6\n        /* \"#utility.yul\":2064:2068   */\n      0x20\n        /* \"#utility.yul\":2057:2062   */\n      dup7\n        /* \"#utility.yul\":2053:2069   */\n      add\n        /* \"#utility.yul\":2031:2083   */\n      tag_60\n      jump\t// in\n    tag_59:\n        /* \"#utility.yul\":2108:2137   */\n      tag_61\n        /* \"#utility.yul\":2130:2136   */\n      dup2\n        /* \"#utility.yul\":2108:2137   */\n      tag_62\n      jump\t// in\n    tag_61:\n        /* \"#utility.yul\":2103:2106   */\n      dup5\n        /* \"#utility.yul\":2099:2138   */\n      add\n        /* \"#utility.yul\":2092:2138   */\n      swap2\n      pop\n        /* \"#utility.yul\":1872:2144   */\n      pop\n        /* \"#utility.yul\":1780:2144   */\n      swap3\n      swap2\n      pop\n      pop\n      jump\t// out\n        /* \"#utility.yul\":2150:2268   */\n    tag_63:\n        /* \"#utility.yul\":2237:2261   */\n      tag_65\n        /* \"#utility.yul\":2255:2260   */\n      dup2\n        /* \"#utility.yul\":2237:2261   */\n      tag_66\n      jump\t// in\n    tag_65:\n        /* \"#utility.yul\":2232:2235   */\n      dup3\n        /* \"#utility.yul\":2225:2262   */\n      mstore\n        /* \"#utility.yul\":2150:2268   */\n      pop\n      pop\n      jump\t// out\n        /* \"#utility.yul\":2274:2587   */\n    tag_10:\n        /* \"#utility.yul\":2387:2391   */\n      0x00\n        /* \"#utility.yul\":2425:2427   */\n      0x20\n        /* \"#utility.yul\":2414:2423   */\n      dup3\n        /* \"#utility.yul\":2410:2428   */\n      add\n        /* \"#utility.yul\":2402:2428   */\n      swap1\n      pop\n        /* \"#utility.yul\":2474:2483   */\n      dup2\n        /* \"#utility.yul\":2468:2472   */\n      dup2\n        /* \"#utility.yul\":2464:2484   */\n      sub\n        /* \"#utility.yul\":2460:2461   */\n      0x00\n        /* \"#utility.yul\":2449:2458   */\n      dup4\n        /* \"#utility.yul\":2445:2462   */\n      add\n        /* \"#utility.yul\":2438:2485   */\n      mstore\n        /* \"#utility.yul\":2502:2580   */\n      tag_68\n        /* \"#utility.yul\":2575:2579   */\n      dup2\n        /* \"#utility.yul\":2566:2572   */\n      dup5\n        /* \"#utility.yul\":2502:2580   */\n      tag_53\n      jump\t// in\n    tag_68:\n        /* \"#utility.yul\":2494:2580   */\n      swap1\n      pop\n        /* \"#utility.yul\":2274:2587   */\n      swap3\n      swap2\n      pop\n      pop\n      jump\t// out\n        /* \"#utility.yul\":2593:2815   */\n    tag_16:\n        /* \"#utility.yul\":2686:2690   */\n      0x00\n        /* \"#utility.yul\":2724:2726   */\n      0x20\n        /* \"#utility.yul\":2713:2722   */\n      dup3\n        /* \"#utility.yul\":2709:2727   */\n      add\n        /* \"#utility.yul\":2701:2727   */\n      swap1\n      pop\n        /* \"#utility.yul\":2737:2808   */\n      tag_70\n        /* \"#utility.yul\":2805:2806   */\n      0x00\n        /* \"#utility.yul\":2794:2803   */\n      dup4\n        /* \"#utility.yul\":2790:2807   */\n      add\n        /* \"#utility.yul\":2781:2787   */\n      dup5\n        /* \"#utility.yul\":2737:2808   */\n      tag_63\n      jump\t// in\n    tag_70:\n        /* \"#utility.yul\":2593:2815   */\n      swap3\n      swap2\n      pop\n      pop\n      jump\t// out\n        /* \"#utility.yul\":2821:2950   */\n    tag_25:\n        /* \"#utility.yul\":2855:2861   */\n      0x00\n        /* \"#utility.yul\":2882:2902   */\n      tag_72\n      tag_73\n      jump\t// in\n    tag_72:\n        /* \"#utility.yul\":2872:2902   */\n      swap1\n      pop\n        /* \"#utility.yul\":2911:2944   */\n      tag_74\n        /* \"#utility.yul\":2939:2943   */\n      dup3\n        /* \"#utility.yul\":2931:2937   */\n      dup3\n        /* \"#utility.yul\":2911:2944   */\n      tag_75\n      jump\t// in\n    tag_74:\n        /* \"#utility.yul\":2821:2950   */\n      swap2\n      swap1\n      pop\n      jump\t// out\n        /* \"#utility.yul\":2956:3031   */\n    tag_73:\n        /* \"#utility.yul\":2989:2995   */\n      0x00\n        /* \"#utility.yul\":3022:3024   */\n      0x40\n        /* \"#utility.yul\":3016:3025   */\n      mload\n        /* \"#utility.yul\":3006:3025   */\n      swap1\n      pop\n        /* \"#utility.yul\":2956:3031   */\n      swap1\n      jump\t// out\n        /* \"#utility.yul\":3037:3345   */\n    tag_24:\n        /* \"#utility.yul\":3099:3103   */\n      0x00\n        /* \"#utility.yul\":3189:3207   */\n      0xffffffffffffffff\n        /* \"#utility.yul\":3181:3187   */\n      dup3\n        /* \"#utility.yul\":3178:3208   */\n      gt\n        /* \"#utility.yul\":3175:3231   */\n      iszero\n      tag_78\n      jumpi\n        /* \"#utility.yul\":3211:3229   */\n      tag_79\n      tag_80\n      jump\t// in\n    tag_79:\n        /* \"#utility.yul\":3175:3231   */\n    tag_78:\n        /* \"#utility.yul\":3249:3278   */\n      tag_81\n        /* \"#utility.yul\":3271:3277   */\n      dup3\n        /* \"#utility.yul\":3249:3278   */\n      tag_62\n      jump\t// in\n    tag_81:\n        /* \"#utility.yul\":3241:3278   */\n      swap1\n      pop\n        /* \"#utility.yul\":3333:3337   */\n      0x20\n        /* \"#utility.yul\":3327:3331   */\n      dup2\n        /* \"#utility.yul\":3323:3338   */\n      add\n        /* \"#utility.yul\":3315:3338   */\n      swap1\n      pop\n        /* \"#utility.yul\":3037:3345   */\n      swap2\n      swap1\n      pop\n      jump\t// out\n        /* \"#utility.yul\":3351:3450   */\n    tag_56:\n        /* \"#utility.yul\":3403:3409   */\n      0x00\n        /* \"#utility.yul\":3437:3442   */\n      dup2\n        /* \"#utility.yul\":3431:3443   */\n      mload\n        /* \"#utility.yul\":3421:3443   */\n      swap1\n      pop\n        /* \"#utility.yul\":3351:3450   */\n      swap2\n      swap1\n      pop\n      jump\t// out\n        /* \"#utility.yul\":3456:3625   */\n    tag_58:\n        /* \"#utility.yul\":3540:3551   */\n      0x00\n        /* \"#utility.yul\":3574:3580   */\n      dup3\n        /* \"#utility.yul\":3569:3572   */\n      dup3\n        /* \"#utility.yul\":3562:3581   */\n      mstore\n        /* \"#utility.yul\":3614:3618   */\n      0x20\n        /* \"#utility.yul\":3609:3612   */\n      dup3\n        /* \"#utility.yul\":3605:3619   */\n      add\n        /* \"#utility.yul\":3590:3619   */\n      swap1\n      pop\n        /* \"#utility.yul\":3456:3625   */\n      swap3\n      swap2\n      pop\n      pop\n      jump\t// out\n        /* \"#utility.yul\":3631:3708   */\n    tag_66:\n        /* \"#utility.yul\":3668:3675   */\n      0x00\n        /* \"#utility.yul\":3697:3702   */\n      dup2\n        /* \"#utility.yul\":3686:3702   */\n      swap1\n      pop\n        /* \"#utility.yul\":3631:3708   */\n      swap2\n      swap1\n      pop\n      jump\t// out\n        /* \"#utility.yul\":3714:3868   */\n    tag_30:\n        /* \"#utility.yul\":3798:3804   */\n      dup3\n        /* \"#utility.yul\":3793:3796   */\n      dup2\n        /* \"#utility.yul\":3788:3791   */\n      dup4\n        /* \"#utility.yul\":3775:3805   */\n      calldatacopy\n        /* \"#utility.yul\":3860:3861   */\n      0x00\n        /* \"#utility.yul\":3851:3857   */\n      dup4\n        /* \"#utility.yul\":3846:3849   */\n      dup4\n        /* \"#utility.yul\":3842:3858   */\n      add\n        /* \"#utility.yul\":3835:3862   */\n      mstore\n        /* \"#utility.yul\":3714:3868   */\n      pop\n      pop\n      pop\n      jump\t// out\n        /* \"#utility.yul\":3874:4181   */\n    tag_60:\n        /* \"#utility.yul\":3942:3943   */\n      0x00\n        /* \"#utility.yul\":3952:4065   */\n    tag_87:\n        /* \"#utility.yul\":3966:3972   */\n      dup4\n        /* \"#utility.yul\":3963:3964   */\n      dup2\n        /* \"#utility.yul\":3960:3973   */\n      lt\n        /* \"#utility.yul\":3952:4065   */\n      iszero\n      tag_89\n      jumpi\n        /* \"#utility.yul\":4051:4052   */\n      dup1\n        /* \"#utility.yul\":4046:4049   */\n      dup3\n        /* \"#utility.yul\":4042:4053   */\n      add\n        /* \"#utility.yul\":4036:4054   */\n      mload\n        /* \"#utility.yul\":4032:4033   */\n      dup2\n        /* \"#utility.yul\":4027:4030   */\n      dup5\n        /* \"#utility.yul\":4023:4034   */\n      add\n        /* \"#utility.yul\":4016:4055   */\n      mstore\n        /* \"#utility.yul\":3988:3990   */\n      0x20\n        /* \"#utility.yul\":3985:3986   */\n      dup2\n        /* \"#utility.yul\":3981:3991   */\n      add\n        /* \"#utility.yul\":3976:3991   */\n      swap1\n      pop\n        /* \"#utility.yul\":3952:4065   */\n      jump(tag_87)\n    tag_89:\n        /* \"#utility.yul\":4083:4089   */\n      dup4\n        /* \"#utility.yul\":4080:4081   */\n      dup2\n        /* \"#utility.yul\":4077:4090   */\n      gt\n        /* \"#utility.yul\":4074:4175   */\n      iszero\n      tag_90\n      jumpi\n        /* \"#utility.yul\":4163:4164   */\n      0x00\n        /* \"#utility.yul\":4154:4160   */\n      dup5\n        /* \"#utility.yul\":4149:4152   */\n      dup5\n        /* \"#utility.yul\":4145:4161   */\n      add\n        /* \"#utility.yul\":4138:4165   */\n      mstore\n        /* \"#utility.yul\":4074:4175   */\n    tag_90:\n        /* \"#utility.yul\":3923:4181   */\n      pop\n        /* \"#utility.yul\":3874:4181   */\n      pop\n      pop\n      pop\n      jump\t// out\n        /* \"#utility.yul\":4187:4468   */\n    tag_75:\n        /* \"#utility.yul\":4270:4297   */\n      tag_92\n        /* \"#utility.yul\":4292:4296   */\n      dup3\n        /* \"#utility.yul\":4270:4297   */\n      tag_62\n      jump\t// in\n    tag_92:\n        /* \"#utility.yul\":4262:4268   */\n      dup2\n        /* \"#utility.yul\":4258:4298   */\n      add\n        /* \"#utility.yul\":4400:4406   */\n      dup2\n        /* \"#utility.yul\":4388:4398   */\n      dup2\n        /* \"#utility.yul\":4385:4407   */\n      lt\n        /* \"#utility.yul\":4364:4382   */\n      0xffffffffffffffff\n        /* \"#utility.yul\":4352:4362   */\n      dup3\n        /* \"#utility.yul\":4349:4383   */\n      gt\n        /* \"#utility.yul\":4346:4408   */\n      or\n        /* \"#utility.yul\":4343:4431   */\n      iszero\n      tag_93\n      jumpi\n        /* \"#utility.yul\":4411:4429   */\n      tag_94\n      tag_80\n      jump\t// in\n    tag_94:\n        /* \"#utility.yul\":4343:4431   */\n    tag_93:\n        /* \"#utility.yul\":4451:4461   */\n      dup1\n        /* \"#utility.yul\":4447:4449   */\n      0x40\n        /* \"#utility.yul\":4440:4462   */\n      mstore\n        /* \"#utility.yul\":4230:4468   */\n      pop\n        /* \"#utility.yul\":4187:4468   */\n      pop\n      pop\n      jump\t// out\n        /* \"#utility.yul\":4474:4654   */\n    tag_80:\n        /* \"#utility.yul\":4522:4599   */\n      0x4e487b7100000000000000000000000000000000000000000000000000000000\n        /* \"#utility.yul\":4519:4520   */\n      0x00\n        /* \"#utility.yul\":4512:4600   */\n      mstore\n        /* \"#utility.yul\":4619:4623   */\n      0x41\n        /* \"#utility.yul\":4616:4617   */\n      0x04\n        /* \"#utility.yul\":4609:4624   */\n      mstore\n        /* \"#utility.yul\":4643:4647   */\n      0x24\n        /* \"#utility.yul\":4640:4641   */\n      0x00\n        /* \"#utility.yul\":4633:4648   */\n      revert\n        /* \"#utility.yul\":4660:4777   */\n    tag_35:\n        /* \"#utility.yul\":4769:4770   */\n      0x00\n        /* \"#utility.yul\":4766:4767   */\n      dup1\n        /* \"#utility.yul\":4759:4771   */\n      revert\n        /* \"#utility.yul\":4783:4900   */\n    tag_28:\n        /* \"#utility.yul\":4892:4893   */\n      0x00\n        /* \"#utility.yul\":4889:4890   */\n      dup1\n        /* \"#utility.yul\":4882:4894   */\n      revert\n        /* \"#utility.yul\":4906:5023   */\n    tag_47:\n        /* \"#utility.yul\":5015:5016   */\n      0x00\n        /* \"#utility.yul\":5012:5013   */\n      dup1\n        /* \"#utility.yul\":5005:5017   */\n      revert\n        /* \"#utility.yul\":5029:5146   */\n    tag_44:\n        /* \"#utility.yul\":5138:5139   */\n      0x00\n        /* \"#utility.yul\":5135:5136   */\n      dup1\n        /* \"#utility.yul\":5128:5140   */\n      revert\n        /* \"#utility.yul\":5152:5254   */\n    tag_62:\n        /* \"#utility.yul\":5193:5199   */\n      0x00\n        /* \"#utility.yul\":5244:5246   */\n      0x1f\n        /* \"#utility.yul\":5240:5247   */\n      not\n        /* \"#utility.yul\":5235:5237   */\n      0x1f\n        /* \"#utility.yul\":5228:5233   */\n      dup4\n        /* \"#utility.yul\":5224:5238   */\n      add\n        /* \"#utility.yul\":5220:5248   */\n      and\n        /* \"#utility.yul\":5210:5248   */\n      swap1\n      pop\n        /* \"#utility.yul\":5152:5254   */\n      swap2\n      swap1\n      pop\n      jump\t// out\n        /* \"#utility.yul\":5260:5382   */\n    tag_40:\n        /* \"#utility.yul\":5333:5357   */\n      tag_102\n        /* \"#utility.yul\":5351:5356   */\n      dup2\n        /* \"#utility.yul\":5333:5357   */\n      tag_66\n      jump\t// in\n    tag_102:\n        /* \"#utility.yul\":5326:5331   */\n      dup2\n        /* \"#utility.yul\":5323:5358   */\n      eq\n        /* \"#utility.yul\":5313:5376   */\n      tag_103\n      jumpi\n        /* \"#utility.yul\":5372:5373   */\n      0x00\n        /* \"#utility.yul\":5369:5370   */\n      dup1\n        /* \"#utility.yul\":5362:5374   */\n      revert\n        /* \"#utility.yul\":5313:5376   */\n    tag_103:\n        /* \"#utility.yul\":5260:5382   */\n      pop\n      jump\t// out\n\n    auxdata: 0xa2646970667358221220b87a58ef15302968a624544f1a67b41ae0b2e8e5a27b3f80f0d5dcf8a701baba64736f6c63430008070033\n}\n",
				"bytecode": {
					"linkReferences": {},
					"object": "608060405234801561001057600080fd5b506103bf806100206000396000f3fe608060405234801561001057600080fd5b50600436106100365760003560e01c80639c981fcb1461003b578063a9c70eaa1461006b575b600080fd5b61005560048036038101906100509190610134565b61009b565b60405161006291906101f2565b60405180910390f35b6100856004803603810190610080919061017d565b6100a5565b6040516100929190610214565b60405180910390f35b6060819050919050565b6000819050919050565b60006100c26100bd84610254565b61022f565b9050828152602081018484840111156100de576100dd610352565b5b6100e98482856102ab565b509392505050565b600082601f8301126101065761010561034d565b5b81356101168482602086016100af565b91505092915050565b60008135905061012e81610372565b92915050565b60006020828403121561014a5761014961035c565b5b600082013567ffffffffffffffff81111561016857610167610357565b5b610174848285016100f1565b91505092915050565b6000602082840312156101935761019261035c565b5b60006101a18482850161011f565b91505092915050565b60006101b582610285565b6101bf8185610290565b93506101cf8185602086016102ba565b6101d881610361565b840191505092915050565b6101ec816102a1565b82525050565b6000602082019050818103600083015261020c81846101aa565b905092915050565b600060208201905061022960008301846101e3565b92915050565b600061023961024a565b905061024582826102ed565b919050565b6000604051905090565b600067ffffffffffffffff82111561026f5761026e61031e565b5b61027882610361565b9050602081019050919050565b600081519050919050565b600082825260208201905092915050565b6000819050919050565b82818337600083830152505050565b60005b838110156102d85780820151818401526020810190506102bd565b838111156102e7576000848401525b50505050565b6102f682610361565b810181811067ffffffffffffffff821117156103155761031461031e565b5b80604052505050565b7f4e487b7100000000000000000000000000000000000000000000000000000000600052604160045260246000fd5b600080fd5b600080fd5b600080fd5b600080fd5b6000601f19601f8301169050919050565b61037b816102a1565b811461038657600080fd5b5056fea2646970667358221220b87a58ef15302968a624544f1a67b41ae0b2e8e5a27b3f80f0d5dcf8a701baba64736f6c63430008070033",
					"opcodes": "PUSH1 0x80 PUSH1 0x40 MSTORE CALLVALUE DUP1 ISZERO PUSH2 0x10 JUMPI PUSH1 0x0 DUP1 REVERT JUMPDEST POP PUSH2 0x3BF DUP1 PUSH2 0x20 PUSH1 0x0 CODECOPY PUSH1 0x0 RETURN INVALID PUSH1 0x80 PUSH1 0x40 MSTORE CALLVALUE DUP1 ISZERO PUSH2 0x10 JUMPI PUSH1 0x0 DUP1 REVERT JUMPDEST POP PUSH1 0x4 CALLDATASIZE LT PUSH2 0x36 JUMPI PUSH1 0x0 CALLDATALOAD PUSH1 0xE0 SHR DUP1 PUSH4 0x9C981FCB EQ PUSH2 0x3B JUMPI DUP1 PUSH4 0xA9C70EAA EQ PUSH2 0x6B JUMPI JUMPDEST PUSH1 0x0 DUP1 REVERT JUMPDEST PUSH2 0x55 PUSH1 0x4 DUP1 CALLDATASIZE SUB DUP2 ADD SWAP1 PUSH2 0x50 SWAP2 SWAP1 PUSH2 0x134 JUMP JUMPDEST PUSH2 0x9B JUMP JUMPDEST PUSH1 0x40 MLOAD PUSH2 0x62 SWAP2 SWAP1 PUSH2 0x1F2 JUMP JUMPDEST PUSH1 0x40 MLOAD DUP1 SWAP2 SUB SWAP1 RETURN JUMPDEST PUSH2 0x85 PUSH1 0x4 DUP1 CALLDATASIZE SUB DUP2 ADD SWAP1 PUSH2 0x80 SWAP2 SWAP1 PUSH2 0x17D JUMP JUMPDEST PUSH2 0xA5 JUMP JUMPDEST PUSH1 0x40 MLOAD PUSH2 0x92 SWAP2 SWAP1 PUSH2 0x214 JUMP JUMPDEST PUSH1 0x40 MLOAD DUP1 SWAP2 SUB SWAP1 RETURN JUMPDEST PUSH1 0x60 DUP2 SWAP1 POP SWAP2 SWAP1 POP JUMP JUMPDEST PUSH1 0x0 DUP2 SWAP1 POP SWAP2 SWAP1 POP JUMP JUMPDEST PUSH1 0x0 PUSH2 0xC2 PUSH2 0xBD DUP5 PUSH2 0x254 JUMP JUMPDEST PUSH2 0x22F JUMP JUMPDEST SWAP1 POP DUP3 DUP2 MSTORE PUSH1 0x20 DUP2 ADD DUP5 DUP5 DUP5 ADD GT ISZERO PUSH2 0xDE JUMPI PUSH2 0xDD PUSH2 0x352 JUMP JUMPDEST JUMPDEST PUSH2 0xE9 DUP5 DUP3 DUP6 PUSH2 0x2AB JUMP JUMPDEST POP SWAP4 SWAP3 POP POP POP JUMP JUMPDEST PUSH1 0x0 DUP3 PUSH1 0x1F DUP4 ADD SLT PUSH2 0x106 JUMPI PUSH2 0x105 PUSH2 0x34D JUMP JUMPDEST JUMPDEST DUP2 CALLDATALOAD PUSH2 0x116 DUP5 DUP3 PUSH1 0x20 DUP7 ADD PUSH2 0xAF JUMP JUMPDEST SWAP2 POP POP SWAP3 SWAP2 POP POP JUMP JUMPDEST PUSH1 0x0 DUP2 CALLDATALOAD SWAP1 POP PUSH2 0x12E DUP2 PUSH2 0x372 JUMP JUMPDEST SWAP3 SWAP2 POP POP JUMP JUMPDEST PUSH1 0x0 PUSH1 0x20 DUP3 DUP5 SUB SLT ISZERO PUSH2 0x14A JUMPI PUSH2 0x149 PUSH2 0x35C JUMP JUMPDEST JUMPDEST PUSH1 0x0 DUP3 ADD CALLDATALOAD PUSH8 0xFFFFFFFFFFFFFFFF DUP2 GT ISZERO PUSH2 0x168 JUMPI PUSH2 0x167 PUSH2 0x357 JUMP JUMPDEST JUMPDEST PUSH2 0x174 DUP5 DUP3 DUP6 ADD PUSH2 0xF1 JUMP JUMPDEST SWAP2 POP POP SWAP3 SWAP2 POP POP JUMP JUMPDEST PUSH1 0x0 PUSH1 0x20 DUP3 DUP5 SUB SLT ISZERO PUSH2 0x193 JUMPI PUSH2 0x192 PUSH2 0x35C JUMP JUMPDEST JUMPDEST PUSH1 0x0 PUSH2 0x1A1 DUP5 DUP3 DUP6 ADD PUSH2 0x11F JUMP JUMPDEST SWAP2 POP POP SWAP3 SWAP2 POP POP JUMP JUMPDEST PUSH1 0x0 PUSH2 0x1B5 DUP3 PUSH2 0x285 JUMP JUMPDEST PUSH2 0x1BF DUP2 DUP6 PUSH2 0x290 JUMP JUMPDEST SWAP4 POP PUSH2 0x1CF DUP2 DUP6 PUSH1 0x20 DUP7 ADD PUSH2 0x2BA JUMP JUMPDEST PUSH2 0x1D8 DUP2 PUSH2 0x361 JUMP JUMPDEST DUP5 ADD SWAP2 POP POP SWAP3 SWAP2 POP POP JUMP JUMPDEST PUSH2 0x1EC DUP2 PUSH2 0x2A1 JUMP JUMPDEST DUP3 MSTORE POP POP JUMP JUMPDEST PUSH1 0x0 PUSH1 0x20 DUP3 ADD SWAP1 POP DUP2 DUP2 SUB PUSH1 0x0 DUP4 ADD MSTORE PUSH2 0x20C DUP2 DUP5 PUSH2 0x1AA JUMP JUMPDEST SWAP1 POP SWAP3 SWAP2 POP POP JUMP JUMPDEST PUSH1 0x0 PUSH1 0x20 DUP3 ADD SWAP1 POP PUSH2 0x229 PUSH1 0x0 DUP4 ADD DUP5 PUSH2 0x1E3 JUMP JUMPDEST SWAP3 SWAP2 POP POP JUMP JUMPDEST PUSH1 0x0 PUSH2 0x239 PUSH2 0x24A JUMP JUMPDEST SWAP1 POP PUSH2 0x245 DUP3 DUP3 PUSH2 0x2ED JUMP JUMPDEST SWAP2 SWAP1 POP JUMP JUMPDEST PUSH1 0x0 PUSH1 0x40 MLOAD SWAP1 POP SWAP1 JUMP JUMPDEST PUSH1 0x0 PUSH8 0xFFFFFFFFFFFFFFFF DUP3 GT ISZERO PUSH2 0x26F JUMPI PUSH2 0x26E PUSH2 0x31E JUMP JUMPDEST JUMPDEST PUSH2 0x278 DUP3 PUSH2 0x361 JUMP JUMPDEST SWAP1 POP PUSH1 0x20 DUP2 ADD SWAP1 POP SWAP2 SWAP1 POP JUMP JUMPDEST PUSH1 0x0 DUP2 MLOAD SWAP1 POP SWAP2 SWAP1 POP JUMP JUMPDEST PUSH1 0x0 DUP3 DUP3 MSTORE PUSH1 0x20 DUP3 ADD SWAP1 POP SWAP3 SWAP2 POP POP JUMP JUMPDEST PUSH1 0x0 DUP2 SWAP1 POP SWAP2 SWAP1 POP JUMP JUMPDEST DUP3 DUP2 DUP4 CALLDATACOPY PUSH1 0x0 DUP4 DUP4 ADD MSTORE POP POP POP JUMP JUMPDEST PUSH1 0x0 JUMPDEST DUP4 DUP2 LT ISZERO PUSH2 0x2D8 JUMPI DUP1 DUP3 ADD MLOAD DUP2 DUP5 ADD MSTORE PUSH1 0x20 DUP2 ADD SWAP1 POP PUSH2 0x2BD JUMP JUMPDEST DUP4 DUP2 GT ISZERO PUSH2 0x2E7 JUMPI PUSH1 0x0 DUP5 DUP5 ADD MSTORE JUMPDEST POP POP POP POP JUMP JUMPDEST PUSH2 0x2F6 DUP3 PUSH2 0x361 JUMP JUMPDEST DUP2 ADD DUP2 DUP2 LT PUSH8 0xFFFFFFFFFFFFFFFF DUP3 GT OR ISZERO PUSH2 0x315 JUMPI PUSH2 0x314 PUSH2 0x31E JUMP JUMPDEST JUMPDEST DUP1 PUSH1 0x40 MSTORE POP POP POP JUMP JUMPDEST PUSH32 0x4E487B7100000000000000000000000000000000000000000000000000000000 PUSH1 0x0 MSTORE PUSH1 0x41 PUSH1 0x4 MSTORE PUSH1 0x24 PUSH1 0x0 REVERT JUMPDEST PUSH1 0x0 DUP1 REVERT JUMPDEST PUSH1 0x0 DUP1 REVERT JUMPDEST PUSH1 0x0 DUP1 REVERT JUMPDEST PUSH1 0x0 DUP1 REVERT JUMPDEST PUSH1 0x0 PUSH1 0x1F NOT PUSH1 0x1F DUP4 ADD AND SWAP1 POP SWAP2 SWAP1 POP JUMP JUMPDEST PUSH2 0x37B DUP2 PUSH2 0x2A1 JUMP JUMPDEST DUP2 EQ PUSH2 0x386 JUMPI PUSH1 0x0 DUP1 REVERT JUMPDEST POP JUMP INVALID LOG2 PUSH5 0x6970667358 0x22 SLT KECCAK256 0xB8 PUSH27 0x58EF15302968A624544F1A67B41AE0B2E8E5A27B3F80F0D5DCF8A7 ADD 0xBA 0xBA PUSH5 0x736F6C6343 STOP ADDMOD SMOD STOP CALLER "
				},
				"gasEstimates": {
					"creation": {
						"codeDepositCost": "191800",
						"executionCost": "232",
						"totalCost": "192032"
					},
					"external": {
						"getString(string)": "infinite",
						"getUint(uint256)": "infinite"
					}
				},
				"methodIdentifiers": {
					"getString(string)": "9c981fcb",
					"getUint(uint256)": "a9c70eaa"
				}
			},
			"storageLayout": {
				"storage": [],
				"types": null
			},
			"userdoc": {
				"kind": "user",
				"methods": {},
				"version": 1
			}
		}
	}
}