{
	"lecture/lec2.sol": {
		"Lec2": {
			"abi": [
				{
					"inputs": [],
					"name": "addr",
					"outputs": [
						{
							"internalType": "address",
							"name": "",
							"type": "address"
						}
					],
					"stateMutability": "view",
					"type": "function"
				},
				{
					"inputs": [],
					"name": "b",
					"outputs": [
						{
							"internalType": "bool",
							"name": "",
							"type": "bool"
						}
					],
					"stateMutability": "view",
					"type": "function"
				},
				{
					"inputs": [],
					"name": "b2",
					"outputs": [
						{
							"internalType": "bool",
							"name": "",
							"type": "bool"
						}
					],
					"stateMutability": "view",
					"type": "function"
				},
				{
					"inputs": [],
					"name": "b3",
					"outputs": [
						{
							"internalType": "bool",
							"name": "",
							"type": "bool"
						}
					],
					"stateMutability": "view",
					"type": "function"
				},
				{
					"inputs": [],
					"name": "b4",
					"outputs": [
						{
							"internalType": "bool",
							"name": "",
							"type": "bool"
						}
					],
					"stateMutability": "view",
					"type": "function"
				},
				{
					"inputs": [],
					"name": "bt",
					"outputs": [
						{
							"internalType": "bytes4",
							"name": "",
							"type": "bytes4"
						}
					],
					"stateMutability": "view",
					"type": "function"
				},
				{
					"inputs": [],
					"name": "bt2",
					"outputs": [
						{
							"internalType": "bytes",
							"name": "",
							"type": "bytes"
						}
					],
					"stateMutability": "view",
					"type": "function"
				},
				{
					"inputs": [],
					"name": "it",
					"outputs": [
						{
							"internalType": "int8",
							"name": "",
							"type": "int8"
						}
					],
					"stateMutability": "view",
					"type": "function"
				},
				{
					"inputs": [],
					"name": "uit",
					"outputs": [
						{
							"internalType": "uint256",
							"name": "",
							"type": "uint256"
						}
					],
					"stateMutability": "view",
					"type": "function"
				}
			],
			"devdoc": {
				"kind": "dev",
				"methods": {},
				"version": 1
			},
			"evm": {
				"assembly": "    /* \"lecture/lec2.sol\":71:417  contract Lec2 {... */\n  mstore(0x40, 0x80)\n    /* \"lecture/lec2.sol\":108:113  false */\n  0x00\n    /* \"lecture/lec2.sol\":92:113  bool public b = false */\n  dup1\n  exp(0x0100, 0x00)\n  dup2\n  sload\n  dup2\n  0xff\n  mul\n  not\n  and\n  swap1\n  dup4\n  iszero\n  iszero\n  mul\n  or\n  swap1\n  sstore\n  pop\n    /* \"lecture/lec2.sol\":138:143  false */\n  0x00\n    /* \"lecture/lec2.sol\":137:143  !false */\n  iszero\n    /* \"lecture/lec2.sol\":120:143  bool public b2 = !false */\n  0x00\n  exp(0x0100, 0x01)\n  dup2\n  sload\n  dup2\n  0xff\n  mul\n  not\n  and\n  swap1\n  dup4\n  iszero\n  iszero\n  mul\n  or\n  swap1\n  sstore\n  pop\n    /* \"lecture/lec2.sol\":167:172  false */\n  0x00\n    /* \"lecture/lec2.sol\":167:180  false || true */\n  dup1\n  tag_1\n  jumpi\n  pop\n    /* \"lecture/lec2.sol\":176:180  true */\n  0x01\n    /* \"lecture/lec2.sol\":167:180  false || true */\ntag_1:\n    /* \"lecture/lec2.sol\":150:180  bool public b3 = false || true */\n  0x00\n  exp(0x0100, 0x02)\n  dup2\n  sload\n  dup2\n  0xff\n  mul\n  not\n  and\n  swap1\n  dup4\n  iszero\n  iszero\n  mul\n  or\n  swap1\n  sstore\n  pop\n    /* \"lecture/lec2.sol\":204:209  false */\n  0x00\n    /* \"lecture/lec2.sol\":204:217  false && true */\n  dup1\n  iszero\n  tag_2\n  jumpi\n  pop\n    /* \"lecture/lec2.sol\":213:217  true */\n  0x01\n    /* \"lecture/lec2.sol\":204:217  false && true */\ntag_2:\n    /* \"lecture/lec2.sol\":187:217  bool public b4 = false && true */\n  0x00\n  exp(0x0100, 0x03)\n  dup2\n  sload\n  dup2\n  0xff\n  mul\n  not\n  and\n  swap1\n  dup4\n  iszero\n  iszero\n  mul\n  or\n  swap1\n  sstore\n  pop\n    /* \"lecture/lec2.sol\":243:253  0x12345678 */\n  0x12345678\n    /* \"lecture/lec2.sol\":224:253  bytes4 public bt = 0x12345678 */\n  0xe0\n  shl\n  0x00\n  exp(0x0100, 0x04)\n  dup2\n  sload\n  dup2\n  0xffffffff\n  mul\n  not\n  and\n  swap1\n  dup4\n  0xe0\n  shr\n  mul\n  or\n  swap1\n  sstore\n  pop\n    /* \"lecture/lec2.sol\":260:287  bytes public bt2 = \"STRING\" */\n  mload(0x40)\n  dup1\n  0x40\n  add\n  0x40\n  mstore\n  dup1\n  0x06\n  dup2\n  mstore\n  0x20\n  add\n  0x535452494e470000000000000000000000000000000000000000000000000000\n  dup2\n  mstore\n  pop\n  0x01\n  swap1\n  dup1\n  mload\n  swap1\n  0x20\n  add\n  swap1\n  tag_3\n  swap3\n  swap2\n  swap1\n  tag_4\n  jump\t// in\ntag_3:\n  pop\n    /* \"lecture/lec2.sol\":316:358  0x1234567890123456789012345678901234567890 */\n  0x1234567890123456789012345678901234567890\n    /* \"lecture/lec2.sol\":294:358  address public addr = 0x1234567890123456789012345678901234567890 */\n  0x02\n  exp(0x0100, 0x00)\n  dup2\n  sload\n  dup2\n  0xffffffffffffffffffffffffffffffffffffffff\n  mul\n  not\n  and\n  swap1\n  dup4\n  0xffffffffffffffffffffffffffffffffffffffff\n  and\n  mul\n  or\n  swap1\n  sstore\n  pop\n    /* \"lecture/lec2.sol\":382:383  4 */\n  0x04\n    /* \"lecture/lec2.sol\":365:383  int8 public it = 4 */\n  0x02\n  exp(0x0100, 0x14)\n  dup2\n  sload\n  dup2\n  0xff\n  mul\n  not\n  and\n  swap1\n  dup4\n  0x00\n  signextend\n  0xff\n  and\n  mul\n  or\n  swap1\n  sstore\n  pop\n    /* \"lecture/lec2.sol\":411:414  111 */\n  0x6f\n    /* \"lecture/lec2.sol\":390:414  uint256 public uit = 111 */\n  0x03\n  sstore\n    /* \"lecture/lec2.sol\":71:417  contract Lec2 {... */\n  callvalue\n  dup1\n  iszero\n  tag_5\n  jumpi\n  0x00\n  dup1\n  revert\ntag_5:\n  pop\n  jump(tag_6)\ntag_4:\n  dup3\n  dup1\n  sload\n  tag_7\n  swap1\n  tag_8\n  jump\t// in\ntag_7:\n  swap1\n  0x00\n  mstore\n  keccak256(0x00, 0x20)\n  swap1\n  0x1f\n  add\n  0x20\n  swap1\n  div\n  dup2\n  add\n  swap3\n  dup3\n  tag_10\n  jumpi\n  0x00\n  dup6\n  sstore\n  jump(tag_9)\ntag_10:\n  dup3\n  0x1f\n  lt\n  tag_11\n  jumpi\n  dup1\n  mload\n  not(0xff)\n  and\n  dup4\n  dup1\n  add\n  or\n  dup6\n  sstore\n  jump(tag_9)\ntag_11:\n  dup3\n  dup1\n  add\n  0x01\n  add\n  dup6\n  sstore\n  dup3\n  iszero\n  tag_9\n  jumpi\n  swap2\n  dup3\n  add\ntag_12:\n  dup3\n  dup2\n  gt\n  iszero\n  tag_13\n  jumpi\n  dup3\n  mload\n  dup3\n  sstore\n  swap2\n  0x20\n  add\n  swap2\n  swap1\n  0x01\n  add\n  swap1\n  jump(tag_12)\ntag_13:\ntag_9:\n  pop\n  swap1\n  pop\n  tag_14\n  swap2\n  swap1\n  tag_15\n  jump\t// in\ntag_14:\n  pop\n  swap1\n  jump\t// out\ntag_15:\ntag_16:\n  dup1\n  dup3\n  gt\n  iszero\n  tag_17\n  jumpi\n  0x00\n  dup2\n  0x00\n  swap1\n  sstore\n  pop\n  0x01\n  add\n  jump(tag_16)\ntag_17:\n  pop\n  swap1\n  jump\t// out\n    /* \"#utility.yul\":7:327   */\ntag_8:\n    /* \"#utility.yul\":51:57   */\n  0x00\n    /* \"#utility.yul\":88:89   */\n  0x02\n    /* \"#utility.yul\":82:86   */\n  dup3\n    /* \"#utility.yul\":78:90   */\n  div\n    /* \"#utility.yul\":68:90   */\n  swap1\n  pop\n    /* \"#utility.yul\":135:136   */\n  0x01\n    /* \"#utility.yul\":129:133   */\n  dup3\n    /* \"#utility.yul\":125:137   */\n  and\n    /* \"#utility.yul\":156:174   */\n  dup1\n    /* \"#utility.yul\":146:227   */\n  tag_20\n  jumpi\n    /* \"#utility.yul\":212:216   */\n  0x7f\n    /* \"#utility.yul\":204:210   */\n  dup3\n    /* \"#utility.yul\":200:217   */\n  and\n    /* \"#utility.yul\":190:217   */\n  swap2\n  pop\n    /* \"#utility.yul\":146:227   */\ntag_20:\n    /* \"#utility.yul\":274:276   */\n  0x20\n    /* \"#utility.yul\":266:272   */\n  dup3\n    /* \"#utility.yul\":263:277   */\n  lt\n    /* \"#utility.yul\":243:261   */\n  dup2\n    /* \"#utility.yul\":240:278   */\n  eq\n    /* \"#utility.yul\":237:321   */\n  iszero\n  tag_21\n  jumpi\n    /* \"#utility.yul\":293:311   */\n  tag_22\n  tag_23\n  jump\t// in\ntag_22:\n    /* \"#utility.yul\":237:321   */\ntag_21:\n    /* \"#utility.yul\":58:327   */\n  pop\n    /* \"#utility.yul\":7:327   */\n  swap2\n  swap1\n  pop\n  jump\t// out\n    /* \"#utility.yul\":333:513   */\ntag_23:\n    /* \"#utility.yul\":381:458   */\n  0x4e487b7100000000000000000000000000000000000000000000000000000000\n    /* \"#utility.yul\":378:379   */\n  0x00\n    /* \"#utility.yul\":371:459   */\n  mstore\n    /* \"#utility.yul\":478:482   */\n  0x22\n    /* \"#utility.yul\":475:476   */\n  0x04\n    /* \"#utility.yul\":468:483   */\n  mstore\n    /* \"#utility.yul\":502:506   */\n  0x24\n    /* \"#utility.yul\":499:500   */\n  0x00\n    /* \"#utility.yul\":492:507   */\n  revert\n    /* \"lecture/lec2.sol\":71:417  contract Lec2 {... */\ntag_6:\n  dataSize(sub_0)\n  dup1\n  dataOffset(sub_0)\n  0x00\n  codecopy\n  0x00\n  return\nstop\n\nsub_0: assembly {\n        /* \"lecture/lec2.sol\":71:417  contract Lec2 {... */\n      mstore(0x40, 0x80)\n      callvalue\n      dup1\n      iszero\n      tag_1\n      jumpi\n      0x00\n      dup1\n      revert\n    tag_1:\n      pop\n      jumpi(tag_2, lt(calldatasize, 0x04))\n      shr(0xe0, calldataload(0x00))\n      dup1\n      0x5ce692f2\n      gt\n      tag_12\n      jumpi\n      dup1\n      0x5ce692f2\n      eq\n      tag_7\n      jumpi\n      dup1\n      0x699ad9ad\n      eq\n      tag_8\n      jumpi\n      dup1\n      0x767800de\n      eq\n      tag_9\n      jumpi\n      dup1\n      0xac9c1959\n      eq\n      tag_10\n      jumpi\n      dup1\n      0xe9b61909\n      eq\n      tag_11\n      jumpi\n      jump(tag_2)\n    tag_12:\n      dup1\n      0x0add6ef2\n      eq\n      tag_3\n      jumpi\n      dup1\n      0x2c622fae\n      eq\n      tag_4\n      jumpi\n      dup1\n      0x3db3fb0a\n      eq\n      tag_5\n      jumpi\n      dup1\n      0x4df7e3d0\n      eq\n      tag_6\n      jumpi\n    tag_2:\n      0x00\n      dup1\n      revert\n        /* \"lecture/lec2.sol\":120:143  bool public b2 = !false */\n    tag_3:\n      tag_13\n      tag_14\n      jump\t// in\n    tag_13:\n      mload(0x40)\n      tag_15\n      swap2\n      swap1\n      tag_16\n      jump\t// in\n    tag_15:\n      mload(0x40)\n      dup1\n      swap2\n      sub\n      swap1\n      return\n        /* \"lecture/lec2.sol\":260:287  bytes public bt2 = \"STRING\" */\n    tag_4:\n      tag_17\n      tag_18\n      jump\t// in\n    tag_17:\n      mload(0x40)\n      tag_19\n      swap2\n      swap1\n      tag_20\n      jump\t// in\n    tag_19:\n      mload(0x40)\n      dup1\n      swap2\n      sub\n      swap1\n      return\n        /* \"lecture/lec2.sol\":187:217  bool public b4 = false && true */\n    tag_5:\n      tag_21\n      tag_22\n      jump\t// in\n    tag_21:\n      mload(0x40)\n      tag_23\n      swap2\n      swap1\n      tag_16\n      jump\t// in\n    tag_23:\n      mload(0x40)\n      dup1\n      swap2\n      sub\n      swap1\n      return\n        /* \"lecture/lec2.sol\":92:113  bool public b = false */\n    tag_6:\n      tag_24\n      tag_25\n      jump\t// in\n    tag_24:\n      mload(0x40)\n      tag_26\n      swap2\n      swap1\n      tag_16\n      jump\t// in\n    tag_26:\n      mload(0x40)\n      dup1\n      swap2\n      sub\n      swap1\n      return\n        /* \"lecture/lec2.sol\":365:383  int8 public it = 4 */\n    tag_7:\n      tag_27\n      tag_28\n      jump\t// in\n    tag_27:\n      mload(0x40)\n      tag_29\n      swap2\n      swap1\n      tag_30\n      jump\t// in\n    tag_29:\n      mload(0x40)\n      dup1\n      swap2\n      sub\n      swap1\n      return\n        /* \"lecture/lec2.sol\":390:414  uint256 public uit = 111 */\n    tag_8:\n      tag_31\n      tag_32\n      jump\t// in\n    tag_31:\n      mload(0x40)\n      tag_33\n      swap2\n      swap1\n      tag_34\n      jump\t// in\n    tag_33:\n      mload(0x40)\n      dup1\n      swap2\n      sub\n      swap1\n      return\n        /* \"lecture/lec2.sol\":294:358  address public addr = 0x1234567890123456789012345678901234567890 */\n    tag_9:\n      tag_35\n      tag_36\n      jump\t// in\n    tag_35:\n      mload(0x40)\n      tag_37\n      swap2\n      swap1\n      tag_38\n      jump\t// in\n    tag_37:\n      mload(0x40)\n      dup1\n      swap2\n      sub\n      swap1\n      return\n        /* \"lecture/lec2.sol\":224:253  bytes4 public bt = 0x12345678 */\n    tag_10:\n      tag_39\n      tag_40\n      jump\t// in\n    tag_39:\n      mload(0x40)\n      tag_41\n      swap2\n      swap1\n      tag_42\n      jump\t// in\n    tag_41:\n      mload(0x40)\n      dup1\n      swap2\n      sub\n      swap1\n      return\n        /* \"lecture/lec2.sol\":150:180  bool public b3 = false || true */\n    tag_11:\n      tag_43\n      tag_44\n      jump\t// in\n    tag_43:\n      mload(0x40)\n      tag_45\n      swap2\n      swap1\n      tag_16\n      jump\t// in\n    tag_45:\n      mload(0x40)\n      dup1\n      swap2\n      sub\n      swap1\n      return\n        /* \"lecture/lec2.sol\":120:143  bool public b2 = !false */\n    tag_14:\n      0x00\n      0x01\n      swap1\n      sload\n      swap1\n      0x0100\n      exp\n      swap1\n      div\n      0xff\n      and\n      dup2\n      jump\t// out\n        /* \"lecture/lec2.sol\":260:287  bytes public bt2 = \"STRING\" */\n    tag_18:\n      0x01\n      dup1\n      sload\n      tag_46\n      swap1\n      tag_47\n      jump\t// in\n    tag_46:\n      dup1\n      0x1f\n      add\n      0x20\n      dup1\n      swap2\n      div\n      mul\n      0x20\n      add\n      mload(0x40)\n      swap1\n      dup2\n      add\n      0x40\n      mstore\n      dup1\n      swap3\n      swap2\n      swap1\n      dup2\n      dup2\n      mstore\n      0x20\n      add\n      dup3\n      dup1\n      sload\n      tag_48\n      swap1\n      tag_47\n      jump\t// in\n    tag_48:\n      dup1\n      iszero\n      tag_49\n      jumpi\n      dup1\n      0x1f\n      lt\n      tag_50\n      jumpi\n      0x0100\n      dup1\n      dup4\n      sload\n      div\n      mul\n      dup4\n      mstore\n      swap2\n      0x20\n      add\n      swap2\n      jump(tag_49)\n    tag_50:\n      dup3\n      add\n      swap2\n      swap1\n      0x00\n      mstore\n      keccak256(0x00, 0x20)\n      swap1\n    tag_51:\n      dup2\n      sload\n      dup2\n      mstore\n      swap1\n      0x01\n      add\n      swap1\n      0x20\n      add\n      dup1\n      dup4\n      gt\n      tag_51\n      jumpi\n      dup3\n      swap1\n      sub\n      0x1f\n      and\n      dup3\n      add\n      swap2\n    tag_49:\n      pop\n      pop\n      pop\n      pop\n      pop\n      dup2\n      jump\t// out\n        /* \"lecture/lec2.sol\":187:217  bool public b4 = false && true */\n    tag_22:\n      0x00\n      0x03\n      swap1\n      sload\n      swap1\n      0x0100\n      exp\n      swap1\n      div\n      0xff\n      and\n      dup2\n      jump\t// out\n        /* \"lecture/lec2.sol\":92:113  bool public b = false */\n    tag_25:\n      0x00\n      dup1\n      sload\n      swap1\n      0x0100\n      exp\n      swap1\n      div\n      0xff\n      and\n      dup2\n      jump\t// out\n        /* \"lecture/lec2.sol\":365:383  int8 public it = 4 */\n    tag_28:\n      0x02\n      0x14\n      swap1\n      sload\n      swap1\n      0x0100\n      exp\n      swap1\n      div\n      0x00\n      signextend\n      dup2\n      jump\t// out\n        /* \"lecture/lec2.sol\":390:414  uint256 public uit = 111 */\n    tag_32:\n      sload(0x03)\n      dup2\n      jump\t// out\n        /* \"lecture/lec2.sol\":294:358  address public addr = 0x1234567890123456789012345678901234567890 */\n    tag_36:\n      0x02\n      0x00\n      swap1\n      sload\n      swap1\n      0x0100\n      exp\n      swap1\n      div\n      0xffffffffffffffffffffffffffffffffffffffff\n      and\n      dup2\n      jump\t// out\n        /* \"lecture/lec2.sol\":224:253  bytes4 public bt = 0x12345678 */\n    tag_40:\n      0x00\n      0x04\n      swap1\n      sload\n      swap1\n      0x0100\n      exp\n      swap1\n      div\n      0xe0\n      shl\n      dup2\n      jump\t// out\n        /* \"lecture/lec2.sol\":150:180  bool public b3 = false || true */\n    tag_44:\n      0x00\n      0x02\n      swap1\n      sload\n      swap1\n      0x0100\n      exp\n      swap1\n      div\n      0xff\n      and\n      dup2\n      jump\t// out\n        /* \"#utility.yul\":7:125   */\n    tag_53:\n        /* \"#utility.yul\":94:118   */\n      tag_55\n        /* \"#utility.yul\":112:117   */\n      dup2\n        /* \"#utility.yul\":94:118   */\n      tag_56\n      jump\t// in\n    tag_55:\n        /* \"#utility.yul\":89:92   */\n      dup3\n        /* \"#utility.yul\":82:119   */\n      mstore\n        /* \"#utility.yul\":7:125   */\n      pop\n      pop\n      jump\t// out\n        /* \"#utility.yul\":131:240   */\n    tag_57:\n        /* \"#utility.yul\":212:233   */\n      tag_59\n        /* \"#utility.yul\":227:232   */\n      dup2\n        /* \"#utility.yul\":212:233   */\n      tag_60\n      jump\t// in\n    tag_59:\n        /* \"#utility.yul\":207:210   */\n      dup3\n        /* \"#utility.yul\":200:234   */\n      mstore\n        /* \"#utility.yul\":131:240   */\n      pop\n      pop\n      jump\t// out\n        /* \"#utility.yul\":246:361   */\n    tag_61:\n        /* \"#utility.yul\":331:354   */\n      tag_63\n        /* \"#utility.yul\":348:353   */\n      dup2\n        /* \"#utility.yul\":331:354   */\n      tag_64\n      jump\t// in\n    tag_63:\n        /* \"#utility.yul\":326:329   */\n      dup3\n        /* \"#utility.yul\":319:355   */\n      mstore\n        /* \"#utility.yul\":246:361   */\n      pop\n      pop\n      jump\t// out\n        /* \"#utility.yul\":367:727   */\n    tag_65:\n        /* \"#utility.yul\":453:456   */\n      0x00\n        /* \"#utility.yul\":481:519   */\n      tag_67\n        /* \"#utility.yul\":513:518   */\n      dup3\n        /* \"#utility.yul\":481:519   */\n      tag_68\n      jump\t// in\n    tag_67:\n        /* \"#utility.yul\":535:605   */\n      tag_69\n        /* \"#utility.yul\":598:604   */\n      dup2\n        /* \"#utility.yul\":593:596   */\n      dup6\n        /* \"#utility.yul\":535:605   */\n      tag_70\n      jump\t// in\n    tag_69:\n        /* \"#utility.yul\":528:605   */\n      swap4\n      pop\n        /* \"#utility.yul\":614:666   */\n      tag_71\n        /* \"#utility.yul\":659:665   */\n      dup2\n        /* \"#utility.yul\":654:657   */\n      dup6\n        /* \"#utility.yul\":647:651   */\n      0x20\n        /* \"#utility.yul\":640:645   */\n      dup7\n        /* \"#utility.yul\":636:652   */\n      add\n        /* \"#utility.yul\":614:666   */\n      tag_72\n      jump\t// in\n    tag_71:\n        /* \"#utility.yul\":691:720   */\n      tag_73\n        /* \"#utility.yul\":713:719   */\n      dup2\n        /* \"#utility.yul\":691:720   */\n      tag_74\n      jump\t// in\n    tag_73:\n        /* \"#utility.yul\":686:689   */\n      dup5\n        /* \"#utility.yul\":682:721   */\n      add\n        /* \"#utility.yul\":675:721   */\n      swap2\n      pop\n        /* \"#utility.yul\":457:727   */\n      pop\n        /* \"#utility.yul\":367:727   */\n      swap3\n      swap2\n      pop\n      pop\n      jump\t// out\n        /* \"#utility.yul\":733:842   */\n    tag_75:\n        /* \"#utility.yul\":814:835   */\n      tag_77\n        /* \"#utility.yul\":829:834   */\n      dup2\n        /* \"#utility.yul\":814:835   */\n      tag_78\n      jump\t// in\n    tag_77:\n        /* \"#utility.yul\":809:812   */\n      dup3\n        /* \"#utility.yul\":802:836   */\n      mstore\n        /* \"#utility.yul\":733:842   */\n      pop\n      pop\n      jump\t// out\n        /* \"#utility.yul\":848:966   */\n    tag_79:\n        /* \"#utility.yul\":935:959   */\n      tag_81\n        /* \"#utility.yul\":953:958   */\n      dup2\n        /* \"#utility.yul\":935:959   */\n      tag_82\n      jump\t// in\n    tag_81:\n        /* \"#utility.yul\":930:933   */\n      dup3\n        /* \"#utility.yul\":923:960   */\n      mstore\n        /* \"#utility.yul\":848:966   */\n      pop\n      pop\n      jump\t// out\n        /* \"#utility.yul\":972:1194   */\n    tag_38:\n        /* \"#utility.yul\":1065:1069   */\n      0x00\n        /* \"#utility.yul\":1103:1105   */\n      0x20\n        /* \"#utility.yul\":1092:1101   */\n      dup3\n        /* \"#utility.yul\":1088:1106   */\n      add\n        /* \"#utility.yul\":1080:1106   */\n      swap1\n      pop\n        /* \"#utility.yul\":1116:1187   */\n      tag_84\n        /* \"#utility.yul\":1184:1185   */\n      0x00\n        /* \"#utility.yul\":1173:1182   */\n      dup4\n        /* \"#utility.yul\":1169:1186   */\n      add\n        /* \"#utility.yul\":1160:1166   */\n      dup5\n        /* \"#utility.yul\":1116:1187   */\n      tag_53\n      jump\t// in\n    tag_84:\n        /* \"#utility.yul\":972:1194   */\n      swap3\n      swap2\n      pop\n      pop\n      jump\t// out\n        /* \"#utility.yul\":1200:1410   */\n    tag_16:\n        /* \"#utility.yul\":1287:1291   */\n      0x00\n        /* \"#utility.yul\":1325:1327   */\n      0x20\n        /* \"#utility.yul\":1314:1323   */\n      dup3\n        /* \"#utility.yul\":1310:1328   */\n      add\n        /* \"#utility.yul\":1302:1328   */\n      swap1\n      pop\n        /* \"#utility.yul\":1338:1403   */\n      tag_86\n        /* \"#utility.yul\":1400:1401   */\n      0x00\n        /* \"#utility.yul\":1389:1398   */\n      dup4\n        /* \"#utility.yul\":1385:1402   */\n      add\n        /* \"#utility.yul\":1376:1382   */\n      dup5\n        /* \"#utility.yul\":1338:1403   */\n      tag_57\n      jump\t// in\n    tag_86:\n        /* \"#utility.yul\":1200:1410   */\n      swap3\n      swap2\n      pop\n      pop\n      jump\t// out\n        /* \"#utility.yul\":1416:1634   */\n    tag_42:\n        /* \"#utility.yul\":1507:1511   */\n      0x00\n        /* \"#utility.yul\":1545:1547   */\n      0x20\n        /* \"#utility.yul\":1534:1543   */\n      dup3\n        /* \"#utility.yul\":1530:1548   */\n      add\n        /* \"#utility.yul\":1522:1548   */\n      swap1\n      pop\n        /* \"#utility.yul\":1558:1627   */\n      tag_88\n        /* \"#utility.yul\":1624:1625   */\n      0x00\n        /* \"#utility.yul\":1613:1622   */\n      dup4\n        /* \"#utility.yul\":1609:1626   */\n      add\n        /* \"#utility.yul\":1600:1606   */\n      dup5\n        /* \"#utility.yul\":1558:1627   */\n      tag_61\n      jump\t// in\n    tag_88:\n        /* \"#utility.yul\":1416:1634   */\n      swap3\n      swap2\n      pop\n      pop\n      jump\t// out\n        /* \"#utility.yul\":1640:1949   */\n    tag_20:\n        /* \"#utility.yul\":1751:1755   */\n      0x00\n        /* \"#utility.yul\":1789:1791   */\n      0x20\n        /* \"#utility.yul\":1778:1787   */\n      dup3\n        /* \"#utility.yul\":1774:1792   */\n      add\n        /* \"#utility.yul\":1766:1792   */\n      swap1\n      pop\n        /* \"#utility.yul\":1838:1847   */\n      dup2\n        /* \"#utility.yul\":1832:1836   */\n      dup2\n        /* \"#utility.yul\":1828:1848   */\n      sub\n        /* \"#utility.yul\":1824:1825   */\n      0x00\n        /* \"#utility.yul\":1813:1822   */\n      dup4\n        /* \"#utility.yul\":1809:1826   */\n      add\n        /* \"#utility.yul\":1802:1849   */\n      mstore\n        /* \"#utility.yul\":1866:1942   */\n      tag_90\n        /* \"#utility.yul\":1937:1941   */\n      dup2\n        /* \"#utility.yul\":1928:1934   */\n      dup5\n        /* \"#utility.yul\":1866:1942   */\n      tag_65\n      jump\t// in\n    tag_90:\n        /* \"#utility.yul\":1858:1942   */\n      swap1\n      pop\n        /* \"#utility.yul\":1640:1949   */\n      swap3\n      swap2\n      pop\n      pop\n      jump\t// out\n        /* \"#utility.yul\":1955:2165   */\n    tag_30:\n        /* \"#utility.yul\":2042:2046   */\n      0x00\n        /* \"#utility.yul\":2080:2082   */\n      0x20\n        /* \"#utility.yul\":2069:2078   */\n      dup3\n        /* \"#utility.yul\":2065:2083   */\n      add\n        /* \"#utility.yul\":2057:2083   */\n      swap1\n      pop\n        /* \"#utility.yul\":2093:2158   */\n      tag_92\n        /* \"#utility.yul\":2155:2156   */\n      0x00\n        /* \"#utility.yul\":2144:2153   */\n      dup4\n        /* \"#utility.yul\":2140:2157   */\n      add\n        /* \"#utility.yul\":2131:2137   */\n      dup5\n        /* \"#utility.yul\":2093:2158   */\n      tag_75\n      jump\t// in\n    tag_92:\n        /* \"#utility.yul\":1955:2165   */\n      swap3\n      swap2\n      pop\n      pop\n      jump\t// out\n        /* \"#utility.yul\":2171:2393   */\n    tag_34:\n        /* \"#utility.yul\":2264:2268   */\n      0x00\n        /* \"#utility.yul\":2302:2304   */\n      0x20\n        /* \"#utility.yul\":2291:2300   */\n      dup3\n        /* \"#utility.yul\":2287:2305   */\n      add\n        /* \"#utility.yul\":2279:2305   */\n      swap1\n      pop\n        /* \"#utility.yul\":2315:2386   */\n      tag_94\n        /* \"#utility.yul\":2383:2384   */\n      0x00\n        /* \"#utility.yul\":2372:2381   */\n      dup4\n        /* \"#utility.yul\":2368:2385   */\n      add\n        /* \"#utility.yul\":2359:2365   */\n      dup5\n        /* \"#utility.yul\":2315:2386   */\n      tag_79\n      jump\t// in\n    tag_94:\n        /* \"#utility.yul\":2171:2393   */\n      swap3\n      swap2\n      pop\n      pop\n      jump\t// out\n        /* \"#utility.yul\":2399:2497   */\n    tag_68:\n        /* \"#utility.yul\":2450:2456   */\n      0x00\n        /* \"#utility.yul\":2484:2489   */\n      dup2\n        /* \"#utility.yul\":2478:2490   */\n      mload\n        /* \"#utility.yul\":2468:2490   */\n      swap1\n      pop\n        /* \"#utility.yul\":2399:2497   */\n      swap2\n      swap1\n      pop\n      jump\t// out\n        /* \"#utility.yul\":2503:2671   */\n    tag_70:\n        /* \"#utility.yul\":2586:2597   */\n      0x00\n        /* \"#utility.yul\":2620:2626   */\n      dup3\n        /* \"#utility.yul\":2615:2618   */\n      dup3\n        /* \"#utility.yul\":2608:2627   */\n      mstore\n        /* \"#utility.yul\":2660:2664   */\n      0x20\n        /* \"#utility.yul\":2655:2658   */\n      dup3\n        /* \"#utility.yul\":2651:2665   */\n      add\n        /* \"#utility.yul\":2636:2665   */\n      swap1\n      pop\n        /* \"#utility.yul\":2503:2671   */\n      swap3\n      swap2\n      pop\n      pop\n      jump\t// out\n        /* \"#utility.yul\":2677:2773   */\n    tag_56:\n        /* \"#utility.yul\":2714:2721   */\n      0x00\n        /* \"#utility.yul\":2743:2767   */\n      tag_98\n        /* \"#utility.yul\":2761:2766   */\n      dup3\n        /* \"#utility.yul\":2743:2767   */\n      tag_99\n      jump\t// in\n    tag_98:\n        /* \"#utility.yul\":2732:2767   */\n      swap1\n      pop\n        /* \"#utility.yul\":2677:2773   */\n      swap2\n      swap1\n      pop\n      jump\t// out\n        /* \"#utility.yul\":2779:2869   */\n    tag_60:\n        /* \"#utility.yul\":2813:2820   */\n      0x00\n        /* \"#utility.yul\":2856:2861   */\n      dup2\n        /* \"#utility.yul\":2849:2862   */\n      iszero\n        /* \"#utility.yul\":2842:2863   */\n      iszero\n        /* \"#utility.yul\":2831:2863   */\n      swap1\n      pop\n        /* \"#utility.yul\":2779:2869   */\n      swap2\n      swap1\n      pop\n      jump\t// out\n        /* \"#utility.yul\":2875:3024   */\n    tag_64:\n        /* \"#utility.yul\":2911:2918   */\n      0x00\n        /* \"#utility.yul\":2951:3017   */\n      0xffffffff00000000000000000000000000000000000000000000000000000000\n        /* \"#utility.yul\":2944:2949   */\n      dup3\n        /* \"#utility.yul\":2940:3018   */\n      and\n        /* \"#utility.yul\":2929:3018   */\n      swap1\n      pop\n        /* \"#utility.yul\":2875:3024   */\n      swap2\n      swap1\n      pop\n      jump\t// out\n        /* \"#utility.yul\":3030:3119   */\n    tag_78:\n        /* \"#utility.yul\":3064:3071   */\n      0x00\n        /* \"#utility.yul\":3107:3112   */\n      dup2\n        /* \"#utility.yul\":3104:3105   */\n      0x00\n        /* \"#utility.yul\":3093:3113   */\n      signextend\n        /* \"#utility.yul\":3082:3113   */\n      swap1\n      pop\n        /* \"#utility.yul\":3030:3119   */\n      swap2\n      swap1\n      pop\n      jump\t// out\n        /* \"#utility.yul\":3125:3251   */\n    tag_99:\n        /* \"#utility.yul\":3162:3169   */\n      0x00\n        /* \"#utility.yul\":3202:3244   */\n      0xffffffffffffffffffffffffffffffffffffffff\n        /* \"#utility.yul\":3195:3200   */\n      dup3\n        /* \"#utility.yul\":3191:3245   */\n      and\n        /* \"#utility.yul\":3180:3245   */\n      swap1\n      pop\n        /* \"#utility.yul\":3125:3251   */\n      swap2\n      swap1\n      pop\n      jump\t// out\n        /* \"#utility.yul\":3257:3334   */\n    tag_82:\n        /* \"#utility.yul\":3294:3301   */\n      0x00\n        /* \"#utility.yul\":3323:3328   */\n      dup2\n        /* \"#utility.yul\":3312:3328   */\n      swap1\n      pop\n        /* \"#utility.yul\":3257:3334   */\n      swap2\n      swap1\n      pop\n      jump\t// out\n        /* \"#utility.yul\":3340:3647   */\n    tag_72:\n        /* \"#utility.yul\":3408:3409   */\n      0x00\n        /* \"#utility.yul\":3418:3531   */\n    tag_106:\n        /* \"#utility.yul\":3432:3438   */\n      dup4\n        /* \"#utility.yul\":3429:3430   */\n      dup2\n        /* \"#utility.yul\":3426:3439   */\n      lt\n        /* \"#utility.yul\":3418:3531   */\n      iszero\n      tag_108\n      jumpi\n        /* \"#utility.yul\":3517:3518   */\n      dup1\n        /* \"#utility.yul\":3512:3515   */\n      dup3\n        /* \"#utility.yul\":3508:3519   */\n      add\n        /* \"#utility.yul\":3502:3520   */\n      mload\n        /* \"#utility.yul\":3498:3499   */\n      dup2\n        /* \"#utility.yul\":3493:3496   */\n      dup5\n        /* \"#utility.yul\":3489:3500   */\n      add\n        /* \"#utility.yul\":3482:3521   */\n      mstore\n        /* \"#utility.yul\":3454:3456   */\n      0x20\n        /* \"#utility.yul\":3451:3452   */\n      dup2\n        /* \"#utility.yul\":3447:3457   */\n      add\n        /* \"#utility.yul\":3442:3457   */\n      swap1\n      pop\n        /* \"#utility.yul\":3418:3531   */\n      jump(tag_106)\n    tag_108:\n        /* \"#utility.yul\":3549:3555   */\n      dup4\n        /* \"#utility.yul\":3546:3547   */\n      dup2\n        /* \"#utility.yul\":3543:3556   */\n      gt\n        /* \"#utility.yul\":3540:3641   */\n      iszero\n      tag_109\n      jumpi\n        /* \"#utility.yul\":3629:3630   */\n      0x00\n        /* \"#utility.yul\":3620:3626   */\n      dup5\n        /* \"#utility.yul\":3615:3618   */\n      dup5\n        /* \"#utility.yul\":3611:3627   */\n      add\n        /* \"#utility.yul\":3604:3631   */\n      mstore\n        /* \"#utility.yul\":3540:3641   */\n    tag_109:\n        /* \"#utility.yul\":3389:3647   */\n      pop\n        /* \"#utility.yul\":3340:3647   */\n      pop\n      pop\n      pop\n      jump\t// out\n        /* \"#utility.yul\":3653:3973   */\n    tag_47:\n        /* \"#utility.yul\":3697:3703   */\n      0x00\n        /* \"#utility.yul\":3734:3735   */\n      0x02\n        /* \"#utility.yul\":3728:3732   */\n      dup3\n        /* \"#utility.yul\":3724:3736   */\n      div\n        /* \"#utility.yul\":3714:3736   */\n      swap1\n      pop\n        /* \"#utility.yul\":3781:3782   */\n      0x01\n        /* \"#utility.yul\":3775:3779   */\n      dup3\n        /* \"#utility.yul\":3771:3783   */\n      and\n        /* \"#utility.yul\":3802:3820   */\n      dup1\n        /* \"#utility.yul\":3792:3873   */\n      tag_111\n      jumpi\n        /* \"#utility.yul\":3858:3862   */\n      0x7f\n        /* \"#utility.yul\":3850:3856   */\n      dup3\n        /* \"#utility.yul\":3846:3863   */\n      and\n        /* \"#utility.yul\":3836:3863   */\n      swap2\n      pop\n        /* \"#utility.yul\":3792:3873   */\n    tag_111:\n        /* \"#utility.yul\":3920:3922   */\n      0x20\n        /* \"#utility.yul\":3912:3918   */\n      dup3\n        /* \"#utility.yul\":3909:3923   */\n      lt\n        /* \"#utility.yul\":3889:3907   */\n      dup2\n        /* \"#utility.yul\":3886:3924   */\n      eq\n        /* \"#utility.yul\":3883:3967   */\n      iszero\n      tag_112\n      jumpi\n        /* \"#utility.yul\":3939:3957   */\n      tag_113\n      tag_114\n      jump\t// in\n    tag_113:\n        /* \"#utility.yul\":3883:3967   */\n    tag_112:\n        /* \"#utility.yul\":3704:3973   */\n      pop\n        /* \"#utility.yul\":3653:3973   */\n      swap2\n      swap1\n      pop\n      jump\t// out\n        /* \"#utility.yul\":3979:4159   */\n    tag_114:\n        /* \"#utility.yul\":4027:4104   */\n      0x4e487b7100000000000000000000000000000000000000000000000000000000\n        /* \"#utility.yul\":4024:4025   */\n      0x00\n        /* \"#utility.yul\":4017:4105   */\n      mstore\n        /* \"#utility.yul\":4124:4128   */\n      0x22\n        /* \"#utility.yul\":4121:4122   */\n      0x04\n        /* \"#utility.yul\":4114:4129   */\n      mstore\n        /* \"#utility.yul\":4148:4152   */\n      0x24\n        /* \"#utility.yul\":4145:4146   */\n      0x00\n        /* \"#utility.yul\":4138:4153   */\n      revert\n        /* \"#utility.yul\":4165:4267   */\n    tag_74:\n        /* \"#utility.yul\":4206:4212   */\n      0x00\n        /* \"#utility.yul\":4257:4259   */\n      0x1f\n        /* \"#utility.yul\":4253:4260   */\n      not\n        /* \"#utility.yul\":4248:4250   */\n      0x1f\n        /* \"#utility.yul\":4241:4246   */\n      dup4\n        /* \"#utility.yul\":4237:4251   */\n      add\n        /* \"#utility.yul\":4233:4261   */\n      and\n        /* \"#utility.yul\":4223:4261   */\n      swap1\n      pop\n        /* \"#utility.yul\":4165:4267   */\n      swap2\n      swap1\n      pop\n      jump\t// out\n\n    auxdata: 0xa2646970667358221220d6c60c60a5c802a2911585eb17c9a51361216dd632b28528c54c0dbf8d33a0a464736f6c63430008070033\n}\n",
				"bytecode": {
					"linkReferences": {},
					"object": "608060405260008060006101000a81548160ff021916908315150217905550600015600060016101000a81548160ff021916908315150217905550600080610045575060015b600060026101000a81548160ff0219169083151502179055506000801561006a575060015b600060036101000a81548160ff021916908315150217905550631234567860e01b600060046101000a81548163ffffffff021916908360e01c02179055506040518060400160405280600681526020017f535452494e470000000000000000000000000000000000000000000000000000815250600190805190602001906100f392919061017f565b50731234567890123456789012345678901234567890600260006101000a81548173ffffffffffffffffffffffffffffffffffffffff021916908373ffffffffffffffffffffffffffffffffffffffff1602179055506004600260146101000a81548160ff021916908360000b60ff160217905550606f60035534801561017957600080fd5b50610283565b82805461018b90610222565b90600052602060002090601f0160209004810192826101ad57600085556101f4565b82601f106101c657805160ff19168380011785556101f4565b828001600101855582156101f4579182015b828111156101f35782518255916020019190600101906101d8565b5b5090506102019190610205565b5090565b5b8082111561021e576000816000905550600101610206565b5090565b6000600282049050600182168061023a57607f821691505b6020821081141561024e5761024d610254565b5b50919050565b7f4e487b7100000000000000000000000000000000000000000000000000000000600052602260045260246000fd5b610575806102926000396000f3fe608060405234801561001057600080fd5b50600436106100935760003560e01c80635ce692f2116100665780635ce692f214610110578063699ad9ad1461012e578063767800de1461014c578063ac9c19591461016a578063e9b619091461018857610093565b80630add6ef2146100985780632c622fae146100b65780633db3fb0a146100d45780634df7e3d0146100f2575b600080fd5b6100a06101a6565b6040516100ad919061036f565b60405180910390f35b6100be6101b9565b6040516100cb91906103a5565b60405180910390f35b6100dc610247565b6040516100e9919061036f565b60405180910390f35b6100fa61025a565b604051610107919061036f565b60405180910390f35b61011861026b565b60405161012591906103c7565b60405180910390f35b61013661027e565b60405161014391906103e2565b60405180910390f35b610154610284565b6040516101619190610354565b60405180910390f35b6101726102aa565b60405161017f919061038a565b60405180910390f35b6101906102bd565b60405161019d919061036f565b60405180910390f35b600060019054906101000a900460ff1681565b600180546101c6906104cd565b80601f01602080910402602001604051908101604052809291908181526020018280546101f2906104cd565b801561023f5780601f106102145761010080835404028352916020019161023f565b820191906000526020600020905b81548152906001019060200180831161022257829003601f168201915b505050505081565b600060039054906101000a900460ff1681565b60008054906101000a900460ff1681565b600260149054906101000a900460000b81565b60035481565b600260009054906101000a900473ffffffffffffffffffffffffffffffffffffffff1681565b600060049054906101000a900460e01b81565b600060029054906101000a900460ff1681565b6102d981610419565b82525050565b6102e88161042b565b82525050565b6102f781610437565b82525050565b6000610308826103fd565b6103128185610408565b935061032281856020860161049a565b61032b8161052e565b840191505092915050565b61033f81610463565b82525050565b61034e81610490565b82525050565b600060208201905061036960008301846102d0565b92915050565b600060208201905061038460008301846102df565b92915050565b600060208201905061039f60008301846102ee565b92915050565b600060208201905081810360008301526103bf81846102fd565b905092915050565b60006020820190506103dc6000830184610336565b92915050565b60006020820190506103f76000830184610345565b92915050565b600081519050919050565b600082825260208201905092915050565b600061042482610470565b9050919050565b60008115159050919050565b60007fffffffff0000000000000000000000000000000000000000000000000000000082169050919050565b60008160000b9050919050565b600073ffffffffffffffffffffffffffffffffffffffff82169050919050565b6000819050919050565b60005b838110156104b857808201518184015260208101905061049d565b838111156104c7576000848401525b50505050565b600060028204905060018216806104e557607f821691505b602082108114156104f9576104f86104ff565b5b50919050565b7f4e487b7100000000000000000000000000000000000000000000000000000000600052602260045260246000fd5b6000601f19601f830116905091905056fea2646970667358221220d6c60c60a5c802a2911585eb17c9a51361216dd632b28528c54c0dbf8d33a0a464736f6c63430008070033",
					"opcodes": "PUSH1 0x80 PUSH1 0x40 MSTORE PUSH1 0x0 DUP1 PUSH1 0x0 PUSH2 0x100 EXP DUP2 SLOAD DUP2 PUSH1 0xFF MUL NOT AND SWAP1 DUP4 ISZERO ISZERO MUL OR SWAP1 SSTORE POP PUSH1 0x0 ISZERO PUSH1 0x0 PUSH1 0x1 PUSH2 0x100 EXP DUP2 SLOAD DUP2 PUSH1 0xFF MUL NOT AND SWAP1 DUP4 ISZERO ISZERO MUL OR SWAP1 SSTORE POP PUSH1 0x0 DUP1 PUSH2 0x45 JUMPI POP PUSH1 0x1 JUMPDEST PUSH1 0x0 PUSH1 0x2 PUSH2 0x100 EXP DUP2 SLOAD DUP2 PUSH1 0xFF MUL NOT AND SWAP1 DUP4 ISZERO ISZERO MUL OR SWAP1 SSTORE POP PUSH1 0x0 DUP1 ISZERO PUSH2 0x6A JUMPI POP PUSH1 0x1 JUMPDEST PUSH1 0x0 PUSH1 0x3 PUSH2 0x100 EXP DUP2 SLOAD DUP2 PUSH1 0xFF MUL NOT AND SWAP1 DUP4 ISZERO ISZERO MUL OR SWAP1 SSTORE POP PUSH4 0x12345678 PUSH1 0xE0 SHL PUSH1 0x0 PUSH1 0x4 PUSH2 0x100 EXP DUP2 SLOAD DUP2 PUSH4 0xFFFFFFFF MUL NOT AND SWAP1 DUP4 PUSH1 0xE0 SHR MUL OR SWAP1 SSTORE POP PUSH1 0x40 MLOAD DUP1 PUSH1 0x40 ADD PUSH1 0x40 MSTORE DUP1 PUSH1 0x6 DUP2 MSTORE PUSH1 0x20 ADD PUSH32 0x535452494E470000000000000000000000000000000000000000000000000000 DUP2 MSTORE POP PUSH1 0x1 SWAP1 DUP1 MLOAD SWAP1 PUSH1 0x20 ADD SWAP1 PUSH2 0xF3 SWAP3 SWAP2 SWAP1 PUSH2 0x17F JUMP JUMPDEST POP PUSH20 0x1234567890123456789012345678901234567890 PUSH1 0x2 PUSH1 0x0 PUSH2 0x100 EXP DUP2 SLOAD DUP2 PUSH20 0xFFFFFFFFFFFFFFFFFFFFFFFFFFFFFFFFFFFFFFFF MUL NOT AND SWAP1 DUP4 PUSH20 0xFFFFFFFFFFFFFFFFFFFFFFFFFFFFFFFFFFFFFFFF AND MUL OR SWAP1 SSTORE POP PUSH1 0x4 PUSH1 0x2 PUSH1 0x14 PUSH2 0x100 EXP DUP2 SLOAD DUP2 PUSH1 0xFF MUL NOT AND SWAP1 DUP4 PUSH1 0x0 SIGNEXTEND PUSH1 0xFF AND MUL OR SWAP1 SSTORE POP PUSH1 0x6F PUSH1 0x3 SSTORE CALLVALUE DUP1 ISZERO PUSH2 0x179 JUMPI PUSH1 0x0 DUP1 REVERT JUMPDEST POP PUSH2 0x283 JUMP JUMPDEST DUP3 DUP1 SLOAD PUSH2 0x18B SWAP1 PUSH2 0x222 JUMP JUMPDEST SWAP1 PUSH1 0x0 MSTORE PUSH1 0x20 PUSH1 0x0 KECCAK256 SWAP1 PUSH1 0x1F ADD PUSH1 0x20 SWAP1 DIV DUP2 ADD SWAP3 DUP3 PUSH2 0x1AD JUMPI PUSH1 0x0 DUP6 SSTORE PUSH2 0x1F4 JUMP JUMPDEST DUP3 PUSH1 0x1F LT PUSH2 0x1C6 JUMPI DUP1 MLOAD PUSH1 0xFF NOT AND DUP4 DUP1 ADD OR DUP6 SSTORE PUSH2 0x1F4 JUMP JUMPDEST DUP3 DUP1 ADD PUSH1 0x1 ADD DUP6 SSTORE DUP3 ISZERO PUSH2 0x1F4 JUMPI SWAP2 DUP3 ADD JUMPDEST DUP3 DUP2 GT ISZERO PUSH2 0x1F3 JUMPI DUP3 MLOAD DUP3 SSTORE SWAP2 PUSH1 0x20 ADD SWAP2 SWAP1 PUSH1 0x1 ADD SWAP1 PUSH2 0x1D8 JUMP JUMPDEST JUMPDEST POP SWAP1 POP PUSH2 0x201 SWAP2 SWAP1 PUSH2 0x205 JUMP JUMPDEST POP SWAP1 JUMP JUMPDEST JUMPDEST DUP1 DUP3 GT ISZERO PUSH2 0x21E JUMPI PUSH1 0x0 DUP2 PUSH1 0x0 SWAP1 SSTORE POP PUSH1 0x1 ADD PUSH2 0x206 JUMP JUMPDEST POP SWAP1 JUMP JUMPDEST PUSH1 0x0 PUSH1 0x2 DUP3 DIV SWAP1 POP PUSH1 0x1 DUP3 AND DUP1 PUSH2 0x23A JUMPI PUSH1 0x7F DUP3 AND SWAP2 POP JUMPDEST PUSH1 0x20 DUP3 LT DUP2 EQ ISZERO PUSH2 0x24E JUMPI PUSH2 0x24D PUSH2 0x254 JUMP JUMPDEST JUMPDEST POP SWAP2 SWAP1 POP JUMP JUMPDEST PUSH32 0x4E487B7100000000000000000000000000000000000000000000000000000000 PUSH1 0x0 MSTORE PUSH1 0x22 PUSH1 0x4 MSTORE PUSH1 0x24 PUSH1 0x0 REVERT JUMPDEST PUSH2 0x575 DUP1 PUSH2 0x292 PUSH1 0x0 CODECOPY PUSH1 0x0 RETURN INVALID PUSH1 0x80 PUSH1 0x40 MSTORE CALLVALUE DUP1 ISZERO PUSH2 0x10 JUMPI PUSH1 0x0 DUP1 REVERT JUMPDEST POP PUSH1 0x4 CALLDATASIZE LT PUSH2 0x93 JUMPI PUSH1 0x0 CALLDATALOAD PUSH1 0xE0 SHR DUP1 PUSH4 0x5CE692F2 GT PUSH2 0x66 JUMPI DUP1 PUSH4 0x5CE692F2 EQ PUSH2 0x110 JUMPI DUP1 PUSH4 0x699AD9AD EQ PUSH2 0x12E JUMPI DUP1 PUSH4 0x767800DE EQ PUSH2 0x14C JUMPI DUP1 PUSH4 0xAC9C1959 EQ PUSH2 0x16A JUMPI DUP1 PUSH4 0xE9B61909 EQ PUSH2 0x188 JUMPI PUSH2 0x93 JUMP JUMPDEST DUP1 PUSH4 0xADD6EF2 EQ PUSH2 0x98 JUMPI DUP1 PUSH4 0x2C622FAE EQ PUSH2 0xB6 JUMPI DUP1 PUSH4 0x3DB3FB0A EQ PUSH2 0xD4 JUMPI DUP1 PUSH4 0x4DF7E3D0 EQ PUSH2 0xF2 JUMPI JUMPDEST PUSH1 0x0 DUP1 REVERT JUMPDEST PUSH2 0xA0 PUSH2 0x1A6 JUMP JUMPDEST PUSH1 0x40 MLOAD PUSH2 0xAD SWAP2 SWAP1 PUSH2 0x36F JUMP JUMPDEST PUSH1 0x40 MLOAD DUP1 SWAP2 SUB SWAP1 RETURN JUMPDEST PUSH2 0xBE PUSH2 0x1B9 JUMP JUMPDEST PUSH1 0x40 MLOAD PUSH2 0xCB SWAP2 SWAP1 PUSH2 0x3A5 JUMP JUMPDEST PUSH1 0x40 MLOAD DUP1 SWAP2 SUB SWAP1 RETURN JUMPDEST PUSH2 0xDC PUSH2 0x247 JUMP JUMPDEST PUSH1 0x40 MLOAD PUSH2 0xE9 SWAP2 SWAP1 PUSH2 0x36F JUMP JUMPDEST PUSH1 0x40 MLOAD DUP1 SWAP2 SUB SWAP1 RETURN JUMPDEST PUSH2 0xFA PUSH2 0x25A JUMP JUMPDEST PUSH1 0x40 MLOAD PUSH2 0x107 SWAP2 SWAP1 PUSH2 0x36F JUMP JUMPDEST PUSH1 0x40 MLOAD DUP1 SWAP2 SUB SWAP1 RETURN JUMPDEST PUSH2 0x118 PUSH2 0x26B JUMP JUMPDEST PUSH1 0x40 MLOAD PUSH2 0x125 SWAP2 SWAP1 PUSH2 0x3C7 JUMP JUMPDEST PUSH1 0x40 MLOAD DUP1 SWAP2 SUB SWAP1 RETURN JUMPDEST PUSH2 0x136 PUSH2 0x27E JUMP JUMPDEST PUSH1 0x40 MLOAD PUSH2 0x143 SWAP2 SWAP1 PUSH2 0x3E2 JUMP JUMPDEST PUSH1 0x40 MLOAD DUP1 SWAP2 SUB SWAP1 RETURN JUMPDEST PUSH2 0x154 PUSH2 0x284 JUMP JUMPDEST PUSH1 0x40 MLOAD PUSH2 0x161 SWAP2 SWAP1 PUSH2 0x354 JUMP JUMPDEST PUSH1 0x40 MLOAD DUP1 SWAP2 SUB SWAP1 RETURN JUMPDEST PUSH2 0x172 PUSH2 0x2AA JUMP JUMPDEST PUSH1 0x40 MLOAD PUSH2 0x17F SWAP2 SWAP1 PUSH2 0x38A JUMP JUMPDEST PUSH1 0x40 MLOAD DUP1 SWAP2 SUB SWAP1 RETURN JUMPDEST PUSH2 0x190 PUSH2 0x2BD JUMP JUMPDEST PUSH1 0x40 MLOAD PUSH2 0x19D SWAP2 SWAP1 PUSH2 0x36F JUMP JUMPDEST PUSH1 0x40 MLOAD DUP1 SWAP2 SUB SWAP1 RETURN JUMPDEST PUSH1 0x0 PUSH1 0x1 SWAP1 SLOAD SWAP1 PUSH2 0x100 EXP SWAP1 DIV PUSH1 0xFF AND DUP2 JUMP JUMPDEST PUSH1 0x1 DUP1 SLOAD PUSH2 0x1C6 SWAP1 PUSH2 0x4CD JUMP JUMPDEST DUP1 PUSH1 0x1F ADD PUSH1 0x20 DUP1 SWAP2 DIV MUL PUSH1 0x20 ADD PUSH1 0x40 MLOAD SWAP1 DUP2 ADD PUSH1 0x40 MSTORE DUP1 SWAP3 SWAP2 SWAP1 DUP2 DUP2 MSTORE PUSH1 0x20 ADD DUP3 DUP1 SLOAD PUSH2 0x1F2 SWAP1 PUSH2 0x4CD JUMP JUMPDEST DUP1 ISZERO PUSH2 0x23F JUMPI DUP1 PUSH1 0x1F LT PUSH2 0x214 JUMPI PUSH2 0x100 DUP1 DUP4 SLOAD DIV MUL DUP4 MSTORE SWAP2 PUSH1 0x20 ADD SWAP2 PUSH2 0x23F JUMP JUMPDEST DUP3 ADD SWAP2 SWAP1 PUSH1 0x0 MSTORE PUSH1 0x20 PUSH1 0x0 KECCAK256 SWAP1 JUMPDEST DUP2 SLOAD DUP2 MSTORE SWAP1 PUSH1 0x1 ADD SWAP1 PUSH1 0x20 ADD DUP1 DUP4 GT PUSH2 0x222 JUMPI DUP3 SWAP1 SUB PUSH1 0x1F AND DUP3 ADD SWAP2 JUMPDEST POP POP POP POP POP DUP2 JUMP JUMPDEST PUSH1 0x0 PUSH1 0x3 SWAP1 SLOAD SWAP1 PUSH2 0x100 EXP SWAP1 DIV PUSH1 0xFF AND DUP2 JUMP JUMPDEST PUSH1 0x0 DUP1 SLOAD SWAP1 PUSH2 0x100 EXP SWAP1 DIV PUSH1 0xFF AND DUP2 JUMP JUMPDEST PUSH1 0x2 PUSH1 0x14 SWAP1 SLOAD SWAP1 PUSH2 0x100 EXP SWAP1 DIV PUSH1 0x0 SIGNEXTEND DUP2 JUMP JUMPDEST PUSH1 0x3 SLOAD DUP2 JUMP JUMPDEST PUSH1 0x2 PUSH1 0x0 SWAP1 SLOAD SWAP1 PUSH2 0x100 EXP SWAP1 DIV PUSH20 0xFFFFFFFFFFFFFFFFFFFFFFFFFFFFFFFFFFFFFFFF AND DUP2 JUMP JUMPDEST PUSH1 0x0 PUSH1 0x4 SWAP1 SLOAD SWAP1 PUSH2 0x100 EXP SWAP1 DIV PUSH1 0xE0 SHL DUP2 JUMP JUMPDEST PUSH1 0x0 PUSH1 0x2 SWAP1 SLOAD SWAP1 PUSH2 0x100 EXP SWAP1 DIV PUSH1 0xFF AND DUP2 JUMP JUMPDEST PUSH2 0x2D9 DUP2 PUSH2 0x419 JUMP JUMPDEST DUP3 MSTORE POP POP JUMP JUMPDEST PUSH2 0x2E8 DUP2 PUSH2 0x42B JUMP JUMPDEST DUP3 MSTORE POP POP JUMP JUMPDEST PUSH2 0x2F7 DUP2 PUSH2 0x437 JUMP JUMPDEST DUP3 MSTORE POP POP JUMP JUMPDEST PUSH1 0x0 PUSH2 0x308 DUP3 PUSH2 0x3FD JUMP JUMPDEST PUSH2 0x312 DUP2 DUP6 PUSH2 0x408 JUMP JUMPDEST SWAP4 POP PUSH2 0x322 DUP2 DUP6 PUSH1 0x20 DUP7 ADD PUSH2 0x49A JUMP JUMPDEST PUSH2 0x32B DUP2 PUSH2 0x52E JUMP JUMPDEST DUP5 ADD SWAP2 POP POP SWAP3 SWAP2 POP POP JUMP JUMPDEST PUSH2 0x33F DUP2 PUSH2 0x463 JUMP JUMPDEST DUP3 MSTORE POP POP JUMP JUMPDEST PUSH2 0x34E DUP2 PUSH2 0x490 JUMP JUMPDEST DUP3 MSTORE POP POP JUMP JUMPDEST PUSH1 0x0 PUSH1 0x20 DUP3 ADD SWAP1 POP PUSH2 0x369 PUSH1 0x0 DUP4 ADD DUP5 PUSH2 0x2D0 JUMP JUMPDEST SWAP3 SWAP2 POP POP JUMP JUMPDEST PUSH1 0x0 PUSH1 0x20 DUP3 ADD SWAP1 POP PUSH2 0x384 PUSH1 0x0 DUP4 ADD DUP5 PUSH2 0x2DF JUMP JUMPDEST SWAP3 SWAP2 POP POP JUMP JUMPDEST PUSH1 0x0 PUSH1 0x20 DUP3 ADD SWAP1 POP PUSH2 0x39F PUSH1 0x0 DUP4 ADD DUP5 PUSH2 0x2EE JUMP JUMPDEST SWAP3 SWAP2 POP POP JUMP JUMPDEST PUSH1 0x0 PUSH1 0x20 DUP3 ADD SWAP1 POP DUP2 DUP2 SUB PUSH1 0x0 DUP4 ADD MSTORE PUSH2 0x3BF DUP2 DUP5 PUSH2 0x2FD JUMP JUMPDEST SWAP1 POP SWAP3 SWAP2 POP POP JUMP JUMPDEST PUSH1 0x0 PUSH1 0x20 DUP3 ADD SWAP1 POP PUSH2 0x3DC PUSH1 0x0 DUP4 ADD DUP5 PUSH2 0x336 JUMP JUMPDEST SWAP3 SWAP2 POP POP JUMP JUMPDEST PUSH1 0x0 PUSH1 0x20 DUP3 ADD SWAP1 POP PUSH2 0x3F7 PUSH1 0x0 DUP4 ADD DUP5 PUSH2 0x345 JUMP JUMPDEST SWAP3 SWAP2 POP POP JUMP JUMPDEST PUSH1 0x0 DUP2 MLOAD SWAP1 POP SWAP2 SWAP1 POP JUMP JUMPDEST PUSH1 0x0 DUP3 DUP3 MSTORE PUSH1 0x20 DUP3 ADD SWAP1 POP SWAP3 SWAP2 POP POP JUMP JUMPDEST PUSH1 0x0 PUSH2 0x424 DUP3 PUSH2 0x470 JUMP JUMPDEST SWAP1 POP SWAP2 SWAP1 POP JUMP JUMPDEST PUSH1 0x0 DUP2 ISZERO ISZERO SWAP1 POP SWAP2 SWAP1 POP JUMP JUMPDEST PUSH1 0x0 PUSH32 0xFFFFFFFF00000000000000000000000000000000000000000000000000000000 DUP3 AND SWAP1 POP SWAP2 SWAP1 POP JUMP JUMPDEST PUSH1 0x0 DUP2 PUSH1 0x0 SIGNEXTEND SWAP1 POP SWAP2 SWAP1 POP JUMP JUMPDEST PUSH1 0x0 PUSH20 0xFFFFFFFFFFFFFFFFFFFFFFFFFFFFFFFFFFFFFFFF DUP3 AND SWAP1 POP SWAP2 SWAP1 POP JUMP JUMPDEST PUSH1 0x0 DUP2 SWAP1 POP SWAP2 SWAP1 POP JUMP JUMPDEST PUSH1 0x0 JUMPDEST DUP4 DUP2 LT ISZERO PUSH2 0x4B8 JUMPI DUP1 DUP3 ADD MLOAD DUP2 DUP5 ADD MSTORE PUSH1 0x20 DUP2 ADD SWAP1 POP PUSH2 0x49D JUMP JUMPDEST DUP4 DUP2 GT ISZERO PUSH2 0x4C7 JUMPI PUSH1 0x0 DUP5 DUP5 ADD MSTORE JUMPDEST POP POP POP POP JUMP JUMPDEST PUSH1 0x0 PUSH1 0x2 DUP3 DIV SWAP1 POP PUSH1 0x1 DUP3 AND DUP1 PUSH2 0x4E5 JUMPI PUSH1 0x7F DUP3 AND SWAP2 POP JUMPDEST PUSH1 0x20 DUP3 LT DUP2 EQ ISZERO PUSH2 0x4F9 JUMPI PUSH2 0x4F8 PUSH2 0x4FF JUMP JUMPDEST JUMPDEST POP SWAP2 SWAP1 POP JUMP JUMPDEST PUSH32 0x4E487B7100000000000000000000000000000000000000000000000000000000 PUSH1 0x0 MSTORE PUSH1 0x22 PUSH1 0x4 MSTORE PUSH1 0x24 PUSH1 0x0 REVERT JUMPDEST PUSH1 0x0 PUSH1 0x1F NOT PUSH1 0x1F DUP4 ADD AND SWAP1 POP SWAP2 SWAP1 POP JUMP INVALID LOG2 PUSH5 0x6970667358 0x22 SLT KECCAK256 0xD6 0xC6 0xC PUSH1 0xA5 0xC8 MUL LOG2 SWAP2 ISZERO DUP6 0xEB OR 0xC9 0xA5 SGT PUSH2 0x216D 0xD6 ORIGIN 0xB2 DUP6 0x28 0xC5 0x4C 0xD 0xBF DUP14 CALLER LOG0 LOG4 PUSH5 0x736F6C6343 STOP ADDMOD SMOD STOP CALLER "
				},
				"gasEstimates": {
					"creation": {
						"codeDepositCost": "279400",
						"executionCost": "infinite",
						"totalCost": "infinite"
					},
					"external": {
						"addr()": "2558",
						"b()": "2535",
						"b2()": "2522",
						"b3()": "2609",
						"b4()": "2566",
						"bt()": "2587",
						"bt2()": "infinite",
						"it()": "2525",
						"uit()": "2451"
					}
				},
				"methodIdentifiers": {
					"addr()": "767800de",
					"b()": "4df7e3d0",
					"b2()": "0add6ef2",
					"b3()": "e9b61909",
					"b4()": "3db3fb0a",
					"bt()": "ac9c1959",
					"bt2()": "2c622fae",
					"it()": "5ce692f2",
					"uit()": "699ad9ad"
				}
			},
			"storageLayout": {
				"storage": [
					{
						"astId": 4,
						"contract": "lecture/lec2.sol:Lec2",
						"label": "b",
						"offset": 0,
						"slot": "0",
						"type": "t_bool"
					},
					{
						"astId": 8,
						"contract": "lecture/lec2.sol:Lec2",
						"label": "b2",
						"offset": 1,
						"slot": "0",
						"type": "t_bool"
					},
					{
						"astId": 13,
						"contract": "lecture/lec2.sol:Lec2",
						"label": "b3",
						"offset": 2,
						"slot": "0",
						"type": "t_bool"
					},
					{
						"astId": 18,
						"contract": "lecture/lec2.sol:Lec2",
						"label": "b4",
						"offset": 3,
						"slot": "0",
						"type": "t_bool"
					},
					{
						"astId": 21,
						"contract": "lecture/lec2.sol:Lec2",
						"label": "bt",
						"offset": 4,
						"slot": "0",
						"type": "t_bytes4"
					},
					{
						"astId": 24,
						"contract": "lecture/lec2.sol:Lec2",
						"label": "bt2",
						"offset": 0,
						"slot": "1",
						"type": "t_bytes_storage"
					},
					{
						"astId": 27,
						"contract": "lecture/lec2.sol:Lec2",
						"label": "addr",
						"offset": 0,
						"slot": "2",
						"type": "t_address"
					},
					{
						"astId": 30,
						"contract": "lecture/lec2.sol:Lec2",
						"label": "it",
						"offset": 20,
						"slot": "2",
						"type": "t_int8"
					},
					{
						"astId": 33,
						"contract": "lecture/lec2.sol:Lec2",
						"label": "uit",
						"offset": 0,
						"slot": "3",
						"type": "t_uint256"
					}
				],
				"types": {
					"t_address": {
						"encoding": "inplace",
						"label": "address",
						"numberOfBytes": "20"
					},
					"t_bool": {
						"encoding": "inplace",
						"label": "bool",
						"numberOfBytes": "1"
					},
					"t_bytes4": {
						"encoding": "inplace",
						"label": "bytes4",
						"numberOfBytes": "4"
					},
					"t_bytes_storage": {
						"encoding": "bytes",
						"label": "bytes",
						"numberOfBytes": "32"
					},
					"t_int8": {
						"encoding": "inplace",
						"label": "int8",
						"numberOfBytes": "1"
					},
					"t_uint256": {
						"encoding": "inplace",
						"label": "uint256",
						"numberOfBytes": "32"
					}
				}
			},
			"userdoc": {
				"kind": "user",
				"methods": {},
				"version": 1
			}
		}
	}
}