{
	"lecture/lec11.sol": {
		"Son": {
			"abi": [
				{
					"inputs": [],
					"name": "familyName",
					"outputs": [
						{
							"internalType": "string",
							"name": "",
							"type": "string"
						}
					],
					"stateMutability": "view",
					"type": "function"
				},
				{
					"inputs": [],
					"name": "getFamilyName",
					"outputs": [
						{
							"internalType": "string",
							"name": "",
							"type": "string"
						}
					],
					"stateMutability": "view",
					"type": "function"
				},
				{
					"inputs": [],
					"name": "getGivenName",
					"outputs": [
						{
							"internalType": "string",
							"name": "",
							"type": "string"
						}
					],
					"stateMutability": "view",
					"type": "function"
				},
				{
					"inputs": [],
					"name": "getMoney",
					"outputs": [
						{
							"internalType": "uint256",
							"name": "",
							"type": "uint256"
						}
					],
					"stateMutability": "view",
					"type": "function"
				},
				{
					"inputs": [],
					"name": "givenName",
					"outputs": [
						{
							"internalType": "string",
							"name": "",
							"type": "string"
						}
					],
					"stateMutability": "view",
					"type": "function"
				},
				{
					"inputs": [],
					"name": "money",
					"outputs": [
						{
							"internalType": "uint256",
							"name": "",
							"type": "uint256"
						}
					],
					"stateMutability": "view",
					"type": "function"
				}
			],
			"devdoc": {
				"kind": "dev",
				"methods": {},
				"version": 1
			},
			"evm": {
				"assembly": "    /* \"lecture/lec11.sol\":581:626  contract Son is Father(\"YoonSeung\") {... */\n  mstore(0x40, 0x80)\n    /* \"lecture/lec11.sol\":101:134  string public familyName = \"Park\" */\n  mload(0x40)\n  dup1\n  0x40\n  add\n  0x40\n  mstore\n  dup1\n  0x04\n  dup2\n  mstore\n  0x20\n  add\n  0x5061726b00000000000000000000000000000000000000000000000000000000\n  dup2\n  mstore\n  pop\n  0x00\n  swap1\n  dup1\n  mload\n  swap1\n  0x20\n  add\n  swap1\n  tag_1\n  swap3\n  swap2\n  swap1\n  tag_2\n  jump\t// in\ntag_1:\n  pop\n    /* \"lecture/lec11.sol\":140:172  string public givenName = \"Jiho\" */\n  mload(0x40)\n  dup1\n  0x40\n  add\n  0x40\n  mstore\n  dup1\n  0x04\n  dup2\n  mstore\n  0x20\n  add\n  0x4a69686f00000000000000000000000000000000000000000000000000000000\n  dup2\n  mstore\n  pop\n  0x01\n  swap1\n  dup1\n  mload\n  swap1\n  0x20\n  add\n  swap1\n  tag_3\n  swap3\n  swap2\n  swap1\n  tag_2\n  jump\t// in\ntag_3:\n  pop\n    /* \"lecture/lec11.sol\":201:204  100 */\n  0x64\n    /* \"lecture/lec11.sol\":178:204  uint256 public money = 100 */\n  0x02\n  sstore\n    /* \"lecture/lec11.sol\":581:626  contract Son is Father(\"YoonSeung\") {... */\n  callvalue\n  dup1\n  iszero\n  tag_4\n  jumpi\n  0x00\n  dup1\n  revert\ntag_4:\n  pop\n    /* \"lecture/lec11.sol\":211:295  constructor(string memory _givenName) public {... */\n  mload(0x40)\n  dup1\n  0x40\n  add\n  0x40\n  mstore\n  dup1\n  0x09\n  dup2\n  mstore\n  0x20\n  add\n  0x596f6f6e5365756e670000000000000000000000000000000000000000000000\n  dup2\n  mstore\n  pop\n    /* \"lecture/lec11.sol\":278:288  _givenName */\n  dup1\n    /* \"lecture/lec11.sol\":266:275  givenName */\n  0x01\n    /* \"lecture/lec11.sol\":266:288  givenName = _givenName */\n  swap1\n  dup1\n  mload\n  swap1\n  0x20\n  add\n  swap1\n  tag_7\n  swap3\n  swap2\n  swap1\n  tag_2\n  jump\t// in\ntag_7:\n  pop\n    /* \"lecture/lec11.sol\":211:295  constructor(string memory _givenName) public {... */\n  pop\n    /* \"lecture/lec11.sol\":581:626  contract Son is Father(\"YoonSeung\") {... */\n  jump(tag_8)\ntag_2:\n  dup3\n  dup1\n  sload\n  tag_9\n  swap1\n  tag_10\n  jump\t// in\ntag_9:\n  swap1\n  0x00\n  mstore\n  keccak256(0x00, 0x20)\n  swap1\n  0x1f\n  add\n  0x20\n  swap1\n  div\n  dup2\n  add\n  swap3\n  dup3\n  tag_12\n  jumpi\n  0x00\n  dup6\n  sstore\n  jump(tag_11)\ntag_12:\n  dup3\n  0x1f\n  lt\n  tag_13\n  jumpi\n  dup1\n  mload\n  not(0xff)\n  and\n  dup4\n  dup1\n  add\n  or\n  dup6\n  sstore\n  jump(tag_11)\ntag_13:\n  dup3\n  dup1\n  add\n  0x01\n  add\n  dup6\n  sstore\n  dup3\n  iszero\n  tag_11\n  jumpi\n  swap2\n  dup3\n  add\ntag_14:\n  dup3\n  dup2\n  gt\n  iszero\n  tag_15\n  jumpi\n  dup3\n  mload\n  dup3\n  sstore\n  swap2\n  0x20\n  add\n  swap2\n  swap1\n  0x01\n  add\n  swap1\n  jump(tag_14)\ntag_15:\ntag_11:\n  pop\n  swap1\n  pop\n  tag_16\n  swap2\n  swap1\n  tag_17\n  jump\t// in\ntag_16:\n  pop\n  swap1\n  jump\t// out\ntag_17:\ntag_18:\n  dup1\n  dup3\n  gt\n  iszero\n  tag_19\n  jumpi\n  0x00\n  dup2\n  0x00\n  swap1\n  sstore\n  pop\n  0x01\n  add\n  jump(tag_18)\ntag_19:\n  pop\n  swap1\n  jump\t// out\n    /* \"#utility.yul\":7:327   */\ntag_10:\n    /* \"#utility.yul\":51:57   */\n  0x00\n    /* \"#utility.yul\":88:89   */\n  0x02\n    /* \"#utility.yul\":82:86   */\n  dup3\n    /* \"#utility.yul\":78:90   */\n  div\n    /* \"#utility.yul\":68:90   */\n  swap1\n  pop\n    /* \"#utility.yul\":135:136   */\n  0x01\n    /* \"#utility.yul\":129:133   */\n  dup3\n    /* \"#utility.yul\":125:137   */\n  and\n    /* \"#utility.yul\":156:174   */\n  dup1\n    /* \"#utility.yul\":146:227   */\n  tag_22\n  jumpi\n    /* \"#utility.yul\":212:216   */\n  0x7f\n    /* \"#utility.yul\":204:210   */\n  dup3\n    /* \"#utility.yul\":200:217   */\n  and\n    /* \"#utility.yul\":190:217   */\n  swap2\n  pop\n    /* \"#utility.yul\":146:227   */\ntag_22:\n    /* \"#utility.yul\":274:276   */\n  0x20\n    /* \"#utility.yul\":266:272   */\n  dup3\n    /* \"#utility.yul\":263:277   */\n  lt\n    /* \"#utility.yul\":243:261   */\n  dup2\n    /* \"#utility.yul\":240:278   */\n  eq\n    /* \"#utility.yul\":237:321   */\n  iszero\n  tag_23\n  jumpi\n    /* \"#utility.yul\":293:311   */\n  tag_24\n  tag_25\n  jump\t// in\ntag_24:\n    /* \"#utility.yul\":237:321   */\ntag_23:\n    /* \"#utility.yul\":58:327   */\n  pop\n    /* \"#utility.yul\":7:327   */\n  swap2\n  swap1\n  pop\n  jump\t// out\n    /* \"#utility.yul\":333:513   */\ntag_25:\n    /* \"#utility.yul\":381:458   */\n  0x4e487b7100000000000000000000000000000000000000000000000000000000\n    /* \"#utility.yul\":378:379   */\n  0x00\n    /* \"#utility.yul\":371:459   */\n  mstore\n    /* \"#utility.yul\":478:482   */\n  0x22\n    /* \"#utility.yul\":475:476   */\n  0x04\n    /* \"#utility.yul\":468:483   */\n  mstore\n    /* \"#utility.yul\":502:506   */\n  0x24\n    /* \"#utility.yul\":499:500   */\n  0x00\n    /* \"#utility.yul\":492:507   */\n  revert\n    /* \"lecture/lec11.sol\":581:626  contract Son is Father(\"YoonSeung\") {... */\ntag_8:\n  dataSize(sub_0)\n  dup1\n  dataOffset(sub_0)\n  0x00\n  codecopy\n  0x00\n  return\nstop\n\nsub_0: assembly {\n        /* \"lecture/lec11.sol\":581:626  contract Son is Father(\"YoonSeung\") {... */\n      mstore(0x40, 0x80)\n      callvalue\n      dup1\n      iszero\n      tag_1\n      jumpi\n      0x00\n      dup1\n      revert\n    tag_1:\n      pop\n      jumpi(tag_2, lt(calldatasize, 0x04))\n      shr(0xe0, calldataload(0x00))\n      dup1\n      0x16c3e3b3\n      eq\n      tag_3\n      jumpi\n      dup1\n      0x4ddd108a\n      eq\n      tag_4\n      jumpi\n      dup1\n      0x7853512c\n      eq\n      tag_5\n      jumpi\n      dup1\n      0x98e1b410\n      eq\n      tag_6\n      jumpi\n      dup1\n      0xc515945b\n      eq\n      tag_7\n      jumpi\n      dup1\n      0xd26e329b\n      eq\n      tag_8\n      jumpi\n    tag_2:\n      0x00\n      dup1\n      revert\n        /* \"lecture/lec11.sol\":301:395  function getFamilyName() view public returns(string memory) {... */\n    tag_3:\n      tag_9\n      tag_10\n      jump\t// in\n    tag_9:\n      mload(0x40)\n      tag_11\n      swap2\n      swap1\n      tag_12\n      jump\t// in\n    tag_11:\n      mload(0x40)\n      dup1\n      swap2\n      sub\n      swap1\n      return\n        /* \"lecture/lec11.sol\":178:204  uint256 public money = 100 */\n    tag_4:\n      tag_13\n      tag_14\n      jump\t// in\n    tag_13:\n      mload(0x40)\n      tag_15\n      swap2\n      swap1\n      tag_16\n      jump\t// in\n    tag_15:\n      mload(0x40)\n      dup1\n      swap2\n      sub\n      swap1\n      return\n        /* \"lecture/lec11.sol\":140:172  string public givenName = \"Jiho\" */\n    tag_5:\n      tag_17\n      tag_18\n      jump\t// in\n    tag_17:\n      mload(0x40)\n      tag_19\n      swap2\n      swap1\n      tag_12\n      jump\t// in\n    tag_19:\n      mload(0x40)\n      dup1\n      swap2\n      sub\n      swap1\n      return\n        /* \"lecture/lec11.sol\":499:577  function getMoney() view public returns(uint256) {... */\n    tag_6:\n      tag_20\n      tag_21\n      jump\t// in\n    tag_20:\n      mload(0x40)\n      tag_22\n      swap2\n      swap1\n      tag_16\n      jump\t// in\n    tag_22:\n      mload(0x40)\n      dup1\n      swap2\n      sub\n      swap1\n      return\n        /* \"lecture/lec11.sol\":401:493  function getGivenName() view public returns(string memory) {... */\n    tag_7:\n      tag_23\n      tag_24\n      jump\t// in\n    tag_23:\n      mload(0x40)\n      tag_25\n      swap2\n      swap1\n      tag_12\n      jump\t// in\n    tag_25:\n      mload(0x40)\n      dup1\n      swap2\n      sub\n      swap1\n      return\n        /* \"lecture/lec11.sol\":101:134  string public familyName = \"Park\" */\n    tag_8:\n      tag_26\n      tag_27\n      jump\t// in\n    tag_26:\n      mload(0x40)\n      tag_28\n      swap2\n      swap1\n      tag_12\n      jump\t// in\n    tag_28:\n      mload(0x40)\n      dup1\n      swap2\n      sub\n      swap1\n      return\n        /* \"lecture/lec11.sol\":301:395  function getFamilyName() view public returns(string memory) {... */\n    tag_10:\n        /* \"lecture/lec11.sol\":346:359  string memory */\n      0x60\n        /* \"lecture/lec11.sol\":378:388  familyName */\n      0x00\n        /* \"lecture/lec11.sol\":371:388  return familyName */\n      dup1\n      sload\n      tag_30\n      swap1\n      tag_31\n      jump\t// in\n    tag_30:\n      dup1\n      0x1f\n      add\n      0x20\n      dup1\n      swap2\n      div\n      mul\n      0x20\n      add\n      mload(0x40)\n      swap1\n      dup2\n      add\n      0x40\n      mstore\n      dup1\n      swap3\n      swap2\n      swap1\n      dup2\n      dup2\n      mstore\n      0x20\n      add\n      dup3\n      dup1\n      sload\n      tag_32\n      swap1\n      tag_31\n      jump\t// in\n    tag_32:\n      dup1\n      iszero\n      tag_33\n      jumpi\n      dup1\n      0x1f\n      lt\n      tag_34\n      jumpi\n      0x0100\n      dup1\n      dup4\n      sload\n      div\n      mul\n      dup4\n      mstore\n      swap2\n      0x20\n      add\n      swap2\n      jump(tag_33)\n    tag_34:\n      dup3\n      add\n      swap2\n      swap1\n      0x00\n      mstore\n      keccak256(0x00, 0x20)\n      swap1\n    tag_35:\n      dup2\n      sload\n      dup2\n      mstore\n      swap1\n      0x01\n      add\n      swap1\n      0x20\n      add\n      dup1\n      dup4\n      gt\n      tag_35\n      jumpi\n      dup3\n      swap1\n      sub\n      0x1f\n      and\n      dup3\n      add\n      swap2\n    tag_33:\n      pop\n      pop\n      pop\n      pop\n      pop\n      swap1\n      pop\n        /* \"lecture/lec11.sol\":301:395  function getFamilyName() view public returns(string memory) {... */\n      swap1\n      jump\t// out\n        /* \"lecture/lec11.sol\":178:204  uint256 public money = 100 */\n    tag_14:\n      sload(0x02)\n      dup2\n      jump\t// out\n        /* \"lecture/lec11.sol\":140:172  string public givenName = \"Jiho\" */\n    tag_18:\n      0x01\n      dup1\n      sload\n      tag_36\n      swap1\n      tag_31\n      jump\t// in\n    tag_36:\n      dup1\n      0x1f\n      add\n      0x20\n      dup1\n      swap2\n      div\n      mul\n      0x20\n      add\n      mload(0x40)\n      swap1\n      dup2\n      add\n      0x40\n      mstore\n      dup1\n      swap3\n      swap2\n      swap1\n      dup2\n      dup2\n      mstore\n      0x20\n      add\n      dup3\n      dup1\n      sload\n      tag_37\n      swap1\n      tag_31\n      jump\t// in\n    tag_37:\n      dup1\n      iszero\n      tag_38\n      jumpi\n      dup1\n      0x1f\n      lt\n      tag_39\n      jumpi\n      0x0100\n      dup1\n      dup4\n      sload\n      div\n      mul\n      dup4\n      mstore\n      swap2\n      0x20\n      add\n      swap2\n      jump(tag_38)\n    tag_39:\n      dup3\n      add\n      swap2\n      swap1\n      0x00\n      mstore\n      keccak256(0x00, 0x20)\n      swap1\n    tag_40:\n      dup2\n      sload\n      dup2\n      mstore\n      swap1\n      0x01\n      add\n      swap1\n      0x20\n      add\n      dup1\n      dup4\n      gt\n      tag_40\n      jumpi\n      dup3\n      swap1\n      sub\n      0x1f\n      and\n      dup3\n      add\n      swap2\n    tag_38:\n      pop\n      pop\n      pop\n      pop\n      pop\n      dup2\n      jump\t// out\n        /* \"lecture/lec11.sol\":499:577  function getMoney() view public returns(uint256) {... */\n    tag_21:\n        /* \"lecture/lec11.sol\":539:546  uint256 */\n      0x00\n        /* \"lecture/lec11.sol\":565:570  money */\n      sload(0x02)\n        /* \"lecture/lec11.sol\":558:570  return money */\n      swap1\n      pop\n        /* \"lecture/lec11.sol\":499:577  function getMoney() view public returns(uint256) {... */\n      swap1\n      jump\t// out\n        /* \"lecture/lec11.sol\":401:493  function getGivenName() view public returns(string memory) {... */\n    tag_24:\n        /* \"lecture/lec11.sol\":445:458  string memory */\n      0x60\n        /* \"lecture/lec11.sol\":477:486  givenName */\n      0x01\n        /* \"lecture/lec11.sol\":470:486  return givenName */\n      dup1\n      sload\n      tag_43\n      swap1\n      tag_31\n      jump\t// in\n    tag_43:\n      dup1\n      0x1f\n      add\n      0x20\n      dup1\n      swap2\n      div\n      mul\n      0x20\n      add\n      mload(0x40)\n      swap1\n      dup2\n      add\n      0x40\n      mstore\n      dup1\n      swap3\n      swap2\n      swap1\n      dup2\n      dup2\n      mstore\n      0x20\n      add\n      dup3\n      dup1\n      sload\n      tag_44\n      swap1\n      tag_31\n      jump\t// in\n    tag_44:\n      dup1\n      iszero\n      tag_45\n      jumpi\n      dup1\n      0x1f\n      lt\n      tag_46\n      jumpi\n      0x0100\n      dup1\n      dup4\n      sload\n      div\n      mul\n      dup4\n      mstore\n      swap2\n      0x20\n      add\n      swap2\n      jump(tag_45)\n    tag_46:\n      dup3\n      add\n      swap2\n      swap1\n      0x00\n      mstore\n      keccak256(0x00, 0x20)\n      swap1\n    tag_47:\n      dup2\n      sload\n      dup2\n      mstore\n      swap1\n      0x01\n      add\n      swap1\n      0x20\n      add\n      dup1\n      dup4\n      gt\n      tag_47\n      jumpi\n      dup3\n      swap1\n      sub\n      0x1f\n      and\n      dup3\n      add\n      swap2\n    tag_45:\n      pop\n      pop\n      pop\n      pop\n      pop\n      swap1\n      pop\n        /* \"lecture/lec11.sol\":401:493  function getGivenName() view public returns(string memory) {... */\n      swap1\n      jump\t// out\n        /* \"lecture/lec11.sol\":101:134  string public familyName = \"Park\" */\n    tag_27:\n      0x00\n      dup1\n      sload\n      tag_48\n      swap1\n      tag_31\n      jump\t// in\n    tag_48:\n      dup1\n      0x1f\n      add\n      0x20\n      dup1\n      swap2\n      div\n      mul\n      0x20\n      add\n      mload(0x40)\n      swap1\n      dup2\n      add\n      0x40\n      mstore\n      dup1\n      swap3\n      swap2\n      swap1\n      dup2\n      dup2\n      mstore\n      0x20\n      add\n      dup3\n      dup1\n      sload\n      tag_49\n      swap1\n      tag_31\n      jump\t// in\n    tag_49:\n      dup1\n      iszero\n      tag_50\n      jumpi\n      dup1\n      0x1f\n      lt\n      tag_51\n      jumpi\n      0x0100\n      dup1\n      dup4\n      sload\n      div\n      mul\n      dup4\n      mstore\n      swap2\n      0x20\n      add\n      swap2\n      jump(tag_50)\n    tag_51:\n      dup3\n      add\n      swap2\n      swap1\n      0x00\n      mstore\n      keccak256(0x00, 0x20)\n      swap1\n    tag_52:\n      dup2\n      sload\n      dup2\n      mstore\n      swap1\n      0x01\n      add\n      swap1\n      0x20\n      add\n      dup1\n      dup4\n      gt\n      tag_52\n      jumpi\n      dup3\n      swap1\n      sub\n      0x1f\n      and\n      dup3\n      add\n      swap2\n    tag_50:\n      pop\n      pop\n      pop\n      pop\n      pop\n      dup2\n      jump\t// out\n        /* \"#utility.yul\":7:371   */\n    tag_54:\n        /* \"#utility.yul\":95:98   */\n      0x00\n        /* \"#utility.yul\":123:162   */\n      tag_56\n        /* \"#utility.yul\":156:161   */\n      dup3\n        /* \"#utility.yul\":123:162   */\n      tag_57\n      jump\t// in\n    tag_56:\n        /* \"#utility.yul\":178:249   */\n      tag_58\n        /* \"#utility.yul\":242:248   */\n      dup2\n        /* \"#utility.yul\":237:240   */\n      dup6\n        /* \"#utility.yul\":178:249   */\n      tag_59\n      jump\t// in\n    tag_58:\n        /* \"#utility.yul\":171:249   */\n      swap4\n      pop\n        /* \"#utility.yul\":258:310   */\n      tag_60\n        /* \"#utility.yul\":303:309   */\n      dup2\n        /* \"#utility.yul\":298:301   */\n      dup6\n        /* \"#utility.yul\":291:295   */\n      0x20\n        /* \"#utility.yul\":284:289   */\n      dup7\n        /* \"#utility.yul\":280:296   */\n      add\n        /* \"#utility.yul\":258:310   */\n      tag_61\n      jump\t// in\n    tag_60:\n        /* \"#utility.yul\":335:364   */\n      tag_62\n        /* \"#utility.yul\":357:363   */\n      dup2\n        /* \"#utility.yul\":335:364   */\n      tag_63\n      jump\t// in\n    tag_62:\n        /* \"#utility.yul\":330:333   */\n      dup5\n        /* \"#utility.yul\":326:365   */\n      add\n        /* \"#utility.yul\":319:365   */\n      swap2\n      pop\n        /* \"#utility.yul\":99:371   */\n      pop\n        /* \"#utility.yul\":7:371   */\n      swap3\n      swap2\n      pop\n      pop\n      jump\t// out\n        /* \"#utility.yul\":377:495   */\n    tag_64:\n        /* \"#utility.yul\":464:488   */\n      tag_66\n        /* \"#utility.yul\":482:487   */\n      dup2\n        /* \"#utility.yul\":464:488   */\n      tag_67\n      jump\t// in\n    tag_66:\n        /* \"#utility.yul\":459:462   */\n      dup3\n        /* \"#utility.yul\":452:489   */\n      mstore\n        /* \"#utility.yul\":377:495   */\n      pop\n      pop\n      jump\t// out\n        /* \"#utility.yul\":501:814   */\n    tag_12:\n        /* \"#utility.yul\":614:618   */\n      0x00\n        /* \"#utility.yul\":652:654   */\n      0x20\n        /* \"#utility.yul\":641:650   */\n      dup3\n        /* \"#utility.yul\":637:655   */\n      add\n        /* \"#utility.yul\":629:655   */\n      swap1\n      pop\n        /* \"#utility.yul\":701:710   */\n      dup2\n        /* \"#utility.yul\":695:699   */\n      dup2\n        /* \"#utility.yul\":691:711   */\n      sub\n        /* \"#utility.yul\":687:688   */\n      0x00\n        /* \"#utility.yul\":676:685   */\n      dup4\n        /* \"#utility.yul\":672:689   */\n      add\n        /* \"#utility.yul\":665:712   */\n      mstore\n        /* \"#utility.yul\":729:807   */\n      tag_69\n        /* \"#utility.yul\":802:806   */\n      dup2\n        /* \"#utility.yul\":793:799   */\n      dup5\n        /* \"#utility.yul\":729:807   */\n      tag_54\n      jump\t// in\n    tag_69:\n        /* \"#utility.yul\":721:807   */\n      swap1\n      pop\n        /* \"#utility.yul\":501:814   */\n      swap3\n      swap2\n      pop\n      pop\n      jump\t// out\n        /* \"#utility.yul\":820:1042   */\n    tag_16:\n        /* \"#utility.yul\":913:917   */\n      0x00\n        /* \"#utility.yul\":951:953   */\n      0x20\n        /* \"#utility.yul\":940:949   */\n      dup3\n        /* \"#utility.yul\":936:954   */\n      add\n        /* \"#utility.yul\":928:954   */\n      swap1\n      pop\n        /* \"#utility.yul\":964:1035   */\n      tag_71\n        /* \"#utility.yul\":1032:1033   */\n      0x00\n        /* \"#utility.yul\":1021:1030   */\n      dup4\n        /* \"#utility.yul\":1017:1034   */\n      add\n        /* \"#utility.yul\":1008:1014   */\n      dup5\n        /* \"#utility.yul\":964:1035   */\n      tag_64\n      jump\t// in\n    tag_71:\n        /* \"#utility.yul\":820:1042   */\n      swap3\n      swap2\n      pop\n      pop\n      jump\t// out\n        /* \"#utility.yul\":1048:1147   */\n    tag_57:\n        /* \"#utility.yul\":1100:1106   */\n      0x00\n        /* \"#utility.yul\":1134:1139   */\n      dup2\n        /* \"#utility.yul\":1128:1140   */\n      mload\n        /* \"#utility.yul\":1118:1140   */\n      swap1\n      pop\n        /* \"#utility.yul\":1048:1147   */\n      swap2\n      swap1\n      pop\n      jump\t// out\n        /* \"#utility.yul\":1153:1322   */\n    tag_59:\n        /* \"#utility.yul\":1237:1248   */\n      0x00\n        /* \"#utility.yul\":1271:1277   */\n      dup3\n        /* \"#utility.yul\":1266:1269   */\n      dup3\n        /* \"#utility.yul\":1259:1278   */\n      mstore\n        /* \"#utility.yul\":1311:1315   */\n      0x20\n        /* \"#utility.yul\":1306:1309   */\n      dup3\n        /* \"#utility.yul\":1302:1316   */\n      add\n        /* \"#utility.yul\":1287:1316   */\n      swap1\n      pop\n        /* \"#utility.yul\":1153:1322   */\n      swap3\n      swap2\n      pop\n      pop\n      jump\t// out\n        /* \"#utility.yul\":1328:1405   */\n    tag_67:\n        /* \"#utility.yul\":1365:1372   */\n      0x00\n        /* \"#utility.yul\":1394:1399   */\n      dup2\n        /* \"#utility.yul\":1383:1399   */\n      swap1\n      pop\n        /* \"#utility.yul\":1328:1405   */\n      swap2\n      swap1\n      pop\n      jump\t// out\n        /* \"#utility.yul\":1411:1718   */\n    tag_61:\n        /* \"#utility.yul\":1479:1480   */\n      0x00\n        /* \"#utility.yul\":1489:1602   */\n    tag_76:\n        /* \"#utility.yul\":1503:1509   */\n      dup4\n        /* \"#utility.yul\":1500:1501   */\n      dup2\n        /* \"#utility.yul\":1497:1510   */\n      lt\n        /* \"#utility.yul\":1489:1602   */\n      iszero\n      tag_78\n      jumpi\n        /* \"#utility.yul\":1588:1589   */\n      dup1\n        /* \"#utility.yul\":1583:1586   */\n      dup3\n        /* \"#utility.yul\":1579:1590   */\n      add\n        /* \"#utility.yul\":1573:1591   */\n      mload\n        /* \"#utility.yul\":1569:1570   */\n      dup2\n        /* \"#utility.yul\":1564:1567   */\n      dup5\n        /* \"#utility.yul\":1560:1571   */\n      add\n        /* \"#utility.yul\":1553:1592   */\n      mstore\n        /* \"#utility.yul\":1525:1527   */\n      0x20\n        /* \"#utility.yul\":1522:1523   */\n      dup2\n        /* \"#utility.yul\":1518:1528   */\n      add\n        /* \"#utility.yul\":1513:1528   */\n      swap1\n      pop\n        /* \"#utility.yul\":1489:1602   */\n      jump(tag_76)\n    tag_78:\n        /* \"#utility.yul\":1620:1626   */\n      dup4\n        /* \"#utility.yul\":1617:1618   */\n      dup2\n        /* \"#utility.yul\":1614:1627   */\n      gt\n        /* \"#utility.yul\":1611:1712   */\n      iszero\n      tag_79\n      jumpi\n        /* \"#utility.yul\":1700:1701   */\n      0x00\n        /* \"#utility.yul\":1691:1697   */\n      dup5\n        /* \"#utility.yul\":1686:1689   */\n      dup5\n        /* \"#utility.yul\":1682:1698   */\n      add\n        /* \"#utility.yul\":1675:1702   */\n      mstore\n        /* \"#utility.yul\":1611:1712   */\n    tag_79:\n        /* \"#utility.yul\":1460:1718   */\n      pop\n        /* \"#utility.yul\":1411:1718   */\n      pop\n      pop\n      pop\n      jump\t// out\n        /* \"#utility.yul\":1724:2044   */\n    tag_31:\n        /* \"#utility.yul\":1768:1774   */\n      0x00\n        /* \"#utility.yul\":1805:1806   */\n      0x02\n        /* \"#utility.yul\":1799:1803   */\n      dup3\n        /* \"#utility.yul\":1795:1807   */\n      div\n        /* \"#utility.yul\":1785:1807   */\n      swap1\n      pop\n        /* \"#utility.yul\":1852:1853   */\n      0x01\n        /* \"#utility.yul\":1846:1850   */\n      dup3\n        /* \"#utility.yul\":1842:1854   */\n      and\n        /* \"#utility.yul\":1873:1891   */\n      dup1\n        /* \"#utility.yul\":1863:1944   */\n      tag_81\n      jumpi\n        /* \"#utility.yul\":1929:1933   */\n      0x7f\n        /* \"#utility.yul\":1921:1927   */\n      dup3\n        /* \"#utility.yul\":1917:1934   */\n      and\n        /* \"#utility.yul\":1907:1934   */\n      swap2\n      pop\n        /* \"#utility.yul\":1863:1944   */\n    tag_81:\n        /* \"#utility.yul\":1991:1993   */\n      0x20\n        /* \"#utility.yul\":1983:1989   */\n      dup3\n        /* \"#utility.yul\":1980:1994   */\n      lt\n        /* \"#utility.yul\":1960:1978   */\n      dup2\n        /* \"#utility.yul\":1957:1995   */\n      eq\n        /* \"#utility.yul\":1954:2038   */\n      iszero\n      tag_82\n      jumpi\n        /* \"#utility.yul\":2010:2028   */\n      tag_83\n      tag_84\n      jump\t// in\n    tag_83:\n        /* \"#utility.yul\":1954:2038   */\n    tag_82:\n        /* \"#utility.yul\":1775:2044   */\n      pop\n        /* \"#utility.yul\":1724:2044   */\n      swap2\n      swap1\n      pop\n      jump\t// out\n        /* \"#utility.yul\":2050:2230   */\n    tag_84:\n        /* \"#utility.yul\":2098:2175   */\n      0x4e487b7100000000000000000000000000000000000000000000000000000000\n        /* \"#utility.yul\":2095:2096   */\n      0x00\n        /* \"#utility.yul\":2088:2176   */\n      mstore\n        /* \"#utility.yul\":2195:2199   */\n      0x22\n        /* \"#utility.yul\":2192:2193   */\n      0x04\n        /* \"#utility.yul\":2185:2200   */\n      mstore\n        /* \"#utility.yul\":2219:2223   */\n      0x24\n        /* \"#utility.yul\":2216:2217   */\n      0x00\n        /* \"#utility.yul\":2209:2224   */\n      revert\n        /* \"#utility.yul\":2236:2338   */\n    tag_63:\n        /* \"#utility.yul\":2277:2283   */\n      0x00\n        /* \"#utility.yul\":2328:2330   */\n      0x1f\n        /* \"#utility.yul\":2324:2331   */\n      not\n        /* \"#utility.yul\":2319:2321   */\n      0x1f\n        /* \"#utility.yul\":2312:2317   */\n      dup4\n        /* \"#utility.yul\":2308:2322   */\n      add\n        /* \"#utility.yul\":2304:2332   */\n      and\n        /* \"#utility.yul\":2294:2332   */\n      swap1\n      pop\n        /* \"#utility.yul\":2236:2338   */\n      swap2\n      swap1\n      pop\n      jump\t// out\n\n    auxdata: 0xa26469706673582212204638073eb2ea68fccbff20e10090384ed1d706859d5b38e7316d933cf563e4d564736f6c63430008070033\n}\n",
				"bytecode": {
					"linkReferences": {},
					"object": "60806040526040518060400160405280600481526020017f5061726b000000000000000000000000000000000000000000000000000000008152506000908051906020019061004f929190610101565b506040518060400160405280600481526020017f4a69686f000000000000000000000000000000000000000000000000000000008152506001908051906020019061009b929190610101565b5060646002553480156100ad57600080fd5b506040518060400160405280600981526020017f596f6f6e5365756e67000000000000000000000000000000000000000000000081525080600190805190602001906100fa929190610101565b5050610205565b82805461010d906101a4565b90600052602060002090601f01602090048101928261012f5760008555610176565b82601f1061014857805160ff1916838001178555610176565b82800160010185558215610176579182015b8281111561017557825182559160200191906001019061015a565b5b5090506101839190610187565b5090565b5b808211156101a0576000816000905550600101610188565b5090565b600060028204905060018216806101bc57607f821691505b602082108114156101d0576101cf6101d6565b5b50919050565b7f4e487b7100000000000000000000000000000000000000000000000000000000600052602260045260246000fd5b6104f1806102146000396000f3fe608060405234801561001057600080fd5b50600436106100625760003560e01c806316c3e3b3146100675780634ddd108a146100855780637853512c146100a357806398e1b410146100c1578063c515945b146100df578063d26e329b146100fd575b600080fd5b61006f61011b565b60405161007c91906103b3565b60405180910390f35b61008d6101ad565b60405161009a91906103d5565b60405180910390f35b6100ab6101b3565b6040516100b891906103b3565b60405180910390f35b6100c9610241565b6040516100d691906103d5565b60405180910390f35b6100e761024b565b6040516100f491906103b3565b60405180910390f35b6101056102dd565b60405161011291906103b3565b60405180910390f35b60606000805461012a90610449565b80601f016020809104026020016040519081016040528092919081815260200182805461015690610449565b80156101a35780601f10610178576101008083540402835291602001916101a3565b820191906000526020600020905b81548152906001019060200180831161018657829003601f168201915b5050505050905090565b60025481565b600180546101c090610449565b80601f01602080910402602001604051908101604052809291908181526020018280546101ec90610449565b80156102395780601f1061020e57610100808354040283529160200191610239565b820191906000526020600020905b81548152906001019060200180831161021c57829003601f168201915b505050505081565b6000600254905090565b60606001805461025a90610449565b80601f016020809104026020016040519081016040528092919081815260200182805461028690610449565b80156102d35780601f106102a8576101008083540402835291602001916102d3565b820191906000526020600020905b8154815290600101906020018083116102b657829003601f168201915b5050505050905090565b600080546102ea90610449565b80601f016020809104026020016040519081016040528092919081815260200182805461031690610449565b80156103635780601f1061033857610100808354040283529160200191610363565b820191906000526020600020905b81548152906001019060200180831161034657829003601f168201915b505050505081565b6000610376826103f0565b61038081856103fb565b9350610390818560208601610416565b610399816104aa565b840191505092915050565b6103ad8161040c565b82525050565b600060208201905081810360008301526103cd818461036b565b905092915050565b60006020820190506103ea60008301846103a4565b92915050565b600081519050919050565b600082825260208201905092915050565b6000819050919050565b60005b83811015610434578082015181840152602081019050610419565b83811115610443576000848401525b50505050565b6000600282049050600182168061046157607f821691505b602082108114156104755761047461047b565b5b50919050565b7f4e487b7100000000000000000000000000000000000000000000000000000000600052602260045260246000fd5b6000601f19601f830116905091905056fea26469706673582212204638073eb2ea68fccbff20e10090384ed1d706859d5b38e7316d933cf563e4d564736f6c63430008070033",
					"opcodes": "PUSH1 0x80 PUSH1 0x40 MSTORE PUSH1 0x40 MLOAD DUP1 PUSH1 0x40 ADD PUSH1 0x40 MSTORE DUP1 PUSH1 0x4 DUP2 MSTORE PUSH1 0x20 ADD PUSH32 0x5061726B00000000000000000000000000000000000000000000000000000000 DUP2 MSTORE POP PUSH1 0x0 SWAP1 DUP1 MLOAD SWAP1 PUSH1 0x20 ADD SWAP1 PUSH2 0x4F SWAP3 SWAP2 SWAP1 PUSH2 0x101 JUMP JUMPDEST POP PUSH1 0x40 MLOAD DUP1 PUSH1 0x40 ADD PUSH1 0x40 MSTORE DUP1 PUSH1 0x4 DUP2 MSTORE PUSH1 0x20 ADD PUSH32 0x4A69686F00000000000000000000000000000000000000000000000000000000 DUP2 MSTORE POP PUSH1 0x1 SWAP1 DUP1 MLOAD SWAP1 PUSH1 0x20 ADD SWAP1 PUSH2 0x9B SWAP3 SWAP2 SWAP1 PUSH2 0x101 JUMP JUMPDEST POP PUSH1 0x64 PUSH1 0x2 SSTORE CALLVALUE DUP1 ISZERO PUSH2 0xAD JUMPI PUSH1 0x0 DUP1 REVERT JUMPDEST POP PUSH1 0x40 MLOAD DUP1 PUSH1 0x40 ADD PUSH1 0x40 MSTORE DUP1 PUSH1 0x9 DUP2 MSTORE PUSH1 0x20 ADD PUSH32 0x596F6F6E5365756E670000000000000000000000000000000000000000000000 DUP2 MSTORE POP DUP1 PUSH1 0x1 SWAP1 DUP1 MLOAD SWAP1 PUSH1 0x20 ADD SWAP1 PUSH2 0xFA SWAP3 SWAP2 SWAP1 PUSH2 0x101 JUMP JUMPDEST POP POP PUSH2 0x205 JUMP JUMPDEST DUP3 DUP1 SLOAD PUSH2 0x10D SWAP1 PUSH2 0x1A4 JUMP JUMPDEST SWAP1 PUSH1 0x0 MSTORE PUSH1 0x20 PUSH1 0x0 KECCAK256 SWAP1 PUSH1 0x1F ADD PUSH1 0x20 SWAP1 DIV DUP2 ADD SWAP3 DUP3 PUSH2 0x12F JUMPI PUSH1 0x0 DUP6 SSTORE PUSH2 0x176 JUMP JUMPDEST DUP3 PUSH1 0x1F LT PUSH2 0x148 JUMPI DUP1 MLOAD PUSH1 0xFF NOT AND DUP4 DUP1 ADD OR DUP6 SSTORE PUSH2 0x176 JUMP JUMPDEST DUP3 DUP1 ADD PUSH1 0x1 ADD DUP6 SSTORE DUP3 ISZERO PUSH2 0x176 JUMPI SWAP2 DUP3 ADD JUMPDEST DUP3 DUP2 GT ISZERO PUSH2 0x175 JUMPI DUP3 MLOAD DUP3 SSTORE SWAP2 PUSH1 0x20 ADD SWAP2 SWAP1 PUSH1 0x1 ADD SWAP1 PUSH2 0x15A JUMP JUMPDEST JUMPDEST POP SWAP1 POP PUSH2 0x183 SWAP2 SWAP1 PUSH2 0x187 JUMP JUMPDEST POP SWAP1 JUMP JUMPDEST JUMPDEST DUP1 DUP3 GT ISZERO PUSH2 0x1A0 JUMPI PUSH1 0x0 DUP2 PUSH1 0x0 SWAP1 SSTORE POP PUSH1 0x1 ADD PUSH2 0x188 JUMP JUMPDEST POP SWAP1 JUMP JUMPDEST PUSH1 0x0 PUSH1 0x2 DUP3 DIV SWAP1 POP PUSH1 0x1 DUP3 AND DUP1 PUSH2 0x1BC JUMPI PUSH1 0x7F DUP3 AND SWAP2 POP JUMPDEST PUSH1 0x20 DUP3 LT DUP2 EQ ISZERO PUSH2 0x1D0 JUMPI PUSH2 0x1CF PUSH2 0x1D6 JUMP JUMPDEST JUMPDEST POP SWAP2 SWAP1 POP JUMP JUMPDEST PUSH32 0x4E487B7100000000000000000000000000000000000000000000000000000000 PUSH1 0x0 MSTORE PUSH1 0x22 PUSH1 0x4 MSTORE PUSH1 0x24 PUSH1 0x0 REVERT JUMPDEST PUSH2 0x4F1 DUP1 PUSH2 0x214 PUSH1 0x0 CODECOPY PUSH1 0x0 RETURN INVALID PUSH1 0x80 PUSH1 0x40 MSTORE CALLVALUE DUP1 ISZERO PUSH2 0x10 JUMPI PUSH1 0x0 DUP1 REVERT JUMPDEST POP PUSH1 0x4 CALLDATASIZE LT PUSH2 0x62 JUMPI PUSH1 0x0 CALLDATALOAD PUSH1 0xE0 SHR DUP1 PUSH4 0x16C3E3B3 EQ PUSH2 0x67 JUMPI DUP1 PUSH4 0x4DDD108A EQ PUSH2 0x85 JUMPI DUP1 PUSH4 0x7853512C EQ PUSH2 0xA3 JUMPI DUP1 PUSH4 0x98E1B410 EQ PUSH2 0xC1 JUMPI DUP1 PUSH4 0xC515945B EQ PUSH2 0xDF JUMPI DUP1 PUSH4 0xD26E329B EQ PUSH2 0xFD JUMPI JUMPDEST PUSH1 0x0 DUP1 REVERT JUMPDEST PUSH2 0x6F PUSH2 0x11B JUMP JUMPDEST PUSH1 0x40 MLOAD PUSH2 0x7C SWAP2 SWAP1 PUSH2 0x3B3 JUMP JUMPDEST PUSH1 0x40 MLOAD DUP1 SWAP2 SUB SWAP1 RETURN JUMPDEST PUSH2 0x8D PUSH2 0x1AD JUMP JUMPDEST PUSH1 0x40 MLOAD PUSH2 0x9A SWAP2 SWAP1 PUSH2 0x3D5 JUMP JUMPDEST PUSH1 0x40 MLOAD DUP1 SWAP2 SUB SWAP1 RETURN JUMPDEST PUSH2 0xAB PUSH2 0x1B3 JUMP JUMPDEST PUSH1 0x40 MLOAD PUSH2 0xB8 SWAP2 SWAP1 PUSH2 0x3B3 JUMP JUMPDEST PUSH1 0x40 MLOAD DUP1 SWAP2 SUB SWAP1 RETURN JUMPDEST PUSH2 0xC9 PUSH2 0x241 JUMP JUMPDEST PUSH1 0x40 MLOAD PUSH2 0xD6 SWAP2 SWAP1 PUSH2 0x3D5 JUMP JUMPDEST PUSH1 0x40 MLOAD DUP1 SWAP2 SUB SWAP1 RETURN JUMPDEST PUSH2 0xE7 PUSH2 0x24B JUMP JUMPDEST PUSH1 0x40 MLOAD PUSH2 0xF4 SWAP2 SWAP1 PUSH2 0x3B3 JUMP JUMPDEST PUSH1 0x40 MLOAD DUP1 SWAP2 SUB SWAP1 RETURN JUMPDEST PUSH2 0x105 PUSH2 0x2DD JUMP JUMPDEST PUSH1 0x40 MLOAD PUSH2 0x112 SWAP2 SWAP1 PUSH2 0x3B3 JUMP JUMPDEST PUSH1 0x40 MLOAD DUP1 SWAP2 SUB SWAP1 RETURN JUMPDEST PUSH1 0x60 PUSH1 0x0 DUP1 SLOAD PUSH2 0x12A SWAP1 PUSH2 0x449 JUMP JUMPDEST DUP1 PUSH1 0x1F ADD PUSH1 0x20 DUP1 SWAP2 DIV MUL PUSH1 0x20 ADD PUSH1 0x40 MLOAD SWAP1 DUP2 ADD PUSH1 0x40 MSTORE DUP1 SWAP3 SWAP2 SWAP1 DUP2 DUP2 MSTORE PUSH1 0x20 ADD DUP3 DUP1 SLOAD PUSH2 0x156 SWAP1 PUSH2 0x449 JUMP JUMPDEST DUP1 ISZERO PUSH2 0x1A3 JUMPI DUP1 PUSH1 0x1F LT PUSH2 0x178 JUMPI PUSH2 0x100 DUP1 DUP4 SLOAD DIV MUL DUP4 MSTORE SWAP2 PUSH1 0x20 ADD SWAP2 PUSH2 0x1A3 JUMP JUMPDEST DUP3 ADD SWAP2 SWAP1 PUSH1 0x0 MSTORE PUSH1 0x20 PUSH1 0x0 KECCAK256 SWAP1 JUMPDEST DUP2 SLOAD DUP2 MSTORE SWAP1 PUSH1 0x1 ADD SWAP1 PUSH1 0x20 ADD DUP1 DUP4 GT PUSH2 0x186 JUMPI DUP3 SWAP1 SUB PUSH1 0x1F AND DUP3 ADD SWAP2 JUMPDEST POP POP POP POP POP SWAP1 POP SWAP1 JUMP JUMPDEST PUSH1 0x2 SLOAD DUP2 JUMP JUMPDEST PUSH1 0x1 DUP1 SLOAD PUSH2 0x1C0 SWAP1 PUSH2 0x449 JUMP JUMPDEST DUP1 PUSH1 0x1F ADD PUSH1 0x20 DUP1 SWAP2 DIV MUL PUSH1 0x20 ADD PUSH1 0x40 MLOAD SWAP1 DUP2 ADD PUSH1 0x40 MSTORE DUP1 SWAP3 SWAP2 SWAP1 DUP2 DUP2 MSTORE PUSH1 0x20 ADD DUP3 DUP1 SLOAD PUSH2 0x1EC SWAP1 PUSH2 0x449 JUMP JUMPDEST DUP1 ISZERO PUSH2 0x239 JUMPI DUP1 PUSH1 0x1F LT PUSH2 0x20E JUMPI PUSH2 0x100 DUP1 DUP4 SLOAD DIV MUL DUP4 MSTORE SWAP2 PUSH1 0x20 ADD SWAP2 PUSH2 0x239 JUMP JUMPDEST DUP3 ADD SWAP2 SWAP1 PUSH1 0x0 MSTORE PUSH1 0x20 PUSH1 0x0 KECCAK256 SWAP1 JUMPDEST DUP2 SLOAD DUP2 MSTORE SWAP1 PUSH1 0x1 ADD SWAP1 PUSH1 0x20 ADD DUP1 DUP4 GT PUSH2 0x21C JUMPI DUP3 SWAP1 SUB PUSH1 0x1F AND DUP3 ADD SWAP2 JUMPDEST POP POP POP POP POP DUP2 JUMP JUMPDEST PUSH1 0x0 PUSH1 0x2 SLOAD SWAP1 POP SWAP1 JUMP JUMPDEST PUSH1 0x60 PUSH1 0x1 DUP1 SLOAD PUSH2 0x25A SWAP1 PUSH2 0x449 JUMP JUMPDEST DUP1 PUSH1 0x1F ADD PUSH1 0x20 DUP1 SWAP2 DIV MUL PUSH1 0x20 ADD PUSH1 0x40 MLOAD SWAP1 DUP2 ADD PUSH1 0x40 MSTORE DUP1 SWAP3 SWAP2 SWAP1 DUP2 DUP2 MSTORE PUSH1 0x20 ADD DUP3 DUP1 SLOAD PUSH2 0x286 SWAP1 PUSH2 0x449 JUMP JUMPDEST DUP1 ISZERO PUSH2 0x2D3 JUMPI DUP1 PUSH1 0x1F LT PUSH2 0x2A8 JUMPI PUSH2 0x100 DUP1 DUP4 SLOAD DIV MUL DUP4 MSTORE SWAP2 PUSH1 0x20 ADD SWAP2 PUSH2 0x2D3 JUMP JUMPDEST DUP3 ADD SWAP2 SWAP1 PUSH1 0x0 MSTORE PUSH1 0x20 PUSH1 0x0 KECCAK256 SWAP1 JUMPDEST DUP2 SLOAD DUP2 MSTORE SWAP1 PUSH1 0x1 ADD SWAP1 PUSH1 0x20 ADD DUP1 DUP4 GT PUSH2 0x2B6 JUMPI DUP3 SWAP1 SUB PUSH1 0x1F AND DUP3 ADD SWAP2 JUMPDEST POP POP POP POP POP SWAP1 POP SWAP1 JUMP JUMPDEST PUSH1 0x0 DUP1 SLOAD PUSH2 0x2EA SWAP1 PUSH2 0x449 JUMP JUMPDEST DUP1 PUSH1 0x1F ADD PUSH1 0x20 DUP1 SWAP2 DIV MUL PUSH1 0x20 ADD PUSH1 0x40 MLOAD SWAP1 DUP2 ADD PUSH1 0x40 MSTORE DUP1 SWAP3 SWAP2 SWAP1 DUP2 DUP2 MSTORE PUSH1 0x20 ADD DUP3 DUP1 SLOAD PUSH2 0x316 SWAP1 PUSH2 0x449 JUMP JUMPDEST DUP1 ISZERO PUSH2 0x363 JUMPI DUP1 PUSH1 0x1F LT PUSH2 0x338 JUMPI PUSH2 0x100 DUP1 DUP4 SLOAD DIV MUL DUP4 MSTORE SWAP2 PUSH1 0x20 ADD SWAP2 PUSH2 0x363 JUMP JUMPDEST DUP3 ADD SWAP2 SWAP1 PUSH1 0x0 MSTORE PUSH1 0x20 PUSH1 0x0 KECCAK256 SWAP1 JUMPDEST DUP2 SLOAD DUP2 MSTORE SWAP1 PUSH1 0x1 ADD SWAP1 PUSH1 0x20 ADD DUP1 DUP4 GT PUSH2 0x346 JUMPI DUP3 SWAP1 SUB PUSH1 0x1F AND DUP3 ADD SWAP2 JUMPDEST POP POP POP POP POP DUP2 JUMP JUMPDEST PUSH1 0x0 PUSH2 0x376 DUP3 PUSH2 0x3F0 JUMP JUMPDEST PUSH2 0x380 DUP2 DUP6 PUSH2 0x3FB JUMP JUMPDEST SWAP4 POP PUSH2 0x390 DUP2 DUP6 PUSH1 0x20 DUP7 ADD PUSH2 0x416 JUMP JUMPDEST PUSH2 0x399 DUP2 PUSH2 0x4AA JUMP JUMPDEST DUP5 ADD SWAP2 POP POP SWAP3 SWAP2 POP POP JUMP JUMPDEST PUSH2 0x3AD DUP2 PUSH2 0x40C JUMP JUMPDEST DUP3 MSTORE POP POP JUMP JUMPDEST PUSH1 0x0 PUSH1 0x20 DUP3 ADD SWAP1 POP DUP2 DUP2 SUB PUSH1 0x0 DUP4 ADD MSTORE PUSH2 0x3CD DUP2 DUP5 PUSH2 0x36B JUMP JUMPDEST SWAP1 POP SWAP3 SWAP2 POP POP JUMP JUMPDEST PUSH1 0x0 PUSH1 0x20 DUP3 ADD SWAP1 POP PUSH2 0x3EA PUSH1 0x0 DUP4 ADD DUP5 PUSH2 0x3A4 JUMP JUMPDEST SWAP3 SWAP2 POP POP JUMP JUMPDEST PUSH1 0x0 DUP2 MLOAD SWAP1 POP SWAP2 SWAP1 POP JUMP JUMPDEST PUSH1 0x0 DUP3 DUP3 MSTORE PUSH1 0x20 DUP3 ADD SWAP1 POP SWAP3 SWAP2 POP POP JUMP JUMPDEST PUSH1 0x0 DUP2 SWAP1 POP SWAP2 SWAP1 POP JUMP JUMPDEST PUSH1 0x0 JUMPDEST DUP4 DUP2 LT ISZERO PUSH2 0x434 JUMPI DUP1 DUP3 ADD MLOAD DUP2 DUP5 ADD MSTORE PUSH1 0x20 DUP2 ADD SWAP1 POP PUSH2 0x419 JUMP JUMPDEST DUP4 DUP2 GT ISZERO PUSH2 0x443 JUMPI PUSH1 0x0 DUP5 DUP5 ADD MSTORE JUMPDEST POP POP POP POP JUMP JUMPDEST PUSH1 0x0 PUSH1 0x2 DUP3 DIV SWAP1 POP PUSH1 0x1 DUP3 AND DUP1 PUSH2 0x461 JUMPI PUSH1 0x7F DUP3 AND SWAP2 POP JUMPDEST PUSH1 0x20 DUP3 LT DUP2 EQ ISZERO PUSH2 0x475 JUMPI PUSH2 0x474 PUSH2 0x47B JUMP JUMPDEST JUMPDEST POP SWAP2 SWAP1 POP JUMP JUMPDEST PUSH32 0x4E487B7100000000000000000000000000000000000000000000000000000000 PUSH1 0x0 MSTORE PUSH1 0x22 PUSH1 0x4 MSTORE PUSH1 0x24 PUSH1 0x0 REVERT JUMPDEST PUSH1 0x0 PUSH1 0x1F NOT PUSH1 0x1F DUP4 ADD AND SWAP1 POP SWAP2 SWAP1 POP JUMP INVALID LOG2 PUSH5 0x6970667358 0x22 SLT KECCAK256 CHAINID CODESIZE SMOD RETURNDATACOPY 0xB2 0xEA PUSH9 0xFCCBFF20E10090384E 0xD1 0xD7 MOD DUP6 SWAP14 JUMPDEST CODESIZE 0xE7 BALANCE PUSH14 0x933CF563E4D564736F6C63430008 SMOD STOP CALLER "
				},
				"gasEstimates": {
					"creation": {
						"codeDepositCost": "253000",
						"executionCost": "infinite",
						"totalCost": "infinite"
					},
					"external": {
						"familyName()": "infinite",
						"getFamilyName()": "infinite",
						"getGivenName()": "infinite",
						"getMoney()": "2481",
						"givenName()": "infinite",
						"money()": "2429"
					}
				},
				"methodIdentifiers": {
					"familyName()": "d26e329b",
					"getFamilyName()": "16c3e3b3",
					"getGivenName()": "c515945b",
					"getMoney()": "98e1b410",
					"givenName()": "7853512c",
					"money()": "4ddd108a"
				}
			},
			"storageLayout": {
				"storage": [
					{
						"astId": 4,
						"contract": "lecture/lec11.sol:Son",
						"label": "familyName",
						"offset": 0,
						"slot": "0",
						"type": "t_string_storage"
					},
					{
						"astId": 7,
						"contract": "lecture/lec11.sol:Son",
						"label": "givenName",
						"offset": 0,
						"slot": "1",
						"type": "t_string_storage"
					},
					{
						"astId": 10,
						"contract": "lecture/lec11.sol:Son",
						"label": "money",
						"offset": 0,
						"slot": "2",
						"type": "t_uint256"
					}
				],
				"types": {
					"t_string_storage": {
						"encoding": "bytes",
						"label": "string",
						"numberOfBytes": "32"
					},
					"t_uint256": {
						"encoding": "inplace",
						"label": "uint256",
						"numberOfBytes": "32"
					}
				}
			},
			"userdoc": {
				"kind": "user",
				"methods": {},
				"version": 1
			}
		}
	}
}