{
	"lecture/lec7.sol": {
		"Lec7": {
			"abi": [
				{
					"inputs": [
						{
							"internalType": "string",
							"name": "_str",
							"type": "string"
						}
					],
					"name": "getString",
					"outputs": [
						{
							"internalType": "string",
							"name": "",
							"type": "string"
						}
					],
					"stateMutability": "pure",
					"type": "function"
				}
			],
			"devdoc": {
				"kind": "dev",
				"methods": {},
				"version": 1
			},
			"evm": {
				"assembly": "    /* \"lecture/lec7.sol\":71:679  contract Lec7 {... */\n  mstore(0x40, 0x80)\n  callvalue\n  dup1\n  iszero\n  tag_1\n  jumpi\n  0x00\n  dup1\n  revert\ntag_1:\n  pop\n  dataSize(sub_0)\n  dup1\n  dataOffset(sub_0)\n  0x00\n  codecopy\n  0x00\n  return\nstop\n\nsub_0: assembly {\n        /* \"lecture/lec7.sol\":71:679  contract Lec7 {... */\n      mstore(0x40, 0x80)\n      callvalue\n      dup1\n      iszero\n      tag_1\n      jumpi\n      0x00\n      dup1\n      revert\n    tag_1:\n      pop\n      jumpi(tag_2, lt(calldatasize, 0x04))\n      shr(0xe0, calldataload(0x00))\n      dup1\n      0x9c981fcb\n      eq\n      tag_3\n      jumpi\n    tag_2:\n      0x00\n      dup1\n      revert\n        /* \"lecture/lec7.sol\":583:673  function getString(string memory _str) public pure returns(string memory) {... */\n    tag_3:\n      tag_4\n      0x04\n      dup1\n      calldatasize\n      sub\n      dup2\n      add\n      swap1\n      tag_5\n      swap2\n      swap1\n      tag_6\n      jump\t// in\n    tag_5:\n      tag_7\n      jump\t// in\n    tag_4:\n      mload(0x40)\n      tag_8\n      swap2\n      swap1\n      tag_9\n      jump\t// in\n    tag_8:\n      mload(0x40)\n      dup1\n      swap2\n      sub\n      swap1\n      return\n    tag_7:\n        /* \"lecture/lec7.sol\":642:655  string memory */\n      0x60\n        /* \"lecture/lec7.sol\":583:673  function getString(string memory _str) public pure returns(string memory) {... */\n      swap2\n      swap1\n      pop\n      jump\t// out\n        /* \"#utility.yul\":7:419   */\n    tag_12:\n        /* \"#utility.yul\":85:90   */\n      0x00\n        /* \"#utility.yul\":110:176   */\n      tag_14\n        /* \"#utility.yul\":126:175   */\n      tag_15\n        /* \"#utility.yul\":168:174   */\n      dup5\n        /* \"#utility.yul\":126:175   */\n      tag_16\n      jump\t// in\n    tag_15:\n        /* \"#utility.yul\":110:176   */\n      tag_17\n      jump\t// in\n    tag_14:\n        /* \"#utility.yul\":101:176   */\n      swap1\n      pop\n        /* \"#utility.yul\":199:205   */\n      dup3\n        /* \"#utility.yul\":192:197   */\n      dup2\n        /* \"#utility.yul\":185:206   */\n      mstore\n        /* \"#utility.yul\":237:241   */\n      0x20\n        /* \"#utility.yul\":230:235   */\n      dup2\n        /* \"#utility.yul\":226:242   */\n      add\n        /* \"#utility.yul\":275:278   */\n      dup5\n        /* \"#utility.yul\":266:272   */\n      dup5\n        /* \"#utility.yul\":261:264   */\n      dup5\n        /* \"#utility.yul\":257:273   */\n      add\n        /* \"#utility.yul\":254:279   */\n      gt\n        /* \"#utility.yul\":251:363   */\n      iszero\n      tag_18\n      jumpi\n        /* \"#utility.yul\":282:361   */\n      tag_19\n      tag_20\n      jump\t// in\n    tag_19:\n        /* \"#utility.yul\":251:363   */\n    tag_18:\n        /* \"#utility.yul\":372:413   */\n      tag_21\n        /* \"#utility.yul\":406:412   */\n      dup5\n        /* \"#utility.yul\":401:404   */\n      dup3\n        /* \"#utility.yul\":396:399   */\n      dup6\n        /* \"#utility.yul\":372:413   */\n      tag_22\n      jump\t// in\n    tag_21:\n        /* \"#utility.yul\":91:419   */\n      pop\n        /* \"#utility.yul\":7:419   */\n      swap4\n      swap3\n      pop\n      pop\n      pop\n      jump\t// out\n        /* \"#utility.yul\":439:779   */\n    tag_23:\n        /* \"#utility.yul\":495:500   */\n      0x00\n        /* \"#utility.yul\":544:547   */\n      dup3\n        /* \"#utility.yul\":537:541   */\n      0x1f\n        /* \"#utility.yul\":529:535   */\n      dup4\n        /* \"#utility.yul\":525:542   */\n      add\n        /* \"#utility.yul\":521:548   */\n      slt\n        /* \"#utility.yul\":511:633   */\n      tag_25\n      jumpi\n        /* \"#utility.yul\":552:631   */\n      tag_26\n      tag_27\n      jump\t// in\n    tag_26:\n        /* \"#utility.yul\":511:633   */\n    tag_25:\n        /* \"#utility.yul\":669:675   */\n      dup2\n        /* \"#utility.yul\":656:676   */\n      calldataload\n        /* \"#utility.yul\":694:773   */\n      tag_28\n        /* \"#utility.yul\":769:772   */\n      dup5\n        /* \"#utility.yul\":761:767   */\n      dup3\n        /* \"#utility.yul\":754:758   */\n      0x20\n        /* \"#utility.yul\":746:752   */\n      dup7\n        /* \"#utility.yul\":742:759   */\n      add\n        /* \"#utility.yul\":694:773   */\n      tag_12\n      jump\t// in\n    tag_28:\n        /* \"#utility.yul\":685:773   */\n      swap2\n      pop\n        /* \"#utility.yul\":501:779   */\n      pop\n        /* \"#utility.yul\":439:779   */\n      swap3\n      swap2\n      pop\n      pop\n      jump\t// out\n        /* \"#utility.yul\":785:1294   */\n    tag_6:\n        /* \"#utility.yul\":854:860   */\n      0x00\n        /* \"#utility.yul\":903:905   */\n      0x20\n        /* \"#utility.yul\":891:900   */\n      dup3\n        /* \"#utility.yul\":882:889   */\n      dup5\n        /* \"#utility.yul\":878:901   */\n      sub\n        /* \"#utility.yul\":874:906   */\n      slt\n        /* \"#utility.yul\":871:990   */\n      iszero\n      tag_30\n      jumpi\n        /* \"#utility.yul\":909:988   */\n      tag_31\n      tag_32\n      jump\t// in\n    tag_31:\n        /* \"#utility.yul\":871:990   */\n    tag_30:\n        /* \"#utility.yul\":1057:1058   */\n      0x00\n        /* \"#utility.yul\":1046:1055   */\n      dup3\n        /* \"#utility.yul\":1042:1059   */\n      add\n        /* \"#utility.yul\":1029:1060   */\n      calldataload\n        /* \"#utility.yul\":1087:1105   */\n      0xffffffffffffffff\n        /* \"#utility.yul\":1079:1085   */\n      dup2\n        /* \"#utility.yul\":1076:1106   */\n      gt\n        /* \"#utility.yul\":1073:1190   */\n      iszero\n      tag_33\n      jumpi\n        /* \"#utility.yul\":1109:1188   */\n      tag_34\n      tag_35\n      jump\t// in\n    tag_34:\n        /* \"#utility.yul\":1073:1190   */\n    tag_33:\n        /* \"#utility.yul\":1214:1277   */\n      tag_36\n        /* \"#utility.yul\":1269:1276   */\n      dup5\n        /* \"#utility.yul\":1260:1266   */\n      dup3\n        /* \"#utility.yul\":1249:1258   */\n      dup6\n        /* \"#utility.yul\":1245:1267   */\n      add\n        /* \"#utility.yul\":1214:1277   */\n      tag_23\n      jump\t// in\n    tag_36:\n        /* \"#utility.yul\":1204:1277   */\n      swap2\n      pop\n        /* \"#utility.yul\":1000:1287   */\n      pop\n        /* \"#utility.yul\":785:1294   */\n      swap3\n      swap2\n      pop\n      pop\n      jump\t// out\n        /* \"#utility.yul\":1300:1664   */\n    tag_37:\n        /* \"#utility.yul\":1388:1391   */\n      0x00\n        /* \"#utility.yul\":1416:1455   */\n      tag_39\n        /* \"#utility.yul\":1449:1454   */\n      dup3\n        /* \"#utility.yul\":1416:1455   */\n      tag_40\n      jump\t// in\n    tag_39:\n        /* \"#utility.yul\":1471:1542   */\n      tag_41\n        /* \"#utility.yul\":1535:1541   */\n      dup2\n        /* \"#utility.yul\":1530:1533   */\n      dup6\n        /* \"#utility.yul\":1471:1542   */\n      tag_42\n      jump\t// in\n    tag_41:\n        /* \"#utility.yul\":1464:1542   */\n      swap4\n      pop\n        /* \"#utility.yul\":1551:1603   */\n      tag_43\n        /* \"#utility.yul\":1596:1602   */\n      dup2\n        /* \"#utility.yul\":1591:1594   */\n      dup6\n        /* \"#utility.yul\":1584:1588   */\n      0x20\n        /* \"#utility.yul\":1577:1582   */\n      dup7\n        /* \"#utility.yul\":1573:1589   */\n      add\n        /* \"#utility.yul\":1551:1603   */\n      tag_44\n      jump\t// in\n    tag_43:\n        /* \"#utility.yul\":1628:1657   */\n      tag_45\n        /* \"#utility.yul\":1650:1656   */\n      dup2\n        /* \"#utility.yul\":1628:1657   */\n      tag_46\n      jump\t// in\n    tag_45:\n        /* \"#utility.yul\":1623:1626   */\n      dup5\n        /* \"#utility.yul\":1619:1658   */\n      add\n        /* \"#utility.yul\":1612:1658   */\n      swap2\n      pop\n        /* \"#utility.yul\":1392:1664   */\n      pop\n        /* \"#utility.yul\":1300:1664   */\n      swap3\n      swap2\n      pop\n      pop\n      jump\t// out\n        /* \"#utility.yul\":1670:1983   */\n    tag_9:\n        /* \"#utility.yul\":1783:1787   */\n      0x00\n        /* \"#utility.yul\":1821:1823   */\n      0x20\n        /* \"#utility.yul\":1810:1819   */\n      dup3\n        /* \"#utility.yul\":1806:1824   */\n      add\n        /* \"#utility.yul\":1798:1824   */\n      swap1\n      pop\n        /* \"#utility.yul\":1870:1879   */\n      dup2\n        /* \"#utility.yul\":1864:1868   */\n      dup2\n        /* \"#utility.yul\":1860:1880   */\n      sub\n        /* \"#utility.yul\":1856:1857   */\n      0x00\n        /* \"#utility.yul\":1845:1854   */\n      dup4\n        /* \"#utility.yul\":1841:1858   */\n      add\n        /* \"#utility.yul\":1834:1881   */\n      mstore\n        /* \"#utility.yul\":1898:1976   */\n      tag_48\n        /* \"#utility.yul\":1971:1975   */\n      dup2\n        /* \"#utility.yul\":1962:1968   */\n      dup5\n        /* \"#utility.yul\":1898:1976   */\n      tag_37\n      jump\t// in\n    tag_48:\n        /* \"#utility.yul\":1890:1976   */\n      swap1\n      pop\n        /* \"#utility.yul\":1670:1983   */\n      swap3\n      swap2\n      pop\n      pop\n      jump\t// out\n        /* \"#utility.yul\":1989:2118   */\n    tag_17:\n        /* \"#utility.yul\":2023:2029   */\n      0x00\n        /* \"#utility.yul\":2050:2070   */\n      tag_50\n      tag_51\n      jump\t// in\n    tag_50:\n        /* \"#utility.yul\":2040:2070   */\n      swap1\n      pop\n        /* \"#utility.yul\":2079:2112   */\n      tag_52\n        /* \"#utility.yul\":2107:2111   */\n      dup3\n        /* \"#utility.yul\":2099:2105   */\n      dup3\n        /* \"#utility.yul\":2079:2112   */\n      tag_53\n      jump\t// in\n    tag_52:\n        /* \"#utility.yul\":1989:2118   */\n      swap2\n      swap1\n      pop\n      jump\t// out\n        /* \"#utility.yul\":2124:2199   */\n    tag_51:\n        /* \"#utility.yul\":2157:2163   */\n      0x00\n        /* \"#utility.yul\":2190:2192   */\n      0x40\n        /* \"#utility.yul\":2184:2193   */\n      mload\n        /* \"#utility.yul\":2174:2193   */\n      swap1\n      pop\n        /* \"#utility.yul\":2124:2199   */\n      swap1\n      jump\t// out\n        /* \"#utility.yul\":2205:2513   */\n    tag_16:\n        /* \"#utility.yul\":2267:2271   */\n      0x00\n        /* \"#utility.yul\":2357:2375   */\n      0xffffffffffffffff\n        /* \"#utility.yul\":2349:2355   */\n      dup3\n        /* \"#utility.yul\":2346:2376   */\n      gt\n        /* \"#utility.yul\":2343:2399   */\n      iszero\n      tag_56\n      jumpi\n        /* \"#utility.yul\":2379:2397   */\n      tag_57\n      tag_58\n      jump\t// in\n    tag_57:\n        /* \"#utility.yul\":2343:2399   */\n    tag_56:\n        /* \"#utility.yul\":2417:2446   */\n      tag_59\n        /* \"#utility.yul\":2439:2445   */\n      dup3\n        /* \"#utility.yul\":2417:2446   */\n      tag_46\n      jump\t// in\n    tag_59:\n        /* \"#utility.yul\":2409:2446   */\n      swap1\n      pop\n        /* \"#utility.yul\":2501:2505   */\n      0x20\n        /* \"#utility.yul\":2495:2499   */\n      dup2\n        /* \"#utility.yul\":2491:2506   */\n      add\n        /* \"#utility.yul\":2483:2506   */\n      swap1\n      pop\n        /* \"#utility.yul\":2205:2513   */\n      swap2\n      swap1\n      pop\n      jump\t// out\n        /* \"#utility.yul\":2519:2618   */\n    tag_40:\n        /* \"#utility.yul\":2571:2577   */\n      0x00\n        /* \"#utility.yul\":2605:2610   */\n      dup2\n        /* \"#utility.yul\":2599:2611   */\n      mload\n        /* \"#utility.yul\":2589:2611   */\n      swap1\n      pop\n        /* \"#utility.yul\":2519:2618   */\n      swap2\n      swap1\n      pop\n      jump\t// out\n        /* \"#utility.yul\":2624:2793   */\n    tag_42:\n        /* \"#utility.yul\":2708:2719   */\n      0x00\n        /* \"#utility.yul\":2742:2748   */\n      dup3\n        /* \"#utility.yul\":2737:2740   */\n      dup3\n        /* \"#utility.yul\":2730:2749   */\n      mstore\n        /* \"#utility.yul\":2782:2786   */\n      0x20\n        /* \"#utility.yul\":2777:2780   */\n      dup3\n        /* \"#utility.yul\":2773:2787   */\n      add\n        /* \"#utility.yul\":2758:2787   */\n      swap1\n      pop\n        /* \"#utility.yul\":2624:2793   */\n      swap3\n      swap2\n      pop\n      pop\n      jump\t// out\n        /* \"#utility.yul\":2799:2953   */\n    tag_22:\n        /* \"#utility.yul\":2883:2889   */\n      dup3\n        /* \"#utility.yul\":2878:2881   */\n      dup2\n        /* \"#utility.yul\":2873:2876   */\n      dup4\n        /* \"#utility.yul\":2860:2890   */\n      calldatacopy\n        /* \"#utility.yul\":2945:2946   */\n      0x00\n        /* \"#utility.yul\":2936:2942   */\n      dup4\n        /* \"#utility.yul\":2931:2934   */\n      dup4\n        /* \"#utility.yul\":2927:2943   */\n      add\n        /* \"#utility.yul\":2920:2947   */\n      mstore\n        /* \"#utility.yul\":2799:2953   */\n      pop\n      pop\n      pop\n      jump\t// out\n        /* \"#utility.yul\":2959:3266   */\n    tag_44:\n        /* \"#utility.yul\":3027:3028   */\n      0x00\n        /* \"#utility.yul\":3037:3150   */\n    tag_64:\n        /* \"#utility.yul\":3051:3057   */\n      dup4\n        /* \"#utility.yul\":3048:3049   */\n      dup2\n        /* \"#utility.yul\":3045:3058   */\n      lt\n        /* \"#utility.yul\":3037:3150   */\n      iszero\n      tag_66\n      jumpi\n        /* \"#utility.yul\":3136:3137   */\n      dup1\n        /* \"#utility.yul\":3131:3134   */\n      dup3\n        /* \"#utility.yul\":3127:3138   */\n      add\n        /* \"#utility.yul\":3121:3139   */\n      mload\n        /* \"#utility.yul\":3117:3118   */\n      dup2\n        /* \"#utility.yul\":3112:3115   */\n      dup5\n        /* \"#utility.yul\":3108:3119   */\n      add\n        /* \"#utility.yul\":3101:3140   */\n      mstore\n        /* \"#utility.yul\":3073:3075   */\n      0x20\n        /* \"#utility.yul\":3070:3071   */\n      dup2\n        /* \"#utility.yul\":3066:3076   */\n      add\n        /* \"#utility.yul\":3061:3076   */\n      swap1\n      pop\n        /* \"#utility.yul\":3037:3150   */\n      jump(tag_64)\n    tag_66:\n        /* \"#utility.yul\":3168:3174   */\n      dup4\n        /* \"#utility.yul\":3165:3166   */\n      dup2\n        /* \"#utility.yul\":3162:3175   */\n      gt\n        /* \"#utility.yul\":3159:3260   */\n      iszero\n      tag_67\n      jumpi\n        /* \"#utility.yul\":3248:3249   */\n      0x00\n        /* \"#utility.yul\":3239:3245   */\n      dup5\n        /* \"#utility.yul\":3234:3237   */\n      dup5\n        /* \"#utility.yul\":3230:3246   */\n      add\n        /* \"#utility.yul\":3223:3250   */\n      mstore\n        /* \"#utility.yul\":3159:3260   */\n    tag_67:\n        /* \"#utility.yul\":3008:3266   */\n      pop\n        /* \"#utility.yul\":2959:3266   */\n      pop\n      pop\n      pop\n      jump\t// out\n        /* \"#utility.yul\":3272:3553   */\n    tag_53:\n        /* \"#utility.yul\":3355:3382   */\n      tag_69\n        /* \"#utility.yul\":3377:3381   */\n      dup3\n        /* \"#utility.yul\":3355:3382   */\n      tag_46\n      jump\t// in\n    tag_69:\n        /* \"#utility.yul\":3347:3353   */\n      dup2\n        /* \"#utility.yul\":3343:3383   */\n      add\n        /* \"#utility.yul\":3485:3491   */\n      dup2\n        /* \"#utility.yul\":3473:3483   */\n      dup2\n        /* \"#utility.yul\":3470:3492   */\n      lt\n        /* \"#utility.yul\":3449:3467   */\n      0xffffffffffffffff\n        /* \"#utility.yul\":3437:3447   */\n      dup3\n        /* \"#utility.yul\":3434:3468   */\n      gt\n        /* \"#utility.yul\":3431:3493   */\n      or\n        /* \"#utility.yul\":3428:3516   */\n      iszero\n      tag_70\n      jumpi\n        /* \"#utility.yul\":3496:3514   */\n      tag_71\n      tag_58\n      jump\t// in\n    tag_71:\n        /* \"#utility.yul\":3428:3516   */\n    tag_70:\n        /* \"#utility.yul\":3536:3546   */\n      dup1\n        /* \"#utility.yul\":3532:3534   */\n      0x40\n        /* \"#utility.yul\":3525:3547   */\n      mstore\n        /* \"#utility.yul\":3315:3553   */\n      pop\n        /* \"#utility.yul\":3272:3553   */\n      pop\n      pop\n      jump\t// out\n        /* \"#utility.yul\":3559:3739   */\n    tag_58:\n        /* \"#utility.yul\":3607:3684   */\n      0x4e487b7100000000000000000000000000000000000000000000000000000000\n        /* \"#utility.yul\":3604:3605   */\n      0x00\n        /* \"#utility.yul\":3597:3685   */\n      mstore\n        /* \"#utility.yul\":3704:3708   */\n      0x41\n        /* \"#utility.yul\":3701:3702   */\n      0x04\n        /* \"#utility.yul\":3694:3709   */\n      mstore\n        /* \"#utility.yul\":3728:3732   */\n      0x24\n        /* \"#utility.yul\":3725:3726   */\n      0x00\n        /* \"#utility.yul\":3718:3733   */\n      revert\n        /* \"#utility.yul\":3745:3862   */\n    tag_27:\n        /* \"#utility.yul\":3854:3855   */\n      0x00\n        /* \"#utility.yul\":3851:3852   */\n      dup1\n        /* \"#utility.yul\":3844:3856   */\n      revert\n        /* \"#utility.yul\":3868:3985   */\n    tag_20:\n        /* \"#utility.yul\":3977:3978   */\n      0x00\n        /* \"#utility.yul\":3974:3975   */\n      dup1\n        /* \"#utility.yul\":3967:3979   */\n      revert\n        /* \"#utility.yul\":3991:4108   */\n    tag_35:\n        /* \"#utility.yul\":4100:4101   */\n      0x00\n        /* \"#utility.yul\":4097:4098   */\n      dup1\n        /* \"#utility.yul\":4090:4102   */\n      revert\n        /* \"#utility.yul\":4114:4231   */\n    tag_32:\n        /* \"#utility.yul\":4223:4224   */\n      0x00\n        /* \"#utility.yul\":4220:4221   */\n      dup1\n        /* \"#utility.yul\":4213:4225   */\n      revert\n        /* \"#utility.yul\":4237:4339   */\n    tag_46:\n        /* \"#utility.yul\":4278:4284   */\n      0x00\n        /* \"#utility.yul\":4329:4331   */\n      0x1f\n        /* \"#utility.yul\":4325:4332   */\n      not\n        /* \"#utility.yul\":4320:4322   */\n      0x1f\n        /* \"#utility.yul\":4313:4318   */\n      dup4\n        /* \"#utility.yul\":4309:4323   */\n      add\n        /* \"#utility.yul\":4305:4333   */\n      and\n        /* \"#utility.yul\":4295:4333   */\n      swap1\n      pop\n        /* \"#utility.yul\":4237:4339   */\n      swap2\n      swap1\n      pop\n      jump\t// out\n\n    auxdata: 0xa2646970667358221220b9251cc125b61f52881a6caaf8aac099094acb7d8a99886b1807f01f12a271bd64736f6c63430008070033\n}\n",
				"bytecode": {
					"linkReferences": {},
					"object": "608060405234801561001057600080fd5b506102ea806100206000396000f3fe608060405234801561001057600080fd5b506004361061002b5760003560e01c80639c981fcb14610030575b600080fd5b61004a600480360381019061004591906100d7565b610060565b6040516100579190610159565b60405180910390f35b6060919050565b600061007a610075846101a0565b61017b565b90508281526020810184848401111561009657610095610294565b5b6100a18482856101ed565b509392505050565b600082601f8301126100be576100bd61028f565b5b81356100ce848260208601610067565b91505092915050565b6000602082840312156100ed576100ec61029e565b5b600082013567ffffffffffffffff81111561010b5761010a610299565b5b610117848285016100a9565b91505092915050565b600061012b826101d1565b61013581856101dc565b93506101458185602086016101fc565b61014e816102a3565b840191505092915050565b600060208201905081810360008301526101738184610120565b905092915050565b6000610185610196565b9050610191828261022f565b919050565b6000604051905090565b600067ffffffffffffffff8211156101bb576101ba610260565b5b6101c4826102a3565b9050602081019050919050565b600081519050919050565b600082825260208201905092915050565b82818337600083830152505050565b60005b8381101561021a5780820151818401526020810190506101ff565b83811115610229576000848401525b50505050565b610238826102a3565b810181811067ffffffffffffffff8211171561025757610256610260565b5b80604052505050565b7f4e487b7100000000000000000000000000000000000000000000000000000000600052604160045260246000fd5b600080fd5b600080fd5b600080fd5b600080fd5b6000601f19601f830116905091905056fea2646970667358221220b9251cc125b61f52881a6caaf8aac099094acb7d8a99886b1807f01f12a271bd64736f6c63430008070033",
					"opcodes": "PUSH1 0x80 PUSH1 0x40 MSTORE CALLVALUE DUP1 ISZERO PUSH2 0x10 JUMPI PUSH1 0x0 DUP1 REVERT JUMPDEST POP PUSH2 0x2EA DUP1 PUSH2 0x20 PUSH1 0x0 CODECOPY PUSH1 0x0 RETURN INVALID PUSH1 0x80 PUSH1 0x40 MSTORE CALLVALUE DUP1 ISZERO PUSH2 0x10 JUMPI PUSH1 0x0 DUP1 REVERT JUMPDEST POP PUSH1 0x4 CALLDATASIZE LT PUSH2 0x2B JUMPI PUSH1 0x0 CALLDATALOAD PUSH1 0xE0 SHR DUP1 PUSH4 0x9C981FCB EQ PUSH2 0x30 JUMPI JUMPDEST PUSH1 0x0 DUP1 REVERT JUMPDEST PUSH2 0x4A PUSH1 0x4 DUP1 CALLDATASIZE SUB DUP2 ADD SWAP1 PUSH2 0x45 SWAP2 SWAP1 PUSH2 0xD7 JUMP JUMPDEST PUSH2 0x60 JUMP JUMPDEST PUSH1 0x40 MLOAD PUSH2 0x57 SWAP2 SWAP1 PUSH2 0x159 JUMP JUMPDEST PUSH1 0x40 MLOAD DUP1 SWAP2 SUB SWAP1 RETURN JUMPDEST PUSH1 0x60 SWAP2 SWAP1 POP JUMP JUMPDEST PUSH1 0x0 PUSH2 0x7A PUSH2 0x75 DUP5 PUSH2 0x1A0 JUMP JUMPDEST PUSH2 0x17B JUMP JUMPDEST SWAP1 POP DUP3 DUP2 MSTORE PUSH1 0x20 DUP2 ADD DUP5 DUP5 DUP5 ADD GT ISZERO PUSH2 0x96 JUMPI PUSH2 0x95 PUSH2 0x294 JUMP JUMPDEST JUMPDEST PUSH2 0xA1 DUP5 DUP3 DUP6 PUSH2 0x1ED JUMP JUMPDEST POP SWAP4 SWAP3 POP POP POP JUMP JUMPDEST PUSH1 0x0 DUP3 PUSH1 0x1F DUP4 ADD SLT PUSH2 0xBE JUMPI PUSH2 0xBD PUSH2 0x28F JUMP JUMPDEST JUMPDEST DUP2 CALLDATALOAD PUSH2 0xCE DUP5 DUP3 PUSH1 0x20 DUP7 ADD PUSH2 0x67 JUMP JUMPDEST SWAP2 POP POP SWAP3 SWAP2 POP POP JUMP JUMPDEST PUSH1 0x0 PUSH1 0x20 DUP3 DUP5 SUB SLT ISZERO PUSH2 0xED JUMPI PUSH2 0xEC PUSH2 0x29E JUMP JUMPDEST JUMPDEST PUSH1 0x0 DUP3 ADD CALLDATALOAD PUSH8 0xFFFFFFFFFFFFFFFF DUP2 GT ISZERO PUSH2 0x10B JUMPI PUSH2 0x10A PUSH2 0x299 JUMP JUMPDEST JUMPDEST PUSH2 0x117 DUP5 DUP3 DUP6 ADD PUSH2 0xA9 JUMP JUMPDEST SWAP2 POP POP SWAP3 SWAP2 POP POP JUMP JUMPDEST PUSH1 0x0 PUSH2 0x12B DUP3 PUSH2 0x1D1 JUMP JUMPDEST PUSH2 0x135 DUP2 DUP6 PUSH2 0x1DC JUMP JUMPDEST SWAP4 POP PUSH2 0x145 DUP2 DUP6 PUSH1 0x20 DUP7 ADD PUSH2 0x1FC JUMP JUMPDEST PUSH2 0x14E DUP2 PUSH2 0x2A3 JUMP JUMPDEST DUP5 ADD SWAP2 POP POP SWAP3 SWAP2 POP POP JUMP JUMPDEST PUSH1 0x0 PUSH1 0x20 DUP3 ADD SWAP1 POP DUP2 DUP2 SUB PUSH1 0x0 DUP4 ADD MSTORE PUSH2 0x173 DUP2 DUP5 PUSH2 0x120 JUMP JUMPDEST SWAP1 POP SWAP3 SWAP2 POP POP JUMP JUMPDEST PUSH1 0x0 PUSH2 0x185 PUSH2 0x196 JUMP JUMPDEST SWAP1 POP PUSH2 0x191 DUP3 DUP3 PUSH2 0x22F JUMP JUMPDEST SWAP2 SWAP1 POP JUMP JUMPDEST PUSH1 0x0 PUSH1 0x40 MLOAD SWAP1 POP SWAP1 JUMP JUMPDEST PUSH1 0x0 PUSH8 0xFFFFFFFFFFFFFFFF DUP3 GT ISZERO PUSH2 0x1BB JUMPI PUSH2 0x1BA PUSH2 0x260 JUMP JUMPDEST JUMPDEST PUSH2 0x1C4 DUP3 PUSH2 0x2A3 JUMP JUMPDEST SWAP1 POP PUSH1 0x20 DUP2 ADD SWAP1 POP SWAP2 SWAP1 POP JUMP JUMPDEST PUSH1 0x0 DUP2 MLOAD SWAP1 POP SWAP2 SWAP1 POP JUMP JUMPDEST PUSH1 0x0 DUP3 DUP3 MSTORE PUSH1 0x20 DUP3 ADD SWAP1 POP SWAP3 SWAP2 POP POP JUMP JUMPDEST DUP3 DUP2 DUP4 CALLDATACOPY PUSH1 0x0 DUP4 DUP4 ADD MSTORE POP POP POP JUMP JUMPDEST PUSH1 0x0 JUMPDEST DUP4 DUP2 LT ISZERO PUSH2 0x21A JUMPI DUP1 DUP3 ADD MLOAD DUP2 DUP5 ADD MSTORE PUSH1 0x20 DUP2 ADD SWAP1 POP PUSH2 0x1FF JUMP JUMPDEST DUP4 DUP2 GT ISZERO PUSH2 0x229 JUMPI PUSH1 0x0 DUP5 DUP5 ADD MSTORE JUMPDEST POP POP POP POP JUMP JUMPDEST PUSH2 0x238 DUP3 PUSH2 0x2A3 JUMP JUMPDEST DUP2 ADD DUP2 DUP2 LT PUSH8 0xFFFFFFFFFFFFFFFF DUP3 GT OR ISZERO PUSH2 0x257 JUMPI PUSH2 0x256 PUSH2 0x260 JUMP JUMPDEST JUMPDEST DUP1 PUSH1 0x40 MSTORE POP POP POP JUMP JUMPDEST PUSH32 0x4E487B7100000000000000000000000000000000000000000000000000000000 PUSH1 0x0 MSTORE PUSH1 0x41 PUSH1 0x4 MSTORE PUSH1 0x24 PUSH1 0x0 REVERT JUMPDEST PUSH1 0x0 DUP1 REVERT JUMPDEST PUSH1 0x0 DUP1 REVERT JUMPDEST PUSH1 0x0 DUP1 REVERT JUMPDEST PUSH1 0x0 DUP1 REVERT JUMPDEST PUSH1 0x0 PUSH1 0x1F NOT PUSH1 0x1F DUP4 ADD AND SWAP1 POP SWAP2 SWAP1 POP JUMP INVALID LOG2 PUSH5 0x6970667358 0x22 SLT KECCAK256 0xB9 0x25 SHR 0xC1 0x25 0xB6 0x1F MSTORE DUP9 BYTE PUSH13 0xAAF8AAC099094ACB7D8A99886B XOR SMOD CREATE 0x1F SLT LOG2 PUSH18 0xBD64736F6C63430008070033000000000000 "
				},
				"gasEstimates": {
					"creation": {
						"codeDepositCost": "149200",
						"executionCost": "196",
						"totalCost": "149396"
					},
					"external": {
						"getString(string)": "infinite"
					}
				},
				"methodIdentifiers": {
					"getString(string)": "9c981fcb"
				}
			},
			"storageLayout": {
				"storage": [],
				"types": null
			},
			"userdoc": {
				"kind": "user",
				"methods": {},
				"version": 1
			}
		}
	}
}