{
	"lecture/lec2.sol": {
		"Lec2": {
			"abi": [
				{
					"inputs": [],
					"name": "b",
					"outputs": [
						{
							"internalType": "bool",
							"name": "",
							"type": "bool"
						}
					],
					"stateMutability": "view",
					"type": "function"
				},
				{
					"inputs": [],
					"name": "b2",
					"outputs": [
						{
							"internalType": "bool",
							"name": "",
							"type": "bool"
						}
					],
					"stateMutability": "view",
					"type": "function"
				},
				{
					"inputs": [],
					"name": "b3",
					"outputs": [
						{
							"internalType": "bool",
							"name": "",
							"type": "bool"
						}
					],
					"stateMutability": "view",
					"type": "function"
				},
				{
					"inputs": [],
					"name": "b4",
					"outputs": [
						{
							"internalType": "bool",
							"name": "",
							"type": "bool"
						}
					],
					"stateMutability": "view",
					"type": "function"
				}
			],
			"devdoc": {
				"kind": "dev",
				"methods": {},
				"version": 1
			},
			"evm": {
				"assembly": "    /* \"lecture/lec2.sol\":71:226  contract Lec2 {... */\n  mstore(0x40, 0x80)\n    /* \"lecture/lec2.sol\":108:113  false */\n  0x00\n    /* \"lecture/lec2.sol\":92:113  bool public b = false */\n  dup1\n  exp(0x0100, 0x00)\n  dup2\n  sload\n  dup2\n  0xff\n  mul\n  not\n  and\n  swap1\n  dup4\n  iszero\n  iszero\n  mul\n  or\n  swap1\n  sstore\n  pop\n    /* \"lecture/lec2.sol\":138:143  false */\n  0x00\n    /* \"lecture/lec2.sol\":137:143  !false */\n  iszero\n    /* \"lecture/lec2.sol\":120:143  bool public b2 = !false */\n  0x00\n  exp(0x0100, 0x01)\n  dup2\n  sload\n  dup2\n  0xff\n  mul\n  not\n  and\n  swap1\n  dup4\n  iszero\n  iszero\n  mul\n  or\n  swap1\n  sstore\n  pop\n    /* \"lecture/lec2.sol\":167:172  false */\n  0x00\n    /* \"lecture/lec2.sol\":167:180  false || true */\n  dup1\n  tag_1\n  jumpi\n  pop\n    /* \"lecture/lec2.sol\":176:180  true */\n  0x01\n    /* \"lecture/lec2.sol\":167:180  false || true */\ntag_1:\n    /* \"lecture/lec2.sol\":150:180  bool public b3 = false || true */\n  0x00\n  exp(0x0100, 0x02)\n  dup2\n  sload\n  dup2\n  0xff\n  mul\n  not\n  and\n  swap1\n  dup4\n  iszero\n  iszero\n  mul\n  or\n  swap1\n  sstore\n  pop\n    /* \"lecture/lec2.sol\":204:209  false */\n  0x00\n    /* \"lecture/lec2.sol\":204:217  false && true */\n  dup1\n  iszero\n  tag_2\n  jumpi\n  pop\n    /* \"lecture/lec2.sol\":213:217  true */\n  0x01\n    /* \"lecture/lec2.sol\":204:217  false && true */\ntag_2:\n    /* \"lecture/lec2.sol\":187:217  bool public b4 = false && true */\n  0x00\n  exp(0x0100, 0x03)\n  dup2\n  sload\n  dup2\n  0xff\n  mul\n  not\n  and\n  swap1\n  dup4\n  iszero\n  iszero\n  mul\n  or\n  swap1\n  sstore\n  pop\n    /* \"lecture/lec2.sol\":71:226  contract Lec2 {... */\n  callvalue\n  dup1\n  iszero\n  tag_3\n  jumpi\n  0x00\n  dup1\n  revert\ntag_3:\n  pop\n  dataSize(sub_0)\n  dup1\n  dataOffset(sub_0)\n  0x00\n  codecopy\n  0x00\n  return\nstop\n\nsub_0: assembly {\n        /* \"lecture/lec2.sol\":71:226  contract Lec2 {... */\n      mstore(0x40, 0x80)\n      callvalue\n      dup1\n      iszero\n      tag_1\n      jumpi\n      0x00\n      dup1\n      revert\n    tag_1:\n      pop\n      jumpi(tag_2, lt(calldatasize, 0x04))\n      shr(0xe0, calldataload(0x00))\n      dup1\n      0x0add6ef2\n      eq\n      tag_3\n      jumpi\n      dup1\n      0x3db3fb0a\n      eq\n      tag_4\n      jumpi\n      dup1\n      0x4df7e3d0\n      eq\n      tag_5\n      jumpi\n      dup1\n      0xe9b61909\n      eq\n      tag_6\n      jumpi\n    tag_2:\n      0x00\n      dup1\n      revert\n        /* \"lecture/lec2.sol\":120:143  bool public b2 = !false */\n    tag_3:\n      tag_7\n      tag_8\n      jump\t// in\n    tag_7:\n      mload(0x40)\n      tag_9\n      swap2\n      swap1\n      tag_10\n      jump\t// in\n    tag_9:\n      mload(0x40)\n      dup1\n      swap2\n      sub\n      swap1\n      return\n        /* \"lecture/lec2.sol\":187:217  bool public b4 = false && true */\n    tag_4:\n      tag_11\n      tag_12\n      jump\t// in\n    tag_11:\n      mload(0x40)\n      tag_13\n      swap2\n      swap1\n      tag_10\n      jump\t// in\n    tag_13:\n      mload(0x40)\n      dup1\n      swap2\n      sub\n      swap1\n      return\n        /* \"lecture/lec2.sol\":92:113  bool public b = false */\n    tag_5:\n      tag_14\n      tag_15\n      jump\t// in\n    tag_14:\n      mload(0x40)\n      tag_16\n      swap2\n      swap1\n      tag_10\n      jump\t// in\n    tag_16:\n      mload(0x40)\n      dup1\n      swap2\n      sub\n      swap1\n      return\n        /* \"lecture/lec2.sol\":150:180  bool public b3 = false || true */\n    tag_6:\n      tag_17\n      tag_18\n      jump\t// in\n    tag_17:\n      mload(0x40)\n      tag_19\n      swap2\n      swap1\n      tag_10\n      jump\t// in\n    tag_19:\n      mload(0x40)\n      dup1\n      swap2\n      sub\n      swap1\n      return\n        /* \"lecture/lec2.sol\":120:143  bool public b2 = !false */\n    tag_8:\n      0x00\n      0x01\n      swap1\n      sload\n      swap1\n      0x0100\n      exp\n      swap1\n      div\n      0xff\n      and\n      dup2\n      jump\t// out\n        /* \"lecture/lec2.sol\":187:217  bool public b4 = false && true */\n    tag_12:\n      0x00\n      0x03\n      swap1\n      sload\n      swap1\n      0x0100\n      exp\n      swap1\n      div\n      0xff\n      and\n      dup2\n      jump\t// out\n        /* \"lecture/lec2.sol\":92:113  bool public b = false */\n    tag_15:\n      0x00\n      dup1\n      sload\n      swap1\n      0x0100\n      exp\n      swap1\n      div\n      0xff\n      and\n      dup2\n      jump\t// out\n        /* \"lecture/lec2.sol\":150:180  bool public b3 = false || true */\n    tag_18:\n      0x00\n      0x02\n      swap1\n      sload\n      swap1\n      0x0100\n      exp\n      swap1\n      div\n      0xff\n      and\n      dup2\n      jump\t// out\n        /* \"#utility.yul\":7:116   */\n    tag_21:\n        /* \"#utility.yul\":88:109   */\n      tag_23\n        /* \"#utility.yul\":103:108   */\n      dup2\n        /* \"#utility.yul\":88:109   */\n      tag_24\n      jump\t// in\n    tag_23:\n        /* \"#utility.yul\":83:86   */\n      dup3\n        /* \"#utility.yul\":76:110   */\n      mstore\n        /* \"#utility.yul\":7:116   */\n      pop\n      pop\n      jump\t// out\n        /* \"#utility.yul\":122:332   */\n    tag_10:\n        /* \"#utility.yul\":209:213   */\n      0x00\n        /* \"#utility.yul\":247:249   */\n      0x20\n        /* \"#utility.yul\":236:245   */\n      dup3\n        /* \"#utility.yul\":232:250   */\n      add\n        /* \"#utility.yul\":224:250   */\n      swap1\n      pop\n        /* \"#utility.yul\":260:325   */\n      tag_26\n        /* \"#utility.yul\":322:323   */\n      0x00\n        /* \"#utility.yul\":311:320   */\n      dup4\n        /* \"#utility.yul\":307:324   */\n      add\n        /* \"#utility.yul\":298:304   */\n      dup5\n        /* \"#utility.yul\":260:325   */\n      tag_21\n      jump\t// in\n    tag_26:\n        /* \"#utility.yul\":122:332   */\n      swap3\n      swap2\n      pop\n      pop\n      jump\t// out\n        /* \"#utility.yul\":338:428   */\n    tag_24:\n        /* \"#utility.yul\":372:379   */\n      0x00\n        /* \"#utility.yul\":415:420   */\n      dup2\n        /* \"#utility.yul\":408:421   */\n      iszero\n        /* \"#utility.yul\":401:422   */\n      iszero\n        /* \"#utility.yul\":390:422   */\n      swap1\n      pop\n        /* \"#utility.yul\":338:428   */\n      swap2\n      swap1\n      pop\n      jump\t// out\n\n    auxdata: 0xa26469706673582212207102527e8b2e78b5a8d9eccb4f8cedf88b3be971b985c46a873d58b17469d3d164736f6c63430008070033\n}\n",
				"bytecode": {
					"linkReferences": {},
					"object": "608060405260008060006101000a81548160ff021916908315150217905550600015600060016101000a81548160ff021916908315150217905550600080610045575060015b600060026101000a81548160ff0219169083151502179055506000801561006a575060015b600060036101000a81548160ff02191690831515021790555034801561008f57600080fd5b5061017f8061009f6000396000f3fe608060405234801561001057600080fd5b506004361061004c5760003560e01c80630add6ef2146100515780633db3fb0a1461006f5780634df7e3d01461008d578063e9b61909146100ab575b600080fd5b6100596100c9565b6040516100669190610122565b60405180910390f35b6100776100dc565b6040516100849190610122565b60405180910390f35b6100956100ef565b6040516100a29190610122565b60405180910390f35b6100b3610100565b6040516100c09190610122565b60405180910390f35b600060019054906101000a900460ff1681565b600060039054906101000a900460ff1681565b60008054906101000a900460ff1681565b600060029054906101000a900460ff1681565b61011c8161013d565b82525050565b60006020820190506101376000830184610113565b92915050565b6000811515905091905056fea26469706673582212207102527e8b2e78b5a8d9eccb4f8cedf88b3be971b985c46a873d58b17469d3d164736f6c63430008070033",
					"opcodes": "PUSH1 0x80 PUSH1 0x40 MSTORE PUSH1 0x0 DUP1 PUSH1 0x0 PUSH2 0x100 EXP DUP2 SLOAD DUP2 PUSH1 0xFF MUL NOT AND SWAP1 DUP4 ISZERO ISZERO MUL OR SWAP1 SSTORE POP PUSH1 0x0 ISZERO PUSH1 0x0 PUSH1 0x1 PUSH2 0x100 EXP DUP2 SLOAD DUP2 PUSH1 0xFF MUL NOT AND SWAP1 DUP4 ISZERO ISZERO MUL OR SWAP1 SSTORE POP PUSH1 0x0 DUP1 PUSH2 0x45 JUMPI POP PUSH1 0x1 JUMPDEST PUSH1 0x0 PUSH1 0x2 PUSH2 0x100 EXP DUP2 SLOAD DUP2 PUSH1 0xFF MUL NOT AND SWAP1 DUP4 ISZERO ISZERO MUL OR SWAP1 SSTORE POP PUSH1 0x0 DUP1 ISZERO PUSH2 0x6A JUMPI POP PUSH1 0x1 JUMPDEST PUSH1 0x0 PUSH1 0x3 PUSH2 0x100 EXP DUP2 SLOAD DUP2 PUSH1 0xFF MUL NOT AND SWAP1 DUP4 ISZERO ISZERO MUL OR SWAP1 SSTORE POP CALLVALUE DUP1 ISZERO PUSH2 0x8F JUMPI PUSH1 0x0 DUP1 REVERT JUMPDEST POP PUSH2 0x17F DUP1 PUSH2 0x9F PUSH1 0x0 CODECOPY PUSH1 0x0 RETURN INVALID PUSH1 0x80 PUSH1 0x40 MSTORE CALLVALUE DUP1 ISZERO PUSH2 0x10 JUMPI PUSH1 0x0 DUP1 REVERT JUMPDEST POP PUSH1 0x4 CALLDATASIZE LT PUSH2 0x4C JUMPI PUSH1 0x0 CALLDATALOAD PUSH1 0xE0 SHR DUP1 PUSH4 0xADD6EF2 EQ PUSH2 0x51 JUMPI DUP1 PUSH4 0x3DB3FB0A EQ PUSH2 0x6F JUMPI DUP1 PUSH4 0x4DF7E3D0 EQ PUSH2 0x8D JUMPI DUP1 PUSH4 0xE9B61909 EQ PUSH2 0xAB JUMPI JUMPDEST PUSH1 0x0 DUP1 REVERT JUMPDEST PUSH2 0x59 PUSH2 0xC9 JUMP JUMPDEST PUSH1 0x40 MLOAD PUSH2 0x66 SWAP2 SWAP1 PUSH2 0x122 JUMP JUMPDEST PUSH1 0x40 MLOAD DUP1 SWAP2 SUB SWAP1 RETURN JUMPDEST PUSH2 0x77 PUSH2 0xDC JUMP JUMPDEST PUSH1 0x40 MLOAD PUSH2 0x84 SWAP2 SWAP1 PUSH2 0x122 JUMP JUMPDEST PUSH1 0x40 MLOAD DUP1 SWAP2 SUB SWAP1 RETURN JUMPDEST PUSH2 0x95 PUSH2 0xEF JUMP JUMPDEST PUSH1 0x40 MLOAD PUSH2 0xA2 SWAP2 SWAP1 PUSH2 0x122 JUMP JUMPDEST PUSH1 0x40 MLOAD DUP1 SWAP2 SUB SWAP1 RETURN JUMPDEST PUSH2 0xB3 PUSH2 0x100 JUMP JUMPDEST PUSH1 0x40 MLOAD PUSH2 0xC0 SWAP2 SWAP1 PUSH2 0x122 JUMP JUMPDEST PUSH1 0x40 MLOAD DUP1 SWAP2 SUB SWAP1 RETURN JUMPDEST PUSH1 0x0 PUSH1 0x1 SWAP1 SLOAD SWAP1 PUSH2 0x100 EXP SWAP1 DIV PUSH1 0xFF AND DUP2 JUMP JUMPDEST PUSH1 0x0 PUSH1 0x3 SWAP1 SLOAD SWAP1 PUSH2 0x100 EXP SWAP1 DIV PUSH1 0xFF AND DUP2 JUMP JUMPDEST PUSH1 0x0 DUP1 SLOAD SWAP1 PUSH2 0x100 EXP SWAP1 DIV PUSH1 0xFF AND DUP2 JUMP JUMPDEST PUSH1 0x0 PUSH1 0x2 SWAP1 SLOAD SWAP1 PUSH2 0x100 EXP SWAP1 DIV PUSH1 0xFF AND DUP2 JUMP JUMPDEST PUSH2 0x11C DUP2 PUSH2 0x13D JUMP JUMPDEST DUP3 MSTORE POP POP JUMP JUMPDEST PUSH1 0x0 PUSH1 0x20 DUP3 ADD SWAP1 POP PUSH2 0x137 PUSH1 0x0 DUP4 ADD DUP5 PUSH2 0x113 JUMP JUMPDEST SWAP3 SWAP2 POP POP JUMP JUMPDEST PUSH1 0x0 DUP2 ISZERO ISZERO SWAP1 POP SWAP2 SWAP1 POP JUMP INVALID LOG2 PUSH5 0x6970667358 0x22 SLT KECCAK256 PUSH18 0x2527E8B2E78B5A8D9ECCB4F8CEDF88B3BE9 PUSH18 0xB985C46A873D58B17469D3D164736F6C6343 STOP ADDMOD SMOD STOP CALLER "
				},
				"gasEstimates": {
					"creation": {
						"codeDepositCost": "76600",
						"executionCost": "97386",
						"totalCost": "173986"
					},
					"external": {
						"b()": "2490",
						"b2()": "2499",
						"b3()": "2565",
						"b4()": "2521"
					}
				},
				"methodIdentifiers": {
					"b()": "4df7e3d0",
					"b2()": "0add6ef2",
					"b3()": "e9b61909",
					"b4()": "3db3fb0a"
				}
			},
			"storageLayout": {
				"storage": [
					{
						"astId": 4,
						"contract": "lecture/lec2.sol:Lec2",
						"label": "b",
						"offset": 0,
						"slot": "0",
						"type": "t_bool"
					},
					{
						"astId": 8,
						"contract": "lecture/lec2.sol:Lec2",
						"label": "b2",
						"offset": 1,
						"slot": "0",
						"type": "t_bool"
					},
					{
						"astId": 13,
						"contract": "lecture/lec2.sol:Lec2",
						"label": "b3",
						"offset": 2,
						"slot": "0",
						"type": "t_bool"
					},
					{
						"astId": 18,
						"contract": "lecture/lec2.sol:Lec2",
						"label": "b4",
						"offset": 3,
						"slot": "0",
						"type": "t_bool"
					}
				],
				"types": {
					"t_bool": {
						"encoding": "inplace",
						"label": "bool",
						"numberOfBytes": "1"
					}
				}
			},
			"userdoc": {
				"kind": "user",
				"methods": {},
				"version": 1
			}
		}
	}
}