{
	"lecture/lec2.sol": {
		"Lec2": {
			"abi": [
				{
					"inputs": [],
					"name": "addr",
					"outputs": [
						{
							"internalType": "address",
							"name": "",
							"type": "address"
						}
					],
					"stateMutability": "view",
					"type": "function"
				},
				{
					"inputs": [],
					"name": "b",
					"outputs": [
						{
							"internalType": "bool",
							"name": "",
							"type": "bool"
						}
					],
					"stateMutability": "view",
					"type": "function"
				},
				{
					"inputs": [],
					"name": "b2",
					"outputs": [
						{
							"internalType": "bool",
							"name": "",
							"type": "bool"
						}
					],
					"stateMutability": "view",
					"type": "function"
				},
				{
					"inputs": [],
					"name": "b3",
					"outputs": [
						{
							"internalType": "bool",
							"name": "",
							"type": "bool"
						}
					],
					"stateMutability": "view",
					"type": "function"
				},
				{
					"inputs": [],
					"name": "b4",
					"outputs": [
						{
							"internalType": "bool",
							"name": "",
							"type": "bool"
						}
					],
					"stateMutability": "view",
					"type": "function"
				},
				{
					"inputs": [],
					"name": "bt",
					"outputs": [
						{
							"internalType": "bytes4",
							"name": "",
							"type": "bytes4"
						}
					],
					"stateMutability": "view",
					"type": "function"
				},
				{
					"inputs": [],
					"name": "bt2",
					"outputs": [
						{
							"internalType": "bytes",
							"name": "",
							"type": "bytes"
						}
					],
					"stateMutability": "view",
					"type": "function"
				},
				{
					"inputs": [],
					"name": "it",
					"outputs": [
						{
							"internalType": "int8",
							"name": "",
							"type": "int8"
						}
					],
					"stateMutability": "view",
					"type": "function"
				}
			],
			"devdoc": {
				"kind": "dev",
				"methods": {},
				"version": 1
			},
			"evm": {
				"assembly": "    /* \"lecture/lec2.sol\":71:392  contract Lec2 {... */\n  mstore(0x40, 0x80)\n    /* \"lecture/lec2.sol\":108:113  false */\n  0x00\n    /* \"lecture/lec2.sol\":92:113  bool public b = false */\n  dup1\n  exp(0x0100, 0x00)\n  dup2\n  sload\n  dup2\n  0xff\n  mul\n  not\n  and\n  swap1\n  dup4\n  iszero\n  iszero\n  mul\n  or\n  swap1\n  sstore\n  pop\n    /* \"lecture/lec2.sol\":138:143  false */\n  0x00\n    /* \"lecture/lec2.sol\":137:143  !false */\n  iszero\n    /* \"lecture/lec2.sol\":120:143  bool public b2 = !false */\n  0x00\n  exp(0x0100, 0x01)\n  dup2\n  sload\n  dup2\n  0xff\n  mul\n  not\n  and\n  swap1\n  dup4\n  iszero\n  iszero\n  mul\n  or\n  swap1\n  sstore\n  pop\n    /* \"lecture/lec2.sol\":167:172  false */\n  0x00\n    /* \"lecture/lec2.sol\":167:180  false || true */\n  dup1\n  tag_1\n  jumpi\n  pop\n    /* \"lecture/lec2.sol\":176:180  true */\n  0x01\n    /* \"lecture/lec2.sol\":167:180  false || true */\ntag_1:\n    /* \"lecture/lec2.sol\":150:180  bool public b3 = false || true */\n  0x00\n  exp(0x0100, 0x02)\n  dup2\n  sload\n  dup2\n  0xff\n  mul\n  not\n  and\n  swap1\n  dup4\n  iszero\n  iszero\n  mul\n  or\n  swap1\n  sstore\n  pop\n    /* \"lecture/lec2.sol\":204:209  false */\n  0x00\n    /* \"lecture/lec2.sol\":204:217  false && true */\n  dup1\n  iszero\n  tag_2\n  jumpi\n  pop\n    /* \"lecture/lec2.sol\":213:217  true */\n  0x01\n    /* \"lecture/lec2.sol\":204:217  false && true */\ntag_2:\n    /* \"lecture/lec2.sol\":187:217  bool public b4 = false && true */\n  0x00\n  exp(0x0100, 0x03)\n  dup2\n  sload\n  dup2\n  0xff\n  mul\n  not\n  and\n  swap1\n  dup4\n  iszero\n  iszero\n  mul\n  or\n  swap1\n  sstore\n  pop\n    /* \"lecture/lec2.sol\":243:253  0x12345678 */\n  0x12345678\n    /* \"lecture/lec2.sol\":224:253  bytes4 public bt = 0x12345678 */\n  0xe0\n  shl\n  0x00\n  exp(0x0100, 0x04)\n  dup2\n  sload\n  dup2\n  0xffffffff\n  mul\n  not\n  and\n  swap1\n  dup4\n  0xe0\n  shr\n  mul\n  or\n  swap1\n  sstore\n  pop\n    /* \"lecture/lec2.sol\":260:287  bytes public bt2 = \"STRING\" */\n  mload(0x40)\n  dup1\n  0x40\n  add\n  0x40\n  mstore\n  dup1\n  0x06\n  dup2\n  mstore\n  0x20\n  add\n  0x535452494e470000000000000000000000000000000000000000000000000000\n  dup2\n  mstore\n  pop\n  0x01\n  swap1\n  dup1\n  mload\n  swap1\n  0x20\n  add\n  swap1\n  tag_3\n  swap3\n  swap2\n  swap1\n  tag_4\n  jump\t// in\ntag_3:\n  pop\n    /* \"lecture/lec2.sol\":316:358  0x1234567890123456789012345678901234567890 */\n  0x1234567890123456789012345678901234567890\n    /* \"lecture/lec2.sol\":294:358  address public addr = 0x1234567890123456789012345678901234567890 */\n  0x02\n  exp(0x0100, 0x00)\n  dup2\n  sload\n  dup2\n  0xffffffffffffffffffffffffffffffffffffffff\n  mul\n  not\n  and\n  swap1\n  dup4\n  0xffffffffffffffffffffffffffffffffffffffff\n  and\n  mul\n  or\n  swap1\n  sstore\n  pop\n    /* \"lecture/lec2.sol\":382:383  4 */\n  0x04\n    /* \"lecture/lec2.sol\":365:383  int8 public it = 4 */\n  0x02\n  exp(0x0100, 0x14)\n  dup2\n  sload\n  dup2\n  0xff\n  mul\n  not\n  and\n  swap1\n  dup4\n  0x00\n  signextend\n  0xff\n  and\n  mul\n  or\n  swap1\n  sstore\n  pop\n    /* \"lecture/lec2.sol\":71:392  contract Lec2 {... */\n  callvalue\n  dup1\n  iszero\n  tag_5\n  jumpi\n  0x00\n  dup1\n  revert\ntag_5:\n  pop\n  jump(tag_6)\ntag_4:\n  dup3\n  dup1\n  sload\n  tag_7\n  swap1\n  tag_8\n  jump\t// in\ntag_7:\n  swap1\n  0x00\n  mstore\n  keccak256(0x00, 0x20)\n  swap1\n  0x1f\n  add\n  0x20\n  swap1\n  div\n  dup2\n  add\n  swap3\n  dup3\n  tag_10\n  jumpi\n  0x00\n  dup6\n  sstore\n  jump(tag_9)\ntag_10:\n  dup3\n  0x1f\n  lt\n  tag_11\n  jumpi\n  dup1\n  mload\n  not(0xff)\n  and\n  dup4\n  dup1\n  add\n  or\n  dup6\n  sstore\n  jump(tag_9)\ntag_11:\n  dup3\n  dup1\n  add\n  0x01\n  add\n  dup6\n  sstore\n  dup3\n  iszero\n  tag_9\n  jumpi\n  swap2\n  dup3\n  add\ntag_12:\n  dup3\n  dup2\n  gt\n  iszero\n  tag_13\n  jumpi\n  dup3\n  mload\n  dup3\n  sstore\n  swap2\n  0x20\n  add\n  swap2\n  swap1\n  0x01\n  add\n  swap1\n  jump(tag_12)\ntag_13:\ntag_9:\n  pop\n  swap1\n  pop\n  tag_14\n  swap2\n  swap1\n  tag_15\n  jump\t// in\ntag_14:\n  pop\n  swap1\n  jump\t// out\ntag_15:\ntag_16:\n  dup1\n  dup3\n  gt\n  iszero\n  tag_17\n  jumpi\n  0x00\n  dup2\n  0x00\n  swap1\n  sstore\n  pop\n  0x01\n  add\n  jump(tag_16)\ntag_17:\n  pop\n  swap1\n  jump\t// out\n    /* \"#utility.yul\":7:327   */\ntag_8:\n    /* \"#utility.yul\":51:57   */\n  0x00\n    /* \"#utility.yul\":88:89   */\n  0x02\n    /* \"#utility.yul\":82:86   */\n  dup3\n    /* \"#utility.yul\":78:90   */\n  div\n    /* \"#utility.yul\":68:90   */\n  swap1\n  pop\n    /* \"#utility.yul\":135:136   */\n  0x01\n    /* \"#utility.yul\":129:133   */\n  dup3\n    /* \"#utility.yul\":125:137   */\n  and\n    /* \"#utility.yul\":156:174   */\n  dup1\n    /* \"#utility.yul\":146:227   */\n  tag_20\n  jumpi\n    /* \"#utility.yul\":212:216   */\n  0x7f\n    /* \"#utility.yul\":204:210   */\n  dup3\n    /* \"#utility.yul\":200:217   */\n  and\n    /* \"#utility.yul\":190:217   */\n  swap2\n  pop\n    /* \"#utility.yul\":146:227   */\ntag_20:\n    /* \"#utility.yul\":274:276   */\n  0x20\n    /* \"#utility.yul\":266:272   */\n  dup3\n    /* \"#utility.yul\":263:277   */\n  lt\n    /* \"#utility.yul\":243:261   */\n  dup2\n    /* \"#utility.yul\":240:278   */\n  eq\n    /* \"#utility.yul\":237:321   */\n  iszero\n  tag_21\n  jumpi\n    /* \"#utility.yul\":293:311   */\n  tag_22\n  tag_23\n  jump\t// in\ntag_22:\n    /* \"#utility.yul\":237:321   */\ntag_21:\n    /* \"#utility.yul\":58:327   */\n  pop\n    /* \"#utility.yul\":7:327   */\n  swap2\n  swap1\n  pop\n  jump\t// out\n    /* \"#utility.yul\":333:513   */\ntag_23:\n    /* \"#utility.yul\":381:458   */\n  0x4e487b7100000000000000000000000000000000000000000000000000000000\n    /* \"#utility.yul\":378:379   */\n  0x00\n    /* \"#utility.yul\":371:459   */\n  mstore\n    /* \"#utility.yul\":478:482   */\n  0x22\n    /* \"#utility.yul\":475:476   */\n  0x04\n    /* \"#utility.yul\":468:483   */\n  mstore\n    /* \"#utility.yul\":502:506   */\n  0x24\n    /* \"#utility.yul\":499:500   */\n  0x00\n    /* \"#utility.yul\":492:507   */\n  revert\n    /* \"lecture/lec2.sol\":71:392  contract Lec2 {... */\ntag_6:\n  dataSize(sub_0)\n  dup1\n  dataOffset(sub_0)\n  0x00\n  codecopy\n  0x00\n  return\nstop\n\nsub_0: assembly {\n        /* \"lecture/lec2.sol\":71:392  contract Lec2 {... */\n      mstore(0x40, 0x80)\n      callvalue\n      dup1\n      iszero\n      tag_1\n      jumpi\n      0x00\n      dup1\n      revert\n    tag_1:\n      pop\n      jumpi(tag_2, lt(calldatasize, 0x04))\n      shr(0xe0, calldataload(0x00))\n      dup1\n      0x5ce692f2\n      gt\n      tag_11\n      jumpi\n      dup1\n      0x5ce692f2\n      eq\n      tag_7\n      jumpi\n      dup1\n      0x767800de\n      eq\n      tag_8\n      jumpi\n      dup1\n      0xac9c1959\n      eq\n      tag_9\n      jumpi\n      dup1\n      0xe9b61909\n      eq\n      tag_10\n      jumpi\n      jump(tag_2)\n    tag_11:\n      dup1\n      0x0add6ef2\n      eq\n      tag_3\n      jumpi\n      dup1\n      0x2c622fae\n      eq\n      tag_4\n      jumpi\n      dup1\n      0x3db3fb0a\n      eq\n      tag_5\n      jumpi\n      dup1\n      0x4df7e3d0\n      eq\n      tag_6\n      jumpi\n    tag_2:\n      0x00\n      dup1\n      revert\n        /* \"lecture/lec2.sol\":120:143  bool public b2 = !false */\n    tag_3:\n      tag_12\n      tag_13\n      jump\t// in\n    tag_12:\n      mload(0x40)\n      tag_14\n      swap2\n      swap1\n      tag_15\n      jump\t// in\n    tag_14:\n      mload(0x40)\n      dup1\n      swap2\n      sub\n      swap1\n      return\n        /* \"lecture/lec2.sol\":260:287  bytes public bt2 = \"STRING\" */\n    tag_4:\n      tag_16\n      tag_17\n      jump\t// in\n    tag_16:\n      mload(0x40)\n      tag_18\n      swap2\n      swap1\n      tag_19\n      jump\t// in\n    tag_18:\n      mload(0x40)\n      dup1\n      swap2\n      sub\n      swap1\n      return\n        /* \"lecture/lec2.sol\":187:217  bool public b4 = false && true */\n    tag_5:\n      tag_20\n      tag_21\n      jump\t// in\n    tag_20:\n      mload(0x40)\n      tag_22\n      swap2\n      swap1\n      tag_15\n      jump\t// in\n    tag_22:\n      mload(0x40)\n      dup1\n      swap2\n      sub\n      swap1\n      return\n        /* \"lecture/lec2.sol\":92:113  bool public b = false */\n    tag_6:\n      tag_23\n      tag_24\n      jump\t// in\n    tag_23:\n      mload(0x40)\n      tag_25\n      swap2\n      swap1\n      tag_15\n      jump\t// in\n    tag_25:\n      mload(0x40)\n      dup1\n      swap2\n      sub\n      swap1\n      return\n        /* \"lecture/lec2.sol\":365:383  int8 public it = 4 */\n    tag_7:\n      tag_26\n      tag_27\n      jump\t// in\n    tag_26:\n      mload(0x40)\n      tag_28\n      swap2\n      swap1\n      tag_29\n      jump\t// in\n    tag_28:\n      mload(0x40)\n      dup1\n      swap2\n      sub\n      swap1\n      return\n        /* \"lecture/lec2.sol\":294:358  address public addr = 0x1234567890123456789012345678901234567890 */\n    tag_8:\n      tag_30\n      tag_31\n      jump\t// in\n    tag_30:\n      mload(0x40)\n      tag_32\n      swap2\n      swap1\n      tag_33\n      jump\t// in\n    tag_32:\n      mload(0x40)\n      dup1\n      swap2\n      sub\n      swap1\n      return\n        /* \"lecture/lec2.sol\":224:253  bytes4 public bt = 0x12345678 */\n    tag_9:\n      tag_34\n      tag_35\n      jump\t// in\n    tag_34:\n      mload(0x40)\n      tag_36\n      swap2\n      swap1\n      tag_37\n      jump\t// in\n    tag_36:\n      mload(0x40)\n      dup1\n      swap2\n      sub\n      swap1\n      return\n        /* \"lecture/lec2.sol\":150:180  bool public b3 = false || true */\n    tag_10:\n      tag_38\n      tag_39\n      jump\t// in\n    tag_38:\n      mload(0x40)\n      tag_40\n      swap2\n      swap1\n      tag_15\n      jump\t// in\n    tag_40:\n      mload(0x40)\n      dup1\n      swap2\n      sub\n      swap1\n      return\n        /* \"lecture/lec2.sol\":120:143  bool public b2 = !false */\n    tag_13:\n      0x00\n      0x01\n      swap1\n      sload\n      swap1\n      0x0100\n      exp\n      swap1\n      div\n      0xff\n      and\n      dup2\n      jump\t// out\n        /* \"lecture/lec2.sol\":260:287  bytes public bt2 = \"STRING\" */\n    tag_17:\n      0x01\n      dup1\n      sload\n      tag_41\n      swap1\n      tag_42\n      jump\t// in\n    tag_41:\n      dup1\n      0x1f\n      add\n      0x20\n      dup1\n      swap2\n      div\n      mul\n      0x20\n      add\n      mload(0x40)\n      swap1\n      dup2\n      add\n      0x40\n      mstore\n      dup1\n      swap3\n      swap2\n      swap1\n      dup2\n      dup2\n      mstore\n      0x20\n      add\n      dup3\n      dup1\n      sload\n      tag_43\n      swap1\n      tag_42\n      jump\t// in\n    tag_43:\n      dup1\n      iszero\n      tag_44\n      jumpi\n      dup1\n      0x1f\n      lt\n      tag_45\n      jumpi\n      0x0100\n      dup1\n      dup4\n      sload\n      div\n      mul\n      dup4\n      mstore\n      swap2\n      0x20\n      add\n      swap2\n      jump(tag_44)\n    tag_45:\n      dup3\n      add\n      swap2\n      swap1\n      0x00\n      mstore\n      keccak256(0x00, 0x20)\n      swap1\n    tag_46:\n      dup2\n      sload\n      dup2\n      mstore\n      swap1\n      0x01\n      add\n      swap1\n      0x20\n      add\n      dup1\n      dup4\n      gt\n      tag_46\n      jumpi\n      dup3\n      swap1\n      sub\n      0x1f\n      and\n      dup3\n      add\n      swap2\n    tag_44:\n      pop\n      pop\n      pop\n      pop\n      pop\n      dup2\n      jump\t// out\n        /* \"lecture/lec2.sol\":187:217  bool public b4 = false && true */\n    tag_21:\n      0x00\n      0x03\n      swap1\n      sload\n      swap1\n      0x0100\n      exp\n      swap1\n      div\n      0xff\n      and\n      dup2\n      jump\t// out\n        /* \"lecture/lec2.sol\":92:113  bool public b = false */\n    tag_24:\n      0x00\n      dup1\n      sload\n      swap1\n      0x0100\n      exp\n      swap1\n      div\n      0xff\n      and\n      dup2\n      jump\t// out\n        /* \"lecture/lec2.sol\":365:383  int8 public it = 4 */\n    tag_27:\n      0x02\n      0x14\n      swap1\n      sload\n      swap1\n      0x0100\n      exp\n      swap1\n      div\n      0x00\n      signextend\n      dup2\n      jump\t// out\n        /* \"lecture/lec2.sol\":294:358  address public addr = 0x1234567890123456789012345678901234567890 */\n    tag_31:\n      0x02\n      0x00\n      swap1\n      sload\n      swap1\n      0x0100\n      exp\n      swap1\n      div\n      0xffffffffffffffffffffffffffffffffffffffff\n      and\n      dup2\n      jump\t// out\n        /* \"lecture/lec2.sol\":224:253  bytes4 public bt = 0x12345678 */\n    tag_35:\n      0x00\n      0x04\n      swap1\n      sload\n      swap1\n      0x0100\n      exp\n      swap1\n      div\n      0xe0\n      shl\n      dup2\n      jump\t// out\n        /* \"lecture/lec2.sol\":150:180  bool public b3 = false || true */\n    tag_39:\n      0x00\n      0x02\n      swap1\n      sload\n      swap1\n      0x0100\n      exp\n      swap1\n      div\n      0xff\n      and\n      dup2\n      jump\t// out\n        /* \"#utility.yul\":7:125   */\n    tag_48:\n        /* \"#utility.yul\":94:118   */\n      tag_50\n        /* \"#utility.yul\":112:117   */\n      dup2\n        /* \"#utility.yul\":94:118   */\n      tag_51\n      jump\t// in\n    tag_50:\n        /* \"#utility.yul\":89:92   */\n      dup3\n        /* \"#utility.yul\":82:119   */\n      mstore\n        /* \"#utility.yul\":7:125   */\n      pop\n      pop\n      jump\t// out\n        /* \"#utility.yul\":131:240   */\n    tag_52:\n        /* \"#utility.yul\":212:233   */\n      tag_54\n        /* \"#utility.yul\":227:232   */\n      dup2\n        /* \"#utility.yul\":212:233   */\n      tag_55\n      jump\t// in\n    tag_54:\n        /* \"#utility.yul\":207:210   */\n      dup3\n        /* \"#utility.yul\":200:234   */\n      mstore\n        /* \"#utility.yul\":131:240   */\n      pop\n      pop\n      jump\t// out\n        /* \"#utility.yul\":246:361   */\n    tag_56:\n        /* \"#utility.yul\":331:354   */\n      tag_58\n        /* \"#utility.yul\":348:353   */\n      dup2\n        /* \"#utility.yul\":331:354   */\n      tag_59\n      jump\t// in\n    tag_58:\n        /* \"#utility.yul\":326:329   */\n      dup3\n        /* \"#utility.yul\":319:355   */\n      mstore\n        /* \"#utility.yul\":246:361   */\n      pop\n      pop\n      jump\t// out\n        /* \"#utility.yul\":367:727   */\n    tag_60:\n        /* \"#utility.yul\":453:456   */\n      0x00\n        /* \"#utility.yul\":481:519   */\n      tag_62\n        /* \"#utility.yul\":513:518   */\n      dup3\n        /* \"#utility.yul\":481:519   */\n      tag_63\n      jump\t// in\n    tag_62:\n        /* \"#utility.yul\":535:605   */\n      tag_64\n        /* \"#utility.yul\":598:604   */\n      dup2\n        /* \"#utility.yul\":593:596   */\n      dup6\n        /* \"#utility.yul\":535:605   */\n      tag_65\n      jump\t// in\n    tag_64:\n        /* \"#utility.yul\":528:605   */\n      swap4\n      pop\n        /* \"#utility.yul\":614:666   */\n      tag_66\n        /* \"#utility.yul\":659:665   */\n      dup2\n        /* \"#utility.yul\":654:657   */\n      dup6\n        /* \"#utility.yul\":647:651   */\n      0x20\n        /* \"#utility.yul\":640:645   */\n      dup7\n        /* \"#utility.yul\":636:652   */\n      add\n        /* \"#utility.yul\":614:666   */\n      tag_67\n      jump\t// in\n    tag_66:\n        /* \"#utility.yul\":691:720   */\n      tag_68\n        /* \"#utility.yul\":713:719   */\n      dup2\n        /* \"#utility.yul\":691:720   */\n      tag_69\n      jump\t// in\n    tag_68:\n        /* \"#utility.yul\":686:689   */\n      dup5\n        /* \"#utility.yul\":682:721   */\n      add\n        /* \"#utility.yul\":675:721   */\n      swap2\n      pop\n        /* \"#utility.yul\":457:727   */\n      pop\n        /* \"#utility.yul\":367:727   */\n      swap3\n      swap2\n      pop\n      pop\n      jump\t// out\n        /* \"#utility.yul\":733:842   */\n    tag_70:\n        /* \"#utility.yul\":814:835   */\n      tag_72\n        /* \"#utility.yul\":829:834   */\n      dup2\n        /* \"#utility.yul\":814:835   */\n      tag_73\n      jump\t// in\n    tag_72:\n        /* \"#utility.yul\":809:812   */\n      dup3\n        /* \"#utility.yul\":802:836   */\n      mstore\n        /* \"#utility.yul\":733:842   */\n      pop\n      pop\n      jump\t// out\n        /* \"#utility.yul\":848:1070   */\n    tag_33:\n        /* \"#utility.yul\":941:945   */\n      0x00\n        /* \"#utility.yul\":979:981   */\n      0x20\n        /* \"#utility.yul\":968:977   */\n      dup3\n        /* \"#utility.yul\":964:982   */\n      add\n        /* \"#utility.yul\":956:982   */\n      swap1\n      pop\n        /* \"#utility.yul\":992:1063   */\n      tag_75\n        /* \"#utility.yul\":1060:1061   */\n      0x00\n        /* \"#utility.yul\":1049:1058   */\n      dup4\n        /* \"#utility.yul\":1045:1062   */\n      add\n        /* \"#utility.yul\":1036:1042   */\n      dup5\n        /* \"#utility.yul\":992:1063   */\n      tag_48\n      jump\t// in\n    tag_75:\n        /* \"#utility.yul\":848:1070   */\n      swap3\n      swap2\n      pop\n      pop\n      jump\t// out\n        /* \"#utility.yul\":1076:1286   */\n    tag_15:\n        /* \"#utility.yul\":1163:1167   */\n      0x00\n        /* \"#utility.yul\":1201:1203   */\n      0x20\n        /* \"#utility.yul\":1190:1199   */\n      dup3\n        /* \"#utility.yul\":1186:1204   */\n      add\n        /* \"#utility.yul\":1178:1204   */\n      swap1\n      pop\n        /* \"#utility.yul\":1214:1279   */\n      tag_77\n        /* \"#utility.yul\":1276:1277   */\n      0x00\n        /* \"#utility.yul\":1265:1274   */\n      dup4\n        /* \"#utility.yul\":1261:1278   */\n      add\n        /* \"#utility.yul\":1252:1258   */\n      dup5\n        /* \"#utility.yul\":1214:1279   */\n      tag_52\n      jump\t// in\n    tag_77:\n        /* \"#utility.yul\":1076:1286   */\n      swap3\n      swap2\n      pop\n      pop\n      jump\t// out\n        /* \"#utility.yul\":1292:1510   */\n    tag_37:\n        /* \"#utility.yul\":1383:1387   */\n      0x00\n        /* \"#utility.yul\":1421:1423   */\n      0x20\n        /* \"#utility.yul\":1410:1419   */\n      dup3\n        /* \"#utility.yul\":1406:1424   */\n      add\n        /* \"#utility.yul\":1398:1424   */\n      swap1\n      pop\n        /* \"#utility.yul\":1434:1503   */\n      tag_79\n        /* \"#utility.yul\":1500:1501   */\n      0x00\n        /* \"#utility.yul\":1489:1498   */\n      dup4\n        /* \"#utility.yul\":1485:1502   */\n      add\n        /* \"#utility.yul\":1476:1482   */\n      dup5\n        /* \"#utility.yul\":1434:1503   */\n      tag_56\n      jump\t// in\n    tag_79:\n        /* \"#utility.yul\":1292:1510   */\n      swap3\n      swap2\n      pop\n      pop\n      jump\t// out\n        /* \"#utility.yul\":1516:1825   */\n    tag_19:\n        /* \"#utility.yul\":1627:1631   */\n      0x00\n        /* \"#utility.yul\":1665:1667   */\n      0x20\n        /* \"#utility.yul\":1654:1663   */\n      dup3\n        /* \"#utility.yul\":1650:1668   */\n      add\n        /* \"#utility.yul\":1642:1668   */\n      swap1\n      pop\n        /* \"#utility.yul\":1714:1723   */\n      dup2\n        /* \"#utility.yul\":1708:1712   */\n      dup2\n        /* \"#utility.yul\":1704:1724   */\n      sub\n        /* \"#utility.yul\":1700:1701   */\n      0x00\n        /* \"#utility.yul\":1689:1698   */\n      dup4\n        /* \"#utility.yul\":1685:1702   */\n      add\n        /* \"#utility.yul\":1678:1725   */\n      mstore\n        /* \"#utility.yul\":1742:1818   */\n      tag_81\n        /* \"#utility.yul\":1813:1817   */\n      dup2\n        /* \"#utility.yul\":1804:1810   */\n      dup5\n        /* \"#utility.yul\":1742:1818   */\n      tag_60\n      jump\t// in\n    tag_81:\n        /* \"#utility.yul\":1734:1818   */\n      swap1\n      pop\n        /* \"#utility.yul\":1516:1825   */\n      swap3\n      swap2\n      pop\n      pop\n      jump\t// out\n        /* \"#utility.yul\":1831:2041   */\n    tag_29:\n        /* \"#utility.yul\":1918:1922   */\n      0x00\n        /* \"#utility.yul\":1956:1958   */\n      0x20\n        /* \"#utility.yul\":1945:1954   */\n      dup3\n        /* \"#utility.yul\":1941:1959   */\n      add\n        /* \"#utility.yul\":1933:1959   */\n      swap1\n      pop\n        /* \"#utility.yul\":1969:2034   */\n      tag_83\n        /* \"#utility.yul\":2031:2032   */\n      0x00\n        /* \"#utility.yul\":2020:2029   */\n      dup4\n        /* \"#utility.yul\":2016:2033   */\n      add\n        /* \"#utility.yul\":2007:2013   */\n      dup5\n        /* \"#utility.yul\":1969:2034   */\n      tag_70\n      jump\t// in\n    tag_83:\n        /* \"#utility.yul\":1831:2041   */\n      swap3\n      swap2\n      pop\n      pop\n      jump\t// out\n        /* \"#utility.yul\":2047:2145   */\n    tag_63:\n        /* \"#utility.yul\":2098:2104   */\n      0x00\n        /* \"#utility.yul\":2132:2137   */\n      dup2\n        /* \"#utility.yul\":2126:2138   */\n      mload\n        /* \"#utility.yul\":2116:2138   */\n      swap1\n      pop\n        /* \"#utility.yul\":2047:2145   */\n      swap2\n      swap1\n      pop\n      jump\t// out\n        /* \"#utility.yul\":2151:2319   */\n    tag_65:\n        /* \"#utility.yul\":2234:2245   */\n      0x00\n        /* \"#utility.yul\":2268:2274   */\n      dup3\n        /* \"#utility.yul\":2263:2266   */\n      dup3\n        /* \"#utility.yul\":2256:2275   */\n      mstore\n        /* \"#utility.yul\":2308:2312   */\n      0x20\n        /* \"#utility.yul\":2303:2306   */\n      dup3\n        /* \"#utility.yul\":2299:2313   */\n      add\n        /* \"#utility.yul\":2284:2313   */\n      swap1\n      pop\n        /* \"#utility.yul\":2151:2319   */\n      swap3\n      swap2\n      pop\n      pop\n      jump\t// out\n        /* \"#utility.yul\":2325:2421   */\n    tag_51:\n        /* \"#utility.yul\":2362:2369   */\n      0x00\n        /* \"#utility.yul\":2391:2415   */\n      tag_87\n        /* \"#utility.yul\":2409:2414   */\n      dup3\n        /* \"#utility.yul\":2391:2415   */\n      tag_88\n      jump\t// in\n    tag_87:\n        /* \"#utility.yul\":2380:2415   */\n      swap1\n      pop\n        /* \"#utility.yul\":2325:2421   */\n      swap2\n      swap1\n      pop\n      jump\t// out\n        /* \"#utility.yul\":2427:2517   */\n    tag_55:\n        /* \"#utility.yul\":2461:2468   */\n      0x00\n        /* \"#utility.yul\":2504:2509   */\n      dup2\n        /* \"#utility.yul\":2497:2510   */\n      iszero\n        /* \"#utility.yul\":2490:2511   */\n      iszero\n        /* \"#utility.yul\":2479:2511   */\n      swap1\n      pop\n        /* \"#utility.yul\":2427:2517   */\n      swap2\n      swap1\n      pop\n      jump\t// out\n        /* \"#utility.yul\":2523:2672   */\n    tag_59:\n        /* \"#utility.yul\":2559:2566   */\n      0x00\n        /* \"#utility.yul\":2599:2665   */\n      0xffffffff00000000000000000000000000000000000000000000000000000000\n        /* \"#utility.yul\":2592:2597   */\n      dup3\n        /* \"#utility.yul\":2588:2666   */\n      and\n        /* \"#utility.yul\":2577:2666   */\n      swap1\n      pop\n        /* \"#utility.yul\":2523:2672   */\n      swap2\n      swap1\n      pop\n      jump\t// out\n        /* \"#utility.yul\":2678:2767   */\n    tag_73:\n        /* \"#utility.yul\":2712:2719   */\n      0x00\n        /* \"#utility.yul\":2755:2760   */\n      dup2\n        /* \"#utility.yul\":2752:2753   */\n      0x00\n        /* \"#utility.yul\":2741:2761   */\n      signextend\n        /* \"#utility.yul\":2730:2761   */\n      swap1\n      pop\n        /* \"#utility.yul\":2678:2767   */\n      swap2\n      swap1\n      pop\n      jump\t// out\n        /* \"#utility.yul\":2773:2899   */\n    tag_88:\n        /* \"#utility.yul\":2810:2817   */\n      0x00\n        /* \"#utility.yul\":2850:2892   */\n      0xffffffffffffffffffffffffffffffffffffffff\n        /* \"#utility.yul\":2843:2848   */\n      dup3\n        /* \"#utility.yul\":2839:2893   */\n      and\n        /* \"#utility.yul\":2828:2893   */\n      swap1\n      pop\n        /* \"#utility.yul\":2773:2899   */\n      swap2\n      swap1\n      pop\n      jump\t// out\n        /* \"#utility.yul\":2905:3212   */\n    tag_67:\n        /* \"#utility.yul\":2973:2974   */\n      0x00\n        /* \"#utility.yul\":2983:3096   */\n    tag_94:\n        /* \"#utility.yul\":2997:3003   */\n      dup4\n        /* \"#utility.yul\":2994:2995   */\n      dup2\n        /* \"#utility.yul\":2991:3004   */\n      lt\n        /* \"#utility.yul\":2983:3096   */\n      iszero\n      tag_96\n      jumpi\n        /* \"#utility.yul\":3082:3083   */\n      dup1\n        /* \"#utility.yul\":3077:3080   */\n      dup3\n        /* \"#utility.yul\":3073:3084   */\n      add\n        /* \"#utility.yul\":3067:3085   */\n      mload\n        /* \"#utility.yul\":3063:3064   */\n      dup2\n        /* \"#utility.yul\":3058:3061   */\n      dup5\n        /* \"#utility.yul\":3054:3065   */\n      add\n        /* \"#utility.yul\":3047:3086   */\n      mstore\n        /* \"#utility.yul\":3019:3021   */\n      0x20\n        /* \"#utility.yul\":3016:3017   */\n      dup2\n        /* \"#utility.yul\":3012:3022   */\n      add\n        /* \"#utility.yul\":3007:3022   */\n      swap1\n      pop\n        /* \"#utility.yul\":2983:3096   */\n      jump(tag_94)\n    tag_96:\n        /* \"#utility.yul\":3114:3120   */\n      dup4\n        /* \"#utility.yul\":3111:3112   */\n      dup2\n        /* \"#utility.yul\":3108:3121   */\n      gt\n        /* \"#utility.yul\":3105:3206   */\n      iszero\n      tag_97\n      jumpi\n        /* \"#utility.yul\":3194:3195   */\n      0x00\n        /* \"#utility.yul\":3185:3191   */\n      dup5\n        /* \"#utility.yul\":3180:3183   */\n      dup5\n        /* \"#utility.yul\":3176:3192   */\n      add\n        /* \"#utility.yul\":3169:3196   */\n      mstore\n        /* \"#utility.yul\":3105:3206   */\n    tag_97:\n        /* \"#utility.yul\":2954:3212   */\n      pop\n        /* \"#utility.yul\":2905:3212   */\n      pop\n      pop\n      pop\n      jump\t// out\n        /* \"#utility.yul\":3218:3538   */\n    tag_42:\n        /* \"#utility.yul\":3262:3268   */\n      0x00\n        /* \"#utility.yul\":3299:3300   */\n      0x02\n        /* \"#utility.yul\":3293:3297   */\n      dup3\n        /* \"#utility.yul\":3289:3301   */\n      div\n        /* \"#utility.yul\":3279:3301   */\n      swap1\n      pop\n        /* \"#utility.yul\":3346:3347   */\n      0x01\n        /* \"#utility.yul\":3340:3344   */\n      dup3\n        /* \"#utility.yul\":3336:3348   */\n      and\n        /* \"#utility.yul\":3367:3385   */\n      dup1\n        /* \"#utility.yul\":3357:3438   */\n      tag_99\n      jumpi\n        /* \"#utility.yul\":3423:3427   */\n      0x7f\n        /* \"#utility.yul\":3415:3421   */\n      dup3\n        /* \"#utility.yul\":3411:3428   */\n      and\n        /* \"#utility.yul\":3401:3428   */\n      swap2\n      pop\n        /* \"#utility.yul\":3357:3438   */\n    tag_99:\n        /* \"#utility.yul\":3485:3487   */\n      0x20\n        /* \"#utility.yul\":3477:3483   */\n      dup3\n        /* \"#utility.yul\":3474:3488   */\n      lt\n        /* \"#utility.yul\":3454:3472   */\n      dup2\n        /* \"#utility.yul\":3451:3489   */\n      eq\n        /* \"#utility.yul\":3448:3532   */\n      iszero\n      tag_100\n      jumpi\n        /* \"#utility.yul\":3504:3522   */\n      tag_101\n      tag_102\n      jump\t// in\n    tag_101:\n        /* \"#utility.yul\":3448:3532   */\n    tag_100:\n        /* \"#utility.yul\":3269:3538   */\n      pop\n        /* \"#utility.yul\":3218:3538   */\n      swap2\n      swap1\n      pop\n      jump\t// out\n        /* \"#utility.yul\":3544:3724   */\n    tag_102:\n        /* \"#utility.yul\":3592:3669   */\n      0x4e487b7100000000000000000000000000000000000000000000000000000000\n        /* \"#utility.yul\":3589:3590   */\n      0x00\n        /* \"#utility.yul\":3582:3670   */\n      mstore\n        /* \"#utility.yul\":3689:3693   */\n      0x22\n        /* \"#utility.yul\":3686:3687   */\n      0x04\n        /* \"#utility.yul\":3679:3694   */\n      mstore\n        /* \"#utility.yul\":3713:3717   */\n      0x24\n        /* \"#utility.yul\":3710:3711   */\n      0x00\n        /* \"#utility.yul\":3703:3718   */\n      revert\n        /* \"#utility.yul\":3730:3832   */\n    tag_69:\n        /* \"#utility.yul\":3771:3777   */\n      0x00\n        /* \"#utility.yul\":3822:3824   */\n      0x1f\n        /* \"#utility.yul\":3818:3825   */\n      not\n        /* \"#utility.yul\":3813:3815   */\n      0x1f\n        /* \"#utility.yul\":3806:3811   */\n      dup4\n        /* \"#utility.yul\":3802:3816   */\n      add\n        /* \"#utility.yul\":3798:3826   */\n      and\n        /* \"#utility.yul\":3788:3826   */\n      swap1\n      pop\n        /* \"#utility.yul\":3730:3832   */\n      swap2\n      swap1\n      pop\n      jump\t// out\n\n    auxdata: 0xa264697066735822122092bf3455bbc34eabeb08edb52b944276dd94060c5190f7c0766fe984ee42157964736f6c63430008070033\n}\n",
				"bytecode": {
					"linkReferences": {},
					"object": "608060405260008060006101000a81548160ff021916908315150217905550600015600060016101000a81548160ff021916908315150217905550600080610045575060015b600060026101000a81548160ff0219169083151502179055506000801561006a575060015b600060036101000a81548160ff021916908315150217905550631234567860e01b600060046101000a81548163ffffffff021916908360e01c02179055506040518060400160405280600681526020017f535452494e470000000000000000000000000000000000000000000000000000815250600190805190602001906100f392919061017a565b50731234567890123456789012345678901234567890600260006101000a81548173ffffffffffffffffffffffffffffffffffffffff021916908373ffffffffffffffffffffffffffffffffffffffff1602179055506004600260146101000a81548160ff021916908360000b60ff16021790555034801561017457600080fd5b5061027e565b8280546101869061021d565b90600052602060002090601f0160209004810192826101a857600085556101ef565b82601f106101c157805160ff19168380011785556101ef565b828001600101855582156101ef579182015b828111156101ee5782518255916020019190600101906101d3565b5b5090506101fc9190610200565b5090565b5b80821115610219576000816000905550600101610201565b5090565b6000600282049050600182168061023557607f821691505b602082108114156102495761024861024f565b5b50919050565b7f4e487b7100000000000000000000000000000000000000000000000000000000600052602260045260246000fd5b6105128061028d6000396000f3fe608060405234801561001057600080fd5b50600436106100885760003560e01c80635ce692f21161005b5780635ce692f214610105578063767800de14610123578063ac9c195914610141578063e9b619091461015f57610088565b80630add6ef21461008d5780632c622fae146100ab5780633db3fb0a146100c95780634df7e3d0146100e7575b600080fd5b61009561017d565b6040516100a29190610331565b60405180910390f35b6100b3610190565b6040516100c09190610367565b60405180910390f35b6100d161021e565b6040516100de9190610331565b60405180910390f35b6100ef610231565b6040516100fc9190610331565b60405180910390f35b61010d610242565b60405161011a9190610389565b60405180910390f35b61012b610255565b6040516101389190610316565b60405180910390f35b61014961027b565b604051610156919061034c565b60405180910390f35b61016761028e565b6040516101749190610331565b60405180910390f35b600060019054906101000a900460ff1681565b6001805461019d9061046a565b80601f01602080910402602001604051908101604052809291908181526020018280546101c99061046a565b80156102165780601f106101eb57610100808354040283529160200191610216565b820191906000526020600020905b8154815290600101906020018083116101f957829003601f168201915b505050505081565b600060039054906101000a900460ff1681565b60008054906101000a900460ff1681565b600260149054906101000a900460000b81565b600260009054906101000a900473ffffffffffffffffffffffffffffffffffffffff1681565b600060049054906101000a900460e01b81565b600060029054906101000a900460ff1681565b6102aa816103c0565b82525050565b6102b9816103d2565b82525050565b6102c8816103de565b82525050565b60006102d9826103a4565b6102e381856103af565b93506102f3818560208601610437565b6102fc816104cb565b840191505092915050565b6103108161040a565b82525050565b600060208201905061032b60008301846102a1565b92915050565b600060208201905061034660008301846102b0565b92915050565b600060208201905061036160008301846102bf565b92915050565b6000602082019050818103600083015261038181846102ce565b905092915050565b600060208201905061039e6000830184610307565b92915050565b600081519050919050565b600082825260208201905092915050565b60006103cb82610417565b9050919050565b60008115159050919050565b60007fffffffff0000000000000000000000000000000000000000000000000000000082169050919050565b60008160000b9050919050565b600073ffffffffffffffffffffffffffffffffffffffff82169050919050565b60005b8381101561045557808201518184015260208101905061043a565b83811115610464576000848401525b50505050565b6000600282049050600182168061048257607f821691505b602082108114156104965761049561049c565b5b50919050565b7f4e487b7100000000000000000000000000000000000000000000000000000000600052602260045260246000fd5b6000601f19601f830116905091905056fea264697066735822122092bf3455bbc34eabeb08edb52b944276dd94060c5190f7c0766fe984ee42157964736f6c63430008070033",
					"opcodes": "PUSH1 0x80 PUSH1 0x40 MSTORE PUSH1 0x0 DUP1 PUSH1 0x0 PUSH2 0x100 EXP DUP2 SLOAD DUP2 PUSH1 0xFF MUL NOT AND SWAP1 DUP4 ISZERO ISZERO MUL OR SWAP1 SSTORE POP PUSH1 0x0 ISZERO PUSH1 0x0 PUSH1 0x1 PUSH2 0x100 EXP DUP2 SLOAD DUP2 PUSH1 0xFF MUL NOT AND SWAP1 DUP4 ISZERO ISZERO MUL OR SWAP1 SSTORE POP PUSH1 0x0 DUP1 PUSH2 0x45 JUMPI POP PUSH1 0x1 JUMPDEST PUSH1 0x0 PUSH1 0x2 PUSH2 0x100 EXP DUP2 SLOAD DUP2 PUSH1 0xFF MUL NOT AND SWAP1 DUP4 ISZERO ISZERO MUL OR SWAP1 SSTORE POP PUSH1 0x0 DUP1 ISZERO PUSH2 0x6A JUMPI POP PUSH1 0x1 JUMPDEST PUSH1 0x0 PUSH1 0x3 PUSH2 0x100 EXP DUP2 SLOAD DUP2 PUSH1 0xFF MUL NOT AND SWAP1 DUP4 ISZERO ISZERO MUL OR SWAP1 SSTORE POP PUSH4 0x12345678 PUSH1 0xE0 SHL PUSH1 0x0 PUSH1 0x4 PUSH2 0x100 EXP DUP2 SLOAD DUP2 PUSH4 0xFFFFFFFF MUL NOT AND SWAP1 DUP4 PUSH1 0xE0 SHR MUL OR SWAP1 SSTORE POP PUSH1 0x40 MLOAD DUP1 PUSH1 0x40 ADD PUSH1 0x40 MSTORE DUP1 PUSH1 0x6 DUP2 MSTORE PUSH1 0x20 ADD PUSH32 0x535452494E470000000000000000000000000000000000000000000000000000 DUP2 MSTORE POP PUSH1 0x1 SWAP1 DUP1 MLOAD SWAP1 PUSH1 0x20 ADD SWAP1 PUSH2 0xF3 SWAP3 SWAP2 SWAP1 PUSH2 0x17A JUMP JUMPDEST POP PUSH20 0x1234567890123456789012345678901234567890 PUSH1 0x2 PUSH1 0x0 PUSH2 0x100 EXP DUP2 SLOAD DUP2 PUSH20 0xFFFFFFFFFFFFFFFFFFFFFFFFFFFFFFFFFFFFFFFF MUL NOT AND SWAP1 DUP4 PUSH20 0xFFFFFFFFFFFFFFFFFFFFFFFFFFFFFFFFFFFFFFFF AND MUL OR SWAP1 SSTORE POP PUSH1 0x4 PUSH1 0x2 PUSH1 0x14 PUSH2 0x100 EXP DUP2 SLOAD DUP2 PUSH1 0xFF MUL NOT AND SWAP1 DUP4 PUSH1 0x0 SIGNEXTEND PUSH1 0xFF AND MUL OR SWAP1 SSTORE POP CALLVALUE DUP1 ISZERO PUSH2 0x174 JUMPI PUSH1 0x0 DUP1 REVERT JUMPDEST POP PUSH2 0x27E JUMP JUMPDEST DUP3 DUP1 SLOAD PUSH2 0x186 SWAP1 PUSH2 0x21D JUMP JUMPDEST SWAP1 PUSH1 0x0 MSTORE PUSH1 0x20 PUSH1 0x0 KECCAK256 SWAP1 PUSH1 0x1F ADD PUSH1 0x20 SWAP1 DIV DUP2 ADD SWAP3 DUP3 PUSH2 0x1A8 JUMPI PUSH1 0x0 DUP6 SSTORE PUSH2 0x1EF JUMP JUMPDEST DUP3 PUSH1 0x1F LT PUSH2 0x1C1 JUMPI DUP1 MLOAD PUSH1 0xFF NOT AND DUP4 DUP1 ADD OR DUP6 SSTORE PUSH2 0x1EF JUMP JUMPDEST DUP3 DUP1 ADD PUSH1 0x1 ADD DUP6 SSTORE DUP3 ISZERO PUSH2 0x1EF JUMPI SWAP2 DUP3 ADD JUMPDEST DUP3 DUP2 GT ISZERO PUSH2 0x1EE JUMPI DUP3 MLOAD DUP3 SSTORE SWAP2 PUSH1 0x20 ADD SWAP2 SWAP1 PUSH1 0x1 ADD SWAP1 PUSH2 0x1D3 JUMP JUMPDEST JUMPDEST POP SWAP1 POP PUSH2 0x1FC SWAP2 SWAP1 PUSH2 0x200 JUMP JUMPDEST POP SWAP1 JUMP JUMPDEST JUMPDEST DUP1 DUP3 GT ISZERO PUSH2 0x219 JUMPI PUSH1 0x0 DUP2 PUSH1 0x0 SWAP1 SSTORE POP PUSH1 0x1 ADD PUSH2 0x201 JUMP JUMPDEST POP SWAP1 JUMP JUMPDEST PUSH1 0x0 PUSH1 0x2 DUP3 DIV SWAP1 POP PUSH1 0x1 DUP3 AND DUP1 PUSH2 0x235 JUMPI PUSH1 0x7F DUP3 AND SWAP2 POP JUMPDEST PUSH1 0x20 DUP3 LT DUP2 EQ ISZERO PUSH2 0x249 JUMPI PUSH2 0x248 PUSH2 0x24F JUMP JUMPDEST JUMPDEST POP SWAP2 SWAP1 POP JUMP JUMPDEST PUSH32 0x4E487B7100000000000000000000000000000000000000000000000000000000 PUSH1 0x0 MSTORE PUSH1 0x22 PUSH1 0x4 MSTORE PUSH1 0x24 PUSH1 0x0 REVERT JUMPDEST PUSH2 0x512 DUP1 PUSH2 0x28D PUSH1 0x0 CODECOPY PUSH1 0x0 RETURN INVALID PUSH1 0x80 PUSH1 0x40 MSTORE CALLVALUE DUP1 ISZERO PUSH2 0x10 JUMPI PUSH1 0x0 DUP1 REVERT JUMPDEST POP PUSH1 0x4 CALLDATASIZE LT PUSH2 0x88 JUMPI PUSH1 0x0 CALLDATALOAD PUSH1 0xE0 SHR DUP1 PUSH4 0x5CE692F2 GT PUSH2 0x5B JUMPI DUP1 PUSH4 0x5CE692F2 EQ PUSH2 0x105 JUMPI DUP1 PUSH4 0x767800DE EQ PUSH2 0x123 JUMPI DUP1 PUSH4 0xAC9C1959 EQ PUSH2 0x141 JUMPI DUP1 PUSH4 0xE9B61909 EQ PUSH2 0x15F JUMPI PUSH2 0x88 JUMP JUMPDEST DUP1 PUSH4 0xADD6EF2 EQ PUSH2 0x8D JUMPI DUP1 PUSH4 0x2C622FAE EQ PUSH2 0xAB JUMPI DUP1 PUSH4 0x3DB3FB0A EQ PUSH2 0xC9 JUMPI DUP1 PUSH4 0x4DF7E3D0 EQ PUSH2 0xE7 JUMPI JUMPDEST PUSH1 0x0 DUP1 REVERT JUMPDEST PUSH2 0x95 PUSH2 0x17D JUMP JUMPDEST PUSH1 0x40 MLOAD PUSH2 0xA2 SWAP2 SWAP1 PUSH2 0x331 JUMP JUMPDEST PUSH1 0x40 MLOAD DUP1 SWAP2 SUB SWAP1 RETURN JUMPDEST PUSH2 0xB3 PUSH2 0x190 JUMP JUMPDEST PUSH1 0x40 MLOAD PUSH2 0xC0 SWAP2 SWAP1 PUSH2 0x367 JUMP JUMPDEST PUSH1 0x40 MLOAD DUP1 SWAP2 SUB SWAP1 RETURN JUMPDEST PUSH2 0xD1 PUSH2 0x21E JUMP JUMPDEST PUSH1 0x40 MLOAD PUSH2 0xDE SWAP2 SWAP1 PUSH2 0x331 JUMP JUMPDEST PUSH1 0x40 MLOAD DUP1 SWAP2 SUB SWAP1 RETURN JUMPDEST PUSH2 0xEF PUSH2 0x231 JUMP JUMPDEST PUSH1 0x40 MLOAD PUSH2 0xFC SWAP2 SWAP1 PUSH2 0x331 JUMP JUMPDEST PUSH1 0x40 MLOAD DUP1 SWAP2 SUB SWAP1 RETURN JUMPDEST PUSH2 0x10D PUSH2 0x242 JUMP JUMPDEST PUSH1 0x40 MLOAD PUSH2 0x11A SWAP2 SWAP1 PUSH2 0x389 JUMP JUMPDEST PUSH1 0x40 MLOAD DUP1 SWAP2 SUB SWAP1 RETURN JUMPDEST PUSH2 0x12B PUSH2 0x255 JUMP JUMPDEST PUSH1 0x40 MLOAD PUSH2 0x138 SWAP2 SWAP1 PUSH2 0x316 JUMP JUMPDEST PUSH1 0x40 MLOAD DUP1 SWAP2 SUB SWAP1 RETURN JUMPDEST PUSH2 0x149 PUSH2 0x27B JUMP JUMPDEST PUSH1 0x40 MLOAD PUSH2 0x156 SWAP2 SWAP1 PUSH2 0x34C JUMP JUMPDEST PUSH1 0x40 MLOAD DUP1 SWAP2 SUB SWAP1 RETURN JUMPDEST PUSH2 0x167 PUSH2 0x28E JUMP JUMPDEST PUSH1 0x40 MLOAD PUSH2 0x174 SWAP2 SWAP1 PUSH2 0x331 JUMP JUMPDEST PUSH1 0x40 MLOAD DUP1 SWAP2 SUB SWAP1 RETURN JUMPDEST PUSH1 0x0 PUSH1 0x1 SWAP1 SLOAD SWAP1 PUSH2 0x100 EXP SWAP1 DIV PUSH1 0xFF AND DUP2 JUMP JUMPDEST PUSH1 0x1 DUP1 SLOAD PUSH2 0x19D SWAP1 PUSH2 0x46A JUMP JUMPDEST DUP1 PUSH1 0x1F ADD PUSH1 0x20 DUP1 SWAP2 DIV MUL PUSH1 0x20 ADD PUSH1 0x40 MLOAD SWAP1 DUP2 ADD PUSH1 0x40 MSTORE DUP1 SWAP3 SWAP2 SWAP1 DUP2 DUP2 MSTORE PUSH1 0x20 ADD DUP3 DUP1 SLOAD PUSH2 0x1C9 SWAP1 PUSH2 0x46A JUMP JUMPDEST DUP1 ISZERO PUSH2 0x216 JUMPI DUP1 PUSH1 0x1F LT PUSH2 0x1EB JUMPI PUSH2 0x100 DUP1 DUP4 SLOAD DIV MUL DUP4 MSTORE SWAP2 PUSH1 0x20 ADD SWAP2 PUSH2 0x216 JUMP JUMPDEST DUP3 ADD SWAP2 SWAP1 PUSH1 0x0 MSTORE PUSH1 0x20 PUSH1 0x0 KECCAK256 SWAP1 JUMPDEST DUP2 SLOAD DUP2 MSTORE SWAP1 PUSH1 0x1 ADD SWAP1 PUSH1 0x20 ADD DUP1 DUP4 GT PUSH2 0x1F9 JUMPI DUP3 SWAP1 SUB PUSH1 0x1F AND DUP3 ADD SWAP2 JUMPDEST POP POP POP POP POP DUP2 JUMP JUMPDEST PUSH1 0x0 PUSH1 0x3 SWAP1 SLOAD SWAP1 PUSH2 0x100 EXP SWAP1 DIV PUSH1 0xFF AND DUP2 JUMP JUMPDEST PUSH1 0x0 DUP1 SLOAD SWAP1 PUSH2 0x100 EXP SWAP1 DIV PUSH1 0xFF AND DUP2 JUMP JUMPDEST PUSH1 0x2 PUSH1 0x14 SWAP1 SLOAD SWAP1 PUSH2 0x100 EXP SWAP1 DIV PUSH1 0x0 SIGNEXTEND DUP2 JUMP JUMPDEST PUSH1 0x2 PUSH1 0x0 SWAP1 SLOAD SWAP1 PUSH2 0x100 EXP SWAP1 DIV PUSH20 0xFFFFFFFFFFFFFFFFFFFFFFFFFFFFFFFFFFFFFFFF AND DUP2 JUMP JUMPDEST PUSH1 0x0 PUSH1 0x4 SWAP1 SLOAD SWAP1 PUSH2 0x100 EXP SWAP1 DIV PUSH1 0xE0 SHL DUP2 JUMP JUMPDEST PUSH1 0x0 PUSH1 0x2 SWAP1 SLOAD SWAP1 PUSH2 0x100 EXP SWAP1 DIV PUSH1 0xFF AND DUP2 JUMP JUMPDEST PUSH2 0x2AA DUP2 PUSH2 0x3C0 JUMP JUMPDEST DUP3 MSTORE POP POP JUMP JUMPDEST PUSH2 0x2B9 DUP2 PUSH2 0x3D2 JUMP JUMPDEST DUP3 MSTORE POP POP JUMP JUMPDEST PUSH2 0x2C8 DUP2 PUSH2 0x3DE JUMP JUMPDEST DUP3 MSTORE POP POP JUMP JUMPDEST PUSH1 0x0 PUSH2 0x2D9 DUP3 PUSH2 0x3A4 JUMP JUMPDEST PUSH2 0x2E3 DUP2 DUP6 PUSH2 0x3AF JUMP JUMPDEST SWAP4 POP PUSH2 0x2F3 DUP2 DUP6 PUSH1 0x20 DUP7 ADD PUSH2 0x437 JUMP JUMPDEST PUSH2 0x2FC DUP2 PUSH2 0x4CB JUMP JUMPDEST DUP5 ADD SWAP2 POP POP SWAP3 SWAP2 POP POP JUMP JUMPDEST PUSH2 0x310 DUP2 PUSH2 0x40A JUMP JUMPDEST DUP3 MSTORE POP POP JUMP JUMPDEST PUSH1 0x0 PUSH1 0x20 DUP3 ADD SWAP1 POP PUSH2 0x32B PUSH1 0x0 DUP4 ADD DUP5 PUSH2 0x2A1 JUMP JUMPDEST SWAP3 SWAP2 POP POP JUMP JUMPDEST PUSH1 0x0 PUSH1 0x20 DUP3 ADD SWAP1 POP PUSH2 0x346 PUSH1 0x0 DUP4 ADD DUP5 PUSH2 0x2B0 JUMP JUMPDEST SWAP3 SWAP2 POP POP JUMP JUMPDEST PUSH1 0x0 PUSH1 0x20 DUP3 ADD SWAP1 POP PUSH2 0x361 PUSH1 0x0 DUP4 ADD DUP5 PUSH2 0x2BF JUMP JUMPDEST SWAP3 SWAP2 POP POP JUMP JUMPDEST PUSH1 0x0 PUSH1 0x20 DUP3 ADD SWAP1 POP DUP2 DUP2 SUB PUSH1 0x0 DUP4 ADD MSTORE PUSH2 0x381 DUP2 DUP5 PUSH2 0x2CE JUMP JUMPDEST SWAP1 POP SWAP3 SWAP2 POP POP JUMP JUMPDEST PUSH1 0x0 PUSH1 0x20 DUP3 ADD SWAP1 POP PUSH2 0x39E PUSH1 0x0 DUP4 ADD DUP5 PUSH2 0x307 JUMP JUMPDEST SWAP3 SWAP2 POP POP JUMP JUMPDEST PUSH1 0x0 DUP2 MLOAD SWAP1 POP SWAP2 SWAP1 POP JUMP JUMPDEST PUSH1 0x0 DUP3 DUP3 MSTORE PUSH1 0x20 DUP3 ADD SWAP1 POP SWAP3 SWAP2 POP POP JUMP JUMPDEST PUSH1 0x0 PUSH2 0x3CB DUP3 PUSH2 0x417 JUMP JUMPDEST SWAP1 POP SWAP2 SWAP1 POP JUMP JUMPDEST PUSH1 0x0 DUP2 ISZERO ISZERO SWAP1 POP SWAP2 SWAP1 POP JUMP JUMPDEST PUSH1 0x0 PUSH32 0xFFFFFFFF00000000000000000000000000000000000000000000000000000000 DUP3 AND SWAP1 POP SWAP2 SWAP1 POP JUMP JUMPDEST PUSH1 0x0 DUP2 PUSH1 0x0 SIGNEXTEND SWAP1 POP SWAP2 SWAP1 POP JUMP JUMPDEST PUSH1 0x0 PUSH20 0xFFFFFFFFFFFFFFFFFFFFFFFFFFFFFFFFFFFFFFFF DUP3 AND SWAP1 POP SWAP2 SWAP1 POP JUMP JUMPDEST PUSH1 0x0 JUMPDEST DUP4 DUP2 LT ISZERO PUSH2 0x455 JUMPI DUP1 DUP3 ADD MLOAD DUP2 DUP5 ADD MSTORE PUSH1 0x20 DUP2 ADD SWAP1 POP PUSH2 0x43A JUMP JUMPDEST DUP4 DUP2 GT ISZERO PUSH2 0x464 JUMPI PUSH1 0x0 DUP5 DUP5 ADD MSTORE JUMPDEST POP POP POP POP JUMP JUMPDEST PUSH1 0x0 PUSH1 0x2 DUP3 DIV SWAP1 POP PUSH1 0x1 DUP3 AND DUP1 PUSH2 0x482 JUMPI PUSH1 0x7F DUP3 AND SWAP2 POP JUMPDEST PUSH1 0x20 DUP3 LT DUP2 EQ ISZERO PUSH2 0x496 JUMPI PUSH2 0x495 PUSH2 0x49C JUMP JUMPDEST JUMPDEST POP SWAP2 SWAP1 POP JUMP JUMPDEST PUSH32 0x4E487B7100000000000000000000000000000000000000000000000000000000 PUSH1 0x0 MSTORE PUSH1 0x22 PUSH1 0x4 MSTORE PUSH1 0x24 PUSH1 0x0 REVERT JUMPDEST PUSH1 0x0 PUSH1 0x1F NOT PUSH1 0x1F DUP4 ADD AND SWAP1 POP SWAP2 SWAP1 POP JUMP INVALID LOG2 PUSH5 0x6970667358 0x22 SLT KECCAK256 SWAP3 0xBF CALLVALUE SSTORE 0xBB 0xC3 0x4E 0xAB 0xEB ADDMOD 0xED 0xB5 0x2B SWAP5 TIMESTAMP PUSH23 0xDD94060C5190F7C0766FE984EE42157964736F6C634300 ADDMOD SMOD STOP CALLER "
				},
				"gasEstimates": {
					"creation": {
						"codeDepositCost": "259600",
						"executionCost": "infinite",
						"totalCost": "infinite"
					},
					"external": {
						"addr()": "2536",
						"b()": "2535",
						"b2()": "2522",
						"b3()": "2587",
						"b4()": "2566",
						"bt()": "2565",
						"bt2()": "infinite",
						"it()": "2525"
					}
				},
				"methodIdentifiers": {
					"addr()": "767800de",
					"b()": "4df7e3d0",
					"b2()": "0add6ef2",
					"b3()": "e9b61909",
					"b4()": "3db3fb0a",
					"bt()": "ac9c1959",
					"bt2()": "2c622fae",
					"it()": "5ce692f2"
				}
			},
			"storageLayout": {
				"storage": [
					{
						"astId": 4,
						"contract": "lecture/lec2.sol:Lec2",
						"label": "b",
						"offset": 0,
						"slot": "0",
						"type": "t_bool"
					},
					{
						"astId": 8,
						"contract": "lecture/lec2.sol:Lec2",
						"label": "b2",
						"offset": 1,
						"slot": "0",
						"type": "t_bool"
					},
					{
						"astId": 13,
						"contract": "lecture/lec2.sol:Lec2",
						"label": "b3",
						"offset": 2,
						"slot": "0",
						"type": "t_bool"
					},
					{
						"astId": 18,
						"contract": "lecture/lec2.sol:Lec2",
						"label": "b4",
						"offset": 3,
						"slot": "0",
						"type": "t_bool"
					},
					{
						"astId": 21,
						"contract": "lecture/lec2.sol:Lec2",
						"label": "bt",
						"offset": 4,
						"slot": "0",
						"type": "t_bytes4"
					},
					{
						"astId": 24,
						"contract": "lecture/lec2.sol:Lec2",
						"label": "bt2",
						"offset": 0,
						"slot": "1",
						"type": "t_bytes_storage"
					},
					{
						"astId": 27,
						"contract": "lecture/lec2.sol:Lec2",
						"label": "addr",
						"offset": 0,
						"slot": "2",
						"type": "t_address"
					},
					{
						"astId": 30,
						"contract": "lecture/lec2.sol:Lec2",
						"label": "it",
						"offset": 20,
						"slot": "2",
						"type": "t_int8"
					}
				],
				"types": {
					"t_address": {
						"encoding": "inplace",
						"label": "address",
						"numberOfBytes": "20"
					},
					"t_bool": {
						"encoding": "inplace",
						"label": "bool",
						"numberOfBytes": "1"
					},
					"t_bytes4": {
						"encoding": "inplace",
						"label": "bytes4",
						"numberOfBytes": "4"
					},
					"t_bytes_storage": {
						"encoding": "bytes",
						"label": "bytes",
						"numberOfBytes": "32"
					},
					"t_int8": {
						"encoding": "inplace",
						"label": "int8",
						"numberOfBytes": "1"
					}
				}
			},
			"userdoc": {
				"kind": "user",
				"methods": {},
				"version": 1
			}
		}
	}
}