{
	"lecture/lec6.sol": {
		"Lec6": {
			"abi": [
				{
					"inputs": [],
					"name": "a",
					"outputs": [
						{
							"internalType": "uint256",
							"name": "",
							"type": "uint256"
						}
					],
					"stateMutability": "view",
					"type": "function"
				},
				{
					"inputs": [],
					"name": "readA1",
					"outputs": [
						{
							"internalType": "uint256",
							"name": "",
							"type": "uint256"
						}
					],
					"stateMutability": "view",
					"type": "function"
				},
				{
					"inputs": [],
					"name": "readA2",
					"outputs": [
						{
							"internalType": "uint256",
							"name": "",
							"type": "uint256"
						}
					],
					"stateMutability": "pure",
					"type": "function"
				},
				{
					"inputs": [],
					"name": "readA3",
					"outputs": [
						{
							"internalType": "uint256",
							"name": "",
							"type": "uint256"
						}
					],
					"stateMutability": "nonpayable",
					"type": "function"
				}
			],
			"devdoc": {
				"kind": "dev",
				"methods": {},
				"version": 1
			},
			"evm": {
				"assembly": "    /* \"lecture/lec6.sol\":71:470  contract Lec6 {... */\n  mstore(0x40, 0x80)\n    /* \"lecture/lec6.sol\":152:153  1 */\n  0x01\n    /* \"lecture/lec6.sol\":133:153  uint256 public a = 1 */\n  0x00\n  sstore\n    /* \"lecture/lec6.sol\":71:470  contract Lec6 {... */\n  callvalue\n  dup1\n  iszero\n  tag_1\n  jumpi\n  0x00\n  dup1\n  revert\ntag_1:\n  pop\n  dataSize(sub_0)\n  dup1\n  dataOffset(sub_0)\n  0x00\n  codecopy\n  0x00\n  return\nstop\n\nsub_0: assembly {\n        /* \"lecture/lec6.sol\":71:470  contract Lec6 {... */\n      mstore(0x40, 0x80)\n      callvalue\n      dup1\n      iszero\n      tag_1\n      jumpi\n      0x00\n      dup1\n      revert\n    tag_1:\n      pop\n      jumpi(tag_2, lt(calldatasize, 0x04))\n      shr(0xe0, calldataload(0x00))\n      dup1\n      0x0dbe671f\n      eq\n      tag_3\n      jumpi\n      dup1\n      0x647c82f8\n      eq\n      tag_4\n      jumpi\n      dup1\n      0x93afa42e\n      eq\n      tag_5\n      jumpi\n      dup1\n      0xfdab45a5\n      eq\n      tag_6\n      jumpi\n    tag_2:\n      0x00\n      dup1\n      revert\n        /* \"lecture/lec6.sol\":133:153  uint256 public a = 1 */\n    tag_3:\n      tag_7\n      tag_8\n      jump\t// in\n    tag_7:\n      mload(0x40)\n      tag_9\n      swap2\n      swap1\n      tag_10\n      jump\t// in\n    tag_9:\n      mload(0x40)\n      dup1\n      swap2\n      sub\n      swap1\n      return\n        /* \"lecture/lec6.sol\":242:342  function readA2() public pure returns(uint256) {... */\n    tag_4:\n      tag_11\n      tag_12\n      jump\t// in\n    tag_11:\n      mload(0x40)\n      tag_13\n      swap2\n      swap1\n      tag_10\n      jump\t// in\n    tag_13:\n      mload(0x40)\n      dup1\n      swap2\n      sub\n      swap1\n      return\n        /* \"lecture/lec6.sol\":160:236  function readA1() public view returns(uint256) {... */\n    tag_5:\n      tag_14\n      tag_15\n      jump\t// in\n    tag_14:\n      mload(0x40)\n      tag_16\n      swap2\n      swap1\n      tag_10\n      jump\t// in\n    tag_16:\n      mload(0x40)\n      dup1\n      swap2\n      sub\n      swap1\n      return\n        /* \"lecture/lec6.sol\":348:468  function readA3() public returns(uint256) {... */\n    tag_6:\n      tag_17\n      tag_18\n      jump\t// in\n    tag_17:\n      mload(0x40)\n      tag_19\n      swap2\n      swap1\n      tag_10\n      jump\t// in\n    tag_19:\n      mload(0x40)\n      dup1\n      swap2\n      sub\n      swap1\n      return\n        /* \"lecture/lec6.sol\":133:153  uint256 public a = 1 */\n    tag_8:\n      sload(0x00)\n      dup2\n      jump\t// out\n        /* \"lecture/lec6.sol\":242:342  function readA2() public pure returns(uint256) {... */\n    tag_12:\n        /* \"lecture/lec6.sol\":280:287  uint256 */\n      0x00\n        /* \"lecture/lec6.sol\":299:308  uint256 b */\n      dup1\n        /* \"lecture/lec6.sol\":311:313  11 */\n      0x0b\n        /* \"lecture/lec6.sol\":299:313  uint256 b = 11 */\n      swap1\n      pop\n        /* \"lecture/lec6.sol\":334:335  2 */\n      0x02\n        /* \"lecture/lec6.sol\":330:331  b */\n      dup2\n        /* \"lecture/lec6.sol\":330:335  b + 2 */\n      tag_21\n      swap2\n      swap1\n      tag_22\n      jump\t// in\n    tag_21:\n        /* \"lecture/lec6.sol\":323:335  return b + 2 */\n      swap2\n      pop\n      pop\n        /* \"lecture/lec6.sol\":242:342  function readA2() public pure returns(uint256) {... */\n      swap1\n      jump\t// out\n        /* \"lecture/lec6.sol\":160:236  function readA1() public view returns(uint256) {... */\n    tag_15:\n        /* \"lecture/lec6.sol\":198:205  uint256 */\n      0x00\n        /* \"lecture/lec6.sol\":228:229  2 */\n      0x02\n        /* \"lecture/lec6.sol\":224:225  a */\n      sload(0x00)\n        /* \"lecture/lec6.sol\":224:229  a + 2 */\n      tag_24\n      swap2\n      swap1\n      tag_22\n      jump\t// in\n    tag_24:\n        /* \"lecture/lec6.sol\":217:229  return a + 2 */\n      swap1\n      pop\n        /* \"lecture/lec6.sol\":160:236  function readA1() public view returns(uint256) {... */\n      swap1\n      jump\t// out\n        /* \"lecture/lec6.sol\":348:468  function readA3() public returns(uint256) {... */\n    tag_18:\n        /* \"lecture/lec6.sol\":381:388  uint256 */\n      0x00\n        /* \"lecture/lec6.sol\":404:405  1 */\n      0x01\n        /* \"lecture/lec6.sol\":400:401  a */\n      0x00\n        /* \"lecture/lec6.sol\":400:405  a = 1 */\n      dup2\n      swap1\n      sstore\n      pop\n        /* \"lecture/lec6.sol\":415:424  uint256 b */\n      0x00\n        /* \"lecture/lec6.sol\":433:434  a */\n      dup1\n      sload\n        /* \"lecture/lec6.sol\":427:430  111 */\n      0x6f\n        /* \"lecture/lec6.sol\":427:434  111 + a */\n      tag_26\n      swap2\n      swap1\n      tag_22\n      jump\t// in\n    tag_26:\n        /* \"lecture/lec6.sol\":415:434  uint256 b = 111 + a */\n      swap1\n      pop\n        /* \"lecture/lec6.sol\":460:461  b */\n      dup1\n        /* \"lecture/lec6.sol\":453:461  return b */\n      swap2\n      pop\n      pop\n        /* \"lecture/lec6.sol\":348:468  function readA3() public returns(uint256) {... */\n      swap1\n      jump\t// out\n        /* \"#utility.yul\":7:125   */\n    tag_28:\n        /* \"#utility.yul\":94:118   */\n      tag_30\n        /* \"#utility.yul\":112:117   */\n      dup2\n        /* \"#utility.yul\":94:118   */\n      tag_31\n      jump\t// in\n    tag_30:\n        /* \"#utility.yul\":89:92   */\n      dup3\n        /* \"#utility.yul\":82:119   */\n      mstore\n        /* \"#utility.yul\":7:125   */\n      pop\n      pop\n      jump\t// out\n        /* \"#utility.yul\":131:353   */\n    tag_10:\n        /* \"#utility.yul\":224:228   */\n      0x00\n        /* \"#utility.yul\":262:264   */\n      0x20\n        /* \"#utility.yul\":251:260   */\n      dup3\n        /* \"#utility.yul\":247:265   */\n      add\n        /* \"#utility.yul\":239:265   */\n      swap1\n      pop\n        /* \"#utility.yul\":275:346   */\n      tag_33\n        /* \"#utility.yul\":343:344   */\n      0x00\n        /* \"#utility.yul\":332:341   */\n      dup4\n        /* \"#utility.yul\":328:345   */\n      add\n        /* \"#utility.yul\":319:325   */\n      dup5\n        /* \"#utility.yul\":275:346   */\n      tag_28\n      jump\t// in\n    tag_33:\n        /* \"#utility.yul\":131:353   */\n      swap3\n      swap2\n      pop\n      pop\n      jump\t// out\n        /* \"#utility.yul\":359:664   */\n    tag_22:\n        /* \"#utility.yul\":399:402   */\n      0x00\n        /* \"#utility.yul\":418:438   */\n      tag_35\n        /* \"#utility.yul\":436:437   */\n      dup3\n        /* \"#utility.yul\":418:438   */\n      tag_31\n      jump\t// in\n    tag_35:\n        /* \"#utility.yul\":413:438   */\n      swap2\n      pop\n        /* \"#utility.yul\":452:472   */\n      tag_36\n        /* \"#utility.yul\":470:471   */\n      dup4\n        /* \"#utility.yul\":452:472   */\n      tag_31\n      jump\t// in\n    tag_36:\n        /* \"#utility.yul\":447:472   */\n      swap3\n      pop\n        /* \"#utility.yul\":606:607   */\n      dup3\n        /* \"#utility.yul\":538:604   */\n      0xffffffffffffffffffffffffffffffffffffffffffffffffffffffffffffffff\n        /* \"#utility.yul\":534:608   */\n      sub\n        /* \"#utility.yul\":531:532   */\n      dup3\n        /* \"#utility.yul\":528:609   */\n      gt\n        /* \"#utility.yul\":525:632   */\n      iszero\n      tag_37\n      jumpi\n        /* \"#utility.yul\":612:630   */\n      tag_38\n      tag_39\n      jump\t// in\n    tag_38:\n        /* \"#utility.yul\":525:632   */\n    tag_37:\n        /* \"#utility.yul\":656:657   */\n      dup3\n        /* \"#utility.yul\":653:654   */\n      dup3\n        /* \"#utility.yul\":649:658   */\n      add\n        /* \"#utility.yul\":642:658   */\n      swap1\n      pop\n        /* \"#utility.yul\":359:664   */\n      swap3\n      swap2\n      pop\n      pop\n      jump\t// out\n        /* \"#utility.yul\":670:747   */\n    tag_31:\n        /* \"#utility.yul\":707:714   */\n      0x00\n        /* \"#utility.yul\":736:741   */\n      dup2\n        /* \"#utility.yul\":725:741   */\n      swap1\n      pop\n        /* \"#utility.yul\":670:747   */\n      swap2\n      swap1\n      pop\n      jump\t// out\n        /* \"#utility.yul\":753:933   */\n    tag_39:\n        /* \"#utility.yul\":801:878   */\n      0x4e487b7100000000000000000000000000000000000000000000000000000000\n        /* \"#utility.yul\":798:799   */\n      0x00\n        /* \"#utility.yul\":791:879   */\n      mstore\n        /* \"#utility.yul\":898:902   */\n      0x11\n        /* \"#utility.yul\":895:896   */\n      0x04\n        /* \"#utility.yul\":888:903   */\n      mstore\n        /* \"#utility.yul\":922:926   */\n      0x24\n        /* \"#utility.yul\":919:920   */\n      0x00\n        /* \"#utility.yul\":912:927   */\n      revert\n\n    auxdata: 0xa2646970667358221220b5e76f8ddfe86eb6d778c358c5382b422a6cb91d25516a7581acc43d646e9b0b64736f6c63430008070033\n}\n",
				"bytecode": {
					"linkReferences": {},
					"object": "6080604052600160005534801561001557600080fd5b50610211806100256000396000f3fe608060405234801561001057600080fd5b506004361061004c5760003560e01c80630dbe671f14610051578063647c82f81461006f57806393afa42e1461008d578063fdab45a5146100ab575b600080fd5b6100596100c9565b6040516100669190610131565b60405180910390f35b6100776100cf565b6040516100849190610131565b60405180910390f35b6100956100e9565b6040516100a29190610131565b60405180910390f35b6100b36100ff565b6040516100c09190610131565b60405180910390f35b60005481565b600080600b90506002816100e3919061014c565b91505090565b600060026000546100fa919061014c565b905090565b6000600160008190555060008054606f610119919061014c565b90508091505090565b61012b816101a2565b82525050565b60006020820190506101466000830184610122565b92915050565b6000610157826101a2565b9150610162836101a2565b9250827fffffffffffffffffffffffffffffffffffffffffffffffffffffffffffffffff03821115610197576101966101ac565b5b828201905092915050565b6000819050919050565b7f4e487b7100000000000000000000000000000000000000000000000000000000600052601160045260246000fdfea2646970667358221220b5e76f8ddfe86eb6d778c358c5382b422a6cb91d25516a7581acc43d646e9b0b64736f6c63430008070033",
					"opcodes": "PUSH1 0x80 PUSH1 0x40 MSTORE PUSH1 0x1 PUSH1 0x0 SSTORE CALLVALUE DUP1 ISZERO PUSH2 0x15 JUMPI PUSH1 0x0 DUP1 REVERT JUMPDEST POP PUSH2 0x211 DUP1 PUSH2 0x25 PUSH1 0x0 CODECOPY PUSH1 0x0 RETURN INVALID PUSH1 0x80 PUSH1 0x40 MSTORE CALLVALUE DUP1 ISZERO PUSH2 0x10 JUMPI PUSH1 0x0 DUP1 REVERT JUMPDEST POP PUSH1 0x4 CALLDATASIZE LT PUSH2 0x4C JUMPI PUSH1 0x0 CALLDATALOAD PUSH1 0xE0 SHR DUP1 PUSH4 0xDBE671F EQ PUSH2 0x51 JUMPI DUP1 PUSH4 0x647C82F8 EQ PUSH2 0x6F JUMPI DUP1 PUSH4 0x93AFA42E EQ PUSH2 0x8D JUMPI DUP1 PUSH4 0xFDAB45A5 EQ PUSH2 0xAB JUMPI JUMPDEST PUSH1 0x0 DUP1 REVERT JUMPDEST PUSH2 0x59 PUSH2 0xC9 JUMP JUMPDEST PUSH1 0x40 MLOAD PUSH2 0x66 SWAP2 SWAP1 PUSH2 0x131 JUMP JUMPDEST PUSH1 0x40 MLOAD DUP1 SWAP2 SUB SWAP1 RETURN JUMPDEST PUSH2 0x77 PUSH2 0xCF JUMP JUMPDEST PUSH1 0x40 MLOAD PUSH2 0x84 SWAP2 SWAP1 PUSH2 0x131 JUMP JUMPDEST PUSH1 0x40 MLOAD DUP1 SWAP2 SUB SWAP1 RETURN JUMPDEST PUSH2 0x95 PUSH2 0xE9 JUMP JUMPDEST PUSH1 0x40 MLOAD PUSH2 0xA2 SWAP2 SWAP1 PUSH2 0x131 JUMP JUMPDEST PUSH1 0x40 MLOAD DUP1 SWAP2 SUB SWAP1 RETURN JUMPDEST PUSH2 0xB3 PUSH2 0xFF JUMP JUMPDEST PUSH1 0x40 MLOAD PUSH2 0xC0 SWAP2 SWAP1 PUSH2 0x131 JUMP JUMPDEST PUSH1 0x40 MLOAD DUP1 SWAP2 SUB SWAP1 RETURN JUMPDEST PUSH1 0x0 SLOAD DUP2 JUMP JUMPDEST PUSH1 0x0 DUP1 PUSH1 0xB SWAP1 POP PUSH1 0x2 DUP2 PUSH2 0xE3 SWAP2 SWAP1 PUSH2 0x14C JUMP JUMPDEST SWAP2 POP POP SWAP1 JUMP JUMPDEST PUSH1 0x0 PUSH1 0x2 PUSH1 0x0 SLOAD PUSH2 0xFA SWAP2 SWAP1 PUSH2 0x14C JUMP JUMPDEST SWAP1 POP SWAP1 JUMP JUMPDEST PUSH1 0x0 PUSH1 0x1 PUSH1 0x0 DUP2 SWAP1 SSTORE POP PUSH1 0x0 DUP1 SLOAD PUSH1 0x6F PUSH2 0x119 SWAP2 SWAP1 PUSH2 0x14C JUMP JUMPDEST SWAP1 POP DUP1 SWAP2 POP POP SWAP1 JUMP JUMPDEST PUSH2 0x12B DUP2 PUSH2 0x1A2 JUMP JUMPDEST DUP3 MSTORE POP POP JUMP JUMPDEST PUSH1 0x0 PUSH1 0x20 DUP3 ADD SWAP1 POP PUSH2 0x146 PUSH1 0x0 DUP4 ADD DUP5 PUSH2 0x122 JUMP JUMPDEST SWAP3 SWAP2 POP POP JUMP JUMPDEST PUSH1 0x0 PUSH2 0x157 DUP3 PUSH2 0x1A2 JUMP JUMPDEST SWAP2 POP PUSH2 0x162 DUP4 PUSH2 0x1A2 JUMP JUMPDEST SWAP3 POP DUP3 PUSH32 0xFFFFFFFFFFFFFFFFFFFFFFFFFFFFFFFFFFFFFFFFFFFFFFFFFFFFFFFFFFFFFFFF SUB DUP3 GT ISZERO PUSH2 0x197 JUMPI PUSH2 0x196 PUSH2 0x1AC JUMP JUMPDEST JUMPDEST DUP3 DUP3 ADD SWAP1 POP SWAP3 SWAP2 POP POP JUMP JUMPDEST PUSH1 0x0 DUP2 SWAP1 POP SWAP2 SWAP1 POP JUMP JUMPDEST PUSH32 0x4E487B7100000000000000000000000000000000000000000000000000000000 PUSH1 0x0 MSTORE PUSH1 0x11 PUSH1 0x4 MSTORE PUSH1 0x24 PUSH1 0x0 REVERT INVALID LOG2 PUSH5 0x6970667358 0x22 SLT KECCAK256 0xB5 0xE7 PUSH16 0x8DDFE86EB6D778C358C5382B422A6CB9 SAR 0x25 MLOAD PUSH11 0x7581ACC43D646E9B0B6473 PUSH16 0x6C634300080700330000000000000000 "
				},
				"gasEstimates": {
					"creation": {
						"codeDepositCost": "105800",
						"executionCost": "22259",
						"totalCost": "128059"
					},
					"external": {
						"a()": "2407",
						"readA1()": "infinite",
						"readA2()": "infinite",
						"readA3()": "infinite"
					}
				},
				"methodIdentifiers": {
					"a()": "0dbe671f",
					"readA1()": "93afa42e",
					"readA2()": "647c82f8",
					"readA3()": "fdab45a5"
				}
			},
			"storageLayout": {
				"storage": [
					{
						"astId": 4,
						"contract": "lecture/lec6.sol:Lec6",
						"label": "a",
						"offset": 0,
						"slot": "0",
						"type": "t_uint256"
					}
				],
				"types": {
					"t_uint256": {
						"encoding": "inplace",
						"label": "uint256",
						"numberOfBytes": "32"
					}
				}
			},
			"userdoc": {
				"kind": "user",
				"methods": {},
				"version": 1
			}
		}
	}
}