{
	"lecture/lec8.sol": {
		"B": {
			"abi": [
				{
					"inputs": [
						{
							"internalType": "uint256",
							"name": "_value",
							"type": "uint256"
						}
					],
					"name": "changeA",
					"outputs": [],
					"stateMutability": "nonpayable",
					"type": "function"
				},
				{
					"inputs": [],
					"name": "getA",
					"outputs": [
						{
							"internalType": "uint256",
							"name": "",
							"type": "uint256"
						}
					],
					"stateMutability": "view",
					"type": "function"
				}
			],
			"devdoc": {
				"kind": "dev",
				"methods": {},
				"version": 1
			},
			"evm": {
				"assembly": "    /* \"lecture/lec8.sol\":189:384  contract B {... */\n  mstore(0x40, 0x80)\n    /* \"lecture/lec8.sol\":220:227  new A() */\n  mload(0x40)\n  tag_1\n  swap1\n  tag_2\n  jump\t// in\ntag_1:\n  mload(0x40)\n  dup1\n  swap2\n  sub\n  swap1\n  0x00\n  create\n  dup1\n  iszero\n  dup1\n  iszero\n  tag_3\n  jumpi\n  returndatasize\n  0x00\n  dup1\n  returndatacopy\n  revert(0x00, returndatasize)\ntag_3:\n  pop\n    /* \"lecture/lec8.sol\":207:227  A instance = new A() */\n  0x00\n  dup1\n  0x0100\n  exp\n  dup2\n  sload\n  dup2\n  0xffffffffffffffffffffffffffffffffffffffff\n  mul\n  not\n  and\n  swap1\n  dup4\n  0xffffffffffffffffffffffffffffffffffffffff\n  and\n  mul\n  or\n  swap1\n  sstore\n  pop\n    /* \"lecture/lec8.sol\":189:384  contract B {... */\n  callvalue\n  dup1\n  iszero\n  tag_4\n  jumpi\n  0x00\n  dup1\n  revert\ntag_4:\n  pop\n  jump(tag_5)\ntag_2:\n  dataSize(sub_1)\n  dup1\n  dataOffset(sub_1)\n  dup4\n  codecopy\n  add\n  swap1\n  jump\t// out\ntag_5:\n  dataSize(sub_0)\n  dup1\n  dataOffset(sub_0)\n  0x00\n  codecopy\n  0x00\n  return\nstop\n\nsub_0: assembly {\n        /* \"lecture/lec8.sol\":189:384  contract B {... */\n      mstore(0x40, 0x80)\n      callvalue\n      dup1\n      iszero\n      tag_1\n      jumpi\n      0x00\n      dup1\n      revert\n    tag_1:\n      pop\n      jumpi(tag_2, lt(calldatasize, 0x04))\n      shr(0xe0, calldataload(0x00))\n      dup1\n      0xd46300fd\n      eq\n      tag_3\n      jumpi\n      dup1\n      0xfcbfcc71\n      eq\n      tag_4\n      jumpi\n    tag_2:\n      0x00\n      dup1\n      revert\n        /* \"lecture/lec8.sol\":234:315  function getA() public view returns(uint256) {... */\n    tag_3:\n      tag_5\n      tag_6\n      jump\t// in\n    tag_5:\n      mload(0x40)\n      tag_7\n      swap2\n      swap1\n      tag_8\n      jump\t// in\n    tag_7:\n      mload(0x40)\n      dup1\n      swap2\n      sub\n      swap1\n      return\n        /* \"lecture/lec8.sol\":321:377  function changeA(uint256 _value) public {... */\n    tag_4:\n      tag_9\n      0x04\n      dup1\n      calldatasize\n      sub\n      dup2\n      add\n      swap1\n      tag_10\n      swap2\n      swap1\n      tag_11\n      jump\t// in\n    tag_10:\n      tag_12\n      jump\t// in\n    tag_9:\n      stop\n        /* \"lecture/lec8.sol\":234:315  function getA() public view returns(uint256) {... */\n    tag_6:\n        /* \"lecture/lec8.sol\":270:277  uint256 */\n      0x00\n        /* \"lecture/lec8.sol\":296:304  instance */\n      dup1\n      0x00\n      swap1\n      sload\n      swap1\n      0x0100\n      exp\n      swap1\n      div\n      0xffffffffffffffffffffffffffffffffffffffff\n      and\n        /* \"lecture/lec8.sol\":296:306  instance.a */\n      0xffffffffffffffffffffffffffffffffffffffff\n      and\n      0x0dbe671f\n        /* \"lecture/lec8.sol\":296:308  instance.a() */\n      mload(0x40)\n      dup2\n      0xffffffff\n      and\n      0xe0\n      shl\n      dup2\n      mstore\n      0x04\n      add\n      0x20\n      mload(0x40)\n      dup1\n      dup4\n      sub\n      dup2\n      dup7\n      dup1\n      extcodesize\n      iszero\n      dup1\n      iszero\n      tag_14\n      jumpi\n      0x00\n      dup1\n      revert\n    tag_14:\n      pop\n      gas\n      staticcall\n      iszero\n      dup1\n      iszero\n      tag_16\n      jumpi\n      returndatasize\n      0x00\n      dup1\n      returndatacopy\n      revert(0x00, returndatasize)\n    tag_16:\n      pop\n      pop\n      pop\n      pop\n      mload(0x40)\n      returndatasize\n      not(0x1f)\n      0x1f\n      dup3\n      add\n      and\n      dup3\n      add\n      dup1\n      0x40\n      mstore\n      pop\n      dup2\n      add\n      swap1\n      tag_17\n      swap2\n      swap1\n      tag_18\n      jump\t// in\n    tag_17:\n        /* \"lecture/lec8.sol\":289:308  return instance.a() */\n      swap1\n      pop\n        /* \"lecture/lec8.sol\":234:315  function getA() public view returns(uint256) {... */\n      swap1\n      jump\t// out\n        /* \"lecture/lec8.sol\":321:377  function changeA(uint256 _value) public {... */\n    tag_12:\n      pop\n      jump\t// out\n        /* \"#utility.yul\":7:146   */\n    tag_21:\n        /* \"#utility.yul\":53:58   */\n      0x00\n        /* \"#utility.yul\":91:97   */\n      dup2\n        /* \"#utility.yul\":78:98   */\n      calldataload\n        /* \"#utility.yul\":69:98   */\n      swap1\n      pop\n        /* \"#utility.yul\":107:140   */\n      tag_23\n        /* \"#utility.yul\":134:139   */\n      dup2\n        /* \"#utility.yul\":107:140   */\n      tag_24\n      jump\t// in\n    tag_23:\n        /* \"#utility.yul\":7:146   */\n      swap3\n      swap2\n      pop\n      pop\n      jump\t// out\n        /* \"#utility.yul\":152:295   */\n    tag_25:\n        /* \"#utility.yul\":209:214   */\n      0x00\n        /* \"#utility.yul\":240:246   */\n      dup2\n        /* \"#utility.yul\":234:247   */\n      mload\n        /* \"#utility.yul\":225:247   */\n      swap1\n      pop\n        /* \"#utility.yul\":256:289   */\n      tag_27\n        /* \"#utility.yul\":283:288   */\n      dup2\n        /* \"#utility.yul\":256:289   */\n      tag_24\n      jump\t// in\n    tag_27:\n        /* \"#utility.yul\":152:295   */\n      swap3\n      swap2\n      pop\n      pop\n      jump\t// out\n        /* \"#utility.yul\":301:630   */\n    tag_11:\n        /* \"#utility.yul\":360:366   */\n      0x00\n        /* \"#utility.yul\":409:411   */\n      0x20\n        /* \"#utility.yul\":397:406   */\n      dup3\n        /* \"#utility.yul\":388:395   */\n      dup5\n        /* \"#utility.yul\":384:407   */\n      sub\n        /* \"#utility.yul\":380:412   */\n      slt\n        /* \"#utility.yul\":377:496   */\n      iszero\n      tag_29\n      jumpi\n        /* \"#utility.yul\":415:494   */\n      tag_30\n      tag_31\n      jump\t// in\n    tag_30:\n        /* \"#utility.yul\":377:496   */\n    tag_29:\n        /* \"#utility.yul\":535:536   */\n      0x00\n        /* \"#utility.yul\":560:613   */\n      tag_32\n        /* \"#utility.yul\":605:612   */\n      dup5\n        /* \"#utility.yul\":596:602   */\n      dup3\n        /* \"#utility.yul\":585:594   */\n      dup6\n        /* \"#utility.yul\":581:603   */\n      add\n        /* \"#utility.yul\":560:613   */\n      tag_21\n      jump\t// in\n    tag_32:\n        /* \"#utility.yul\":550:613   */\n      swap2\n      pop\n        /* \"#utility.yul\":506:623   */\n      pop\n        /* \"#utility.yul\":301:630   */\n      swap3\n      swap2\n      pop\n      pop\n      jump\t// out\n        /* \"#utility.yul\":636:987   */\n    tag_18:\n        /* \"#utility.yul\":706:712   */\n      0x00\n        /* \"#utility.yul\":755:757   */\n      0x20\n        /* \"#utility.yul\":743:752   */\n      dup3\n        /* \"#utility.yul\":734:741   */\n      dup5\n        /* \"#utility.yul\":730:753   */\n      sub\n        /* \"#utility.yul\":726:758   */\n      slt\n        /* \"#utility.yul\":723:842   */\n      iszero\n      tag_34\n      jumpi\n        /* \"#utility.yul\":761:840   */\n      tag_35\n      tag_31\n      jump\t// in\n    tag_35:\n        /* \"#utility.yul\":723:842   */\n    tag_34:\n        /* \"#utility.yul\":881:882   */\n      0x00\n        /* \"#utility.yul\":906:970   */\n      tag_36\n        /* \"#utility.yul\":962:969   */\n      dup5\n        /* \"#utility.yul\":953:959   */\n      dup3\n        /* \"#utility.yul\":942:951   */\n      dup6\n        /* \"#utility.yul\":938:960   */\n      add\n        /* \"#utility.yul\":906:970   */\n      tag_25\n      jump\t// in\n    tag_36:\n        /* \"#utility.yul\":896:970   */\n      swap2\n      pop\n        /* \"#utility.yul\":852:980   */\n      pop\n        /* \"#utility.yul\":636:987   */\n      swap3\n      swap2\n      pop\n      pop\n      jump\t// out\n        /* \"#utility.yul\":993:1111   */\n    tag_37:\n        /* \"#utility.yul\":1080:1104   */\n      tag_39\n        /* \"#utility.yul\":1098:1103   */\n      dup2\n        /* \"#utility.yul\":1080:1104   */\n      tag_40\n      jump\t// in\n    tag_39:\n        /* \"#utility.yul\":1075:1078   */\n      dup3\n        /* \"#utility.yul\":1068:1105   */\n      mstore\n        /* \"#utility.yul\":993:1111   */\n      pop\n      pop\n      jump\t// out\n        /* \"#utility.yul\":1117:1339   */\n    tag_8:\n        /* \"#utility.yul\":1210:1214   */\n      0x00\n        /* \"#utility.yul\":1248:1250   */\n      0x20\n        /* \"#utility.yul\":1237:1246   */\n      dup3\n        /* \"#utility.yul\":1233:1251   */\n      add\n        /* \"#utility.yul\":1225:1251   */\n      swap1\n      pop\n        /* \"#utility.yul\":1261:1332   */\n      tag_42\n        /* \"#utility.yul\":1329:1330   */\n      0x00\n        /* \"#utility.yul\":1318:1327   */\n      dup4\n        /* \"#utility.yul\":1314:1331   */\n      add\n        /* \"#utility.yul\":1305:1311   */\n      dup5\n        /* \"#utility.yul\":1261:1332   */\n      tag_37\n      jump\t// in\n    tag_42:\n        /* \"#utility.yul\":1117:1339   */\n      swap3\n      swap2\n      pop\n      pop\n      jump\t// out\n        /* \"#utility.yul\":1426:1503   */\n    tag_40:\n        /* \"#utility.yul\":1463:1470   */\n      0x00\n        /* \"#utility.yul\":1492:1497   */\n      dup2\n        /* \"#utility.yul\":1481:1497   */\n      swap1\n      pop\n        /* \"#utility.yul\":1426:1503   */\n      swap2\n      swap1\n      pop\n      jump\t// out\n        /* \"#utility.yul\":1632:1749   */\n    tag_31:\n        /* \"#utility.yul\":1741:1742   */\n      0x00\n        /* \"#utility.yul\":1738:1739   */\n      dup1\n        /* \"#utility.yul\":1731:1743   */\n      revert\n        /* \"#utility.yul\":1755:1877   */\n    tag_24:\n        /* \"#utility.yul\":1828:1852   */\n      tag_50\n        /* \"#utility.yul\":1846:1851   */\n      dup2\n        /* \"#utility.yul\":1828:1852   */\n      tag_40\n      jump\t// in\n    tag_50:\n        /* \"#utility.yul\":1821:1826   */\n      dup2\n        /* \"#utility.yul\":1818:1853   */\n      eq\n        /* \"#utility.yul\":1808:1871   */\n      tag_51\n      jumpi\n        /* \"#utility.yul\":1867:1868   */\n      0x00\n        /* \"#utility.yul\":1864:1865   */\n      dup1\n        /* \"#utility.yul\":1857:1869   */\n      revert\n        /* \"#utility.yul\":1808:1871   */\n    tag_51:\n        /* \"#utility.yul\":1755:1877   */\n      pop\n      jump\t// out\n\n    auxdata: 0xa2646970667358221220e771acbde87cfd995eea1ac1d30396122cd6634db2f841ac3ebd3abd9ce6f57e64736f6c63430008070033\n}\n\nsub_1: assembly {\n        /* \"lecture/lec8.sol\":71:187  contract A {... */\n      mstore(0x40, 0x80)\n        /* \"lecture/lec8.sol\":108:109  5 */\n      0x05\n        /* \"lecture/lec8.sol\":89:109  uint256 public a = 5 */\n      0x00\n      sstore\n        /* \"lecture/lec8.sol\":71:187  contract A {... */\n      callvalue\n      dup1\n      iszero\n      tag_1\n      jumpi\n      0x00\n      dup1\n      revert\n    tag_1:\n      pop\n      dataSize(sub_0)\n      dup1\n      dataOffset(sub_0)\n      0x00\n      codecopy\n      0x00\n      return\n    stop\n\n    sub_0: assembly {\n            /* \"lecture/lec8.sol\":71:187  contract A {... */\n          mstore(0x40, 0x80)\n          callvalue\n          dup1\n          iszero\n          tag_1\n          jumpi\n          0x00\n          dup1\n          revert\n        tag_1:\n          pop\n          jumpi(tag_2, lt(calldatasize, 0x04))\n          shr(0xe0, calldataload(0x00))\n          dup1\n          0x0dbe671f\n          eq\n          tag_3\n          jumpi\n          dup1\n          0x75322e47\n          eq\n          tag_4\n          jumpi\n        tag_2:\n          0x00\n          dup1\n          revert\n            /* \"lecture/lec8.sol\":89:109  uint256 public a = 5 */\n        tag_3:\n          tag_5\n          tag_6\n          jump\t// in\n        tag_5:\n          mload(0x40)\n          tag_7\n          swap2\n          swap1\n          tag_8\n          jump\t// in\n        tag_7:\n          mload(0x40)\n          dup1\n          swap2\n          sub\n          swap1\n          return\n            /* \"lecture/lec8.sol\":116:181  function change(uint256 _value) public {... */\n        tag_4:\n          tag_9\n          0x04\n          dup1\n          calldatasize\n          sub\n          dup2\n          add\n          swap1\n          tag_10\n          swap2\n          swap1\n          tag_11\n          jump\t// in\n        tag_10:\n          tag_12\n          jump\t// in\n        tag_9:\n          stop\n            /* \"lecture/lec8.sol\":89:109  uint256 public a = 5 */\n        tag_6:\n          sload(0x00)\n          dup2\n          jump\t// out\n            /* \"lecture/lec8.sol\":116:181  function change(uint256 _value) public {... */\n        tag_12:\n            /* \"lecture/lec8.sol\":168:174  _value */\n          dup1\n            /* \"lecture/lec8.sol\":164:165  a */\n          0x00\n            /* \"lecture/lec8.sol\":164:174  a = _value */\n          dup2\n          swap1\n          sstore\n          pop\n            /* \"lecture/lec8.sol\":116:181  function change(uint256 _value) public {... */\n          pop\n          jump\t// out\n            /* \"#utility.yul\":7:146   */\n        tag_15:\n            /* \"#utility.yul\":53:58   */\n          0x00\n            /* \"#utility.yul\":91:97   */\n          dup2\n            /* \"#utility.yul\":78:98   */\n          calldataload\n            /* \"#utility.yul\":69:98   */\n          swap1\n          pop\n            /* \"#utility.yul\":107:140   */\n          tag_17\n            /* \"#utility.yul\":134:139   */\n          dup2\n            /* \"#utility.yul\":107:140   */\n          tag_18\n          jump\t// in\n        tag_17:\n            /* \"#utility.yul\":7:146   */\n          swap3\n          swap2\n          pop\n          pop\n          jump\t// out\n            /* \"#utility.yul\":152:481   */\n        tag_11:\n            /* \"#utility.yul\":211:217   */\n          0x00\n            /* \"#utility.yul\":260:262   */\n          0x20\n            /* \"#utility.yul\":248:257   */\n          dup3\n            /* \"#utility.yul\":239:246   */\n          dup5\n            /* \"#utility.yul\":235:258   */\n          sub\n            /* \"#utility.yul\":231:263   */\n          slt\n            /* \"#utility.yul\":228:347   */\n          iszero\n          tag_20\n          jumpi\n            /* \"#utility.yul\":266:345   */\n          tag_21\n          tag_22\n          jump\t// in\n        tag_21:\n            /* \"#utility.yul\":228:347   */\n        tag_20:\n            /* \"#utility.yul\":386:387   */\n          0x00\n            /* \"#utility.yul\":411:464   */\n          tag_23\n            /* \"#utility.yul\":456:463   */\n          dup5\n            /* \"#utility.yul\":447:453   */\n          dup3\n            /* \"#utility.yul\":436:445   */\n          dup6\n            /* \"#utility.yul\":432:454   */\n          add\n            /* \"#utility.yul\":411:464   */\n          tag_15\n          jump\t// in\n        tag_23:\n            /* \"#utility.yul\":401:464   */\n          swap2\n          pop\n            /* \"#utility.yul\":357:474   */\n          pop\n            /* \"#utility.yul\":152:481   */\n          swap3\n          swap2\n          pop\n          pop\n          jump\t// out\n            /* \"#utility.yul\":487:605   */\n        tag_24:\n            /* \"#utility.yul\":574:598   */\n          tag_26\n            /* \"#utility.yul\":592:597   */\n          dup2\n            /* \"#utility.yul\":574:598   */\n          tag_27\n          jump\t// in\n        tag_26:\n            /* \"#utility.yul\":569:572   */\n          dup3\n            /* \"#utility.yul\":562:599   */\n          mstore\n            /* \"#utility.yul\":487:605   */\n          pop\n          pop\n          jump\t// out\n            /* \"#utility.yul\":611:833   */\n        tag_8:\n            /* \"#utility.yul\":704:708   */\n          0x00\n            /* \"#utility.yul\":742:744   */\n          0x20\n            /* \"#utility.yul\":731:740   */\n          dup3\n            /* \"#utility.yul\":727:745   */\n          add\n            /* \"#utility.yul\":719:745   */\n          swap1\n          pop\n            /* \"#utility.yul\":755:826   */\n          tag_29\n            /* \"#utility.yul\":823:824   */\n          0x00\n            /* \"#utility.yul\":812:821   */\n          dup4\n            /* \"#utility.yul\":808:825   */\n          add\n            /* \"#utility.yul\":799:805   */\n          dup5\n            /* \"#utility.yul\":755:826   */\n          tag_24\n          jump\t// in\n        tag_29:\n            /* \"#utility.yul\":611:833   */\n          swap3\n          swap2\n          pop\n          pop\n          jump\t// out\n            /* \"#utility.yul\":920:997   */\n        tag_27:\n            /* \"#utility.yul\":957:964   */\n          0x00\n            /* \"#utility.yul\":986:991   */\n          dup2\n            /* \"#utility.yul\":975:991   */\n          swap1\n          pop\n            /* \"#utility.yul\":920:997   */\n          swap2\n          swap1\n          pop\n          jump\t// out\n            /* \"#utility.yul\":1126:1243   */\n        tag_22:\n            /* \"#utility.yul\":1235:1236   */\n          0x00\n            /* \"#utility.yul\":1232:1233   */\n          dup1\n            /* \"#utility.yul\":1225:1237   */\n          revert\n            /* \"#utility.yul\":1249:1371   */\n        tag_18:\n            /* \"#utility.yul\":1322:1346   */\n          tag_37\n            /* \"#utility.yul\":1340:1345   */\n          dup2\n            /* \"#utility.yul\":1322:1346   */\n          tag_27\n          jump\t// in\n        tag_37:\n            /* \"#utility.yul\":1315:1320   */\n          dup2\n            /* \"#utility.yul\":1312:1347   */\n          eq\n            /* \"#utility.yul\":1302:1365   */\n          tag_38\n          jumpi\n            /* \"#utility.yul\":1361:1362   */\n          0x00\n            /* \"#utility.yul\":1358:1359   */\n          dup1\n            /* \"#utility.yul\":1351:1363   */\n          revert\n            /* \"#utility.yul\":1302:1365   */\n        tag_38:\n            /* \"#utility.yul\":1249:1371   */\n          pop\n          jump\t// out\n\n        auxdata: 0xa264697066735822122057319a97d7a5320f588648deefb9b731d6204cd663d2427642d8f22f3349438b64736f6c63430008070033\n    }\n}\n",
				"bytecode": {
					"linkReferences": {},
					"object": "60806040526040516100109061007e565b604051809103906000f08015801561002c573d6000803e3d6000fd5b506000806101000a81548173ffffffffffffffffffffffffffffffffffffffff021916908373ffffffffffffffffffffffffffffffffffffffff16021790555034801561007857600080fd5b5061008b565b610158806102c283390190565b6102288061009a6000396000f3fe608060405234801561001057600080fd5b50600436106100365760003560e01c8063d46300fd1461003b578063fcbfcc7114610059575b600080fd5b610043610075565b60405161005091906101b1565b60405180910390f35b610073600480360381019061006e9190610148565b61011b565b005b60008060009054906101000a900473ffffffffffffffffffffffffffffffffffffffff1673ffffffffffffffffffffffffffffffffffffffff16630dbe671f6040518163ffffffff1660e01b815260040160206040518083038186803b1580156100de57600080fd5b505afa1580156100f2573d6000803e3d6000fd5b505050506040513d601f19601f820116820180604052508101906101169190610175565b905090565b50565b60008135905061012d816101db565b92915050565b600081519050610142816101db565b92915050565b60006020828403121561015e5761015d6101d6565b5b600061016c8482850161011e565b91505092915050565b60006020828403121561018b5761018a6101d6565b5b600061019984828501610133565b91505092915050565b6101ab816101cc565b82525050565b60006020820190506101c660008301846101a2565b92915050565b6000819050919050565b600080fd5b6101e4816101cc565b81146101ef57600080fd5b5056fea2646970667358221220e771acbde87cfd995eea1ac1d30396122cd6634db2f841ac3ebd3abd9ce6f57e64736f6c634300080700336080604052600560005534801561001557600080fd5b50610133806100256000396000f3fe6080604052348015600f57600080fd5b506004361060325760003560e01c80630dbe671f14603757806375322e47146051575b600080fd5b603d6069565b6040516048919060c1565b60405180910390f35b6067600480360381019060639190608c565b606f565b005b60005481565b8060008190555050565b60008135905060868160e9565b92915050565b600060208284031215609f57609e60e4565b5b600060ab848285016079565b91505092915050565b60bb8160da565b82525050565b600060208201905060d4600083018460b4565b92915050565b6000819050919050565b600080fd5b60f08160da565b811460fa57600080fd5b5056fea264697066735822122057319a97d7a5320f588648deefb9b731d6204cd663d2427642d8f22f3349438b64736f6c63430008070033",
					"opcodes": "PUSH1 0x80 PUSH1 0x40 MSTORE PUSH1 0x40 MLOAD PUSH2 0x10 SWAP1 PUSH2 0x7E JUMP JUMPDEST PUSH1 0x40 MLOAD DUP1 SWAP2 SUB SWAP1 PUSH1 0x0 CREATE DUP1 ISZERO DUP1 ISZERO PUSH2 0x2C JUMPI RETURNDATASIZE PUSH1 0x0 DUP1 RETURNDATACOPY RETURNDATASIZE PUSH1 0x0 REVERT JUMPDEST POP PUSH1 0x0 DUP1 PUSH2 0x100 EXP DUP2 SLOAD DUP2 PUSH20 0xFFFFFFFFFFFFFFFFFFFFFFFFFFFFFFFFFFFFFFFF MUL NOT AND SWAP1 DUP4 PUSH20 0xFFFFFFFFFFFFFFFFFFFFFFFFFFFFFFFFFFFFFFFF AND MUL OR SWAP1 SSTORE POP CALLVALUE DUP1 ISZERO PUSH2 0x78 JUMPI PUSH1 0x0 DUP1 REVERT JUMPDEST POP PUSH2 0x8B JUMP JUMPDEST PUSH2 0x158 DUP1 PUSH2 0x2C2 DUP4 CODECOPY ADD SWAP1 JUMP JUMPDEST PUSH2 0x228 DUP1 PUSH2 0x9A PUSH1 0x0 CODECOPY PUSH1 0x0 RETURN INVALID PUSH1 0x80 PUSH1 0x40 MSTORE CALLVALUE DUP1 ISZERO PUSH2 0x10 JUMPI PUSH1 0x0 DUP1 REVERT JUMPDEST POP PUSH1 0x4 CALLDATASIZE LT PUSH2 0x36 JUMPI PUSH1 0x0 CALLDATALOAD PUSH1 0xE0 SHR DUP1 PUSH4 0xD46300FD EQ PUSH2 0x3B JUMPI DUP1 PUSH4 0xFCBFCC71 EQ PUSH2 0x59 JUMPI JUMPDEST PUSH1 0x0 DUP1 REVERT JUMPDEST PUSH2 0x43 PUSH2 0x75 JUMP JUMPDEST PUSH1 0x40 MLOAD PUSH2 0x50 SWAP2 SWAP1 PUSH2 0x1B1 JUMP JUMPDEST PUSH1 0x40 MLOAD DUP1 SWAP2 SUB SWAP1 RETURN JUMPDEST PUSH2 0x73 PUSH1 0x4 DUP1 CALLDATASIZE SUB DUP2 ADD SWAP1 PUSH2 0x6E SWAP2 SWAP1 PUSH2 0x148 JUMP JUMPDEST PUSH2 0x11B JUMP JUMPDEST STOP JUMPDEST PUSH1 0x0 DUP1 PUSH1 0x0 SWAP1 SLOAD SWAP1 PUSH2 0x100 EXP SWAP1 DIV PUSH20 0xFFFFFFFFFFFFFFFFFFFFFFFFFFFFFFFFFFFFFFFF AND PUSH20 0xFFFFFFFFFFFFFFFFFFFFFFFFFFFFFFFFFFFFFFFF AND PUSH4 0xDBE671F PUSH1 0x40 MLOAD DUP2 PUSH4 0xFFFFFFFF AND PUSH1 0xE0 SHL DUP2 MSTORE PUSH1 0x4 ADD PUSH1 0x20 PUSH1 0x40 MLOAD DUP1 DUP4 SUB DUP2 DUP7 DUP1 EXTCODESIZE ISZERO DUP1 ISZERO PUSH2 0xDE JUMPI PUSH1 0x0 DUP1 REVERT JUMPDEST POP GAS STATICCALL ISZERO DUP1 ISZERO PUSH2 0xF2 JUMPI RETURNDATASIZE PUSH1 0x0 DUP1 RETURNDATACOPY RETURNDATASIZE PUSH1 0x0 REVERT JUMPDEST POP POP POP POP PUSH1 0x40 MLOAD RETURNDATASIZE PUSH1 0x1F NOT PUSH1 0x1F DUP3 ADD AND DUP3 ADD DUP1 PUSH1 0x40 MSTORE POP DUP2 ADD SWAP1 PUSH2 0x116 SWAP2 SWAP1 PUSH2 0x175 JUMP JUMPDEST SWAP1 POP SWAP1 JUMP JUMPDEST POP JUMP JUMPDEST PUSH1 0x0 DUP2 CALLDATALOAD SWAP1 POP PUSH2 0x12D DUP2 PUSH2 0x1DB JUMP JUMPDEST SWAP3 SWAP2 POP POP JUMP JUMPDEST PUSH1 0x0 DUP2 MLOAD SWAP1 POP PUSH2 0x142 DUP2 PUSH2 0x1DB JUMP JUMPDEST SWAP3 SWAP2 POP POP JUMP JUMPDEST PUSH1 0x0 PUSH1 0x20 DUP3 DUP5 SUB SLT ISZERO PUSH2 0x15E JUMPI PUSH2 0x15D PUSH2 0x1D6 JUMP JUMPDEST JUMPDEST PUSH1 0x0 PUSH2 0x16C DUP5 DUP3 DUP6 ADD PUSH2 0x11E JUMP JUMPDEST SWAP2 POP POP SWAP3 SWAP2 POP POP JUMP JUMPDEST PUSH1 0x0 PUSH1 0x20 DUP3 DUP5 SUB SLT ISZERO PUSH2 0x18B JUMPI PUSH2 0x18A PUSH2 0x1D6 JUMP JUMPDEST JUMPDEST PUSH1 0x0 PUSH2 0x199 DUP5 DUP3 DUP6 ADD PUSH2 0x133 JUMP JUMPDEST SWAP2 POP POP SWAP3 SWAP2 POP POP JUMP JUMPDEST PUSH2 0x1AB DUP2 PUSH2 0x1CC JUMP JUMPDEST DUP3 MSTORE POP POP JUMP JUMPDEST PUSH1 0x0 PUSH1 0x20 DUP3 ADD SWAP1 POP PUSH2 0x1C6 PUSH1 0x0 DUP4 ADD DUP5 PUSH2 0x1A2 JUMP JUMPDEST SWAP3 SWAP2 POP POP JUMP JUMPDEST PUSH1 0x0 DUP2 SWAP1 POP SWAP2 SWAP1 POP JUMP JUMPDEST PUSH1 0x0 DUP1 REVERT JUMPDEST PUSH2 0x1E4 DUP2 PUSH2 0x1CC JUMP JUMPDEST DUP2 EQ PUSH2 0x1EF JUMPI PUSH1 0x0 DUP1 REVERT JUMPDEST POP JUMP INVALID LOG2 PUSH5 0x6970667358 0x22 SLT KECCAK256 0xE7 PUSH18 0xACBDE87CFD995EEA1AC1D30396122CD6634D 0xB2 0xF8 COINBASE 0xAC RETURNDATACOPY 0xBD GASPRICE 0xBD SWAP13 0xE6 CREATE2 PUSH31 0x64736F6C634300080700336080604052600560005534801561001557600080 REVERT JUMPDEST POP PUSH2 0x133 DUP1 PUSH2 0x25 PUSH1 0x0 CODECOPY PUSH1 0x0 RETURN INVALID PUSH1 0x80 PUSH1 0x40 MSTORE CALLVALUE DUP1 ISZERO PUSH1 0xF JUMPI PUSH1 0x0 DUP1 REVERT JUMPDEST POP PUSH1 0x4 CALLDATASIZE LT PUSH1 0x32 JUMPI PUSH1 0x0 CALLDATALOAD PUSH1 0xE0 SHR DUP1 PUSH4 0xDBE671F EQ PUSH1 0x37 JUMPI DUP1 PUSH4 0x75322E47 EQ PUSH1 0x51 JUMPI JUMPDEST PUSH1 0x0 DUP1 REVERT JUMPDEST PUSH1 0x3D PUSH1 0x69 JUMP JUMPDEST PUSH1 0x40 MLOAD PUSH1 0x48 SWAP2 SWAP1 PUSH1 0xC1 JUMP JUMPDEST PUSH1 0x40 MLOAD DUP1 SWAP2 SUB SWAP1 RETURN JUMPDEST PUSH1 0x67 PUSH1 0x4 DUP1 CALLDATASIZE SUB DUP2 ADD SWAP1 PUSH1 0x63 SWAP2 SWAP1 PUSH1 0x8C JUMP JUMPDEST PUSH1 0x6F JUMP JUMPDEST STOP JUMPDEST PUSH1 0x0 SLOAD DUP2 JUMP JUMPDEST DUP1 PUSH1 0x0 DUP2 SWAP1 SSTORE POP POP JUMP JUMPDEST PUSH1 0x0 DUP2 CALLDATALOAD SWAP1 POP PUSH1 0x86 DUP2 PUSH1 0xE9 JUMP JUMPDEST SWAP3 SWAP2 POP POP JUMP JUMPDEST PUSH1 0x0 PUSH1 0x20 DUP3 DUP5 SUB SLT ISZERO PUSH1 0x9F JUMPI PUSH1 0x9E PUSH1 0xE4 JUMP JUMPDEST JUMPDEST PUSH1 0x0 PUSH1 0xAB DUP5 DUP3 DUP6 ADD PUSH1 0x79 JUMP JUMPDEST SWAP2 POP POP SWAP3 SWAP2 POP POP JUMP JUMPDEST PUSH1 0xBB DUP2 PUSH1 0xDA JUMP JUMPDEST DUP3 MSTORE POP POP JUMP JUMPDEST PUSH1 0x0 PUSH1 0x20 DUP3 ADD SWAP1 POP PUSH1 0xD4 PUSH1 0x0 DUP4 ADD DUP5 PUSH1 0xB4 JUMP JUMPDEST SWAP3 SWAP2 POP POP JUMP JUMPDEST PUSH1 0x0 DUP2 SWAP1 POP SWAP2 SWAP1 POP JUMP JUMPDEST PUSH1 0x0 DUP1 REVERT JUMPDEST PUSH1 0xF0 DUP2 PUSH1 0xDA JUMP JUMPDEST DUP2 EQ PUSH1 0xFA JUMPI PUSH1 0x0 DUP1 REVERT JUMPDEST POP JUMP INVALID LOG2 PUSH5 0x6970667358 0x22 SLT KECCAK256 JUMPI BALANCE SWAP11 SWAP8 0xD7 0xA5 ORIGIN 0xF PC DUP7 BASEFEE 0xDE 0xEF 0xB9 0xB7 BALANCE 0xD6 KECCAK256 0x4C 0xD6 PUSH4 0xD2427642 0xD8 CALLCODE 0x2F CALLER 0x49 NUMBER DUP12 PUSH5 0x736F6C6343 STOP ADDMOD SMOD STOP CALLER "
				},
				"gasEstimates": {
					"creation": {
						"codeDepositCost": "110400",
						"executionCost": "infinite",
						"totalCost": "infinite"
					},
					"external": {
						"changeA(uint256)": "406",
						"getA()": "infinite"
					}
				},
				"methodIdentifiers": {
					"changeA(uint256)": "fcbfcc71",
					"getA()": "d46300fd"
				}
			},
			"storageLayout": {
				"storage": [
					{
						"astId": 22,
						"contract": "lecture/lec8.sol:B",
						"label": "instance",
						"offset": 0,
						"slot": "0",
						"type": "t_contract(A)15"
					}
				],
				"types": {
					"t_contract(A)15": {
						"encoding": "inplace",
						"label": "contract A",
						"numberOfBytes": "20"
					}
				}
			},
			"userdoc": {
				"kind": "user",
				"methods": {},
				"version": 1
			}
		}
	}
}