{
	"lecture/lec4.sol": {
		"Lec4": {
			"abi": [
				{
					"inputs": [],
					"name": "a",
					"outputs": [
						{
							"internalType": "uint256",
							"name": "",
							"type": "uint256"
						}
					],
					"stateMutability": "view",
					"type": "function"
				},
				{
					"inputs": [],
					"name": "changeA1",
					"outputs": [],
					"stateMutability": "nonpayable",
					"type": "function"
				},
				{
					"inputs": [],
					"name": "changeA2",
					"outputs": [],
					"stateMutability": "nonpayable",
					"type": "function"
				}
			],
			"devdoc": {
				"kind": "dev",
				"methods": {},
				"version": 1
			},
			"evm": {
				"assembly": "    /* \"lecture/lec4.sol\":71:219  contract Lec4 {... */\n  mstore(0x40, 0x80)\n    /* \"lecture/lec4.sol\":111:112  3 */\n  0x03\n    /* \"lecture/lec4.sol\":92:112  uint256 public a = 3 */\n  0x00\n  sstore\n    /* \"lecture/lec4.sol\":71:219  contract Lec4 {... */\n  callvalue\n  dup1\n  iszero\n  tag_1\n  jumpi\n  0x00\n  dup1\n  revert\ntag_1:\n  pop\n  dataSize(sub_0)\n  dup1\n  dataOffset(sub_0)\n  0x00\n  codecopy\n  0x00\n  return\nstop\n\nsub_0: assembly {\n        /* \"lecture/lec4.sol\":71:219  contract Lec4 {... */\n      mstore(0x40, 0x80)\n      callvalue\n      dup1\n      iszero\n      tag_1\n      jumpi\n      0x00\n      dup1\n      revert\n    tag_1:\n      pop\n      jumpi(tag_2, lt(calldatasize, 0x04))\n      shr(0xe0, calldataload(0x00))\n      dup1\n      0x0dbe671f\n      eq\n      tag_3\n      jumpi\n      dup1\n      0x1fd29060\n      eq\n      tag_4\n      jumpi\n      dup1\n      0xa4591963\n      eq\n      tag_5\n      jumpi\n    tag_2:\n      0x00\n      dup1\n      revert\n        /* \"lecture/lec4.sol\":92:112  uint256 public a = 3 */\n    tag_3:\n      tag_6\n      tag_7\n      jump\t// in\n    tag_6:\n      mload(0x40)\n      tag_8\n      swap2\n      swap1\n      tag_9\n      jump\t// in\n    tag_8:\n      mload(0x40)\n      dup1\n      swap2\n      sub\n      swap1\n      return\n        /* \"lecture/lec4.sol\":119:168  function changeA1() public {... */\n    tag_4:\n      tag_10\n      tag_11\n      jump\t// in\n    tag_10:\n      stop\n        /* \"lecture/lec4.sol\":174:217  function changeA2() public {... */\n    tag_5:\n      tag_12\n      tag_13\n      jump\t// in\n    tag_12:\n      stop\n        /* \"lecture/lec4.sol\":92:112  uint256 public a = 3 */\n    tag_7:\n      sload(0x00)\n      dup2\n      jump\t// out\n        /* \"lecture/lec4.sol\":119:168  function changeA1() public {... */\n    tag_11:\n        /* \"lecture/lec4.sol\":160:161  5 */\n      0x05\n        /* \"lecture/lec4.sol\":156:157  a */\n      0x00\n        /* \"lecture/lec4.sol\":156:161  a = 5 */\n      dup2\n      swap1\n      sstore\n      pop\n        /* \"lecture/lec4.sol\":119:168  function changeA1() public {... */\n      jump\t// out\n        /* \"lecture/lec4.sol\":174:217  function changeA2() public {... */\n    tag_13:\n      jump\t// out\n        /* \"#utility.yul\":7:125   */\n    tag_17:\n        /* \"#utility.yul\":94:118   */\n      tag_19\n        /* \"#utility.yul\":112:117   */\n      dup2\n        /* \"#utility.yul\":94:118   */\n      tag_20\n      jump\t// in\n    tag_19:\n        /* \"#utility.yul\":89:92   */\n      dup3\n        /* \"#utility.yul\":82:119   */\n      mstore\n        /* \"#utility.yul\":7:125   */\n      pop\n      pop\n      jump\t// out\n        /* \"#utility.yul\":131:353   */\n    tag_9:\n        /* \"#utility.yul\":224:228   */\n      0x00\n        /* \"#utility.yul\":262:264   */\n      0x20\n        /* \"#utility.yul\":251:260   */\n      dup3\n        /* \"#utility.yul\":247:265   */\n      add\n        /* \"#utility.yul\":239:265   */\n      swap1\n      pop\n        /* \"#utility.yul\":275:346   */\n      tag_22\n        /* \"#utility.yul\":343:344   */\n      0x00\n        /* \"#utility.yul\":332:341   */\n      dup4\n        /* \"#utility.yul\":328:345   */\n      add\n        /* \"#utility.yul\":319:325   */\n      dup5\n        /* \"#utility.yul\":275:346   */\n      tag_17\n      jump\t// in\n    tag_22:\n        /* \"#utility.yul\":131:353   */\n      swap3\n      swap2\n      pop\n      pop\n      jump\t// out\n        /* \"#utility.yul\":359:436   */\n    tag_20:\n        /* \"#utility.yul\":396:403   */\n      0x00\n        /* \"#utility.yul\":425:430   */\n      dup2\n        /* \"#utility.yul\":414:430   */\n      swap1\n      pop\n        /* \"#utility.yul\":359:436   */\n      swap2\n      swap1\n      pop\n      jump\t// out\n\n    auxdata: 0xa2646970667358221220a56040bda049b181f6ddcb2c111ad3e4c247971007735f98ffa01c05b567e09764736f6c63430008070033\n}\n",
				"bytecode": {
					"linkReferences": {},
					"object": "6080604052600360005534801561001557600080fd5b5060e3806100246000396000f3fe6080604052348015600f57600080fd5b5060043610603c5760003560e01c80630dbe671f1460415780631fd2906014605b578063a4591963146063575b600080fd5b6047606b565b60405160529190608a565b60405180910390f35b60616071565b005b6069607b565b005b60005481565b6005600081905550565b565b60848160a3565b82525050565b6000602082019050609d6000830184607d565b92915050565b600081905091905056fea2646970667358221220a56040bda049b181f6ddcb2c111ad3e4c247971007735f98ffa01c05b567e09764736f6c63430008070033",
					"opcodes": "PUSH1 0x80 PUSH1 0x40 MSTORE PUSH1 0x3 PUSH1 0x0 SSTORE CALLVALUE DUP1 ISZERO PUSH2 0x15 JUMPI PUSH1 0x0 DUP1 REVERT JUMPDEST POP PUSH1 0xE3 DUP1 PUSH2 0x24 PUSH1 0x0 CODECOPY PUSH1 0x0 RETURN INVALID PUSH1 0x80 PUSH1 0x40 MSTORE CALLVALUE DUP1 ISZERO PUSH1 0xF JUMPI PUSH1 0x0 DUP1 REVERT JUMPDEST POP PUSH1 0x4 CALLDATASIZE LT PUSH1 0x3C JUMPI PUSH1 0x0 CALLDATALOAD PUSH1 0xE0 SHR DUP1 PUSH4 0xDBE671F EQ PUSH1 0x41 JUMPI DUP1 PUSH4 0x1FD29060 EQ PUSH1 0x5B JUMPI DUP1 PUSH4 0xA4591963 EQ PUSH1 0x63 JUMPI JUMPDEST PUSH1 0x0 DUP1 REVERT JUMPDEST PUSH1 0x47 PUSH1 0x6B JUMP JUMPDEST PUSH1 0x40 MLOAD PUSH1 0x52 SWAP2 SWAP1 PUSH1 0x8A JUMP JUMPDEST PUSH1 0x40 MLOAD DUP1 SWAP2 SUB SWAP1 RETURN JUMPDEST PUSH1 0x61 PUSH1 0x71 JUMP JUMPDEST STOP JUMPDEST PUSH1 0x69 PUSH1 0x7B JUMP JUMPDEST STOP JUMPDEST PUSH1 0x0 SLOAD DUP2 JUMP JUMPDEST PUSH1 0x5 PUSH1 0x0 DUP2 SWAP1 SSTORE POP JUMP JUMPDEST JUMP JUMPDEST PUSH1 0x84 DUP2 PUSH1 0xA3 JUMP JUMPDEST DUP3 MSTORE POP POP JUMP JUMPDEST PUSH1 0x0 PUSH1 0x20 DUP3 ADD SWAP1 POP PUSH1 0x9D PUSH1 0x0 DUP4 ADD DUP5 PUSH1 0x7D JUMP JUMPDEST SWAP3 SWAP2 POP POP JUMP JUMPDEST PUSH1 0x0 DUP2 SWAP1 POP SWAP2 SWAP1 POP JUMP INVALID LOG2 PUSH5 0x6970667358 0x22 SLT KECCAK256 0xA5 PUSH1 0x40 0xBD LOG0 0x49 0xB1 DUP2 0xF6 0xDD 0xCB 0x2C GT BYTE 0xD3 0xE4 0xC2 SELFBALANCE SWAP8 LT SMOD PUSH20 0x5F98FFA01C05B567E09764736F6C634300080700 CALLER "
				},
				"gasEstimates": {
					"creation": {
						"codeDepositCost": "45400",
						"executionCost": "22205",
						"totalCost": "67605"
					},
					"external": {
						"a()": "2407",
						"changeA1()": "22258",
						"changeA2()": "166"
					}
				},
				"methodIdentifiers": {
					"a()": "0dbe671f",
					"changeA1()": "1fd29060",
					"changeA2()": "a4591963"
				}
			},
			"storageLayout": {
				"storage": [
					{
						"astId": 4,
						"contract": "lecture/lec4.sol:Lec4",
						"label": "a",
						"offset": 0,
						"slot": "0",
						"type": "t_uint256"
					}
				],
				"types": {
					"t_uint256": {
						"encoding": "inplace",
						"label": "uint256",
						"numberOfBytes": "32"
					}
				}
			},
			"userdoc": {
				"kind": "user",
				"methods": {},
				"version": 1
			}
		}
	}
}