{
	"lecture/lec9.sol": {
		"B": {
			"abi": [
				{
					"inputs": [
						{
							"internalType": "string",
							"name": "_name",
							"type": "string"
						},
						{
							"internalType": "uint256",
							"name": "_age",
							"type": "uint256"
						}
					],
					"name": "change",
					"outputs": [],
					"stateMutability": "nonpayable",
					"type": "function"
				},
				{
					"inputs": [],
					"name": "get",
					"outputs": [
						{
							"internalType": "string",
							"name": "",
							"type": "string"
						},
						{
							"internalType": "uint256",
							"name": "",
							"type": "uint256"
						}
					],
					"stateMutability": "view",
					"type": "function"
				}
			],
			"devdoc": {
				"kind": "dev",
				"methods": {},
				"version": 1
			},
			"evm": {
				"assembly": "    /* \"lecture/lec9.sol\":351:597  contract B {... */\n  mstore(0x40, 0x80)\n    /* \"lecture/lec9.sol\":396:398  42 */\n  0x2a\n    /* \"lecture/lec9.sol\":382:399  new A(\"Jiho\", 42) */\n  mload(0x40)\n  tag_1\n  swap1\n  tag_2\n  jump\t// in\ntag_1:\n  tag_3\n  swap2\n  swap1\n  tag_4\n  jump\t// in\ntag_3:\n  mload(0x40)\n  dup1\n  swap2\n  sub\n  swap1\n  0x00\n  create\n  dup1\n  iszero\n  dup1\n  iszero\n  tag_5\n  jumpi\n  returndatasize\n  0x00\n  dup1\n  returndatacopy\n  revert(0x00, returndatasize)\ntag_5:\n  pop\n    /* \"lecture/lec9.sol\":369:399  A instance = new A(\"Jiho\", 42) */\n  0x00\n  dup1\n  0x0100\n  exp\n  dup2\n  sload\n  dup2\n  0xffffffffffffffffffffffffffffffffffffffff\n  mul\n  not\n  and\n  swap1\n  dup4\n  0xffffffffffffffffffffffffffffffffffffffff\n  and\n  mul\n  or\n  swap1\n  sstore\n  pop\n    /* \"lecture/lec9.sol\":351:597  contract B {... */\n  callvalue\n  dup1\n  iszero\n  tag_6\n  jumpi\n  0x00\n  dup1\n  revert\ntag_6:\n  pop\n  jump(tag_7)\ntag_2:\n  dataSize(sub_1)\n  dup1\n  dataOffset(sub_1)\n  dup4\n  codecopy\n  add\n  swap1\n  jump\t// out\n    /* \"#utility.yul\":7:156   */\ntag_9:\n    /* \"#utility.yul\":103:149   */\n  tag_11\n    /* \"#utility.yul\":143:148   */\n  dup2\n    /* \"#utility.yul\":103:149   */\n  tag_12\n  jump\t// in\ntag_11:\n    /* \"#utility.yul\":98:101   */\n  dup3\n    /* \"#utility.yul\":91:150   */\n  mstore\n    /* \"#utility.yul\":7:156   */\n  pop\n  pop\n  jump\t// out\n    /* \"#utility.yul\":162:527   */\ntag_13:\n    /* \"#utility.yul\":304:307   */\n  0x00\n    /* \"#utility.yul\":325:391   */\n  tag_15\n    /* \"#utility.yul\":389:390   */\n  0x04\n    /* \"#utility.yul\":384:387   */\n  dup4\n    /* \"#utility.yul\":325:391   */\n  tag_16\n  jump\t// in\ntag_15:\n    /* \"#utility.yul\":318:391   */\n  swap2\n  pop\n    /* \"#utility.yul\":400:493   */\n  tag_17\n    /* \"#utility.yul\":489:492   */\n  dup3\n    /* \"#utility.yul\":400:493   */\n  tag_18\n  jump\t// in\ntag_17:\n    /* \"#utility.yul\":518:520   */\n  0x20\n    /* \"#utility.yul\":513:516   */\n  dup3\n    /* \"#utility.yul\":509:521   */\n  add\n    /* \"#utility.yul\":502:521   */\n  swap1\n  pop\n    /* \"#utility.yul\":162:527   */\n  swap2\n  swap1\n  pop\n  jump\t// out\n    /* \"#utility.yul\":533:1080   */\ntag_4:\n    /* \"#utility.yul\":736:740   */\n  0x00\n    /* \"#utility.yul\":774:776   */\n  0x40\n    /* \"#utility.yul\":763:772   */\n  dup3\n    /* \"#utility.yul\":759:777   */\n  add\n    /* \"#utility.yul\":751:777   */\n  swap1\n  pop\n    /* \"#utility.yul\":823:832   */\n  dup2\n    /* \"#utility.yul\":817:821   */\n  dup2\n    /* \"#utility.yul\":813:833   */\n  sub\n    /* \"#utility.yul\":809:810   */\n  0x00\n    /* \"#utility.yul\":798:807   */\n  dup4\n    /* \"#utility.yul\":794:811   */\n  add\n    /* \"#utility.yul\":787:834   */\n  mstore\n    /* \"#utility.yul\":851:982   */\n  tag_20\n    /* \"#utility.yul\":977:981   */\n  dup2\n    /* \"#utility.yul\":851:982   */\n  tag_13\n  jump\t// in\ntag_20:\n    /* \"#utility.yul\":843:982   */\n  swap1\n  pop\n    /* \"#utility.yul\":992:1073   */\n  tag_21\n    /* \"#utility.yul\":1069:1071   */\n  0x20\n    /* \"#utility.yul\":1058:1067   */\n  dup4\n    /* \"#utility.yul\":1054:1072   */\n  add\n    /* \"#utility.yul\":1045:1051   */\n  dup5\n    /* \"#utility.yul\":992:1073   */\n  tag_9\n  jump\t// in\ntag_21:\n    /* \"#utility.yul\":533:1080   */\n  swap3\n  swap2\n  pop\n  pop\n  jump\t// out\n    /* \"#utility.yul\":1086:1255   */\ntag_16:\n    /* \"#utility.yul\":1170:1181   */\n  0x00\n    /* \"#utility.yul\":1204:1210   */\n  dup3\n    /* \"#utility.yul\":1199:1202   */\n  dup3\n    /* \"#utility.yul\":1192:1211   */\n  mstore\n    /* \"#utility.yul\":1244:1248   */\n  0x20\n    /* \"#utility.yul\":1239:1242   */\n  dup3\n    /* \"#utility.yul\":1235:1249   */\n  add\n    /* \"#utility.yul\":1220:1249   */\n  swap1\n  pop\n    /* \"#utility.yul\":1086:1255   */\n  swap3\n  swap2\n  pop\n  pop\n  jump\t// out\n    /* \"#utility.yul\":1261:1338   */\ntag_23:\n    /* \"#utility.yul\":1298:1305   */\n  0x00\n    /* \"#utility.yul\":1327:1332   */\n  dup2\n    /* \"#utility.yul\":1316:1332   */\n  swap1\n  pop\n    /* \"#utility.yul\":1261:1338   */\n  swap2\n  swap1\n  pop\n  jump\t// out\n    /* \"#utility.yul\":1344:1466   */\ntag_12:\n    /* \"#utility.yul\":1403:1412   */\n  0x00\n    /* \"#utility.yul\":1436:1460   */\n  tag_26\n    /* \"#utility.yul\":1454:1459   */\n  dup3\n    /* \"#utility.yul\":1436:1460   */\n  tag_23\n  jump\t// in\ntag_26:\n    /* \"#utility.yul\":1423:1460   */\n  swap1\n  pop\n    /* \"#utility.yul\":1344:1466   */\n  swap2\n  swap1\n  pop\n  jump\t// out\n    /* \"#utility.yul\":1472:1626   */\ntag_18:\n    /* \"#utility.yul\":1612:1618   */\n  0x4a69686f00000000000000000000000000000000000000000000000000000000\n    /* \"#utility.yul\":1608:1609   */\n  0x00\n    /* \"#utility.yul\":1600:1606   */\n  dup3\n    /* \"#utility.yul\":1596:1610   */\n  add\n    /* \"#utility.yul\":1589:1619   */\n  mstore\n    /* \"#utility.yul\":1472:1626   */\n  pop\n  jump\t// out\n    /* \"lecture/lec9.sol\":351:597  contract B {... */\ntag_7:\n  dataSize(sub_0)\n  dup1\n  dataOffset(sub_0)\n  0x00\n  codecopy\n  0x00\n  return\nstop\n\nsub_0: assembly {\n        /* \"lecture/lec9.sol\":351:597  contract B {... */\n      mstore(0x40, 0x80)\n      callvalue\n      dup1\n      iszero\n      tag_1\n      jumpi\n      0x00\n      dup1\n      revert\n    tag_1:\n      pop\n      jumpi(tag_2, lt(calldatasize, 0x04))\n      shr(0xe0, calldataload(0x00))\n      dup1\n      0x6d4ce63c\n      eq\n      tag_3\n      jumpi\n      dup1\n      0x6d806b1e\n      eq\n      tag_4\n      jumpi\n    tag_2:\n      0x00\n      dup1\n      revert\n        /* \"lecture/lec9.sol\":478:594  function get() public view returns(string memory, uint256) {... */\n    tag_3:\n      tag_5\n      tag_6\n      jump\t// in\n    tag_5:\n      mload(0x40)\n      tag_7\n      swap3\n      swap2\n      swap1\n      tag_8\n      jump\t// in\n    tag_7:\n      mload(0x40)\n      dup1\n      swap2\n      sub\n      swap1\n      return\n        /* \"lecture/lec9.sol\":406:472  function change(string memory _name, uint256 _age) public {... */\n    tag_4:\n      tag_9\n      0x04\n      dup1\n      calldatasize\n      sub\n      dup2\n      add\n      swap1\n      tag_10\n      swap2\n      swap1\n      tag_11\n      jump\t// in\n    tag_10:\n      tag_12\n      jump\t// in\n    tag_9:\n      stop\n        /* \"lecture/lec9.sol\":478:594  function get() public view returns(string memory, uint256) {... */\n    tag_6:\n        /* \"lecture/lec9.sol\":513:526  string memory */\n      0x60\n        /* \"lecture/lec9.sol\":528:535  uint256 */\n      0x00\n        /* \"lecture/lec9.sol\":555:563  instance */\n      dup1\n      0x00\n      swap1\n      sload\n      swap1\n      0x0100\n      exp\n      swap1\n      div\n      0xffffffffffffffffffffffffffffffffffffffff\n      and\n        /* \"lecture/lec9.sol\":555:568  instance.name */\n      0xffffffffffffffffffffffffffffffffffffffff\n      and\n      0x06fdde03\n        /* \"lecture/lec9.sol\":555:570  instance.name() */\n      mload(0x40)\n      dup2\n      0xffffffff\n      and\n      0xe0\n      shl\n      dup2\n      mstore\n      0x04\n      add\n      0x00\n      mload(0x40)\n      dup1\n      dup4\n      sub\n      dup2\n      dup7\n      dup1\n      extcodesize\n      iszero\n      dup1\n      iszero\n      tag_14\n      jumpi\n      0x00\n      dup1\n      revert\n    tag_14:\n      pop\n      gas\n      staticcall\n      iszero\n      dup1\n      iszero\n      tag_16\n      jumpi\n      returndatasize\n      0x00\n      dup1\n      returndatacopy\n      revert(0x00, returndatasize)\n    tag_16:\n      pop\n      pop\n      pop\n      pop\n      mload(0x40)\n      returndatasize\n      0x00\n      dup3\n      returndatacopy\n      returndatasize\n      not(0x1f)\n      0x1f\n      dup3\n      add\n      and\n      dup3\n      add\n      dup1\n      0x40\n      mstore\n      pop\n      dup2\n      add\n      swap1\n      tag_17\n      swap2\n      swap1\n      tag_18\n      jump\t// in\n    tag_17:\n        /* \"lecture/lec9.sol\":572:580  instance */\n      0x00\n      dup1\n      sload\n      swap1\n      0x0100\n      exp\n      swap1\n      div\n      0xffffffffffffffffffffffffffffffffffffffff\n      and\n        /* \"lecture/lec9.sol\":572:584  instance.age */\n      0xffffffffffffffffffffffffffffffffffffffff\n      and\n      0x262a9dff\n        /* \"lecture/lec9.sol\":572:586  instance.age() */\n      mload(0x40)\n      dup2\n      0xffffffff\n      and\n      0xe0\n      shl\n      dup2\n      mstore\n      0x04\n      add\n      0x20\n      mload(0x40)\n      dup1\n      dup4\n      sub\n      dup2\n      dup7\n      dup1\n      extcodesize\n      iszero\n      dup1\n      iszero\n      tag_19\n      jumpi\n      0x00\n      dup1\n      revert\n    tag_19:\n      pop\n      gas\n      staticcall\n      iszero\n      dup1\n      iszero\n      tag_21\n      jumpi\n      returndatasize\n      0x00\n      dup1\n      returndatacopy\n      revert(0x00, returndatasize)\n    tag_21:\n      pop\n      pop\n      pop\n      pop\n      mload(0x40)\n      returndatasize\n      not(0x1f)\n      0x1f\n      dup3\n      add\n      and\n      dup3\n      add\n      dup1\n      0x40\n      mstore\n      pop\n      dup2\n      add\n      swap1\n      tag_22\n      swap2\n      swap1\n      tag_23\n      jump\t// in\n    tag_22:\n        /* \"lecture/lec9.sol\":547:587  return (instance.name(), instance.age()) */\n      swap2\n      pop\n      swap2\n      pop\n        /* \"lecture/lec9.sol\":478:594  function get() public view returns(string memory, uint256) {... */\n      swap1\n      swap2\n      jump\t// out\n        /* \"lecture/lec9.sol\":406:472  function change(string memory _name, uint256 _age) public {... */\n    tag_12:\n      pop\n      pop\n      jump\t// out\n        /* \"#utility.yul\":7:419   */\n    tag_26:\n        /* \"#utility.yul\":85:90   */\n      0x00\n        /* \"#utility.yul\":110:176   */\n      tag_28\n        /* \"#utility.yul\":126:175   */\n      tag_29\n        /* \"#utility.yul\":168:174   */\n      dup5\n        /* \"#utility.yul\":126:175   */\n      tag_30\n      jump\t// in\n    tag_29:\n        /* \"#utility.yul\":110:176   */\n      tag_31\n      jump\t// in\n    tag_28:\n        /* \"#utility.yul\":101:176   */\n      swap1\n      pop\n        /* \"#utility.yul\":199:205   */\n      dup3\n        /* \"#utility.yul\":192:197   */\n      dup2\n        /* \"#utility.yul\":185:206   */\n      mstore\n        /* \"#utility.yul\":237:241   */\n      0x20\n        /* \"#utility.yul\":230:235   */\n      dup2\n        /* \"#utility.yul\":226:242   */\n      add\n        /* \"#utility.yul\":275:278   */\n      dup5\n        /* \"#utility.yul\":266:272   */\n      dup5\n        /* \"#utility.yul\":261:264   */\n      dup5\n        /* \"#utility.yul\":257:273   */\n      add\n        /* \"#utility.yul\":254:279   */\n      gt\n        /* \"#utility.yul\":251:363   */\n      iszero\n      tag_32\n      jumpi\n        /* \"#utility.yul\":282:361   */\n      tag_33\n      tag_34\n      jump\t// in\n    tag_33:\n        /* \"#utility.yul\":251:363   */\n    tag_32:\n        /* \"#utility.yul\":372:413   */\n      tag_35\n        /* \"#utility.yul\":406:412   */\n      dup5\n        /* \"#utility.yul\":401:404   */\n      dup3\n        /* \"#utility.yul\":396:399   */\n      dup6\n        /* \"#utility.yul\":372:413   */\n      tag_36\n      jump\t// in\n    tag_35:\n        /* \"#utility.yul\":91:419   */\n      pop\n        /* \"#utility.yul\":7:419   */\n      swap4\n      swap3\n      pop\n      pop\n      pop\n      jump\t// out\n        /* \"#utility.yul\":425:846   */\n    tag_37:\n        /* \"#utility.yul\":514:519   */\n      0x00\n        /* \"#utility.yul\":539:605   */\n      tag_39\n        /* \"#utility.yul\":555:604   */\n      tag_40\n        /* \"#utility.yul\":597:603   */\n      dup5\n        /* \"#utility.yul\":555:604   */\n      tag_30\n      jump\t// in\n    tag_40:\n        /* \"#utility.yul\":539:605   */\n      tag_31\n      jump\t// in\n    tag_39:\n        /* \"#utility.yul\":530:605   */\n      swap1\n      pop\n        /* \"#utility.yul\":628:634   */\n      dup3\n        /* \"#utility.yul\":621:626   */\n      dup2\n        /* \"#utility.yul\":614:635   */\n      mstore\n        /* \"#utility.yul\":666:670   */\n      0x20\n        /* \"#utility.yul\":659:664   */\n      dup2\n        /* \"#utility.yul\":655:671   */\n      add\n        /* \"#utility.yul\":704:707   */\n      dup5\n        /* \"#utility.yul\":695:701   */\n      dup5\n        /* \"#utility.yul\":690:693   */\n      dup5\n        /* \"#utility.yul\":686:702   */\n      add\n        /* \"#utility.yul\":683:708   */\n      gt\n        /* \"#utility.yul\":680:792   */\n      iszero\n      tag_41\n      jumpi\n        /* \"#utility.yul\":711:790   */\n      tag_42\n      tag_34\n      jump\t// in\n    tag_42:\n        /* \"#utility.yul\":680:792   */\n    tag_41:\n        /* \"#utility.yul\":801:840   */\n      tag_43\n        /* \"#utility.yul\":833:839   */\n      dup5\n        /* \"#utility.yul\":828:831   */\n      dup3\n        /* \"#utility.yul\":823:826   */\n      dup6\n        /* \"#utility.yul\":801:840   */\n      tag_44\n      jump\t// in\n    tag_43:\n        /* \"#utility.yul\":520:846   */\n      pop\n        /* \"#utility.yul\":425:846   */\n      swap4\n      swap3\n      pop\n      pop\n      pop\n      jump\t// out\n        /* \"#utility.yul\":866:1206   */\n    tag_45:\n        /* \"#utility.yul\":922:927   */\n      0x00\n        /* \"#utility.yul\":971:974   */\n      dup3\n        /* \"#utility.yul\":964:968   */\n      0x1f\n        /* \"#utility.yul\":956:962   */\n      dup4\n        /* \"#utility.yul\":952:969   */\n      add\n        /* \"#utility.yul\":948:975   */\n      slt\n        /* \"#utility.yul\":938:1060   */\n      tag_47\n      jumpi\n        /* \"#utility.yul\":979:1058   */\n      tag_48\n      tag_49\n      jump\t// in\n    tag_48:\n        /* \"#utility.yul\":938:1060   */\n    tag_47:\n        /* \"#utility.yul\":1096:1102   */\n      dup2\n        /* \"#utility.yul\":1083:1103   */\n      calldataload\n        /* \"#utility.yul\":1121:1200   */\n      tag_50\n        /* \"#utility.yul\":1196:1199   */\n      dup5\n        /* \"#utility.yul\":1188:1194   */\n      dup3\n        /* \"#utility.yul\":1181:1185   */\n      0x20\n        /* \"#utility.yul\":1173:1179   */\n      dup7\n        /* \"#utility.yul\":1169:1186   */\n      add\n        /* \"#utility.yul\":1121:1200   */\n      tag_26\n      jump\t// in\n    tag_50:\n        /* \"#utility.yul\":1112:1200   */\n      swap2\n      pop\n        /* \"#utility.yul\":928:1206   */\n      pop\n        /* \"#utility.yul\":866:1206   */\n      swap3\n      swap2\n      pop\n      pop\n      jump\t// out\n        /* \"#utility.yul\":1226:1581   */\n    tag_51:\n        /* \"#utility.yul\":1293:1298   */\n      0x00\n        /* \"#utility.yul\":1342:1345   */\n      dup3\n        /* \"#utility.yul\":1335:1339   */\n      0x1f\n        /* \"#utility.yul\":1327:1333   */\n      dup4\n        /* \"#utility.yul\":1323:1340   */\n      add\n        /* \"#utility.yul\":1319:1346   */\n      slt\n        /* \"#utility.yul\":1309:1431   */\n      tag_53\n      jumpi\n        /* \"#utility.yul\":1350:1429   */\n      tag_54\n      tag_49\n      jump\t// in\n    tag_54:\n        /* \"#utility.yul\":1309:1431   */\n    tag_53:\n        /* \"#utility.yul\":1460:1466   */\n      dup2\n        /* \"#utility.yul\":1454:1467   */\n      mload\n        /* \"#utility.yul\":1485:1575   */\n      tag_55\n        /* \"#utility.yul\":1571:1574   */\n      dup5\n        /* \"#utility.yul\":1563:1569   */\n      dup3\n        /* \"#utility.yul\":1556:1560   */\n      0x20\n        /* \"#utility.yul\":1548:1554   */\n      dup7\n        /* \"#utility.yul\":1544:1561   */\n      add\n        /* \"#utility.yul\":1485:1575   */\n      tag_37\n      jump\t// in\n    tag_55:\n        /* \"#utility.yul\":1476:1575   */\n      swap2\n      pop\n        /* \"#utility.yul\":1299:1581   */\n      pop\n        /* \"#utility.yul\":1226:1581   */\n      swap3\n      swap2\n      pop\n      pop\n      jump\t// out\n        /* \"#utility.yul\":1587:1726   */\n    tag_56:\n        /* \"#utility.yul\":1633:1638   */\n      0x00\n        /* \"#utility.yul\":1671:1677   */\n      dup2\n        /* \"#utility.yul\":1658:1678   */\n      calldataload\n        /* \"#utility.yul\":1649:1678   */\n      swap1\n      pop\n        /* \"#utility.yul\":1687:1720   */\n      tag_58\n        /* \"#utility.yul\":1714:1719   */\n      dup2\n        /* \"#utility.yul\":1687:1720   */\n      tag_59\n      jump\t// in\n    tag_58:\n        /* \"#utility.yul\":1587:1726   */\n      swap3\n      swap2\n      pop\n      pop\n      jump\t// out\n        /* \"#utility.yul\":1732:1875   */\n    tag_60:\n        /* \"#utility.yul\":1789:1794   */\n      0x00\n        /* \"#utility.yul\":1820:1826   */\n      dup2\n        /* \"#utility.yul\":1814:1827   */\n      mload\n        /* \"#utility.yul\":1805:1827   */\n      swap1\n      pop\n        /* \"#utility.yul\":1836:1869   */\n      tag_62\n        /* \"#utility.yul\":1863:1868   */\n      dup2\n        /* \"#utility.yul\":1836:1869   */\n      tag_59\n      jump\t// in\n    tag_62:\n        /* \"#utility.yul\":1732:1875   */\n      swap3\n      swap2\n      pop\n      pop\n      jump\t// out\n        /* \"#utility.yul\":1881:2405   */\n    tag_18:\n        /* \"#utility.yul\":1961:1967   */\n      0x00\n        /* \"#utility.yul\":2010:2012   */\n      0x20\n        /* \"#utility.yul\":1998:2007   */\n      dup3\n        /* \"#utility.yul\":1989:1996   */\n      dup5\n        /* \"#utility.yul\":1985:2008   */\n      sub\n        /* \"#utility.yul\":1981:2013   */\n      slt\n        /* \"#utility.yul\":1978:2097   */\n      iszero\n      tag_64\n      jumpi\n        /* \"#utility.yul\":2016:2095   */\n      tag_65\n      tag_66\n      jump\t// in\n    tag_65:\n        /* \"#utility.yul\":1978:2097   */\n    tag_64:\n        /* \"#utility.yul\":2157:2158   */\n      0x00\n        /* \"#utility.yul\":2146:2155   */\n      dup3\n        /* \"#utility.yul\":2142:2159   */\n      add\n        /* \"#utility.yul\":2136:2160   */\n      mload\n        /* \"#utility.yul\":2187:2205   */\n      0xffffffffffffffff\n        /* \"#utility.yul\":2179:2185   */\n      dup2\n        /* \"#utility.yul\":2176:2206   */\n      gt\n        /* \"#utility.yul\":2173:2290   */\n      iszero\n      tag_67\n      jumpi\n        /* \"#utility.yul\":2209:2288   */\n      tag_68\n      tag_69\n      jump\t// in\n    tag_68:\n        /* \"#utility.yul\":2173:2290   */\n    tag_67:\n        /* \"#utility.yul\":2314:2388   */\n      tag_70\n        /* \"#utility.yul\":2380:2387   */\n      dup5\n        /* \"#utility.yul\":2371:2377   */\n      dup3\n        /* \"#utility.yul\":2360:2369   */\n      dup6\n        /* \"#utility.yul\":2356:2378   */\n      add\n        /* \"#utility.yul\":2314:2388   */\n      tag_51\n      jump\t// in\n    tag_70:\n        /* \"#utility.yul\":2304:2388   */\n      swap2\n      pop\n        /* \"#utility.yul\":2107:2398   */\n      pop\n        /* \"#utility.yul\":1881:2405   */\n      swap3\n      swap2\n      pop\n      pop\n      jump\t// out\n        /* \"#utility.yul\":2411:3065   */\n    tag_11:\n        /* \"#utility.yul\":2489:2495   */\n      0x00\n        /* \"#utility.yul\":2497:2503   */\n      dup1\n        /* \"#utility.yul\":2546:2548   */\n      0x40\n        /* \"#utility.yul\":2534:2543   */\n      dup4\n        /* \"#utility.yul\":2525:2532   */\n      dup6\n        /* \"#utility.yul\":2521:2544   */\n      sub\n        /* \"#utility.yul\":2517:2549   */\n      slt\n        /* \"#utility.yul\":2514:2633   */\n      iszero\n      tag_72\n      jumpi\n        /* \"#utility.yul\":2552:2631   */\n      tag_73\n      tag_66\n      jump\t// in\n    tag_73:\n        /* \"#utility.yul\":2514:2633   */\n    tag_72:\n        /* \"#utility.yul\":2700:2701   */\n      0x00\n        /* \"#utility.yul\":2689:2698   */\n      dup4\n        /* \"#utility.yul\":2685:2702   */\n      add\n        /* \"#utility.yul\":2672:2703   */\n      calldataload\n        /* \"#utility.yul\":2730:2748   */\n      0xffffffffffffffff\n        /* \"#utility.yul\":2722:2728   */\n      dup2\n        /* \"#utility.yul\":2719:2749   */\n      gt\n        /* \"#utility.yul\":2716:2833   */\n      iszero\n      tag_74\n      jumpi\n        /* \"#utility.yul\":2752:2831   */\n      tag_75\n      tag_69\n      jump\t// in\n    tag_75:\n        /* \"#utility.yul\":2716:2833   */\n    tag_74:\n        /* \"#utility.yul\":2857:2920   */\n      tag_76\n        /* \"#utility.yul\":2912:2919   */\n      dup6\n        /* \"#utility.yul\":2903:2909   */\n      dup3\n        /* \"#utility.yul\":2892:2901   */\n      dup7\n        /* \"#utility.yul\":2888:2910   */\n      add\n        /* \"#utility.yul\":2857:2920   */\n      tag_45\n      jump\t// in\n    tag_76:\n        /* \"#utility.yul\":2847:2920   */\n      swap3\n      pop\n        /* \"#utility.yul\":2643:2930   */\n      pop\n        /* \"#utility.yul\":2969:2971   */\n      0x20\n        /* \"#utility.yul\":2995:3048   */\n      tag_77\n        /* \"#utility.yul\":3040:3047   */\n      dup6\n        /* \"#utility.yul\":3031:3037   */\n      dup3\n        /* \"#utility.yul\":3020:3029   */\n      dup7\n        /* \"#utility.yul\":3016:3038   */\n      add\n        /* \"#utility.yul\":2995:3048   */\n      tag_56\n      jump\t// in\n    tag_77:\n        /* \"#utility.yul\":2985:3048   */\n      swap2\n      pop\n        /* \"#utility.yul\":2940:3058   */\n      pop\n        /* \"#utility.yul\":2411:3065   */\n      swap3\n      pop\n      swap3\n      swap1\n      pop\n      jump\t// out\n        /* \"#utility.yul\":3071:3422   */\n    tag_23:\n        /* \"#utility.yul\":3141:3147   */\n      0x00\n        /* \"#utility.yul\":3190:3192   */\n      0x20\n        /* \"#utility.yul\":3178:3187   */\n      dup3\n        /* \"#utility.yul\":3169:3176   */\n      dup5\n        /* \"#utility.yul\":3165:3188   */\n      sub\n        /* \"#utility.yul\":3161:3193   */\n      slt\n        /* \"#utility.yul\":3158:3277   */\n      iszero\n      tag_79\n      jumpi\n        /* \"#utility.yul\":3196:3275   */\n      tag_80\n      tag_66\n      jump\t// in\n    tag_80:\n        /* \"#utility.yul\":3158:3277   */\n    tag_79:\n        /* \"#utility.yul\":3316:3317   */\n      0x00\n        /* \"#utility.yul\":3341:3405   */\n      tag_81\n        /* \"#utility.yul\":3397:3404   */\n      dup5\n        /* \"#utility.yul\":3388:3394   */\n      dup3\n        /* \"#utility.yul\":3377:3386   */\n      dup6\n        /* \"#utility.yul\":3373:3395   */\n      add\n        /* \"#utility.yul\":3341:3405   */\n      tag_60\n      jump\t// in\n    tag_81:\n        /* \"#utility.yul\":3331:3405   */\n      swap2\n      pop\n        /* \"#utility.yul\":3287:3415   */\n      pop\n        /* \"#utility.yul\":3071:3422   */\n      swap3\n      swap2\n      pop\n      pop\n      jump\t// out\n        /* \"#utility.yul\":3428:3792   */\n    tag_82:\n        /* \"#utility.yul\":3516:3519   */\n      0x00\n        /* \"#utility.yul\":3544:3583   */\n      tag_84\n        /* \"#utility.yul\":3577:3582   */\n      dup3\n        /* \"#utility.yul\":3544:3583   */\n      tag_85\n      jump\t// in\n    tag_84:\n        /* \"#utility.yul\":3599:3670   */\n      tag_86\n        /* \"#utility.yul\":3663:3669   */\n      dup2\n        /* \"#utility.yul\":3658:3661   */\n      dup6\n        /* \"#utility.yul\":3599:3670   */\n      tag_87\n      jump\t// in\n    tag_86:\n        /* \"#utility.yul\":3592:3670   */\n      swap4\n      pop\n        /* \"#utility.yul\":3679:3731   */\n      tag_88\n        /* \"#utility.yul\":3724:3730   */\n      dup2\n        /* \"#utility.yul\":3719:3722   */\n      dup6\n        /* \"#utility.yul\":3712:3716   */\n      0x20\n        /* \"#utility.yul\":3705:3710   */\n      dup7\n        /* \"#utility.yul\":3701:3717   */\n      add\n        /* \"#utility.yul\":3679:3731   */\n      tag_44\n      jump\t// in\n    tag_88:\n        /* \"#utility.yul\":3756:3785   */\n      tag_89\n        /* \"#utility.yul\":3778:3784   */\n      dup2\n        /* \"#utility.yul\":3756:3785   */\n      tag_90\n      jump\t// in\n    tag_89:\n        /* \"#utility.yul\":3751:3754   */\n      dup5\n        /* \"#utility.yul\":3747:3786   */\n      add\n        /* \"#utility.yul\":3740:3786   */\n      swap2\n      pop\n        /* \"#utility.yul\":3520:3792   */\n      pop\n        /* \"#utility.yul\":3428:3792   */\n      swap3\n      swap2\n      pop\n      pop\n      jump\t// out\n        /* \"#utility.yul\":3798:3916   */\n    tag_91:\n        /* \"#utility.yul\":3885:3909   */\n      tag_93\n        /* \"#utility.yul\":3903:3908   */\n      dup2\n        /* \"#utility.yul\":3885:3909   */\n      tag_94\n      jump\t// in\n    tag_93:\n        /* \"#utility.yul\":3880:3883   */\n      dup3\n        /* \"#utility.yul\":3873:3910   */\n      mstore\n        /* \"#utility.yul\":3798:3916   */\n      pop\n      pop\n      jump\t// out\n        /* \"#utility.yul\":3922:4345   */\n    tag_8:\n        /* \"#utility.yul\":4063:4067   */\n      0x00\n        /* \"#utility.yul\":4101:4103   */\n      0x40\n        /* \"#utility.yul\":4090:4099   */\n      dup3\n        /* \"#utility.yul\":4086:4104   */\n      add\n        /* \"#utility.yul\":4078:4104   */\n      swap1\n      pop\n        /* \"#utility.yul\":4150:4159   */\n      dup2\n        /* \"#utility.yul\":4144:4148   */\n      dup2\n        /* \"#utility.yul\":4140:4160   */\n      sub\n        /* \"#utility.yul\":4136:4137   */\n      0x00\n        /* \"#utility.yul\":4125:4134   */\n      dup4\n        /* \"#utility.yul\":4121:4138   */\n      add\n        /* \"#utility.yul\":4114:4161   */\n      mstore\n        /* \"#utility.yul\":4178:4256   */\n      tag_96\n        /* \"#utility.yul\":4251:4255   */\n      dup2\n        /* \"#utility.yul\":4242:4248   */\n      dup6\n        /* \"#utility.yul\":4178:4256   */\n      tag_82\n      jump\t// in\n    tag_96:\n        /* \"#utility.yul\":4170:4256   */\n      swap1\n      pop\n        /* \"#utility.yul\":4266:4338   */\n      tag_97\n        /* \"#utility.yul\":4334:4336   */\n      0x20\n        /* \"#utility.yul\":4323:4332   */\n      dup4\n        /* \"#utility.yul\":4319:4337   */\n      add\n        /* \"#utility.yul\":4310:4316   */\n      dup5\n        /* \"#utility.yul\":4266:4338   */\n      tag_91\n      jump\t// in\n    tag_97:\n        /* \"#utility.yul\":3922:4345   */\n      swap4\n      swap3\n      pop\n      pop\n      pop\n      jump\t// out\n        /* \"#utility.yul\":4351:4480   */\n    tag_31:\n        /* \"#utility.yul\":4385:4391   */\n      0x00\n        /* \"#utility.yul\":4412:4432   */\n      tag_99\n      tag_100\n      jump\t// in\n    tag_99:\n        /* \"#utility.yul\":4402:4432   */\n      swap1\n      pop\n        /* \"#utility.yul\":4441:4474   */\n      tag_101\n        /* \"#utility.yul\":4469:4473   */\n      dup3\n        /* \"#utility.yul\":4461:4467   */\n      dup3\n        /* \"#utility.yul\":4441:4474   */\n      tag_102\n      jump\t// in\n    tag_101:\n        /* \"#utility.yul\":4351:4480   */\n      swap2\n      swap1\n      pop\n      jump\t// out\n        /* \"#utility.yul\":4486:4561   */\n    tag_100:\n        /* \"#utility.yul\":4519:4525   */\n      0x00\n        /* \"#utility.yul\":4552:4554   */\n      0x40\n        /* \"#utility.yul\":4546:4555   */\n      mload\n        /* \"#utility.yul\":4536:4555   */\n      swap1\n      pop\n        /* \"#utility.yul\":4486:4561   */\n      swap1\n      jump\t// out\n        /* \"#utility.yul\":4567:4875   */\n    tag_30:\n        /* \"#utility.yul\":4629:4633   */\n      0x00\n        /* \"#utility.yul\":4719:4737   */\n      0xffffffffffffffff\n        /* \"#utility.yul\":4711:4717   */\n      dup3\n        /* \"#utility.yul\":4708:4738   */\n      gt\n        /* \"#utility.yul\":4705:4761   */\n      iszero\n      tag_105\n      jumpi\n        /* \"#utility.yul\":4741:4759   */\n      tag_106\n      tag_107\n      jump\t// in\n    tag_106:\n        /* \"#utility.yul\":4705:4761   */\n    tag_105:\n        /* \"#utility.yul\":4779:4808   */\n      tag_108\n        /* \"#utility.yul\":4801:4807   */\n      dup3\n        /* \"#utility.yul\":4779:4808   */\n      tag_90\n      jump\t// in\n    tag_108:\n        /* \"#utility.yul\":4771:4808   */\n      swap1\n      pop\n        /* \"#utility.yul\":4863:4867   */\n      0x20\n        /* \"#utility.yul\":4857:4861   */\n      dup2\n        /* \"#utility.yul\":4853:4868   */\n      add\n        /* \"#utility.yul\":4845:4868   */\n      swap1\n      pop\n        /* \"#utility.yul\":4567:4875   */\n      swap2\n      swap1\n      pop\n      jump\t// out\n        /* \"#utility.yul\":4881:4980   */\n    tag_85:\n        /* \"#utility.yul\":4933:4939   */\n      0x00\n        /* \"#utility.yul\":4967:4972   */\n      dup2\n        /* \"#utility.yul\":4961:4973   */\n      mload\n        /* \"#utility.yul\":4951:4973   */\n      swap1\n      pop\n        /* \"#utility.yul\":4881:4980   */\n      swap2\n      swap1\n      pop\n      jump\t// out\n        /* \"#utility.yul\":4986:5155   */\n    tag_87:\n        /* \"#utility.yul\":5070:5081   */\n      0x00\n        /* \"#utility.yul\":5104:5110   */\n      dup3\n        /* \"#utility.yul\":5099:5102   */\n      dup3\n        /* \"#utility.yul\":5092:5111   */\n      mstore\n        /* \"#utility.yul\":5144:5148   */\n      0x20\n        /* \"#utility.yul\":5139:5142   */\n      dup3\n        /* \"#utility.yul\":5135:5149   */\n      add\n        /* \"#utility.yul\":5120:5149   */\n      swap1\n      pop\n        /* \"#utility.yul\":4986:5155   */\n      swap3\n      swap2\n      pop\n      pop\n      jump\t// out\n        /* \"#utility.yul\":5161:5238   */\n    tag_94:\n        /* \"#utility.yul\":5198:5205   */\n      0x00\n        /* \"#utility.yul\":5227:5232   */\n      dup2\n        /* \"#utility.yul\":5216:5232   */\n      swap1\n      pop\n        /* \"#utility.yul\":5161:5238   */\n      swap2\n      swap1\n      pop\n      jump\t// out\n        /* \"#utility.yul\":5244:5398   */\n    tag_36:\n        /* \"#utility.yul\":5328:5334   */\n      dup3\n        /* \"#utility.yul\":5323:5326   */\n      dup2\n        /* \"#utility.yul\":5318:5321   */\n      dup4\n        /* \"#utility.yul\":5305:5335   */\n      calldatacopy\n        /* \"#utility.yul\":5390:5391   */\n      0x00\n        /* \"#utility.yul\":5381:5387   */\n      dup4\n        /* \"#utility.yul\":5376:5379   */\n      dup4\n        /* \"#utility.yul\":5372:5388   */\n      add\n        /* \"#utility.yul\":5365:5392   */\n      mstore\n        /* \"#utility.yul\":5244:5398   */\n      pop\n      pop\n      pop\n      jump\t// out\n        /* \"#utility.yul\":5404:5711   */\n    tag_44:\n        /* \"#utility.yul\":5472:5473   */\n      0x00\n        /* \"#utility.yul\":5482:5595   */\n    tag_114:\n        /* \"#utility.yul\":5496:5502   */\n      dup4\n        /* \"#utility.yul\":5493:5494   */\n      dup2\n        /* \"#utility.yul\":5490:5503   */\n      lt\n        /* \"#utility.yul\":5482:5595   */\n      iszero\n      tag_116\n      jumpi\n        /* \"#utility.yul\":5581:5582   */\n      dup1\n        /* \"#utility.yul\":5576:5579   */\n      dup3\n        /* \"#utility.yul\":5572:5583   */\n      add\n        /* \"#utility.yul\":5566:5584   */\n      mload\n        /* \"#utility.yul\":5562:5563   */\n      dup2\n        /* \"#utility.yul\":5557:5560   */\n      dup5\n        /* \"#utility.yul\":5553:5564   */\n      add\n        /* \"#utility.yul\":5546:5585   */\n      mstore\n        /* \"#utility.yul\":5518:5520   */\n      0x20\n        /* \"#utility.yul\":5515:5516   */\n      dup2\n        /* \"#utility.yul\":5511:5521   */\n      add\n        /* \"#utility.yul\":5506:5521   */\n      swap1\n      pop\n        /* \"#utility.yul\":5482:5595   */\n      jump(tag_114)\n    tag_116:\n        /* \"#utility.yul\":5613:5619   */\n      dup4\n        /* \"#utility.yul\":5610:5611   */\n      dup2\n        /* \"#utility.yul\":5607:5620   */\n      gt\n        /* \"#utility.yul\":5604:5705   */\n      iszero\n      tag_117\n      jumpi\n        /* \"#utility.yul\":5693:5694   */\n      0x00\n        /* \"#utility.yul\":5684:5690   */\n      dup5\n        /* \"#utility.yul\":5679:5682   */\n      dup5\n        /* \"#utility.yul\":5675:5691   */\n      add\n        /* \"#utility.yul\":5668:5695   */\n      mstore\n        /* \"#utility.yul\":5604:5705   */\n    tag_117:\n        /* \"#utility.yul\":5453:5711   */\n      pop\n        /* \"#utility.yul\":5404:5711   */\n      pop\n      pop\n      pop\n      jump\t// out\n        /* \"#utility.yul\":5717:5998   */\n    tag_102:\n        /* \"#utility.yul\":5800:5827   */\n      tag_119\n        /* \"#utility.yul\":5822:5826   */\n      dup3\n        /* \"#utility.yul\":5800:5827   */\n      tag_90\n      jump\t// in\n    tag_119:\n        /* \"#utility.yul\":5792:5798   */\n      dup2\n        /* \"#utility.yul\":5788:5828   */\n      add\n        /* \"#utility.yul\":5930:5936   */\n      dup2\n        /* \"#utility.yul\":5918:5928   */\n      dup2\n        /* \"#utility.yul\":5915:5937   */\n      lt\n        /* \"#utility.yul\":5894:5912   */\n      0xffffffffffffffff\n        /* \"#utility.yul\":5882:5892   */\n      dup3\n        /* \"#utility.yul\":5879:5913   */\n      gt\n        /* \"#utility.yul\":5876:5938   */\n      or\n        /* \"#utility.yul\":5873:5961   */\n      iszero\n      tag_120\n      jumpi\n        /* \"#utility.yul\":5941:5959   */\n      tag_121\n      tag_107\n      jump\t// in\n    tag_121:\n        /* \"#utility.yul\":5873:5961   */\n    tag_120:\n        /* \"#utility.yul\":5981:5991   */\n      dup1\n        /* \"#utility.yul\":5977:5979   */\n      0x40\n        /* \"#utility.yul\":5970:5992   */\n      mstore\n        /* \"#utility.yul\":5760:5998   */\n      pop\n        /* \"#utility.yul\":5717:5998   */\n      pop\n      pop\n      jump\t// out\n        /* \"#utility.yul\":6004:6184   */\n    tag_107:\n        /* \"#utility.yul\":6052:6129   */\n      0x4e487b7100000000000000000000000000000000000000000000000000000000\n        /* \"#utility.yul\":6049:6050   */\n      0x00\n        /* \"#utility.yul\":6042:6130   */\n      mstore\n        /* \"#utility.yul\":6149:6153   */\n      0x41\n        /* \"#utility.yul\":6146:6147   */\n      0x04\n        /* \"#utility.yul\":6139:6154   */\n      mstore\n        /* \"#utility.yul\":6173:6177   */\n      0x24\n        /* \"#utility.yul\":6170:6171   */\n      0x00\n        /* \"#utility.yul\":6163:6178   */\n      revert\n        /* \"#utility.yul\":6190:6307   */\n    tag_49:\n        /* \"#utility.yul\":6299:6300   */\n      0x00\n        /* \"#utility.yul\":6296:6297   */\n      dup1\n        /* \"#utility.yul\":6289:6301   */\n      revert\n        /* \"#utility.yul\":6313:6430   */\n    tag_34:\n        /* \"#utility.yul\":6422:6423   */\n      0x00\n        /* \"#utility.yul\":6419:6420   */\n      dup1\n        /* \"#utility.yul\":6412:6424   */\n      revert\n        /* \"#utility.yul\":6436:6553   */\n    tag_69:\n        /* \"#utility.yul\":6545:6546   */\n      0x00\n        /* \"#utility.yul\":6542:6543   */\n      dup1\n        /* \"#utility.yul\":6535:6547   */\n      revert\n        /* \"#utility.yul\":6559:6676   */\n    tag_66:\n        /* \"#utility.yul\":6668:6669   */\n      0x00\n        /* \"#utility.yul\":6665:6666   */\n      dup1\n        /* \"#utility.yul\":6658:6670   */\n      revert\n        /* \"#utility.yul\":6682:6784   */\n    tag_90:\n        /* \"#utility.yul\":6723:6729   */\n      0x00\n        /* \"#utility.yul\":6774:6776   */\n      0x1f\n        /* \"#utility.yul\":6770:6777   */\n      not\n        /* \"#utility.yul\":6765:6767   */\n      0x1f\n        /* \"#utility.yul\":6758:6763   */\n      dup4\n        /* \"#utility.yul\":6754:6768   */\n      add\n        /* \"#utility.yul\":6750:6778   */\n      and\n        /* \"#utility.yul\":6740:6778   */\n      swap1\n      pop\n        /* \"#utility.yul\":6682:6784   */\n      swap2\n      swap1\n      pop\n      jump\t// out\n        /* \"#utility.yul\":6790:6912   */\n    tag_59:\n        /* \"#utility.yul\":6863:6887   */\n      tag_129\n        /* \"#utility.yul\":6881:6886   */\n      dup2\n        /* \"#utility.yul\":6863:6887   */\n      tag_94\n      jump\t// in\n    tag_129:\n        /* \"#utility.yul\":6856:6861   */\n      dup2\n        /* \"#utility.yul\":6853:6888   */\n      eq\n        /* \"#utility.yul\":6843:6906   */\n      tag_130\n      jumpi\n        /* \"#utility.yul\":6902:6903   */\n      0x00\n        /* \"#utility.yul\":6899:6900   */\n      dup1\n        /* \"#utility.yul\":6892:6904   */\n      revert\n        /* \"#utility.yul\":6843:6906   */\n    tag_130:\n        /* \"#utility.yul\":6790:6912   */\n      pop\n      jump\t// out\n\n    auxdata: 0xa2646970667358221220ba700b77e016393307dd5320e6831c0b2371116a60120730c96403fbe26bb9e864736f6c63430008070033\n}\n\nsub_1: assembly {\n        /* \"lecture/lec9.sol\":71:349  contract A {... */\n      mstore(0x40, 0x80)\n        /* \"lecture/lec9.sol\":138:234  constructor(string memory _name, uint256 _age) {... */\n      callvalue\n      dup1\n      iszero\n      tag_1\n      jumpi\n      0x00\n      dup1\n      revert\n    tag_1:\n      pop\n      mload(0x40)\n      sub(codesize, bytecodeSize)\n      dup1\n      bytecodeSize\n      dup4\n      codecopy\n      dup2\n      dup2\n      add\n      0x40\n      mstore\n      dup2\n      add\n      swap1\n      tag_2\n      swap2\n      swap1\n      tag_3\n      jump\t// in\n    tag_2:\n        /* \"lecture/lec9.sol\":202:207  _name */\n      dup2\n        /* \"lecture/lec9.sol\":195:199  name */\n      0x00\n        /* \"lecture/lec9.sol\":195:207  name = _name */\n      swap1\n      dup1\n      mload\n      swap1\n      0x20\n      add\n      swap1\n      tag_6\n      swap3\n      swap2\n      swap1\n      tag_7\n      jump\t// in\n    tag_6:\n      pop\n        /* \"lecture/lec9.sol\":223:227  _age */\n      dup1\n        /* \"lecture/lec9.sol\":217:220  age */\n      0x01\n        /* \"lecture/lec9.sol\":217:227  age = _age */\n      dup2\n      swap1\n      sstore\n      pop\n        /* \"lecture/lec9.sol\":138:234  constructor(string memory _name, uint256 _age) {... */\n      pop\n      pop\n        /* \"lecture/lec9.sol\":71:349  contract A {... */\n      jump(tag_8)\n    tag_7:\n      dup3\n      dup1\n      sload\n      tag_9\n      swap1\n      tag_10\n      jump\t// in\n    tag_9:\n      swap1\n      0x00\n      mstore\n      keccak256(0x00, 0x20)\n      swap1\n      0x1f\n      add\n      0x20\n      swap1\n      div\n      dup2\n      add\n      swap3\n      dup3\n      tag_12\n      jumpi\n      0x00\n      dup6\n      sstore\n      jump(tag_11)\n    tag_12:\n      dup3\n      0x1f\n      lt\n      tag_13\n      jumpi\n      dup1\n      mload\n      not(0xff)\n      and\n      dup4\n      dup1\n      add\n      or\n      dup6\n      sstore\n      jump(tag_11)\n    tag_13:\n      dup3\n      dup1\n      add\n      0x01\n      add\n      dup6\n      sstore\n      dup3\n      iszero\n      tag_11\n      jumpi\n      swap2\n      dup3\n      add\n    tag_14:\n      dup3\n      dup2\n      gt\n      iszero\n      tag_15\n      jumpi\n      dup3\n      mload\n      dup3\n      sstore\n      swap2\n      0x20\n      add\n      swap2\n      swap1\n      0x01\n      add\n      swap1\n      jump(tag_14)\n    tag_15:\n    tag_11:\n      pop\n      swap1\n      pop\n      tag_16\n      swap2\n      swap1\n      tag_17\n      jump\t// in\n    tag_16:\n      pop\n      swap1\n      jump\t// out\n    tag_17:\n    tag_18:\n      dup1\n      dup3\n      gt\n      iszero\n      tag_19\n      jumpi\n      0x00\n      dup2\n      0x00\n      swap1\n      sstore\n      pop\n      0x01\n      add\n      jump(tag_18)\n    tag_19:\n      pop\n      swap1\n      jump\t// out\n        /* \"#utility.yul\":7:428   */\n    tag_21:\n        /* \"#utility.yul\":96:101   */\n      0x00\n        /* \"#utility.yul\":121:187   */\n      tag_23\n        /* \"#utility.yul\":137:186   */\n      tag_24\n        /* \"#utility.yul\":179:185   */\n      dup5\n        /* \"#utility.yul\":137:186   */\n      tag_25\n      jump\t// in\n    tag_24:\n        /* \"#utility.yul\":121:187   */\n      tag_26\n      jump\t// in\n    tag_23:\n        /* \"#utility.yul\":112:187   */\n      swap1\n      pop\n        /* \"#utility.yul\":210:216   */\n      dup3\n        /* \"#utility.yul\":203:208   */\n      dup2\n        /* \"#utility.yul\":196:217   */\n      mstore\n        /* \"#utility.yul\":248:252   */\n      0x20\n        /* \"#utility.yul\":241:246   */\n      dup2\n        /* \"#utility.yul\":237:253   */\n      add\n        /* \"#utility.yul\":286:289   */\n      dup5\n        /* \"#utility.yul\":277:283   */\n      dup5\n        /* \"#utility.yul\":272:275   */\n      dup5\n        /* \"#utility.yul\":268:284   */\n      add\n        /* \"#utility.yul\":265:290   */\n      gt\n        /* \"#utility.yul\":262:374   */\n      iszero\n      tag_27\n      jumpi\n        /* \"#utility.yul\":293:372   */\n      tag_28\n      tag_29\n      jump\t// in\n    tag_28:\n        /* \"#utility.yul\":262:374   */\n    tag_27:\n        /* \"#utility.yul\":383:422   */\n      tag_30\n        /* \"#utility.yul\":415:421   */\n      dup5\n        /* \"#utility.yul\":410:413   */\n      dup3\n        /* \"#utility.yul\":405:408   */\n      dup6\n        /* \"#utility.yul\":383:422   */\n      tag_31\n      jump\t// in\n    tag_30:\n        /* \"#utility.yul\":102:428   */\n      pop\n        /* \"#utility.yul\":7:428   */\n      swap4\n      swap3\n      pop\n      pop\n      pop\n      jump\t// out\n        /* \"#utility.yul\":448:803   */\n    tag_32:\n        /* \"#utility.yul\":515:520   */\n      0x00\n        /* \"#utility.yul\":564:567   */\n      dup3\n        /* \"#utility.yul\":557:561   */\n      0x1f\n        /* \"#utility.yul\":549:555   */\n      dup4\n        /* \"#utility.yul\":545:562   */\n      add\n        /* \"#utility.yul\":541:568   */\n      slt\n        /* \"#utility.yul\":531:653   */\n      tag_34\n      jumpi\n        /* \"#utility.yul\":572:651   */\n      tag_35\n      tag_36\n      jump\t// in\n    tag_35:\n        /* \"#utility.yul\":531:653   */\n    tag_34:\n        /* \"#utility.yul\":682:688   */\n      dup2\n        /* \"#utility.yul\":676:689   */\n      mload\n        /* \"#utility.yul\":707:797   */\n      tag_37\n        /* \"#utility.yul\":793:796   */\n      dup5\n        /* \"#utility.yul\":785:791   */\n      dup3\n        /* \"#utility.yul\":778:782   */\n      0x20\n        /* \"#utility.yul\":770:776   */\n      dup7\n        /* \"#utility.yul\":766:783   */\n      add\n        /* \"#utility.yul\":707:797   */\n      tag_21\n      jump\t// in\n    tag_37:\n        /* \"#utility.yul\":698:797   */\n      swap2\n      pop\n        /* \"#utility.yul\":521:803   */\n      pop\n        /* \"#utility.yul\":448:803   */\n      swap3\n      swap2\n      pop\n      pop\n      jump\t// out\n        /* \"#utility.yul\":809:952   */\n    tag_38:\n        /* \"#utility.yul\":866:871   */\n      0x00\n        /* \"#utility.yul\":897:903   */\n      dup2\n        /* \"#utility.yul\":891:904   */\n      mload\n        /* \"#utility.yul\":882:904   */\n      swap1\n      pop\n        /* \"#utility.yul\":913:946   */\n      tag_40\n        /* \"#utility.yul\":940:945   */\n      dup2\n        /* \"#utility.yul\":913:946   */\n      tag_41\n      jump\t// in\n    tag_40:\n        /* \"#utility.yul\":809:952   */\n      swap3\n      swap2\n      pop\n      pop\n      jump\t// out\n        /* \"#utility.yul\":958:1638   */\n    tag_3:\n        /* \"#utility.yul\":1047:1053   */\n      0x00\n        /* \"#utility.yul\":1055:1061   */\n      dup1\n        /* \"#utility.yul\":1104:1106   */\n      0x40\n        /* \"#utility.yul\":1092:1101   */\n      dup4\n        /* \"#utility.yul\":1083:1090   */\n      dup6\n        /* \"#utility.yul\":1079:1102   */\n      sub\n        /* \"#utility.yul\":1075:1107   */\n      slt\n        /* \"#utility.yul\":1072:1191   */\n      iszero\n      tag_43\n      jumpi\n        /* \"#utility.yul\":1110:1189   */\n      tag_44\n      tag_45\n      jump\t// in\n    tag_44:\n        /* \"#utility.yul\":1072:1191   */\n    tag_43:\n        /* \"#utility.yul\":1251:1252   */\n      0x00\n        /* \"#utility.yul\":1240:1249   */\n      dup4\n        /* \"#utility.yul\":1236:1253   */\n      add\n        /* \"#utility.yul\":1230:1254   */\n      mload\n        /* \"#utility.yul\":1281:1299   */\n      0xffffffffffffffff\n        /* \"#utility.yul\":1273:1279   */\n      dup2\n        /* \"#utility.yul\":1270:1300   */\n      gt\n        /* \"#utility.yul\":1267:1384   */\n      iszero\n      tag_46\n      jumpi\n        /* \"#utility.yul\":1303:1382   */\n      tag_47\n      tag_48\n      jump\t// in\n    tag_47:\n        /* \"#utility.yul\":1267:1384   */\n    tag_46:\n        /* \"#utility.yul\":1408:1482   */\n      tag_49\n        /* \"#utility.yul\":1474:1481   */\n      dup6\n        /* \"#utility.yul\":1465:1471   */\n      dup3\n        /* \"#utility.yul\":1454:1463   */\n      dup7\n        /* \"#utility.yul\":1450:1472   */\n      add\n        /* \"#utility.yul\":1408:1482   */\n      tag_32\n      jump\t// in\n    tag_49:\n        /* \"#utility.yul\":1398:1482   */\n      swap3\n      pop\n        /* \"#utility.yul\":1201:1492   */\n      pop\n        /* \"#utility.yul\":1531:1533   */\n      0x20\n        /* \"#utility.yul\":1557:1621   */\n      tag_50\n        /* \"#utility.yul\":1613:1620   */\n      dup6\n        /* \"#utility.yul\":1604:1610   */\n      dup3\n        /* \"#utility.yul\":1593:1602   */\n      dup7\n        /* \"#utility.yul\":1589:1611   */\n      add\n        /* \"#utility.yul\":1557:1621   */\n      tag_38\n      jump\t// in\n    tag_50:\n        /* \"#utility.yul\":1547:1621   */\n      swap2\n      pop\n        /* \"#utility.yul\":1502:1631   */\n      pop\n        /* \"#utility.yul\":958:1638   */\n      swap3\n      pop\n      swap3\n      swap1\n      pop\n      jump\t// out\n        /* \"#utility.yul\":1644:1773   */\n    tag_26:\n        /* \"#utility.yul\":1678:1684   */\n      0x00\n        /* \"#utility.yul\":1705:1725   */\n      tag_52\n      tag_53\n      jump\t// in\n    tag_52:\n        /* \"#utility.yul\":1695:1725   */\n      swap1\n      pop\n        /* \"#utility.yul\":1734:1767   */\n      tag_54\n        /* \"#utility.yul\":1762:1766   */\n      dup3\n        /* \"#utility.yul\":1754:1760   */\n      dup3\n        /* \"#utility.yul\":1734:1767   */\n      tag_55\n      jump\t// in\n    tag_54:\n        /* \"#utility.yul\":1644:1773   */\n      swap2\n      swap1\n      pop\n      jump\t// out\n        /* \"#utility.yul\":1779:1854   */\n    tag_53:\n        /* \"#utility.yul\":1812:1818   */\n      0x00\n        /* \"#utility.yul\":1845:1847   */\n      0x40\n        /* \"#utility.yul\":1839:1848   */\n      mload\n        /* \"#utility.yul\":1829:1848   */\n      swap1\n      pop\n        /* \"#utility.yul\":1779:1854   */\n      swap1\n      jump\t// out\n        /* \"#utility.yul\":1860:2168   */\n    tag_25:\n        /* \"#utility.yul\":1922:1926   */\n      0x00\n        /* \"#utility.yul\":2012:2030   */\n      0xffffffffffffffff\n        /* \"#utility.yul\":2004:2010   */\n      dup3\n        /* \"#utility.yul\":2001:2031   */\n      gt\n        /* \"#utility.yul\":1998:2054   */\n      iszero\n      tag_58\n      jumpi\n        /* \"#utility.yul\":2034:2052   */\n      tag_59\n      tag_60\n      jump\t// in\n    tag_59:\n        /* \"#utility.yul\":1998:2054   */\n    tag_58:\n        /* \"#utility.yul\":2072:2101   */\n      tag_61\n        /* \"#utility.yul\":2094:2100   */\n      dup3\n        /* \"#utility.yul\":2072:2101   */\n      tag_62\n      jump\t// in\n    tag_61:\n        /* \"#utility.yul\":2064:2101   */\n      swap1\n      pop\n        /* \"#utility.yul\":2156:2160   */\n      0x20\n        /* \"#utility.yul\":2150:2154   */\n      dup2\n        /* \"#utility.yul\":2146:2161   */\n      add\n        /* \"#utility.yul\":2138:2161   */\n      swap1\n      pop\n        /* \"#utility.yul\":1860:2168   */\n      swap2\n      swap1\n      pop\n      jump\t// out\n        /* \"#utility.yul\":2174:2251   */\n    tag_63:\n        /* \"#utility.yul\":2211:2218   */\n      0x00\n        /* \"#utility.yul\":2240:2245   */\n      dup2\n        /* \"#utility.yul\":2229:2245   */\n      swap1\n      pop\n        /* \"#utility.yul\":2174:2251   */\n      swap2\n      swap1\n      pop\n      jump\t// out\n        /* \"#utility.yul\":2257:2564   */\n    tag_31:\n        /* \"#utility.yul\":2325:2326   */\n      0x00\n        /* \"#utility.yul\":2335:2448   */\n    tag_66:\n        /* \"#utility.yul\":2349:2355   */\n      dup4\n        /* \"#utility.yul\":2346:2347   */\n      dup2\n        /* \"#utility.yul\":2343:2356   */\n      lt\n        /* \"#utility.yul\":2335:2448   */\n      iszero\n      tag_68\n      jumpi\n        /* \"#utility.yul\":2434:2435   */\n      dup1\n        /* \"#utility.yul\":2429:2432   */\n      dup3\n        /* \"#utility.yul\":2425:2436   */\n      add\n        /* \"#utility.yul\":2419:2437   */\n      mload\n        /* \"#utility.yul\":2415:2416   */\n      dup2\n        /* \"#utility.yul\":2410:2413   */\n      dup5\n        /* \"#utility.yul\":2406:2417   */\n      add\n        /* \"#utility.yul\":2399:2438   */\n      mstore\n        /* \"#utility.yul\":2371:2373   */\n      0x20\n        /* \"#utility.yul\":2368:2369   */\n      dup2\n        /* \"#utility.yul\":2364:2374   */\n      add\n        /* \"#utility.yul\":2359:2374   */\n      swap1\n      pop\n        /* \"#utility.yul\":2335:2448   */\n      jump(tag_66)\n    tag_68:\n        /* \"#utility.yul\":2466:2472   */\n      dup4\n        /* \"#utility.yul\":2463:2464   */\n      dup2\n        /* \"#utility.yul\":2460:2473   */\n      gt\n        /* \"#utility.yul\":2457:2558   */\n      iszero\n      tag_69\n      jumpi\n        /* \"#utility.yul\":2546:2547   */\n      0x00\n        /* \"#utility.yul\":2537:2543   */\n      dup5\n        /* \"#utility.yul\":2532:2535   */\n      dup5\n        /* \"#utility.yul\":2528:2544   */\n      add\n        /* \"#utility.yul\":2521:2548   */\n      mstore\n        /* \"#utility.yul\":2457:2558   */\n    tag_69:\n        /* \"#utility.yul\":2306:2564   */\n      pop\n        /* \"#utility.yul\":2257:2564   */\n      pop\n      pop\n      pop\n      jump\t// out\n        /* \"#utility.yul\":2570:2890   */\n    tag_10:\n        /* \"#utility.yul\":2614:2620   */\n      0x00\n        /* \"#utility.yul\":2651:2652   */\n      0x02\n        /* \"#utility.yul\":2645:2649   */\n      dup3\n        /* \"#utility.yul\":2641:2653   */\n      div\n        /* \"#utility.yul\":2631:2653   */\n      swap1\n      pop\n        /* \"#utility.yul\":2698:2699   */\n      0x01\n        /* \"#utility.yul\":2692:2696   */\n      dup3\n        /* \"#utility.yul\":2688:2700   */\n      and\n        /* \"#utility.yul\":2719:2737   */\n      dup1\n        /* \"#utility.yul\":2709:2790   */\n      tag_71\n      jumpi\n        /* \"#utility.yul\":2775:2779   */\n      0x7f\n        /* \"#utility.yul\":2767:2773   */\n      dup3\n        /* \"#utility.yul\":2763:2780   */\n      and\n        /* \"#utility.yul\":2753:2780   */\n      swap2\n      pop\n        /* \"#utility.yul\":2709:2790   */\n    tag_71:\n        /* \"#utility.yul\":2837:2839   */\n      0x20\n        /* \"#utility.yul\":2829:2835   */\n      dup3\n        /* \"#utility.yul\":2826:2840   */\n      lt\n        /* \"#utility.yul\":2806:2824   */\n      dup2\n        /* \"#utility.yul\":2803:2841   */\n      eq\n        /* \"#utility.yul\":2800:2884   */\n      iszero\n      tag_72\n      jumpi\n        /* \"#utility.yul\":2856:2874   */\n      tag_73\n      tag_74\n      jump\t// in\n    tag_73:\n        /* \"#utility.yul\":2800:2884   */\n    tag_72:\n        /* \"#utility.yul\":2621:2890   */\n      pop\n        /* \"#utility.yul\":2570:2890   */\n      swap2\n      swap1\n      pop\n      jump\t// out\n        /* \"#utility.yul\":2896:3177   */\n    tag_55:\n        /* \"#utility.yul\":2979:3006   */\n      tag_76\n        /* \"#utility.yul\":3001:3005   */\n      dup3\n        /* \"#utility.yul\":2979:3006   */\n      tag_62\n      jump\t// in\n    tag_76:\n        /* \"#utility.yul\":2971:2977   */\n      dup2\n        /* \"#utility.yul\":2967:3007   */\n      add\n        /* \"#utility.yul\":3109:3115   */\n      dup2\n        /* \"#utility.yul\":3097:3107   */\n      dup2\n        /* \"#utility.yul\":3094:3116   */\n      lt\n        /* \"#utility.yul\":3073:3091   */\n      0xffffffffffffffff\n        /* \"#utility.yul\":3061:3071   */\n      dup3\n        /* \"#utility.yul\":3058:3092   */\n      gt\n        /* \"#utility.yul\":3055:3117   */\n      or\n        /* \"#utility.yul\":3052:3140   */\n      iszero\n      tag_77\n      jumpi\n        /* \"#utility.yul\":3120:3138   */\n      tag_78\n      tag_60\n      jump\t// in\n    tag_78:\n        /* \"#utility.yul\":3052:3140   */\n    tag_77:\n        /* \"#utility.yul\":3160:3170   */\n      dup1\n        /* \"#utility.yul\":3156:3158   */\n      0x40\n        /* \"#utility.yul\":3149:3171   */\n      mstore\n        /* \"#utility.yul\":2939:3177   */\n      pop\n        /* \"#utility.yul\":2896:3177   */\n      pop\n      pop\n      jump\t// out\n        /* \"#utility.yul\":3183:3363   */\n    tag_74:\n        /* \"#utility.yul\":3231:3308   */\n      0x4e487b7100000000000000000000000000000000000000000000000000000000\n        /* \"#utility.yul\":3228:3229   */\n      0x00\n        /* \"#utility.yul\":3221:3309   */\n      mstore\n        /* \"#utility.yul\":3328:3332   */\n      0x22\n        /* \"#utility.yul\":3325:3326   */\n      0x04\n        /* \"#utility.yul\":3318:3333   */\n      mstore\n        /* \"#utility.yul\":3352:3356   */\n      0x24\n        /* \"#utility.yul\":3349:3350   */\n      0x00\n        /* \"#utility.yul\":3342:3357   */\n      revert\n        /* \"#utility.yul\":3369:3549   */\n    tag_60:\n        /* \"#utility.yul\":3417:3494   */\n      0x4e487b7100000000000000000000000000000000000000000000000000000000\n        /* \"#utility.yul\":3414:3415   */\n      0x00\n        /* \"#utility.yul\":3407:3495   */\n      mstore\n        /* \"#utility.yul\":3514:3518   */\n      0x41\n        /* \"#utility.yul\":3511:3512   */\n      0x04\n        /* \"#utility.yul\":3504:3519   */\n      mstore\n        /* \"#utility.yul\":3538:3542   */\n      0x24\n        /* \"#utility.yul\":3535:3536   */\n      0x00\n        /* \"#utility.yul\":3528:3543   */\n      revert\n        /* \"#utility.yul\":3555:3672   */\n    tag_36:\n        /* \"#utility.yul\":3664:3665   */\n      0x00\n        /* \"#utility.yul\":3661:3662   */\n      dup1\n        /* \"#utility.yul\":3654:3666   */\n      revert\n        /* \"#utility.yul\":3678:3795   */\n    tag_29:\n        /* \"#utility.yul\":3787:3788   */\n      0x00\n        /* \"#utility.yul\":3784:3785   */\n      dup1\n        /* \"#utility.yul\":3777:3789   */\n      revert\n        /* \"#utility.yul\":3801:3918   */\n    tag_48:\n        /* \"#utility.yul\":3910:3911   */\n      0x00\n        /* \"#utility.yul\":3907:3908   */\n      dup1\n        /* \"#utility.yul\":3900:3912   */\n      revert\n        /* \"#utility.yul\":3924:4041   */\n    tag_45:\n        /* \"#utility.yul\":4033:4034   */\n      0x00\n        /* \"#utility.yul\":4030:4031   */\n      dup1\n        /* \"#utility.yul\":4023:4035   */\n      revert\n        /* \"#utility.yul\":4047:4149   */\n    tag_62:\n        /* \"#utility.yul\":4088:4094   */\n      0x00\n        /* \"#utility.yul\":4139:4141   */\n      0x1f\n        /* \"#utility.yul\":4135:4142   */\n      not\n        /* \"#utility.yul\":4130:4132   */\n      0x1f\n        /* \"#utility.yul\":4123:4128   */\n      dup4\n        /* \"#utility.yul\":4119:4133   */\n      add\n        /* \"#utility.yul\":4115:4143   */\n      and\n        /* \"#utility.yul\":4105:4143   */\n      swap1\n      pop\n        /* \"#utility.yul\":4047:4149   */\n      swap2\n      swap1\n      pop\n      jump\t// out\n        /* \"#utility.yul\":4155:4277   */\n    tag_41:\n        /* \"#utility.yul\":4228:4252   */\n      tag_87\n        /* \"#utility.yul\":4246:4251   */\n      dup2\n        /* \"#utility.yul\":4228:4252   */\n      tag_63\n      jump\t// in\n    tag_87:\n        /* \"#utility.yul\":4221:4226   */\n      dup2\n        /* \"#utility.yul\":4218:4253   */\n      eq\n        /* \"#utility.yul\":4208:4271   */\n      tag_88\n      jumpi\n        /* \"#utility.yul\":4267:4268   */\n      0x00\n        /* \"#utility.yul\":4264:4265   */\n      dup1\n        /* \"#utility.yul\":4257:4269   */\n      revert\n        /* \"#utility.yul\":4208:4271   */\n    tag_88:\n        /* \"#utility.yul\":4155:4277   */\n      pop\n      jump\t// out\n        /* \"lecture/lec9.sol\":71:349  contract A {... */\n    tag_8:\n      dataSize(sub_0)\n      dup1\n      dataOffset(sub_0)\n      0x00\n      codecopy\n      0x00\n      return\n    stop\n\n    sub_0: assembly {\n            /* \"lecture/lec9.sol\":71:349  contract A {... */\n          mstore(0x40, 0x80)\n          callvalue\n          dup1\n          iszero\n          tag_1\n          jumpi\n          0x00\n          dup1\n          revert\n        tag_1:\n          pop\n          jumpi(tag_2, lt(calldatasize, 0x04))\n          shr(0xe0, calldataload(0x00))\n          dup1\n          0x06fdde03\n          eq\n          tag_3\n          jumpi\n          dup1\n          0x262a9dff\n          eq\n          tag_4\n          jumpi\n          dup1\n          0x6d806b1e\n          eq\n          tag_5\n          jumpi\n        tag_2:\n          0x00\n          dup1\n          revert\n            /* \"lecture/lec9.sol\":89:107  string public name */\n        tag_3:\n          tag_6\n          tag_7\n          jump\t// in\n        tag_6:\n          mload(0x40)\n          tag_8\n          swap2\n          swap1\n          tag_9\n          jump\t// in\n        tag_8:\n          mload(0x40)\n          dup1\n          swap2\n          sub\n          swap1\n          return\n            /* \"lecture/lec9.sol\":113:131  uint256 public age */\n        tag_4:\n          tag_10\n          tag_11\n          jump\t// in\n        tag_10:\n          mload(0x40)\n          tag_12\n          swap2\n          swap1\n          tag_13\n          jump\t// in\n        tag_12:\n          mload(0x40)\n          dup1\n          swap2\n          sub\n          swap1\n          return\n            /* \"lecture/lec9.sol\":240:347  function change(string memory _name, uint256 _age) public {... */\n        tag_5:\n          tag_14\n          0x04\n          dup1\n          calldatasize\n          sub\n          dup2\n          add\n          swap1\n          tag_15\n          swap2\n          swap1\n          tag_16\n          jump\t// in\n        tag_15:\n          tag_17\n          jump\t// in\n        tag_14:\n          stop\n            /* \"lecture/lec9.sol\":89:107  string public name */\n        tag_7:\n          0x00\n          dup1\n          sload\n          tag_18\n          swap1\n          tag_19\n          jump\t// in\n        tag_18:\n          dup1\n          0x1f\n          add\n          0x20\n          dup1\n          swap2\n          div\n          mul\n          0x20\n          add\n          mload(0x40)\n          swap1\n          dup2\n          add\n          0x40\n          mstore\n          dup1\n          swap3\n          swap2\n          swap1\n          dup2\n          dup2\n          mstore\n          0x20\n          add\n          dup3\n          dup1\n          sload\n          tag_20\n          swap1\n          tag_19\n          jump\t// in\n        tag_20:\n          dup1\n          iszero\n          tag_21\n          jumpi\n          dup1\n          0x1f\n          lt\n          tag_22\n          jumpi\n          0x0100\n          dup1\n          dup4\n          sload\n          div\n          mul\n          dup4\n          mstore\n          swap2\n          0x20\n          add\n          swap2\n          jump(tag_21)\n        tag_22:\n          dup3\n          add\n          swap2\n          swap1\n          0x00\n          mstore\n          keccak256(0x00, 0x20)\n          swap1\n        tag_23:\n          dup2\n          sload\n          dup2\n          mstore\n          swap1\n          0x01\n          add\n          swap1\n          0x20\n          add\n          dup1\n          dup4\n          gt\n          tag_23\n          jumpi\n          dup3\n          swap1\n          sub\n          0x1f\n          and\n          dup3\n          add\n          swap2\n        tag_21:\n          pop\n          pop\n          pop\n          pop\n          pop\n          dup2\n          jump\t// out\n            /* \"lecture/lec9.sol\":113:131  uint256 public age */\n        tag_11:\n          sload(0x01)\n          dup2\n          jump\t// out\n            /* \"lecture/lec9.sol\":240:347  function change(string memory _name, uint256 _age) public {... */\n        tag_17:\n            /* \"lecture/lec9.sol\":315:320  _name */\n          dup2\n            /* \"lecture/lec9.sol\":308:312  name */\n          0x00\n            /* \"lecture/lec9.sol\":308:320  name = _name */\n          swap1\n          dup1\n          mload\n          swap1\n          0x20\n          add\n          swap1\n          tag_25\n          swap3\n          swap2\n          swap1\n          tag_26\n          jump\t// in\n        tag_25:\n          pop\n            /* \"lecture/lec9.sol\":336:340  _age */\n          dup1\n            /* \"lecture/lec9.sol\":330:333  age */\n          0x01\n            /* \"lecture/lec9.sol\":330:340  age = _age */\n          dup2\n          swap1\n          sstore\n          pop\n            /* \"lecture/lec9.sol\":240:347  function change(string memory _name, uint256 _age) public {... */\n          pop\n          pop\n          jump\t// out\n        tag_26:\n          dup3\n          dup1\n          sload\n          tag_27\n          swap1\n          tag_19\n          jump\t// in\n        tag_27:\n          swap1\n          0x00\n          mstore\n          keccak256(0x00, 0x20)\n          swap1\n          0x1f\n          add\n          0x20\n          swap1\n          div\n          dup2\n          add\n          swap3\n          dup3\n          tag_29\n          jumpi\n          0x00\n          dup6\n          sstore\n          jump(tag_28)\n        tag_29:\n          dup3\n          0x1f\n          lt\n          tag_30\n          jumpi\n          dup1\n          mload\n          not(0xff)\n          and\n          dup4\n          dup1\n          add\n          or\n          dup6\n          sstore\n          jump(tag_28)\n        tag_30:\n          dup3\n          dup1\n          add\n          0x01\n          add\n          dup6\n          sstore\n          dup3\n          iszero\n          tag_28\n          jumpi\n          swap2\n          dup3\n          add\n        tag_31:\n          dup3\n          dup2\n          gt\n          iszero\n          tag_32\n          jumpi\n          dup3\n          mload\n          dup3\n          sstore\n          swap2\n          0x20\n          add\n          swap2\n          swap1\n          0x01\n          add\n          swap1\n          jump(tag_31)\n        tag_32:\n        tag_28:\n          pop\n          swap1\n          pop\n          tag_33\n          swap2\n          swap1\n          tag_34\n          jump\t// in\n        tag_33:\n          pop\n          swap1\n          jump\t// out\n        tag_34:\n        tag_35:\n          dup1\n          dup3\n          gt\n          iszero\n          tag_36\n          jumpi\n          0x00\n          dup2\n          0x00\n          swap1\n          sstore\n          pop\n          0x01\n          add\n          jump(tag_35)\n        tag_36:\n          pop\n          swap1\n          jump\t// out\n            /* \"#utility.yul\":7:419   */\n        tag_38:\n            /* \"#utility.yul\":85:90   */\n          0x00\n            /* \"#utility.yul\":110:176   */\n          tag_40\n            /* \"#utility.yul\":126:175   */\n          tag_41\n            /* \"#utility.yul\":168:174   */\n          dup5\n            /* \"#utility.yul\":126:175   */\n          tag_42\n          jump\t// in\n        tag_41:\n            /* \"#utility.yul\":110:176   */\n          tag_43\n          jump\t// in\n        tag_40:\n            /* \"#utility.yul\":101:176   */\n          swap1\n          pop\n            /* \"#utility.yul\":199:205   */\n          dup3\n            /* \"#utility.yul\":192:197   */\n          dup2\n            /* \"#utility.yul\":185:206   */\n          mstore\n            /* \"#utility.yul\":237:241   */\n          0x20\n            /* \"#utility.yul\":230:235   */\n          dup2\n            /* \"#utility.yul\":226:242   */\n          add\n            /* \"#utility.yul\":275:278   */\n          dup5\n            /* \"#utility.yul\":266:272   */\n          dup5\n            /* \"#utility.yul\":261:264   */\n          dup5\n            /* \"#utility.yul\":257:273   */\n          add\n            /* \"#utility.yul\":254:279   */\n          gt\n            /* \"#utility.yul\":251:363   */\n          iszero\n          tag_44\n          jumpi\n            /* \"#utility.yul\":282:361   */\n          tag_45\n          tag_46\n          jump\t// in\n        tag_45:\n            /* \"#utility.yul\":251:363   */\n        tag_44:\n            /* \"#utility.yul\":372:413   */\n          tag_47\n            /* \"#utility.yul\":406:412   */\n          dup5\n            /* \"#utility.yul\":401:404   */\n          dup3\n            /* \"#utility.yul\":396:399   */\n          dup6\n            /* \"#utility.yul\":372:413   */\n          tag_48\n          jump\t// in\n        tag_47:\n            /* \"#utility.yul\":91:419   */\n          pop\n            /* \"#utility.yul\":7:419   */\n          swap4\n          swap3\n          pop\n          pop\n          pop\n          jump\t// out\n            /* \"#utility.yul\":439:779   */\n        tag_49:\n            /* \"#utility.yul\":495:500   */\n          0x00\n            /* \"#utility.yul\":544:547   */\n          dup3\n            /* \"#utility.yul\":537:541   */\n          0x1f\n            /* \"#utility.yul\":529:535   */\n          dup4\n            /* \"#utility.yul\":525:542   */\n          add\n            /* \"#utility.yul\":521:548   */\n          slt\n            /* \"#utility.yul\":511:633   */\n          tag_51\n          jumpi\n            /* \"#utility.yul\":552:631   */\n          tag_52\n          tag_53\n          jump\t// in\n        tag_52:\n            /* \"#utility.yul\":511:633   */\n        tag_51:\n            /* \"#utility.yul\":669:675   */\n          dup2\n            /* \"#utility.yul\":656:676   */\n          calldataload\n            /* \"#utility.yul\":694:773   */\n          tag_54\n            /* \"#utility.yul\":769:772   */\n          dup5\n            /* \"#utility.yul\":761:767   */\n          dup3\n            /* \"#utility.yul\":754:758   */\n          0x20\n            /* \"#utility.yul\":746:752   */\n          dup7\n            /* \"#utility.yul\":742:759   */\n          add\n            /* \"#utility.yul\":694:773   */\n          tag_38\n          jump\t// in\n        tag_54:\n            /* \"#utility.yul\":685:773   */\n          swap2\n          pop\n            /* \"#utility.yul\":501:779   */\n          pop\n            /* \"#utility.yul\":439:779   */\n          swap3\n          swap2\n          pop\n          pop\n          jump\t// out\n            /* \"#utility.yul\":785:924   */\n        tag_55:\n            /* \"#utility.yul\":831:836   */\n          0x00\n            /* \"#utility.yul\":869:875   */\n          dup2\n            /* \"#utility.yul\":856:876   */\n          calldataload\n            /* \"#utility.yul\":847:876   */\n          swap1\n          pop\n            /* \"#utility.yul\":885:918   */\n          tag_57\n            /* \"#utility.yul\":912:917   */\n          dup2\n            /* \"#utility.yul\":885:918   */\n          tag_58\n          jump\t// in\n        tag_57:\n            /* \"#utility.yul\":785:924   */\n          swap3\n          swap2\n          pop\n          pop\n          jump\t// out\n            /* \"#utility.yul\":930:1584   */\n        tag_16:\n            /* \"#utility.yul\":1008:1014   */\n          0x00\n            /* \"#utility.yul\":1016:1022   */\n          dup1\n            /* \"#utility.yul\":1065:1067   */\n          0x40\n            /* \"#utility.yul\":1053:1062   */\n          dup4\n            /* \"#utility.yul\":1044:1051   */\n          dup6\n            /* \"#utility.yul\":1040:1063   */\n          sub\n            /* \"#utility.yul\":1036:1068   */\n          slt\n            /* \"#utility.yul\":1033:1152   */\n          iszero\n          tag_60\n          jumpi\n            /* \"#utility.yul\":1071:1150   */\n          tag_61\n          tag_62\n          jump\t// in\n        tag_61:\n            /* \"#utility.yul\":1033:1152   */\n        tag_60:\n            /* \"#utility.yul\":1219:1220   */\n          0x00\n            /* \"#utility.yul\":1208:1217   */\n          dup4\n            /* \"#utility.yul\":1204:1221   */\n          add\n            /* \"#utility.yul\":1191:1222   */\n          calldataload\n            /* \"#utility.yul\":1249:1267   */\n          0xffffffffffffffff\n            /* \"#utility.yul\":1241:1247   */\n          dup2\n            /* \"#utility.yul\":1238:1268   */\n          gt\n            /* \"#utility.yul\":1235:1352   */\n          iszero\n          tag_63\n          jumpi\n            /* \"#utility.yul\":1271:1350   */\n          tag_64\n          tag_65\n          jump\t// in\n        tag_64:\n            /* \"#utility.yul\":1235:1352   */\n        tag_63:\n            /* \"#utility.yul\":1376:1439   */\n          tag_66\n            /* \"#utility.yul\":1431:1438   */\n          dup6\n            /* \"#utility.yul\":1422:1428   */\n          dup3\n            /* \"#utility.yul\":1411:1420   */\n          dup7\n            /* \"#utility.yul\":1407:1429   */\n          add\n            /* \"#utility.yul\":1376:1439   */\n          tag_49\n          jump\t// in\n        tag_66:\n            /* \"#utility.yul\":1366:1439   */\n          swap3\n          pop\n            /* \"#utility.yul\":1162:1449   */\n          pop\n            /* \"#utility.yul\":1488:1490   */\n          0x20\n            /* \"#utility.yul\":1514:1567   */\n          tag_67\n            /* \"#utility.yul\":1559:1566   */\n          dup6\n            /* \"#utility.yul\":1550:1556   */\n          dup3\n            /* \"#utility.yul\":1539:1548   */\n          dup7\n            /* \"#utility.yul\":1535:1557   */\n          add\n            /* \"#utility.yul\":1514:1567   */\n          tag_55\n          jump\t// in\n        tag_67:\n            /* \"#utility.yul\":1504:1567   */\n          swap2\n          pop\n            /* \"#utility.yul\":1459:1577   */\n          pop\n            /* \"#utility.yul\":930:1584   */\n          swap3\n          pop\n          swap3\n          swap1\n          pop\n          jump\t// out\n            /* \"#utility.yul\":1590:1954   */\n        tag_68:\n            /* \"#utility.yul\":1678:1681   */\n          0x00\n            /* \"#utility.yul\":1706:1745   */\n          tag_70\n            /* \"#utility.yul\":1739:1744   */\n          dup3\n            /* \"#utility.yul\":1706:1745   */\n          tag_71\n          jump\t// in\n        tag_70:\n            /* \"#utility.yul\":1761:1832   */\n          tag_72\n            /* \"#utility.yul\":1825:1831   */\n          dup2\n            /* \"#utility.yul\":1820:1823   */\n          dup6\n            /* \"#utility.yul\":1761:1832   */\n          tag_73\n          jump\t// in\n        tag_72:\n            /* \"#utility.yul\":1754:1832   */\n          swap4\n          pop\n            /* \"#utility.yul\":1841:1893   */\n          tag_74\n            /* \"#utility.yul\":1886:1892   */\n          dup2\n            /* \"#utility.yul\":1881:1884   */\n          dup6\n            /* \"#utility.yul\":1874:1878   */\n          0x20\n            /* \"#utility.yul\":1867:1872   */\n          dup7\n            /* \"#utility.yul\":1863:1879   */\n          add\n            /* \"#utility.yul\":1841:1893   */\n          tag_75\n          jump\t// in\n        tag_74:\n            /* \"#utility.yul\":1918:1947   */\n          tag_76\n            /* \"#utility.yul\":1940:1946   */\n          dup2\n            /* \"#utility.yul\":1918:1947   */\n          tag_77\n          jump\t// in\n        tag_76:\n            /* \"#utility.yul\":1913:1916   */\n          dup5\n            /* \"#utility.yul\":1909:1948   */\n          add\n            /* \"#utility.yul\":1902:1948   */\n          swap2\n          pop\n            /* \"#utility.yul\":1682:1954   */\n          pop\n            /* \"#utility.yul\":1590:1954   */\n          swap3\n          swap2\n          pop\n          pop\n          jump\t// out\n            /* \"#utility.yul\":1960:2078   */\n        tag_78:\n            /* \"#utility.yul\":2047:2071   */\n          tag_80\n            /* \"#utility.yul\":2065:2070   */\n          dup2\n            /* \"#utility.yul\":2047:2071   */\n          tag_81\n          jump\t// in\n        tag_80:\n            /* \"#utility.yul\":2042:2045   */\n          dup3\n            /* \"#utility.yul\":2035:2072   */\n          mstore\n            /* \"#utility.yul\":1960:2078   */\n          pop\n          pop\n          jump\t// out\n            /* \"#utility.yul\":2084:2397   */\n        tag_9:\n            /* \"#utility.yul\":2197:2201   */\n          0x00\n            /* \"#utility.yul\":2235:2237   */\n          0x20\n            /* \"#utility.yul\":2224:2233   */\n          dup3\n            /* \"#utility.yul\":2220:2238   */\n          add\n            /* \"#utility.yul\":2212:2238   */\n          swap1\n          pop\n            /* \"#utility.yul\":2284:2293   */\n          dup2\n            /* \"#utility.yul\":2278:2282   */\n          dup2\n            /* \"#utility.yul\":2274:2294   */\n          sub\n            /* \"#utility.yul\":2270:2271   */\n          0x00\n            /* \"#utility.yul\":2259:2268   */\n          dup4\n            /* \"#utility.yul\":2255:2272   */\n          add\n            /* \"#utility.yul\":2248:2295   */\n          mstore\n            /* \"#utility.yul\":2312:2390   */\n          tag_83\n            /* \"#utility.yul\":2385:2389   */\n          dup2\n            /* \"#utility.yul\":2376:2382   */\n          dup5\n            /* \"#utility.yul\":2312:2390   */\n          tag_68\n          jump\t// in\n        tag_83:\n            /* \"#utility.yul\":2304:2390   */\n          swap1\n          pop\n            /* \"#utility.yul\":2084:2397   */\n          swap3\n          swap2\n          pop\n          pop\n          jump\t// out\n            /* \"#utility.yul\":2403:2625   */\n        tag_13:\n            /* \"#utility.yul\":2496:2500   */\n          0x00\n            /* \"#utility.yul\":2534:2536   */\n          0x20\n            /* \"#utility.yul\":2523:2532   */\n          dup3\n            /* \"#utility.yul\":2519:2537   */\n          add\n            /* \"#utility.yul\":2511:2537   */\n          swap1\n          pop\n            /* \"#utility.yul\":2547:2618   */\n          tag_85\n            /* \"#utility.yul\":2615:2616   */\n          0x00\n            /* \"#utility.yul\":2604:2613   */\n          dup4\n            /* \"#utility.yul\":2600:2617   */\n          add\n            /* \"#utility.yul\":2591:2597   */\n          dup5\n            /* \"#utility.yul\":2547:2618   */\n          tag_78\n          jump\t// in\n        tag_85:\n            /* \"#utility.yul\":2403:2625   */\n          swap3\n          swap2\n          pop\n          pop\n          jump\t// out\n            /* \"#utility.yul\":2631:2760   */\n        tag_43:\n            /* \"#utility.yul\":2665:2671   */\n          0x00\n            /* \"#utility.yul\":2692:2712   */\n          tag_87\n          tag_88\n          jump\t// in\n        tag_87:\n            /* \"#utility.yul\":2682:2712   */\n          swap1\n          pop\n            /* \"#utility.yul\":2721:2754   */\n          tag_89\n            /* \"#utility.yul\":2749:2753   */\n          dup3\n            /* \"#utility.yul\":2741:2747   */\n          dup3\n            /* \"#utility.yul\":2721:2754   */\n          tag_90\n          jump\t// in\n        tag_89:\n            /* \"#utility.yul\":2631:2760   */\n          swap2\n          swap1\n          pop\n          jump\t// out\n            /* \"#utility.yul\":2766:2841   */\n        tag_88:\n            /* \"#utility.yul\":2799:2805   */\n          0x00\n            /* \"#utility.yul\":2832:2834   */\n          0x40\n            /* \"#utility.yul\":2826:2835   */\n          mload\n            /* \"#utility.yul\":2816:2835   */\n          swap1\n          pop\n            /* \"#utility.yul\":2766:2841   */\n          swap1\n          jump\t// out\n            /* \"#utility.yul\":2847:3155   */\n        tag_42:\n            /* \"#utility.yul\":2909:2913   */\n          0x00\n            /* \"#utility.yul\":2999:3017   */\n          0xffffffffffffffff\n            /* \"#utility.yul\":2991:2997   */\n          dup3\n            /* \"#utility.yul\":2988:3018   */\n          gt\n            /* \"#utility.yul\":2985:3041   */\n          iszero\n          tag_93\n          jumpi\n            /* \"#utility.yul\":3021:3039   */\n          tag_94\n          tag_95\n          jump\t// in\n        tag_94:\n            /* \"#utility.yul\":2985:3041   */\n        tag_93:\n            /* \"#utility.yul\":3059:3088   */\n          tag_96\n            /* \"#utility.yul\":3081:3087   */\n          dup3\n            /* \"#utility.yul\":3059:3088   */\n          tag_77\n          jump\t// in\n        tag_96:\n            /* \"#utility.yul\":3051:3088   */\n          swap1\n          pop\n            /* \"#utility.yul\":3143:3147   */\n          0x20\n            /* \"#utility.yul\":3137:3141   */\n          dup2\n            /* \"#utility.yul\":3133:3148   */\n          add\n            /* \"#utility.yul\":3125:3148   */\n          swap1\n          pop\n            /* \"#utility.yul\":2847:3155   */\n          swap2\n          swap1\n          pop\n          jump\t// out\n            /* \"#utility.yul\":3161:3260   */\n        tag_71:\n            /* \"#utility.yul\":3213:3219   */\n          0x00\n            /* \"#utility.yul\":3247:3252   */\n          dup2\n            /* \"#utility.yul\":3241:3253   */\n          mload\n            /* \"#utility.yul\":3231:3253   */\n          swap1\n          pop\n            /* \"#utility.yul\":3161:3260   */\n          swap2\n          swap1\n          pop\n          jump\t// out\n            /* \"#utility.yul\":3266:3435   */\n        tag_73:\n            /* \"#utility.yul\":3350:3361   */\n          0x00\n            /* \"#utility.yul\":3384:3390   */\n          dup3\n            /* \"#utility.yul\":3379:3382   */\n          dup3\n            /* \"#utility.yul\":3372:3391   */\n          mstore\n            /* \"#utility.yul\":3424:3428   */\n          0x20\n            /* \"#utility.yul\":3419:3422   */\n          dup3\n            /* \"#utility.yul\":3415:3429   */\n          add\n            /* \"#utility.yul\":3400:3429   */\n          swap1\n          pop\n            /* \"#utility.yul\":3266:3435   */\n          swap3\n          swap2\n          pop\n          pop\n          jump\t// out\n            /* \"#utility.yul\":3441:3518   */\n        tag_81:\n            /* \"#utility.yul\":3478:3485   */\n          0x00\n            /* \"#utility.yul\":3507:3512   */\n          dup2\n            /* \"#utility.yul\":3496:3512   */\n          swap1\n          pop\n            /* \"#utility.yul\":3441:3518   */\n          swap2\n          swap1\n          pop\n          jump\t// out\n            /* \"#utility.yul\":3524:3678   */\n        tag_48:\n            /* \"#utility.yul\":3608:3614   */\n          dup3\n            /* \"#utility.yul\":3603:3606   */\n          dup2\n            /* \"#utility.yul\":3598:3601   */\n          dup4\n            /* \"#utility.yul\":3585:3615   */\n          calldatacopy\n            /* \"#utility.yul\":3670:3671   */\n          0x00\n            /* \"#utility.yul\":3661:3667   */\n          dup4\n            /* \"#utility.yul\":3656:3659   */\n          dup4\n            /* \"#utility.yul\":3652:3668   */\n          add\n            /* \"#utility.yul\":3645:3672   */\n          mstore\n            /* \"#utility.yul\":3524:3678   */\n          pop\n          pop\n          pop\n          jump\t// out\n            /* \"#utility.yul\":3684:3991   */\n        tag_75:\n            /* \"#utility.yul\":3752:3753   */\n          0x00\n            /* \"#utility.yul\":3762:3875   */\n        tag_102:\n            /* \"#utility.yul\":3776:3782   */\n          dup4\n            /* \"#utility.yul\":3773:3774   */\n          dup2\n            /* \"#utility.yul\":3770:3783   */\n          lt\n            /* \"#utility.yul\":3762:3875   */\n          iszero\n          tag_104\n          jumpi\n            /* \"#utility.yul\":3861:3862   */\n          dup1\n            /* \"#utility.yul\":3856:3859   */\n          dup3\n            /* \"#utility.yul\":3852:3863   */\n          add\n            /* \"#utility.yul\":3846:3864   */\n          mload\n            /* \"#utility.yul\":3842:3843   */\n          dup2\n            /* \"#utility.yul\":3837:3840   */\n          dup5\n            /* \"#utility.yul\":3833:3844   */\n          add\n            /* \"#utility.yul\":3826:3865   */\n          mstore\n            /* \"#utility.yul\":3798:3800   */\n          0x20\n            /* \"#utility.yul\":3795:3796   */\n          dup2\n            /* \"#utility.yul\":3791:3801   */\n          add\n            /* \"#utility.yul\":3786:3801   */\n          swap1\n          pop\n            /* \"#utility.yul\":3762:3875   */\n          jump(tag_102)\n        tag_104:\n            /* \"#utility.yul\":3893:3899   */\n          dup4\n            /* \"#utility.yul\":3890:3891   */\n          dup2\n            /* \"#utility.yul\":3887:3900   */\n          gt\n            /* \"#utility.yul\":3884:3985   */\n          iszero\n          tag_105\n          jumpi\n            /* \"#utility.yul\":3973:3974   */\n          0x00\n            /* \"#utility.yul\":3964:3970   */\n          dup5\n            /* \"#utility.yul\":3959:3962   */\n          dup5\n            /* \"#utility.yul\":3955:3971   */\n          add\n            /* \"#utility.yul\":3948:3975   */\n          mstore\n            /* \"#utility.yul\":3884:3985   */\n        tag_105:\n            /* \"#utility.yul\":3733:3991   */\n          pop\n            /* \"#utility.yul\":3684:3991   */\n          pop\n          pop\n          pop\n          jump\t// out\n            /* \"#utility.yul\":3997:4317   */\n        tag_19:\n            /* \"#utility.yul\":4041:4047   */\n          0x00\n            /* \"#utility.yul\":4078:4079   */\n          0x02\n            /* \"#utility.yul\":4072:4076   */\n          dup3\n            /* \"#utility.yul\":4068:4080   */\n          div\n            /* \"#utility.yul\":4058:4080   */\n          swap1\n          pop\n            /* \"#utility.yul\":4125:4126   */\n          0x01\n            /* \"#utility.yul\":4119:4123   */\n          dup3\n            /* \"#utility.yul\":4115:4127   */\n          and\n            /* \"#utility.yul\":4146:4164   */\n          dup1\n            /* \"#utility.yul\":4136:4217   */\n          tag_107\n          jumpi\n            /* \"#utility.yul\":4202:4206   */\n          0x7f\n            /* \"#utility.yul\":4194:4200   */\n          dup3\n            /* \"#utility.yul\":4190:4207   */\n          and\n            /* \"#utility.yul\":4180:4207   */\n          swap2\n          pop\n            /* \"#utility.yul\":4136:4217   */\n        tag_107:\n            /* \"#utility.yul\":4264:4266   */\n          0x20\n            /* \"#utility.yul\":4256:4262   */\n          dup3\n            /* \"#utility.yul\":4253:4267   */\n          lt\n            /* \"#utility.yul\":4233:4251   */\n          dup2\n            /* \"#utility.yul\":4230:4268   */\n          eq\n            /* \"#utility.yul\":4227:4311   */\n          iszero\n          tag_108\n          jumpi\n            /* \"#utility.yul\":4283:4301   */\n          tag_109\n          tag_110\n          jump\t// in\n        tag_109:\n            /* \"#utility.yul\":4227:4311   */\n        tag_108:\n            /* \"#utility.yul\":4048:4317   */\n          pop\n            /* \"#utility.yul\":3997:4317   */\n          swap2\n          swap1\n          pop\n          jump\t// out\n            /* \"#utility.yul\":4323:4604   */\n        tag_90:\n            /* \"#utility.yul\":4406:4433   */\n          tag_112\n            /* \"#utility.yul\":4428:4432   */\n          dup3\n            /* \"#utility.yul\":4406:4433   */\n          tag_77\n          jump\t// in\n        tag_112:\n            /* \"#utility.yul\":4398:4404   */\n          dup2\n            /* \"#utility.yul\":4394:4434   */\n          add\n            /* \"#utility.yul\":4536:4542   */\n          dup2\n            /* \"#utility.yul\":4524:4534   */\n          dup2\n            /* \"#utility.yul\":4521:4543   */\n          lt\n            /* \"#utility.yul\":4500:4518   */\n          0xffffffffffffffff\n            /* \"#utility.yul\":4488:4498   */\n          dup3\n            /* \"#utility.yul\":4485:4519   */\n          gt\n            /* \"#utility.yul\":4482:4544   */\n          or\n            /* \"#utility.yul\":4479:4567   */\n          iszero\n          tag_113\n          jumpi\n            /* \"#utility.yul\":4547:4565   */\n          tag_114\n          tag_95\n          jump\t// in\n        tag_114:\n            /* \"#utility.yul\":4479:4567   */\n        tag_113:\n            /* \"#utility.yul\":4587:4597   */\n          dup1\n            /* \"#utility.yul\":4583:4585   */\n          0x40\n            /* \"#utility.yul\":4576:4598   */\n          mstore\n            /* \"#utility.yul\":4366:4604   */\n          pop\n            /* \"#utility.yul\":4323:4604   */\n          pop\n          pop\n          jump\t// out\n            /* \"#utility.yul\":4610:4790   */\n        tag_110:\n            /* \"#utility.yul\":4658:4735   */\n          0x4e487b7100000000000000000000000000000000000000000000000000000000\n            /* \"#utility.yul\":4655:4656   */\n          0x00\n            /* \"#utility.yul\":4648:4736   */\n          mstore\n            /* \"#utility.yul\":4755:4759   */\n          0x22\n            /* \"#utility.yul\":4752:4753   */\n          0x04\n            /* \"#utility.yul\":4745:4760   */\n          mstore\n            /* \"#utility.yul\":4779:4783   */\n          0x24\n            /* \"#utility.yul\":4776:4777   */\n          0x00\n            /* \"#utility.yul\":4769:4784   */\n          revert\n            /* \"#utility.yul\":4796:4976   */\n        tag_95:\n            /* \"#utility.yul\":4844:4921   */\n          0x4e487b7100000000000000000000000000000000000000000000000000000000\n            /* \"#utility.yul\":4841:4842   */\n          0x00\n            /* \"#utility.yul\":4834:4922   */\n          mstore\n            /* \"#utility.yul\":4941:4945   */\n          0x41\n            /* \"#utility.yul\":4938:4939   */\n          0x04\n            /* \"#utility.yul\":4931:4946   */\n          mstore\n            /* \"#utility.yul\":4965:4969   */\n          0x24\n            /* \"#utility.yul\":4962:4963   */\n          0x00\n            /* \"#utility.yul\":4955:4970   */\n          revert\n            /* \"#utility.yul\":4982:5099   */\n        tag_53:\n            /* \"#utility.yul\":5091:5092   */\n          0x00\n            /* \"#utility.yul\":5088:5089   */\n          dup1\n            /* \"#utility.yul\":5081:5093   */\n          revert\n            /* \"#utility.yul\":5105:5222   */\n        tag_46:\n            /* \"#utility.yul\":5214:5215   */\n          0x00\n            /* \"#utility.yul\":5211:5212   */\n          dup1\n            /* \"#utility.yul\":5204:5216   */\n          revert\n            /* \"#utility.yul\":5228:5345   */\n        tag_65:\n            /* \"#utility.yul\":5337:5338   */\n          0x00\n            /* \"#utility.yul\":5334:5335   */\n          dup1\n            /* \"#utility.yul\":5327:5339   */\n          revert\n            /* \"#utility.yul\":5351:5468   */\n        tag_62:\n            /* \"#utility.yul\":5460:5461   */\n          0x00\n            /* \"#utility.yul\":5457:5458   */\n          dup1\n            /* \"#utility.yul\":5450:5462   */\n          revert\n            /* \"#utility.yul\":5474:5576   */\n        tag_77:\n            /* \"#utility.yul\":5515:5521   */\n          0x00\n            /* \"#utility.yul\":5566:5568   */\n          0x1f\n            /* \"#utility.yul\":5562:5569   */\n          not\n            /* \"#utility.yul\":5557:5559   */\n          0x1f\n            /* \"#utility.yul\":5550:5555   */\n          dup4\n            /* \"#utility.yul\":5546:5560   */\n          add\n            /* \"#utility.yul\":5542:5570   */\n          and\n            /* \"#utility.yul\":5532:5570   */\n          swap1\n          pop\n            /* \"#utility.yul\":5474:5576   */\n          swap2\n          swap1\n          pop\n          jump\t// out\n            /* \"#utility.yul\":5582:5704   */\n        tag_58:\n            /* \"#utility.yul\":5655:5679   */\n          tag_123\n            /* \"#utility.yul\":5673:5678   */\n          dup2\n            /* \"#utility.yul\":5655:5679   */\n          tag_81\n          jump\t// in\n        tag_123:\n            /* \"#utility.yul\":5648:5653   */\n          dup2\n            /* \"#utility.yul\":5645:5680   */\n          eq\n            /* \"#utility.yul\":5635:5698   */\n          tag_124\n          jumpi\n            /* \"#utility.yul\":5694:5695   */\n          0x00\n            /* \"#utility.yul\":5691:5692   */\n          dup1\n            /* \"#utility.yul\":5684:5696   */\n          revert\n            /* \"#utility.yul\":5635:5698   */\n        tag_124:\n            /* \"#utility.yul\":5582:5704   */\n          pop\n          jump\t// out\n\n        auxdata: 0xa26469706673582212206b61fb99ad66b27246568941c5fd2b024efe38fdd0830ca239cbcdd32205339664736f6c63430008070033\n    }\n}\n",
				"bytecode": {
					"linkReferences": {},
					"object": "6080604052602a6040516100129061008a565b61001c91906100c9565b604051809103906000f080158015610038573d6000803e3d6000fd5b506000806101000a81548173ffffffffffffffffffffffffffffffffffffffff021916908373ffffffffffffffffffffffffffffffffffffffff16021790555034801561008457600080fd5b5061014d565b6109108061070883390190565b6100a081610112565b82525050565b60006100b36004836100f7565b91506100be82610124565b602082019050919050565b600060408201905081810360008301526100e2816100a6565b90506100f16020830184610097565b92915050565b600082825260208201905092915050565b6000819050919050565b600061011d82610108565b9050919050565b7f4a69686f00000000000000000000000000000000000000000000000000000000600082015250565b6105ac8061015c6000396000f3fe608060405234801561001057600080fd5b50600436106100365760003560e01c80636d4ce63c1461003b5780636d806b1e1461005a575b600080fd5b610043610076565b6040516100519291906103ec565b60405180910390f35b610074600480360381019061006f919061031b565b6101c4565b005b606060008060009054906101000a900473ffffffffffffffffffffffffffffffffffffffff1673ffffffffffffffffffffffffffffffffffffffff166306fdde036040518163ffffffff1660e01b815260040160006040518083038186803b1580156100e157600080fd5b505afa1580156100f5573d6000803e3d6000fd5b505050506040513d6000823e3d601f19601f8201168201806040525081019061011e91906102d2565b60008054906101000a900473ffffffffffffffffffffffffffffffffffffffff1673ffffffffffffffffffffffffffffffffffffffff1663262a9dff6040518163ffffffff1660e01b815260040160206040518083038186803b15801561018457600080fd5b505afa158015610198573d6000803e3d6000fd5b505050506040513d601f19601f820116820180604052508101906101bc9190610377565b915091509091565b5050565b60006101db6101d684610441565b61041c565b9050828152602081018484840111156101f7576101f661053f565b5b610202848285610498565b509392505050565b600061021d61021884610441565b61041c565b9050828152602081018484840111156102395761023861053f565b5b6102448482856104a7565b509392505050565b600082601f8301126102615761026061053a565b5b81356102718482602086016101c8565b91505092915050565b600082601f83011261028f5761028e61053a565b5b815161029f84826020860161020a565b91505092915050565b6000813590506102b78161055f565b92915050565b6000815190506102cc8161055f565b92915050565b6000602082840312156102e8576102e7610549565b5b600082015167ffffffffffffffff81111561030657610305610544565b5b6103128482850161027a565b91505092915050565b6000806040838503121561033257610331610549565b5b600083013567ffffffffffffffff8111156103505761034f610544565b5b61035c8582860161024c565b925050602061036d858286016102a8565b9150509250929050565b60006020828403121561038d5761038c610549565b5b600061039b848285016102bd565b91505092915050565b60006103af82610472565b6103b9818561047d565b93506103c98185602086016104a7565b6103d28161054e565b840191505092915050565b6103e68161048e565b82525050565b6000604082019050818103600083015261040681856103a4565b905061041560208301846103dd565b9392505050565b6000610426610437565b905061043282826104da565b919050565b6000604051905090565b600067ffffffffffffffff82111561045c5761045b61050b565b5b6104658261054e565b9050602081019050919050565b600081519050919050565b600082825260208201905092915050565b6000819050919050565b82818337600083830152505050565b60005b838110156104c55780820151818401526020810190506104aa565b838111156104d4576000848401525b50505050565b6104e38261054e565b810181811067ffffffffffffffff821117156105025761050161050b565b5b80604052505050565b7f4e487b7100000000000000000000000000000000000000000000000000000000600052604160045260246000fd5b600080fd5b600080fd5b600080fd5b600080fd5b6000601f19601f8301169050919050565b6105688161048e565b811461057357600080fd5b5056fea2646970667358221220ba700b77e016393307dd5320e6831c0b2371116a60120730c96403fbe26bb9e864736f6c6343000807003360806040523480156200001157600080fd5b5060405162000910380380620009108339818101604052810190620000379190620001a4565b81600090805190602001906200004f9291906200005f565b50806001819055505050620003b2565b8280546200006d90620002a9565b90600052602060002090601f016020900481019282620000915760008555620000dd565b82601f10620000ac57805160ff1916838001178555620000dd565b82800160010185558215620000dd579182015b82811115620000dc578251825591602001919060010190620000bf565b5b509050620000ec9190620000f0565b5090565b5b808211156200010b576000816000905550600101620000f1565b5090565b600062000126620001208462000233565b6200020a565b90508281526020810184848401111562000145576200014462000378565b5b6200015284828562000273565b509392505050565b600082601f83011262000172576200017162000373565b5b8151620001848482602086016200010f565b91505092915050565b6000815190506200019e8162000398565b92915050565b60008060408385031215620001be57620001bd62000382565b5b600083015167ffffffffffffffff811115620001df57620001de6200037d565b5b620001ed858286016200015a565b925050602062000200858286016200018d565b9150509250929050565b60006200021662000229565b9050620002248282620002df565b919050565b6000604051905090565b600067ffffffffffffffff82111562000251576200025062000344565b5b6200025c8262000387565b9050602081019050919050565b6000819050919050565b60005b838110156200029357808201518184015260208101905062000276565b83811115620002a3576000848401525b50505050565b60006002820490506001821680620002c257607f821691505b60208210811415620002d957620002d862000315565b5b50919050565b620002ea8262000387565b810181811067ffffffffffffffff821117156200030c576200030b62000344565b5b80604052505050565b7f4e487b7100000000000000000000000000000000000000000000000000000000600052602260045260246000fd5b7f4e487b7100000000000000000000000000000000000000000000000000000000600052604160045260246000fd5b600080fd5b600080fd5b600080fd5b600080fd5b6000601f19601f8301169050919050565b620003a38162000269565b8114620003af57600080fd5b50565b61054e80620003c26000396000f3fe608060405234801561001057600080fd5b50600436106100415760003560e01c806306fdde0314610046578063262a9dff146100645780636d806b1e14610082575b600080fd5b61004e61009e565b60405161005b9190610320565b60405180910390f35b61006c61012c565b6040516100799190610342565b60405180910390f35b61009c6004803603810190610097919061027c565b610132565b005b600080546100ab9061041b565b80601f01602080910402602001604051908101604052809291908181526020018280546100d79061041b565b80156101245780601f106100f957610100808354040283529160200191610124565b820191906000526020600020905b81548152906001019060200180831161010757829003601f168201915b505050505081565b60015481565b8160009080519060200190610148929190610154565b50806001819055505050565b8280546101609061041b565b90600052602060002090601f01602090048101928261018257600085556101c9565b82601f1061019b57805160ff19168380011785556101c9565b828001600101855582156101c9579182015b828111156101c85782518255916020019190600101906101ad565b5b5090506101d691906101da565b5090565b5b808211156101f35760008160009055506001016101db565b5090565b600061020a61020584610382565b61035d565b905082815260208101848484011115610226576102256104e1565b5b6102318482856103d9565b509392505050565b600082601f83011261024e5761024d6104dc565b5b813561025e8482602086016101f7565b91505092915050565b60008135905061027681610501565b92915050565b60008060408385031215610293576102926104eb565b5b600083013567ffffffffffffffff8111156102b1576102b06104e6565b5b6102bd85828601610239565b92505060206102ce85828601610267565b9150509250929050565b60006102e3826103b3565b6102ed81856103be565b93506102fd8185602086016103e8565b610306816104f0565b840191505092915050565b61031a816103cf565b82525050565b6000602082019050818103600083015261033a81846102d8565b905092915050565b60006020820190506103576000830184610311565b92915050565b6000610367610378565b9050610373828261044d565b919050565b6000604051905090565b600067ffffffffffffffff82111561039d5761039c6104ad565b5b6103a6826104f0565b9050602081019050919050565b600081519050919050565b600082825260208201905092915050565b6000819050919050565b82818337600083830152505050565b60005b838110156104065780820151818401526020810190506103eb565b83811115610415576000848401525b50505050565b6000600282049050600182168061043357607f821691505b602082108114156104475761044661047e565b5b50919050565b610456826104f0565b810181811067ffffffffffffffff82111715610475576104746104ad565b5b80604052505050565b7f4e487b7100000000000000000000000000000000000000000000000000000000600052602260045260246000fd5b7f4e487b7100000000000000000000000000000000000000000000000000000000600052604160045260246000fd5b600080fd5b600080fd5b600080fd5b600080fd5b6000601f19601f8301169050919050565b61050a816103cf565b811461051557600080fd5b5056fea26469706673582212206b61fb99ad66b27246568941c5fd2b024efe38fdd0830ca239cbcdd32205339664736f6c63430008070033",
					"opcodes": "PUSH1 0x80 PUSH1 0x40 MSTORE PUSH1 0x2A PUSH1 0x40 MLOAD PUSH2 0x12 SWAP1 PUSH2 0x8A JUMP JUMPDEST PUSH2 0x1C SWAP2 SWAP1 PUSH2 0xC9 JUMP JUMPDEST PUSH1 0x40 MLOAD DUP1 SWAP2 SUB SWAP1 PUSH1 0x0 CREATE DUP1 ISZERO DUP1 ISZERO PUSH2 0x38 JUMPI RETURNDATASIZE PUSH1 0x0 DUP1 RETURNDATACOPY RETURNDATASIZE PUSH1 0x0 REVERT JUMPDEST POP PUSH1 0x0 DUP1 PUSH2 0x100 EXP DUP2 SLOAD DUP2 PUSH20 0xFFFFFFFFFFFFFFFFFFFFFFFFFFFFFFFFFFFFFFFF MUL NOT AND SWAP1 DUP4 PUSH20 0xFFFFFFFFFFFFFFFFFFFFFFFFFFFFFFFFFFFFFFFF AND MUL OR SWAP1 SSTORE POP CALLVALUE DUP1 ISZERO PUSH2 0x84 JUMPI PUSH1 0x0 DUP1 REVERT JUMPDEST POP PUSH2 0x14D JUMP JUMPDEST PUSH2 0x910 DUP1 PUSH2 0x708 DUP4 CODECOPY ADD SWAP1 JUMP JUMPDEST PUSH2 0xA0 DUP2 PUSH2 0x112 JUMP JUMPDEST DUP3 MSTORE POP POP JUMP JUMPDEST PUSH1 0x0 PUSH2 0xB3 PUSH1 0x4 DUP4 PUSH2 0xF7 JUMP JUMPDEST SWAP2 POP PUSH2 0xBE DUP3 PUSH2 0x124 JUMP JUMPDEST PUSH1 0x20 DUP3 ADD SWAP1 POP SWAP2 SWAP1 POP JUMP JUMPDEST PUSH1 0x0 PUSH1 0x40 DUP3 ADD SWAP1 POP DUP2 DUP2 SUB PUSH1 0x0 DUP4 ADD MSTORE PUSH2 0xE2 DUP2 PUSH2 0xA6 JUMP JUMPDEST SWAP1 POP PUSH2 0xF1 PUSH1 0x20 DUP4 ADD DUP5 PUSH2 0x97 JUMP JUMPDEST SWAP3 SWAP2 POP POP JUMP JUMPDEST PUSH1 0x0 DUP3 DUP3 MSTORE PUSH1 0x20 DUP3 ADD SWAP1 POP SWAP3 SWAP2 POP POP JUMP JUMPDEST PUSH1 0x0 DUP2 SWAP1 POP SWAP2 SWAP1 POP JUMP JUMPDEST PUSH1 0x0 PUSH2 0x11D DUP3 PUSH2 0x108 JUMP JUMPDEST SWAP1 POP SWAP2 SWAP1 POP JUMP JUMPDEST PUSH32 0x4A69686F00000000000000000000000000000000000000000000000000000000 PUSH1 0x0 DUP3 ADD MSTORE POP JUMP JUMPDEST PUSH2 0x5AC DUP1 PUSH2 0x15C PUSH1 0x0 CODECOPY PUSH1 0x0 RETURN INVALID PUSH1 0x80 PUSH1 0x40 MSTORE CALLVALUE DUP1 ISZERO PUSH2 0x10 JUMPI PUSH1 0x0 DUP1 REVERT JUMPDEST POP PUSH1 0x4 CALLDATASIZE LT PUSH2 0x36 JUMPI PUSH1 0x0 CALLDATALOAD PUSH1 0xE0 SHR DUP1 PUSH4 0x6D4CE63C EQ PUSH2 0x3B JUMPI DUP1 PUSH4 0x6D806B1E EQ PUSH2 0x5A JUMPI JUMPDEST PUSH1 0x0 DUP1 REVERT JUMPDEST PUSH2 0x43 PUSH2 0x76 JUMP JUMPDEST PUSH1 0x40 MLOAD PUSH2 0x51 SWAP3 SWAP2 SWAP1 PUSH2 0x3EC JUMP JUMPDEST PUSH1 0x40 MLOAD DUP1 SWAP2 SUB SWAP1 RETURN JUMPDEST PUSH2 0x74 PUSH1 0x4 DUP1 CALLDATASIZE SUB DUP2 ADD SWAP1 PUSH2 0x6F SWAP2 SWAP1 PUSH2 0x31B JUMP JUMPDEST PUSH2 0x1C4 JUMP JUMPDEST STOP JUMPDEST PUSH1 0x60 PUSH1 0x0 DUP1 PUSH1 0x0 SWAP1 SLOAD SWAP1 PUSH2 0x100 EXP SWAP1 DIV PUSH20 0xFFFFFFFFFFFFFFFFFFFFFFFFFFFFFFFFFFFFFFFF AND PUSH20 0xFFFFFFFFFFFFFFFFFFFFFFFFFFFFFFFFFFFFFFFF AND PUSH4 0x6FDDE03 PUSH1 0x40 MLOAD DUP2 PUSH4 0xFFFFFFFF AND PUSH1 0xE0 SHL DUP2 MSTORE PUSH1 0x4 ADD PUSH1 0x0 PUSH1 0x40 MLOAD DUP1 DUP4 SUB DUP2 DUP7 DUP1 EXTCODESIZE ISZERO DUP1 ISZERO PUSH2 0xE1 JUMPI PUSH1 0x0 DUP1 REVERT JUMPDEST POP GAS STATICCALL ISZERO DUP1 ISZERO PUSH2 0xF5 JUMPI RETURNDATASIZE PUSH1 0x0 DUP1 RETURNDATACOPY RETURNDATASIZE PUSH1 0x0 REVERT JUMPDEST POP POP POP POP PUSH1 0x40 MLOAD RETURNDATASIZE PUSH1 0x0 DUP3 RETURNDATACOPY RETURNDATASIZE PUSH1 0x1F NOT PUSH1 0x1F DUP3 ADD AND DUP3 ADD DUP1 PUSH1 0x40 MSTORE POP DUP2 ADD SWAP1 PUSH2 0x11E SWAP2 SWAP1 PUSH2 0x2D2 JUMP JUMPDEST PUSH1 0x0 DUP1 SLOAD SWAP1 PUSH2 0x100 EXP SWAP1 DIV PUSH20 0xFFFFFFFFFFFFFFFFFFFFFFFFFFFFFFFFFFFFFFFF AND PUSH20 0xFFFFFFFFFFFFFFFFFFFFFFFFFFFFFFFFFFFFFFFF AND PUSH4 0x262A9DFF PUSH1 0x40 MLOAD DUP2 PUSH4 0xFFFFFFFF AND PUSH1 0xE0 SHL DUP2 MSTORE PUSH1 0x4 ADD PUSH1 0x20 PUSH1 0x40 MLOAD DUP1 DUP4 SUB DUP2 DUP7 DUP1 EXTCODESIZE ISZERO DUP1 ISZERO PUSH2 0x184 JUMPI PUSH1 0x0 DUP1 REVERT JUMPDEST POP GAS STATICCALL ISZERO DUP1 ISZERO PUSH2 0x198 JUMPI RETURNDATASIZE PUSH1 0x0 DUP1 RETURNDATACOPY RETURNDATASIZE PUSH1 0x0 REVERT JUMPDEST POP POP POP POP PUSH1 0x40 MLOAD RETURNDATASIZE PUSH1 0x1F NOT PUSH1 0x1F DUP3 ADD AND DUP3 ADD DUP1 PUSH1 0x40 MSTORE POP DUP2 ADD SWAP1 PUSH2 0x1BC SWAP2 SWAP1 PUSH2 0x377 JUMP JUMPDEST SWAP2 POP SWAP2 POP SWAP1 SWAP2 JUMP JUMPDEST POP POP JUMP JUMPDEST PUSH1 0x0 PUSH2 0x1DB PUSH2 0x1D6 DUP5 PUSH2 0x441 JUMP JUMPDEST PUSH2 0x41C JUMP JUMPDEST SWAP1 POP DUP3 DUP2 MSTORE PUSH1 0x20 DUP2 ADD DUP5 DUP5 DUP5 ADD GT ISZERO PUSH2 0x1F7 JUMPI PUSH2 0x1F6 PUSH2 0x53F JUMP JUMPDEST JUMPDEST PUSH2 0x202 DUP5 DUP3 DUP6 PUSH2 0x498 JUMP JUMPDEST POP SWAP4 SWAP3 POP POP POP JUMP JUMPDEST PUSH1 0x0 PUSH2 0x21D PUSH2 0x218 DUP5 PUSH2 0x441 JUMP JUMPDEST PUSH2 0x41C JUMP JUMPDEST SWAP1 POP DUP3 DUP2 MSTORE PUSH1 0x20 DUP2 ADD DUP5 DUP5 DUP5 ADD GT ISZERO PUSH2 0x239 JUMPI PUSH2 0x238 PUSH2 0x53F JUMP JUMPDEST JUMPDEST PUSH2 0x244 DUP5 DUP3 DUP6 PUSH2 0x4A7 JUMP JUMPDEST POP SWAP4 SWAP3 POP POP POP JUMP JUMPDEST PUSH1 0x0 DUP3 PUSH1 0x1F DUP4 ADD SLT PUSH2 0x261 JUMPI PUSH2 0x260 PUSH2 0x53A JUMP JUMPDEST JUMPDEST DUP2 CALLDATALOAD PUSH2 0x271 DUP5 DUP3 PUSH1 0x20 DUP7 ADD PUSH2 0x1C8 JUMP JUMPDEST SWAP2 POP POP SWAP3 SWAP2 POP POP JUMP JUMPDEST PUSH1 0x0 DUP3 PUSH1 0x1F DUP4 ADD SLT PUSH2 0x28F JUMPI PUSH2 0x28E PUSH2 0x53A JUMP JUMPDEST JUMPDEST DUP2 MLOAD PUSH2 0x29F DUP5 DUP3 PUSH1 0x20 DUP7 ADD PUSH2 0x20A JUMP JUMPDEST SWAP2 POP POP SWAP3 SWAP2 POP POP JUMP JUMPDEST PUSH1 0x0 DUP2 CALLDATALOAD SWAP1 POP PUSH2 0x2B7 DUP2 PUSH2 0x55F JUMP JUMPDEST SWAP3 SWAP2 POP POP JUMP JUMPDEST PUSH1 0x0 DUP2 MLOAD SWAP1 POP PUSH2 0x2CC DUP2 PUSH2 0x55F JUMP JUMPDEST SWAP3 SWAP2 POP POP JUMP JUMPDEST PUSH1 0x0 PUSH1 0x20 DUP3 DUP5 SUB SLT ISZERO PUSH2 0x2E8 JUMPI PUSH2 0x2E7 PUSH2 0x549 JUMP JUMPDEST JUMPDEST PUSH1 0x0 DUP3 ADD MLOAD PUSH8 0xFFFFFFFFFFFFFFFF DUP2 GT ISZERO PUSH2 0x306 JUMPI PUSH2 0x305 PUSH2 0x544 JUMP JUMPDEST JUMPDEST PUSH2 0x312 DUP5 DUP3 DUP6 ADD PUSH2 0x27A JUMP JUMPDEST SWAP2 POP POP SWAP3 SWAP2 POP POP JUMP JUMPDEST PUSH1 0x0 DUP1 PUSH1 0x40 DUP4 DUP6 SUB SLT ISZERO PUSH2 0x332 JUMPI PUSH2 0x331 PUSH2 0x549 JUMP JUMPDEST JUMPDEST PUSH1 0x0 DUP4 ADD CALLDATALOAD PUSH8 0xFFFFFFFFFFFFFFFF DUP2 GT ISZERO PUSH2 0x350 JUMPI PUSH2 0x34F PUSH2 0x544 JUMP JUMPDEST JUMPDEST PUSH2 0x35C DUP6 DUP3 DUP7 ADD PUSH2 0x24C JUMP JUMPDEST SWAP3 POP POP PUSH1 0x20 PUSH2 0x36D DUP6 DUP3 DUP7 ADD PUSH2 0x2A8 JUMP JUMPDEST SWAP2 POP POP SWAP3 POP SWAP3 SWAP1 POP JUMP JUMPDEST PUSH1 0x0 PUSH1 0x20 DUP3 DUP5 SUB SLT ISZERO PUSH2 0x38D JUMPI PUSH2 0x38C PUSH2 0x549 JUMP JUMPDEST JUMPDEST PUSH1 0x0 PUSH2 0x39B DUP5 DUP3 DUP6 ADD PUSH2 0x2BD JUMP JUMPDEST SWAP2 POP POP SWAP3 SWAP2 POP POP JUMP JUMPDEST PUSH1 0x0 PUSH2 0x3AF DUP3 PUSH2 0x472 JUMP JUMPDEST PUSH2 0x3B9 DUP2 DUP6 PUSH2 0x47D JUMP JUMPDEST SWAP4 POP PUSH2 0x3C9 DUP2 DUP6 PUSH1 0x20 DUP7 ADD PUSH2 0x4A7 JUMP JUMPDEST PUSH2 0x3D2 DUP2 PUSH2 0x54E JUMP JUMPDEST DUP5 ADD SWAP2 POP POP SWAP3 SWAP2 POP POP JUMP JUMPDEST PUSH2 0x3E6 DUP2 PUSH2 0x48E JUMP JUMPDEST DUP3 MSTORE POP POP JUMP JUMPDEST PUSH1 0x0 PUSH1 0x40 DUP3 ADD SWAP1 POP DUP2 DUP2 SUB PUSH1 0x0 DUP4 ADD MSTORE PUSH2 0x406 DUP2 DUP6 PUSH2 0x3A4 JUMP JUMPDEST SWAP1 POP PUSH2 0x415 PUSH1 0x20 DUP4 ADD DUP5 PUSH2 0x3DD JUMP JUMPDEST SWAP4 SWAP3 POP POP POP JUMP JUMPDEST PUSH1 0x0 PUSH2 0x426 PUSH2 0x437 JUMP JUMPDEST SWAP1 POP PUSH2 0x432 DUP3 DUP3 PUSH2 0x4DA JUMP JUMPDEST SWAP2 SWAP1 POP JUMP JUMPDEST PUSH1 0x0 PUSH1 0x40 MLOAD SWAP1 POP SWAP1 JUMP JUMPDEST PUSH1 0x0 PUSH8 0xFFFFFFFFFFFFFFFF DUP3 GT ISZERO PUSH2 0x45C JUMPI PUSH2 0x45B PUSH2 0x50B JUMP JUMPDEST JUMPDEST PUSH2 0x465 DUP3 PUSH2 0x54E JUMP JUMPDEST SWAP1 POP PUSH1 0x20 DUP2 ADD SWAP1 POP SWAP2 SWAP1 POP JUMP JUMPDEST PUSH1 0x0 DUP2 MLOAD SWAP1 POP SWAP2 SWAP1 POP JUMP JUMPDEST PUSH1 0x0 DUP3 DUP3 MSTORE PUSH1 0x20 DUP3 ADD SWAP1 POP SWAP3 SWAP2 POP POP JUMP JUMPDEST PUSH1 0x0 DUP2 SWAP1 POP SWAP2 SWAP1 POP JUMP JUMPDEST DUP3 DUP2 DUP4 CALLDATACOPY PUSH1 0x0 DUP4 DUP4 ADD MSTORE POP POP POP JUMP JUMPDEST PUSH1 0x0 JUMPDEST DUP4 DUP2 LT ISZERO PUSH2 0x4C5 JUMPI DUP1 DUP3 ADD MLOAD DUP2 DUP5 ADD MSTORE PUSH1 0x20 DUP2 ADD SWAP1 POP PUSH2 0x4AA JUMP JUMPDEST DUP4 DUP2 GT ISZERO PUSH2 0x4D4 JUMPI PUSH1 0x0 DUP5 DUP5 ADD MSTORE JUMPDEST POP POP POP POP JUMP JUMPDEST PUSH2 0x4E3 DUP3 PUSH2 0x54E JUMP JUMPDEST DUP2 ADD DUP2 DUP2 LT PUSH8 0xFFFFFFFFFFFFFFFF DUP3 GT OR ISZERO PUSH2 0x502 JUMPI PUSH2 0x501 PUSH2 0x50B JUMP JUMPDEST JUMPDEST DUP1 PUSH1 0x40 MSTORE POP POP POP JUMP JUMPDEST PUSH32 0x4E487B7100000000000000000000000000000000000000000000000000000000 PUSH1 0x0 MSTORE PUSH1 0x41 PUSH1 0x4 MSTORE PUSH1 0x24 PUSH1 0x0 REVERT JUMPDEST PUSH1 0x0 DUP1 REVERT JUMPDEST PUSH1 0x0 DUP1 REVERT JUMPDEST PUSH1 0x0 DUP1 REVERT JUMPDEST PUSH1 0x0 DUP1 REVERT JUMPDEST PUSH1 0x0 PUSH1 0x1F NOT PUSH1 0x1F DUP4 ADD AND SWAP1 POP SWAP2 SWAP1 POP JUMP JUMPDEST PUSH2 0x568 DUP2 PUSH2 0x48E JUMP JUMPDEST DUP2 EQ PUSH2 0x573 JUMPI PUSH1 0x0 DUP1 REVERT JUMPDEST POP JUMP INVALID LOG2 PUSH5 0x6970667358 0x22 SLT KECCAK256 0xBA PUSH17 0xB77E016393307DD5320E6831C0B237111 PUSH11 0x60120730C96403FBE26BB9 0xE8 PUSH5 0x736F6C6343 STOP ADDMOD SMOD STOP CALLER PUSH1 0x80 PUSH1 0x40 MSTORE CALLVALUE DUP1 ISZERO PUSH3 0x11 JUMPI PUSH1 0x0 DUP1 REVERT JUMPDEST POP PUSH1 0x40 MLOAD PUSH3 0x910 CODESIZE SUB DUP1 PUSH3 0x910 DUP4 CODECOPY DUP2 DUP2 ADD PUSH1 0x40 MSTORE DUP2 ADD SWAP1 PUSH3 0x37 SWAP2 SWAP1 PUSH3 0x1A4 JUMP JUMPDEST DUP2 PUSH1 0x0 SWAP1 DUP1 MLOAD SWAP1 PUSH1 0x20 ADD SWAP1 PUSH3 0x4F SWAP3 SWAP2 SWAP1 PUSH3 0x5F JUMP JUMPDEST POP DUP1 PUSH1 0x1 DUP2 SWAP1 SSTORE POP POP POP PUSH3 0x3B2 JUMP JUMPDEST DUP3 DUP1 SLOAD PUSH3 0x6D SWAP1 PUSH3 0x2A9 JUMP JUMPDEST SWAP1 PUSH1 0x0 MSTORE PUSH1 0x20 PUSH1 0x0 KECCAK256 SWAP1 PUSH1 0x1F ADD PUSH1 0x20 SWAP1 DIV DUP2 ADD SWAP3 DUP3 PUSH3 0x91 JUMPI PUSH1 0x0 DUP6 SSTORE PUSH3 0xDD JUMP JUMPDEST DUP3 PUSH1 0x1F LT PUSH3 0xAC JUMPI DUP1 MLOAD PUSH1 0xFF NOT AND DUP4 DUP1 ADD OR DUP6 SSTORE PUSH3 0xDD JUMP JUMPDEST DUP3 DUP1 ADD PUSH1 0x1 ADD DUP6 SSTORE DUP3 ISZERO PUSH3 0xDD JUMPI SWAP2 DUP3 ADD JUMPDEST DUP3 DUP2 GT ISZERO PUSH3 0xDC JUMPI DUP3 MLOAD DUP3 SSTORE SWAP2 PUSH1 0x20 ADD SWAP2 SWAP1 PUSH1 0x1 ADD SWAP1 PUSH3 0xBF JUMP JUMPDEST JUMPDEST POP SWAP1 POP PUSH3 0xEC SWAP2 SWAP1 PUSH3 0xF0 JUMP JUMPDEST POP SWAP1 JUMP JUMPDEST JUMPDEST DUP1 DUP3 GT ISZERO PUSH3 0x10B JUMPI PUSH1 0x0 DUP2 PUSH1 0x0 SWAP1 SSTORE POP PUSH1 0x1 ADD PUSH3 0xF1 JUMP JUMPDEST POP SWAP1 JUMP JUMPDEST PUSH1 0x0 PUSH3 0x126 PUSH3 0x120 DUP5 PUSH3 0x233 JUMP JUMPDEST PUSH3 0x20A JUMP JUMPDEST SWAP1 POP DUP3 DUP2 MSTORE PUSH1 0x20 DUP2 ADD DUP5 DUP5 DUP5 ADD GT ISZERO PUSH3 0x145 JUMPI PUSH3 0x144 PUSH3 0x378 JUMP JUMPDEST JUMPDEST PUSH3 0x152 DUP5 DUP3 DUP6 PUSH3 0x273 JUMP JUMPDEST POP SWAP4 SWAP3 POP POP POP JUMP JUMPDEST PUSH1 0x0 DUP3 PUSH1 0x1F DUP4 ADD SLT PUSH3 0x172 JUMPI PUSH3 0x171 PUSH3 0x373 JUMP JUMPDEST JUMPDEST DUP2 MLOAD PUSH3 0x184 DUP5 DUP3 PUSH1 0x20 DUP7 ADD PUSH3 0x10F JUMP JUMPDEST SWAP2 POP POP SWAP3 SWAP2 POP POP JUMP JUMPDEST PUSH1 0x0 DUP2 MLOAD SWAP1 POP PUSH3 0x19E DUP2 PUSH3 0x398 JUMP JUMPDEST SWAP3 SWAP2 POP POP JUMP JUMPDEST PUSH1 0x0 DUP1 PUSH1 0x40 DUP4 DUP6 SUB SLT ISZERO PUSH3 0x1BE JUMPI PUSH3 0x1BD PUSH3 0x382 JUMP JUMPDEST JUMPDEST PUSH1 0x0 DUP4 ADD MLOAD PUSH8 0xFFFFFFFFFFFFFFFF DUP2 GT ISZERO PUSH3 0x1DF JUMPI PUSH3 0x1DE PUSH3 0x37D JUMP JUMPDEST JUMPDEST PUSH3 0x1ED DUP6 DUP3 DUP7 ADD PUSH3 0x15A JUMP JUMPDEST SWAP3 POP POP PUSH1 0x20 PUSH3 0x200 DUP6 DUP3 DUP7 ADD PUSH3 0x18D JUMP JUMPDEST SWAP2 POP POP SWAP3 POP SWAP3 SWAP1 POP JUMP JUMPDEST PUSH1 0x0 PUSH3 0x216 PUSH3 0x229 JUMP JUMPDEST SWAP1 POP PUSH3 0x224 DUP3 DUP3 PUSH3 0x2DF JUMP JUMPDEST SWAP2 SWAP1 POP JUMP JUMPDEST PUSH1 0x0 PUSH1 0x40 MLOAD SWAP1 POP SWAP1 JUMP JUMPDEST PUSH1 0x0 PUSH8 0xFFFFFFFFFFFFFFFF DUP3 GT ISZERO PUSH3 0x251 JUMPI PUSH3 0x250 PUSH3 0x344 JUMP JUMPDEST JUMPDEST PUSH3 0x25C DUP3 PUSH3 0x387 JUMP JUMPDEST SWAP1 POP PUSH1 0x20 DUP2 ADD SWAP1 POP SWAP2 SWAP1 POP JUMP JUMPDEST PUSH1 0x0 DUP2 SWAP1 POP SWAP2 SWAP1 POP JUMP JUMPDEST PUSH1 0x0 JUMPDEST DUP4 DUP2 LT ISZERO PUSH3 0x293 JUMPI DUP1 DUP3 ADD MLOAD DUP2 DUP5 ADD MSTORE PUSH1 0x20 DUP2 ADD SWAP1 POP PUSH3 0x276 JUMP JUMPDEST DUP4 DUP2 GT ISZERO PUSH3 0x2A3 JUMPI PUSH1 0x0 DUP5 DUP5 ADD MSTORE JUMPDEST POP POP POP POP JUMP JUMPDEST PUSH1 0x0 PUSH1 0x2 DUP3 DIV SWAP1 POP PUSH1 0x1 DUP3 AND DUP1 PUSH3 0x2C2 JUMPI PUSH1 0x7F DUP3 AND SWAP2 POP JUMPDEST PUSH1 0x20 DUP3 LT DUP2 EQ ISZERO PUSH3 0x2D9 JUMPI PUSH3 0x2D8 PUSH3 0x315 JUMP JUMPDEST JUMPDEST POP SWAP2 SWAP1 POP JUMP JUMPDEST PUSH3 0x2EA DUP3 PUSH3 0x387 JUMP JUMPDEST DUP2 ADD DUP2 DUP2 LT PUSH8 0xFFFFFFFFFFFFFFFF DUP3 GT OR ISZERO PUSH3 0x30C JUMPI PUSH3 0x30B PUSH3 0x344 JUMP JUMPDEST JUMPDEST DUP1 PUSH1 0x40 MSTORE POP POP POP JUMP JUMPDEST PUSH32 0x4E487B7100000000000000000000000000000000000000000000000000000000 PUSH1 0x0 MSTORE PUSH1 0x22 PUSH1 0x4 MSTORE PUSH1 0x24 PUSH1 0x0 REVERT JUMPDEST PUSH32 0x4E487B7100000000000000000000000000000000000000000000000000000000 PUSH1 0x0 MSTORE PUSH1 0x41 PUSH1 0x4 MSTORE PUSH1 0x24 PUSH1 0x0 REVERT JUMPDEST PUSH1 0x0 DUP1 REVERT JUMPDEST PUSH1 0x0 DUP1 REVERT JUMPDEST PUSH1 0x0 DUP1 REVERT JUMPDEST PUSH1 0x0 DUP1 REVERT JUMPDEST PUSH1 0x0 PUSH1 0x1F NOT PUSH1 0x1F DUP4 ADD AND SWAP1 POP SWAP2 SWAP1 POP JUMP JUMPDEST PUSH3 0x3A3 DUP2 PUSH3 0x269 JUMP JUMPDEST DUP2 EQ PUSH3 0x3AF JUMPI PUSH1 0x0 DUP1 REVERT JUMPDEST POP JUMP JUMPDEST PUSH2 0x54E DUP1 PUSH3 0x3C2 PUSH1 0x0 CODECOPY PUSH1 0x0 RETURN INVALID PUSH1 0x80 PUSH1 0x40 MSTORE CALLVALUE DUP1 ISZERO PUSH2 0x10 JUMPI PUSH1 0x0 DUP1 REVERT JUMPDEST POP PUSH1 0x4 CALLDATASIZE LT PUSH2 0x41 JUMPI PUSH1 0x0 CALLDATALOAD PUSH1 0xE0 SHR DUP1 PUSH4 0x6FDDE03 EQ PUSH2 0x46 JUMPI DUP1 PUSH4 0x262A9DFF EQ PUSH2 0x64 JUMPI DUP1 PUSH4 0x6D806B1E EQ PUSH2 0x82 JUMPI JUMPDEST PUSH1 0x0 DUP1 REVERT JUMPDEST PUSH2 0x4E PUSH2 0x9E JUMP JUMPDEST PUSH1 0x40 MLOAD PUSH2 0x5B SWAP2 SWAP1 PUSH2 0x320 JUMP JUMPDEST PUSH1 0x40 MLOAD DUP1 SWAP2 SUB SWAP1 RETURN JUMPDEST PUSH2 0x6C PUSH2 0x12C JUMP JUMPDEST PUSH1 0x40 MLOAD PUSH2 0x79 SWAP2 SWAP1 PUSH2 0x342 JUMP JUMPDEST PUSH1 0x40 MLOAD DUP1 SWAP2 SUB SWAP1 RETURN JUMPDEST PUSH2 0x9C PUSH1 0x4 DUP1 CALLDATASIZE SUB DUP2 ADD SWAP1 PUSH2 0x97 SWAP2 SWAP1 PUSH2 0x27C JUMP JUMPDEST PUSH2 0x132 JUMP JUMPDEST STOP JUMPDEST PUSH1 0x0 DUP1 SLOAD PUSH2 0xAB SWAP1 PUSH2 0x41B JUMP JUMPDEST DUP1 PUSH1 0x1F ADD PUSH1 0x20 DUP1 SWAP2 DIV MUL PUSH1 0x20 ADD PUSH1 0x40 MLOAD SWAP1 DUP2 ADD PUSH1 0x40 MSTORE DUP1 SWAP3 SWAP2 SWAP1 DUP2 DUP2 MSTORE PUSH1 0x20 ADD DUP3 DUP1 SLOAD PUSH2 0xD7 SWAP1 PUSH2 0x41B JUMP JUMPDEST DUP1 ISZERO PUSH2 0x124 JUMPI DUP1 PUSH1 0x1F LT PUSH2 0xF9 JUMPI PUSH2 0x100 DUP1 DUP4 SLOAD DIV MUL DUP4 MSTORE SWAP2 PUSH1 0x20 ADD SWAP2 PUSH2 0x124 JUMP JUMPDEST DUP3 ADD SWAP2 SWAP1 PUSH1 0x0 MSTORE PUSH1 0x20 PUSH1 0x0 KECCAK256 SWAP1 JUMPDEST DUP2 SLOAD DUP2 MSTORE SWAP1 PUSH1 0x1 ADD SWAP1 PUSH1 0x20 ADD DUP1 DUP4 GT PUSH2 0x107 JUMPI DUP3 SWAP1 SUB PUSH1 0x1F AND DUP3 ADD SWAP2 JUMPDEST POP POP POP POP POP DUP2 JUMP JUMPDEST PUSH1 0x1 SLOAD DUP2 JUMP JUMPDEST DUP2 PUSH1 0x0 SWAP1 DUP1 MLOAD SWAP1 PUSH1 0x20 ADD SWAP1 PUSH2 0x148 SWAP3 SWAP2 SWAP1 PUSH2 0x154 JUMP JUMPDEST POP DUP1 PUSH1 0x1 DUP2 SWAP1 SSTORE POP POP POP JUMP JUMPDEST DUP3 DUP1 SLOAD PUSH2 0x160 SWAP1 PUSH2 0x41B JUMP JUMPDEST SWAP1 PUSH1 0x0 MSTORE PUSH1 0x20 PUSH1 0x0 KECCAK256 SWAP1 PUSH1 0x1F ADD PUSH1 0x20 SWAP1 DIV DUP2 ADD SWAP3 DUP3 PUSH2 0x182 JUMPI PUSH1 0x0 DUP6 SSTORE PUSH2 0x1C9 JUMP JUMPDEST DUP3 PUSH1 0x1F LT PUSH2 0x19B JUMPI DUP1 MLOAD PUSH1 0xFF NOT AND DUP4 DUP1 ADD OR DUP6 SSTORE PUSH2 0x1C9 JUMP JUMPDEST DUP3 DUP1 ADD PUSH1 0x1 ADD DUP6 SSTORE DUP3 ISZERO PUSH2 0x1C9 JUMPI SWAP2 DUP3 ADD JUMPDEST DUP3 DUP2 GT ISZERO PUSH2 0x1C8 JUMPI DUP3 MLOAD DUP3 SSTORE SWAP2 PUSH1 0x20 ADD SWAP2 SWAP1 PUSH1 0x1 ADD SWAP1 PUSH2 0x1AD JUMP JUMPDEST JUMPDEST POP SWAP1 POP PUSH2 0x1D6 SWAP2 SWAP1 PUSH2 0x1DA JUMP JUMPDEST POP SWAP1 JUMP JUMPDEST JUMPDEST DUP1 DUP3 GT ISZERO PUSH2 0x1F3 JUMPI PUSH1 0x0 DUP2 PUSH1 0x0 SWAP1 SSTORE POP PUSH1 0x1 ADD PUSH2 0x1DB JUMP JUMPDEST POP SWAP1 JUMP JUMPDEST PUSH1 0x0 PUSH2 0x20A PUSH2 0x205 DUP5 PUSH2 0x382 JUMP JUMPDEST PUSH2 0x35D JUMP JUMPDEST SWAP1 POP DUP3 DUP2 MSTORE PUSH1 0x20 DUP2 ADD DUP5 DUP5 DUP5 ADD GT ISZERO PUSH2 0x226 JUMPI PUSH2 0x225 PUSH2 0x4E1 JUMP JUMPDEST JUMPDEST PUSH2 0x231 DUP5 DUP3 DUP6 PUSH2 0x3D9 JUMP JUMPDEST POP SWAP4 SWAP3 POP POP POP JUMP JUMPDEST PUSH1 0x0 DUP3 PUSH1 0x1F DUP4 ADD SLT PUSH2 0x24E JUMPI PUSH2 0x24D PUSH2 0x4DC JUMP JUMPDEST JUMPDEST DUP2 CALLDATALOAD PUSH2 0x25E DUP5 DUP3 PUSH1 0x20 DUP7 ADD PUSH2 0x1F7 JUMP JUMPDEST SWAP2 POP POP SWAP3 SWAP2 POP POP JUMP JUMPDEST PUSH1 0x0 DUP2 CALLDATALOAD SWAP1 POP PUSH2 0x276 DUP2 PUSH2 0x501 JUMP JUMPDEST SWAP3 SWAP2 POP POP JUMP JUMPDEST PUSH1 0x0 DUP1 PUSH1 0x40 DUP4 DUP6 SUB SLT ISZERO PUSH2 0x293 JUMPI PUSH2 0x292 PUSH2 0x4EB JUMP JUMPDEST JUMPDEST PUSH1 0x0 DUP4 ADD CALLDATALOAD PUSH8 0xFFFFFFFFFFFFFFFF DUP2 GT ISZERO PUSH2 0x2B1 JUMPI PUSH2 0x2B0 PUSH2 0x4E6 JUMP JUMPDEST JUMPDEST PUSH2 0x2BD DUP6 DUP3 DUP7 ADD PUSH2 0x239 JUMP JUMPDEST SWAP3 POP POP PUSH1 0x20 PUSH2 0x2CE DUP6 DUP3 DUP7 ADD PUSH2 0x267 JUMP JUMPDEST SWAP2 POP POP SWAP3 POP SWAP3 SWAP1 POP JUMP JUMPDEST PUSH1 0x0 PUSH2 0x2E3 DUP3 PUSH2 0x3B3 JUMP JUMPDEST PUSH2 0x2ED DUP2 DUP6 PUSH2 0x3BE JUMP JUMPDEST SWAP4 POP PUSH2 0x2FD DUP2 DUP6 PUSH1 0x20 DUP7 ADD PUSH2 0x3E8 JUMP JUMPDEST PUSH2 0x306 DUP2 PUSH2 0x4F0 JUMP JUMPDEST DUP5 ADD SWAP2 POP POP SWAP3 SWAP2 POP POP JUMP JUMPDEST PUSH2 0x31A DUP2 PUSH2 0x3CF JUMP JUMPDEST DUP3 MSTORE POP POP JUMP JUMPDEST PUSH1 0x0 PUSH1 0x20 DUP3 ADD SWAP1 POP DUP2 DUP2 SUB PUSH1 0x0 DUP4 ADD MSTORE PUSH2 0x33A DUP2 DUP5 PUSH2 0x2D8 JUMP JUMPDEST SWAP1 POP SWAP3 SWAP2 POP POP JUMP JUMPDEST PUSH1 0x0 PUSH1 0x20 DUP3 ADD SWAP1 POP PUSH2 0x357 PUSH1 0x0 DUP4 ADD DUP5 PUSH2 0x311 JUMP JUMPDEST SWAP3 SWAP2 POP POP JUMP JUMPDEST PUSH1 0x0 PUSH2 0x367 PUSH2 0x378 JUMP JUMPDEST SWAP1 POP PUSH2 0x373 DUP3 DUP3 PUSH2 0x44D JUMP JUMPDEST SWAP2 SWAP1 POP JUMP JUMPDEST PUSH1 0x0 PUSH1 0x40 MLOAD SWAP1 POP SWAP1 JUMP JUMPDEST PUSH1 0x0 PUSH8 0xFFFFFFFFFFFFFFFF DUP3 GT ISZERO PUSH2 0x39D JUMPI PUSH2 0x39C PUSH2 0x4AD JUMP JUMPDEST JUMPDEST PUSH2 0x3A6 DUP3 PUSH2 0x4F0 JUMP JUMPDEST SWAP1 POP PUSH1 0x20 DUP2 ADD SWAP1 POP SWAP2 SWAP1 POP JUMP JUMPDEST PUSH1 0x0 DUP2 MLOAD SWAP1 POP SWAP2 SWAP1 POP JUMP JUMPDEST PUSH1 0x0 DUP3 DUP3 MSTORE PUSH1 0x20 DUP3 ADD SWAP1 POP SWAP3 SWAP2 POP POP JUMP JUMPDEST PUSH1 0x0 DUP2 SWAP1 POP SWAP2 SWAP1 POP JUMP JUMPDEST DUP3 DUP2 DUP4 CALLDATACOPY PUSH1 0x0 DUP4 DUP4 ADD MSTORE POP POP POP JUMP JUMPDEST PUSH1 0x0 JUMPDEST DUP4 DUP2 LT ISZERO PUSH2 0x406 JUMPI DUP1 DUP3 ADD MLOAD DUP2 DUP5 ADD MSTORE PUSH1 0x20 DUP2 ADD SWAP1 POP PUSH2 0x3EB JUMP JUMPDEST DUP4 DUP2 GT ISZERO PUSH2 0x415 JUMPI PUSH1 0x0 DUP5 DUP5 ADD MSTORE JUMPDEST POP POP POP POP JUMP JUMPDEST PUSH1 0x0 PUSH1 0x2 DUP3 DIV SWAP1 POP PUSH1 0x1 DUP3 AND DUP1 PUSH2 0x433 JUMPI PUSH1 0x7F DUP3 AND SWAP2 POP JUMPDEST PUSH1 0x20 DUP3 LT DUP2 EQ ISZERO PUSH2 0x447 JUMPI PUSH2 0x446 PUSH2 0x47E JUMP JUMPDEST JUMPDEST POP SWAP2 SWAP1 POP JUMP JUMPDEST PUSH2 0x456 DUP3 PUSH2 0x4F0 JUMP JUMPDEST DUP2 ADD DUP2 DUP2 LT PUSH8 0xFFFFFFFFFFFFFFFF DUP3 GT OR ISZERO PUSH2 0x475 JUMPI PUSH2 0x474 PUSH2 0x4AD JUMP JUMPDEST JUMPDEST DUP1 PUSH1 0x40 MSTORE POP POP POP JUMP JUMPDEST PUSH32 0x4E487B7100000000000000000000000000000000000000000000000000000000 PUSH1 0x0 MSTORE PUSH1 0x22 PUSH1 0x4 MSTORE PUSH1 0x24 PUSH1 0x0 REVERT JUMPDEST PUSH32 0x4E487B7100000000000000000000000000000000000000000000000000000000 PUSH1 0x0 MSTORE PUSH1 0x41 PUSH1 0x4 MSTORE PUSH1 0x24 PUSH1 0x0 REVERT JUMPDEST PUSH1 0x0 DUP1 REVERT JUMPDEST PUSH1 0x0 DUP1 REVERT JUMPDEST PUSH1 0x0 DUP1 REVERT JUMPDEST PUSH1 0x0 DUP1 REVERT JUMPDEST PUSH1 0x0 PUSH1 0x1F NOT PUSH1 0x1F DUP4 ADD AND SWAP1 POP SWAP2 SWAP1 POP JUMP JUMPDEST PUSH2 0x50A DUP2 PUSH2 0x3CF JUMP JUMPDEST DUP2 EQ PUSH2 0x515 JUMPI PUSH1 0x0 DUP1 REVERT JUMPDEST POP JUMP INVALID LOG2 PUSH5 0x6970667358 0x22 SLT KECCAK256 PUSH12 0x61FB99AD66B27246568941C5 REVERT 0x2B MUL 0x4E INVALID CODESIZE REVERT 0xD0 DUP4 0xC LOG2 CODECOPY 0xCB 0xCD 0xD3 0x22 SDIV CALLER SWAP7 PUSH5 0x736F6C6343 STOP ADDMOD SMOD STOP CALLER "
				},
				"gasEstimates": {
					"creation": {
						"codeDepositCost": "290400",
						"executionCost": "infinite",
						"totalCost": "infinite"
					},
					"external": {
						"change(string,uint256)": "infinite",
						"get()": "infinite"
					}
				},
				"methodIdentifiers": {
					"change(string,uint256)": "6d806b1e",
					"get()": "6d4ce63c"
				}
			},
			"storageLayout": {
				"storage": [
					{
						"astId": 47,
						"contract": "lecture/lec9.sol:B",
						"label": "instance",
						"offset": 0,
						"slot": "0",
						"type": "t_contract(A)38"
					}
				],
				"types": {
					"t_contract(A)38": {
						"encoding": "inplace",
						"label": "contract A",
						"numberOfBytes": "20"
					}
				}
			},
			"userdoc": {
				"kind": "user",
				"methods": {},
				"version": 1
			}
		}
	}
}